{
  "_format": "hh-sol-artifact-1",
  "contractName": "SimpleStorage",
  "sourceName": "contracts/SimpleStorageL1.sol",
  "abi": [
    {
      "inputs": [
        {
          "internalType": "contract IInbox",
          "name": "_inbox",
          "type": "address"
        }
      ],
      "stateMutability": "nonpayable",
      "type": "constructor"
    },
    {
      "anonymous": false,
      "inputs": [
        {
          "indexed": true,
          "internalType": "uint256",
          "name": "ticketId",
          "type": "uint256"
        }
      ],
      "name": "RetryableTicketCreated",
      "type": "event"
    },
    {
      "inputs": [],
      "name": "inbox",
      "outputs": [
        {
          "internalType": "contract IInbox",
          "name": "",
          "type": "address"
        }
      ],
      "stateMutability": "view",
      "type": "function"
    },
    {
      "inputs": [],
      "name": "l2Target",
      "outputs": [
        {
          "internalType": "address",
          "name": "",
          "type": "address"
        }
      ],
      "stateMutability": "view",
      "type": "function"
    },
    {
      "inputs": [
        {
          "internalType": "string",
          "name": "messageToL2",
          "type": "string"
        },
        {
          "internalType": "uint256",
          "name": "maxSubmissionCost",
          "type": "uint256"
        },
        {
          "internalType": "uint256",
          "name": "maxGas",
          "type": "uint256"
        },
        {
          "internalType": "uint256",
          "name": "gasPriceBid",
          "type": "uint256"
        }
      ],
      "name": "sendTxToL2",
      "outputs": [
        {
          "internalType": "uint256",
          "name": "",
          "type": "uint256"
        }
      ],
      "stateMutability": "payable",
      "type": "function"
    },
    {
      "inputs": [
        {
          "internalType": "string",
          "name": "message",
          "type": "string"
        }
      ],
      "name": "setMessage",
      "outputs": [],
      "stateMutability": "nonpayable",
      "type": "function"
    },
    {
      "inputs": [],
      "name": "storageData",
      "outputs": [
        {
          "internalType": "string",
          "name": "message",
          "type": "string"
        },
        {
          "internalType": "address",
          "name": "caller",
          "type": "address"
        }
      ],
      "stateMutability": "view",
      "type": "function"
    },
    {
      "inputs": [
        {
          "internalType": "address",
          "name": "_l2Target",
          "type": "address"
        }
      ],
      "name": "updateL2Target",
      "outputs": [],
      "stateMutability": "nonpayable",
      "type": "function"
    }
  ],
  "bytecode": "0x608060405234801561001057600080fd5b5060405161079f38038061079f83398101604081905261002f91610054565b600180546001600160a01b0319166001600160a01b0392909216919091179055610084565b60006020828403121561006657600080fd5b81516001600160a01b038116811461007d57600080fd5b9392505050565b61070c806100936000396000f3fe6080604052600436106100555760003560e01c806318e953241461005a578063368b877214610099578063586fcfeb146100b95780639939102c146100e5578063c2b530d614610106578063fb0e722b1461013e575b600080fd5b34801561006657600080fd5b50610097610075366004610332565b600080546001600160a01b0319166001600160a01b0392909216919091179055565b005b3480156100a557600080fd5b506100976100b4366004610405565b61015e565b3480156100c557600080fd5b506100ce610180565b6040516100dc929190610488565b60405180910390f35b6100f86100f33660046104b2565b610221565b6040519081526020016100dc565b34801561011257600080fd5b50600054610126906001600160a01b031681565b6040516001600160a01b0390911681526020016100dc565b34801561014a57600080fd5b50600154610126906001600160a01b031681565b600380546001600160a01b03191633179055600261017c828261058f565b5050565b60028054819061018f90610506565b80601f01602080910402602001604051908101604052809291908181526020018280546101bb90610506565b80156102085780601f106101dd57610100808354040283529160200191610208565b820191906000526020600020905b8154815290600101906020018083116101eb57829003601f168201915b505050600190930154919250506001600160a01b031682565b60008063368b877260e01b8660405160240161023d919061064f565b60408051601f198184030181529181526020820180516001600160e01b03166001600160e01b03199094169390931790925260015460008054935163679b6ded60e01b8152929450926001600160a01b039182169263679b6ded9234926102b79291169086908c90339081908e908e908d90600401610662565b60206040518083038185885af11580156102d5573d6000803e3d6000fd5b50505050506040513d601f19601f820116820180604052508101906102fa91906106bd565b60405190915081907fde92b5b7839f4a2c640f5e3bbb66d415458dadc57a487b0c7fa562ed7c9c896f90600090a29695505050505050565b60006020828403121561034457600080fd5b81356001600160a01b038116811461035b57600080fd5b9392505050565b634e487b7160e01b600052604160045260246000fd5b600082601f83011261038957600080fd5b813567ffffffffffffffff808211156103a4576103a4610362565b604051601f8301601f19908116603f011681019082821181831017156103cc576103cc610362565b816040528381528660208588010111156103e557600080fd5b836020870160208301376000602085830101528094505050505092915050565b60006020828403121561041757600080fd5b813567ffffffffffffffff81111561042e57600080fd5b61043a84828501610378565b949350505050565b6000815180845260005b818110156104685760208185018101518683018201520161044c565b506000602082860101526020601f19601f83011685010191505092915050565b60408152600061049b6040830185610442565b905060018060a01b03831660208301529392505050565b600080600080608085870312156104c857600080fd5b843567ffffffffffffffff8111156104df57600080fd5b6104eb87828801610378565b97602087013597506040870135966060013595509350505050565b600181811c9082168061051a57607f821691505b60208210810361053a57634e487b7160e01b600052602260045260246000fd5b50919050565b601f82111561058a57600081815260208120601f850160051c810160208610156105675750805b601f850160051c820191505b8181101561058657828155600101610573565b5050505b505050565b815167ffffffffffffffff8111156105a9576105a9610362565b6105bd816105b78454610506565b84610540565b602080601f8311600181146105f257600084156105da5750858301515b600019600386901b1c1916600185901b178555610586565b600085815260208120601f198616915b8281101561062157888601518255948401946001909101908401610602565b508582101561063f5787850151600019600388901b60f8161c191681555b5050505050600190811b01905550565b60208152600061035b6020830184610442565b600061010060018060a01b03808c1684528a602085015289604085015280891660608501528088166080850152508560a08401528460c08401528060e08401526106ae81840185610442565b9b9a5050505050505050505050565b6000602082840312156106cf57600080fd5b505191905056fea2646970667358221220c4a17e1a4dbdd0a48afc5cd3e522202b50896ca9b2aa7e0907fa49bf08c1de5a64736f6c63430008140033",
  "linkReferences": {},
  "deployedLinkReferences": {}
}