{
  "_format": "hh-sol-artifact-1",
  "contractName": "Outbox",
  "sourceName": "@arbitrum/nitro-contracts/src/bridge/Outbox.sol",
  "abi": [
    {
      "inputs": [],
      "name": "AlreadyInit",
      "type": "error"
    },
    {
      "inputs": [
        {
          "internalType": "uint256",
          "name": "index",
          "type": "uint256"
        }
      ],
      "name": "AlreadySpent",
      "type": "error"
    },
    {
      "inputs": [],
      "name": "BadPostUpgradeInit",
      "type": "error"
    },
    {
      "inputs": [],
      "name": "BridgeCallFailed",
      "type": "error"
    },
    {
      "inputs": [],
      "name": "HadZeroInit",
      "type": "error"
    },
    {
      "inputs": [
        {
          "internalType": "uint256",
          "name": "actualLength",
          "type": "uint256"
        },
        {
          "internalType": "uint256",
          "name": "maxProofLength",
          "type": "uint256"
        }
      ],
      "name": "MerkleProofTooLong",
      "type": "error"
    },
    {
      "inputs": [
        {
          "internalType": "address",
          "name": "sender",
          "type": "address"
        },
        {
          "internalType": "address",
          "name": "owner",
          "type": "address"
        }
      ],
      "name": "NotOwner",
      "type": "error"
    },
    {
      "inputs": [
        {
          "internalType": "address",
          "name": "sender",
          "type": "address"
        },
        {
          "internalType": "address",
          "name": "rollup",
          "type": "address"
        }
      ],
      "name": "NotRollup",
      "type": "error"
    },
    {
      "inputs": [
        {
          "internalType": "uint256",
          "name": "index",
          "type": "uint256"
        },
        {
          "internalType": "uint256",
          "name": "maxIndex",
          "type": "uint256"
        }
      ],
      "name": "PathNotMinimal",
      "type": "error"
    },
    {
      "inputs": [
        {
          "internalType": "uint256",
          "name": "proofLength",
          "type": "uint256"
        }
      ],
      "name": "ProofTooLong",
      "type": "error"
    },
    {
      "inputs": [],
      "name": "RollupNotChanged",
      "type": "error"
    },
    {
      "inputs": [],
      "name": "SimulationOnlyEntrypoint",
      "type": "error"
    },
    {
      "inputs": [
        {
          "internalType": "bytes32",
          "name": "root",
          "type": "bytes32"
        }
      ],
      "name": "UnknownRoot",
      "type": "error"
    },
    {
      "anonymous": false,
      "inputs": [
        {
          "indexed": true,
          "internalType": "address",
          "name": "to",
          "type": "address"
        },
        {
          "indexed": true,
          "internalType": "address",
          "name": "l2Sender",
          "type": "address"
        },
        {
          "indexed": true,
          "internalType": "uint256",
          "name": "zero",
          "type": "uint256"
        },
        {
          "indexed": false,
          "internalType": "uint256",
          "name": "transactionIndex",
          "type": "uint256"
        }
      ],
      "name": "OutBoxTransactionExecuted",
      "type": "event"
    },
    {
      "anonymous": false,
      "inputs": [
        {
          "indexed": true,
          "internalType": "bytes32",
          "name": "outputRoot",
          "type": "bytes32"
        },
        {
          "indexed": true,
          "internalType": "bytes32",
          "name": "l2BlockHash",
          "type": "bytes32"
        }
      ],
      "name": "SendRootUpdated",
      "type": "event"
    },
    {
      "inputs": [],
      "name": "OUTBOX_VERSION",
      "outputs": [
        {
          "internalType": "uint128",
          "name": "",
          "type": "uint128"
        }
      ],
      "stateMutability": "view",
      "type": "function"
    },
    {
      "inputs": [],
      "name": "bridge",
      "outputs": [
        {
          "internalType": "contract IBridge",
          "name": "",
          "type": "address"
        }
      ],
      "stateMutability": "view",
      "type": "function"
    },
    {
      "inputs": [
        {
          "internalType": "address",
          "name": "l2Sender",
          "type": "address"
        },
        {
          "internalType": "address",
          "name": "to",
          "type": "address"
        },
        {
          "internalType": "uint256",
          "name": "l2Block",
          "type": "uint256"
        },
        {
          "internalType": "uint256",
          "name": "l1Block",
          "type": "uint256"
        },
        {
          "internalType": "uint256",
          "name": "l2Timestamp",
          "type": "uint256"
        },
        {
          "internalType": "uint256",
          "name": "value",
          "type": "uint256"
        },
        {
          "internalType": "bytes",
          "name": "data",
          "type": "bytes"
        }
      ],
      "name": "calculateItemHash",
      "outputs": [
        {
          "internalType": "bytes32",
          "name": "",
          "type": "bytes32"
        }
      ],
      "stateMutability": "pure",
      "type": "function"
    },
    {
      "inputs": [
        {
          "internalType": "bytes32[]",
          "name": "proof",
          "type": "bytes32[]"
        },
        {
          "internalType": "uint256",
          "name": "path",
          "type": "uint256"
        },
        {
          "internalType": "bytes32",
          "name": "item",
          "type": "bytes32"
        }
      ],
      "name": "calculateMerkleRoot",
      "outputs": [
        {
          "internalType": "bytes32",
          "name": "",
          "type": "bytes32"
        }
      ],
      "stateMutability": "pure",
      "type": "function"
    },
    {
      "inputs": [
        {
          "internalType": "bytes32[]",
          "name": "proof",
          "type": "bytes32[]"
        },
        {
          "internalType": "uint256",
          "name": "index",
          "type": "uint256"
        },
        {
          "internalType": "address",
          "name": "l2Sender",
          "type": "address"
        },
        {
          "internalType": "address",
          "name": "to",
          "type": "address"
        },
        {
          "internalType": "uint256",
          "name": "l2Block",
          "type": "uint256"
        },
        {
          "internalType": "uint256",
          "name": "l1Block",
          "type": "uint256"
        },
        {
          "internalType": "uint256",
          "name": "l2Timestamp",
          "type": "uint256"
        },
        {
          "internalType": "uint256",
          "name": "value",
          "type": "uint256"
        },
        {
          "internalType": "bytes",
          "name": "data",
          "type": "bytes"
        }
      ],
      "name": "executeTransaction",
      "outputs": [],
      "stateMutability": "nonpayable",
      "type": "function"
    },
    {
      "inputs": [
        {
          "internalType": "uint256",
          "name": "index",
          "type": "uint256"
        },
        {
          "internalType": "address",
          "name": "l2Sender",
          "type": "address"
        },
        {
          "internalType": "address",
          "name": "to",
          "type": "address"
        },
        {
          "internalType": "uint256",
          "name": "l2Block",
          "type": "uint256"
        },
        {
          "internalType": "uint256",
          "name": "l1Block",
          "type": "uint256"
        },
        {
          "internalType": "uint256",
          "name": "l2Timestamp",
          "type": "uint256"
        },
        {
          "internalType": "uint256",
          "name": "value",
          "type": "uint256"
        },
        {
          "internalType": "bytes",
          "name": "data",
          "type": "bytes"
        }
      ],
      "name": "executeTransactionSimulation",
      "outputs": [],
      "stateMutability": "nonpayable",
      "type": "function"
    },
    {
      "inputs": [
        {
          "internalType": "contract IBridge",
          "name": "_bridge",
          "type": "address"
        }
      ],
      "name": "initialize",
      "outputs": [],
      "stateMutability": "nonpayable",
      "type": "function"
    },
    {
      "inputs": [
        {
          "internalType": "uint256",
          "name": "index",
          "type": "uint256"
        }
      ],
      "name": "isSpent",
      "outputs": [
        {
          "internalType": "bool",
          "name": "",
          "type": "bool"
        }
      ],
      "stateMutability": "view",
      "type": "function"
    },
    {
      "inputs": [],
      "name": "l2ToL1BatchNum",
      "outputs": [
        {
          "internalType": "uint256",
          "name": "",
          "type": "uint256"
        }
      ],
      "stateMutability": "pure",
      "type": "function"
    },
    {
      "inputs": [],
      "name": "l2ToL1Block",
      "outputs": [
        {
          "internalType": "uint256",
          "name": "",
          "type": "uint256"
        }
      ],
      "stateMutability": "view",
      "type": "function"
    },
    {
      "inputs": [],
      "name": "l2ToL1EthBlock",
      "outputs": [
        {
          "internalType": "uint256",
          "name": "",
          "type": "uint256"
        }
      ],
      "stateMutability": "view",
      "type": "function"
    },
    {
      "inputs": [],
      "name": "l2ToL1OutputId",
      "outputs": [
        {
          "internalType": "bytes32",
          "name": "",
          "type": "bytes32"
        }
      ],
      "stateMutability": "view",
      "type": "function"
    },
    {
      "inputs": [],
      "name": "l2ToL1Sender",
      "outputs": [
        {
          "internalType": "address",
          "name": "",
          "type": "address"
        }
      ],
      "stateMutability": "view",
      "type": "function"
    },
    {
      "inputs": [],
      "name": "l2ToL1Timestamp",
      "outputs": [
        {
          "internalType": "uint256",
          "name": "",
          "type": "uint256"
        }
      ],
      "stateMutability": "view",
      "type": "function"
    },
    {
      "inputs": [],
      "name": "postUpgradeInit",
      "outputs": [],
      "stateMutability": "nonpayable",
      "type": "function"
    },
    {
      "inputs": [],
      "name": "rollup",
      "outputs": [
        {
          "internalType": "address",
          "name": "",
          "type": "address"
        }
      ],
      "stateMutability": "view",
      "type": "function"
    },
    {
      "inputs": [
        {
          "internalType": "bytes32",
          "name": "",
          "type": "bytes32"
        }
      ],
      "name": "roots",
      "outputs": [
        {
          "internalType": "bytes32",
          "name": "",
          "type": "bytes32"
        }
      ],
      "stateMutability": "view",
      "type": "function"
    },
    {
      "inputs": [
        {
          "internalType": "uint256",
          "name": "",
          "type": "uint256"
        }
      ],
      "name": "spent",
      "outputs": [
        {
          "internalType": "bytes32",
          "name": "",
          "type": "bytes32"
        }
      ],
      "stateMutability": "view",
      "type": "function"
    },
    {
      "inputs": [],
      "name": "updateRollupAddress",
      "outputs": [],
      "stateMutability": "nonpayable",
      "type": "function"
    },
    {
      "inputs": [
        {
          "internalType": "bytes32",
          "name": "root",
          "type": "bytes32"
        },
        {
          "internalType": "bytes32",
          "name": "l2BlockHash",
          "type": "bytes32"
        }
      ],
      "name": "updateSendRoot",
      "outputs": [],
      "stateMutability": "nonpayable",
      "type": "function"
    }
  ],
  "bytecode": "0x60a06040523060805234801561001457600080fd5b506080516116946100376000396000818161066a015261088a01526116946000f3fe608060405234801561001057600080fd5b506004361061012b5760003560e01c806395fcea78116100ad578063c4d66de811610071578063c4d66de81461023e578063c75184df14610251578063cb23bcb514610271578063d5b5cc2314610284578063e78cea92146102a457600080fd5b806395fcea78146101e85780639f0c04bf146101f0578063a04cee6014610203578063ae6dead714610216578063b0f305371461023657600080fd5b80635a129efe116100f45780635a129efe1461018d5780636ae71f12146101b057806372f2a8c7146101b857806380648b02146101c05780638515bc6a146101e057600080fd5b80627436d31461013057806308635a9514610156578063119852711461016b578063288e5b10146101725780634654779014610185575b600080fd5b61014361013e366004610f8a565b6102b7565b6040519081526020015b60405180910390f35b6101696101643660046110ac565b6102f4565b005b6000610143565b6101696101803660046111a1565b610367565b6101436103a2565b6101a061019b36600461123d565b6103d6565b604051901515815260200161014d565b6101696103f3565b6101436105df565b6101c86105fa565b6040516001600160a01b03909116815260200161014d565b610143610620565b610169610660565b6101436101fe366004611256565b61078f565b6101696102113660046112e5565b6107d4565b61014361022436600461123d565b60036020526000908152604090205481565b610143610853565b61016961024c366004611307565b610880565b610259600281565b6040516001600160801b03909116815260200161014d565b6000546101c8906001600160a01b031681565b61014361029236600461123d565b60026020526000908152604090205481565b6001546101c8906001600160a01b031681565b60006102ec8484846040516020016102d191815260200190565b60405160208183030381529060405280519060200120610a0f565b949350505050565b6000610306898989898989898961078f565b90506103488c8c808060200260200160405190810160405280939291908181526020018383602002808284376000920191909152508e9250859150610ab19050565b6103598a8a8a8a8a8a8a8a8a610bba565b505050505050505050505050565b331561038657604051630e13b69d60e01b815260040160405180910390fd5b610397898989898989898989610bba565b505050505050505050565b6004546000906001600160801b03166002600160801b031981016103c857600091505090565b6001600160801b0316919050565b60008060006103e484610e3e565b92509250506102ec8282610e7b565b60008054906101000a90046001600160a01b03166001600160a01b0316638da5cb5b6040518163ffffffff1660e01b8152600401602060405180830381865afa158015610444573d6000803e3d6000fd5b505050506040513d601f19601f82011682018060405250810190610468919061132b565b6001600160a01b0316336001600160a01b03161461051e5760005460408051638da5cb5b60e01b8152905133926001600160a01b031691638da5cb5b9160048083019260209291908290030181865afa1580156104c9573d6000803e3d6000fd5b505050506040513d601f19601f820116820180604052508101906104ed919061132b565b604051631194af8760e11b81526001600160a01b039283166004820152911660248201526044015b60405180910390fd5b6001546040805163cb23bcb560e01b815290516000926001600160a01b03169163cb23bcb59160048083019260209291908290030181865afa158015610568573d6000803e3d6000fd5b505050506040513d601f19601f8201168201806040525081019061058c919061132b565b6000549091506001600160a01b038083169116036105bd5760405163d054909f60e01b815260040160405180910390fd5b600080546001600160a01b0319166001600160a01b0392909216919091179055565b600554600090600181016105f557506000919050565b919050565b6006546000906001600160a01b03166002600160a01b031981016105f557600091505090565b600654600090600160a01b90046001600160601b03166bfffffffffffffffffffffffe19810161065257600091505090565b6001600160601b0316919050565b6001600160a01b037f00000000000000000000000000000000000000000000000000000000000000001630036106a85760405162461bcd60e51b815260040161051590611348565b7fb53127684a568b3173ae13b9f8a6016e243e63b6e8ee1178d6a717850b5d61038054336001600160a01b0382161461070557604051631194af8760e11b81523360048201526001600160a01b0382166024820152604401610515565b6004546001600160801b03908116146107315760405163d0afb66160e01b815260040160405180910390fd5b50506040805160c0810182526001600160801b0380825260208201526000199181018290526001600160a01b0360608201526001600160601b036080820152600060a090910181905260048290556005829055600691909155600755565b600088888888888888886040516020016107b0989796959493929190611394565b60405160208183030381529060405280519060200120905098975050505050505050565b6000546001600160a01b0316331461081457600054604051630e4cf1bf60e21b81523360048201526001600160a01b039091166024820152604401610515565b60008281526003602052604080822083905551829184917fb4df3847300f076a369cd76d2314b470a1194d9e8a6bb97f1860aee88a5f67489190a35050565b600454600090600160801b90046001600160801b03166002600160801b031981016103c857600091505090565b6001600160a01b037f00000000000000000000000000000000000000000000000000000000000000001630036108c85760405162461bcd60e51b815260040161051590611348565b6001600160a01b0381166108ef57604051631ad0f74360e01b815260040160405180910390fd5b6001546001600160a01b03161561091957604051633bcd329760e21b815260040160405180910390fd5b6040805160c0810182526001600160801b038082526020808301919091526000198284018190526001600160a01b03606084018190526001600160601b036080850152600060a090940184905260048281556005839055600692909255600793909355600180546001600160a01b0319169386169384179055835163cb23bcb560e01b81529351929363cb23bcb593818301939290918290030181865afa1580156109c8573d6000803e3d6000fd5b505050506040513d601f19601f820116820180604052508101906109ec919061132b565b600080546001600160a01b0319166001600160a01b039290921691909117905550565b8251600090610100811115610a4257604051637ed6198f60e11b8152600481018290526101006024820152604401610515565b8260005b82811015610aa7576000878281518110610a6257610a626113e8565b60200260200101519050816001901b8716600003610a8e57826000528060205260406000209250610a9e565b8060005282602052604060002092505b50600101610a46565b5095945050505050565b610100835110610ad957825160405163ab6a068360e01b815260040161051591815260200190565b8251610ae69060026114f8565b8210610b1d578183516002610afb91906114f8565b604051630b8a724b60e01b815260048101929092526024820152604401610515565b6000610b2a8484846102b7565b600081815260036020526040902054909150610b5c576040516310e61af960e31b815260048101829052602401610515565b6000806000610b6a86610e3e565b925092509250610b7a8282610e7b565b15610b9b57604051639715b8d360e01b815260048101879052602401610515565b600092835260026020526040909220600190911b909117905550505050565b6000886001600160a01b0316886001600160a01b03167f20af7f3bbfe38132b8900ae295cd9c8d1914be7052d061a511f3f728dab189648c604051610c0191815260200190565b60405180910390a4600060046040518060c00160405290816000820160009054906101000a90046001600160801b03166001600160801b03166001600160801b031681526020016000820160109054906101000a90046001600160801b03166001600160801b03166001600160801b03168152602001600182015481526020016002820160009054906101000a90046001600160a01b03166001600160a01b03166001600160a01b031681526020016002820160149054906101000a90046001600160601b03166001600160601b03166001600160601b0316815260200160038201548152505090506040518060c00160405280886001600160801b03168152602001866001600160801b031681526020018b60001b81526020018a6001600160a01b03168152602001876001600160601b03168152602001610d42600090565b905280516020808301516001600160801b03908116600160801b02921691909117600455604080830151600555606083015160808401516001600160601b0316600160a01b026001600160a01b039091161760065560a0909201516007558151601f8501829004820281018201909252838252610dde918a918791908790879081908401838280828437600092019190915250610e8a92505050565b805160208201516001600160801b03908116600160801b029116176004556040810151600555606081015160808201516001600160601b0316600160a01b026001600160a01b039091161760065560a00151600755505050505050505050565b6000808080610e4e60ff8661151a565b90506000610e5d60ff8761152e565b60008381526002602052604090205492979096509194509092505050565b80821c60011615155b92915050565b600154604051639e5d4c4960e01b815260009182916001600160a01b0390911690639e5d4c4990610ec390889088908890600401611566565b6000604051808303816000875af1158015610ee2573d6000803e3d6000fd5b505050506040513d6000823e601f3d908101601f19168201604052610f0a91908101906115af565b9150915081610f3c57805115610f235780518082602001fd5b604051631bb7daad60e11b815260040160405180910390fd5b5050505050565b634e487b7160e01b600052604160045260246000fd5b604051601f8201601f1916810167ffffffffffffffff81118282101715610f8257610f82610f43565b604052919050565b600080600060608486031215610f9f57600080fd5b833567ffffffffffffffff80821115610fb757600080fd5b818601915086601f830112610fcb57600080fd5b8135602082821115610fdf57610fdf610f43565b8160051b9250610ff0818401610f59565b828152928401810192818101908a85111561100a57600080fd5b948201945b848610156110285785358252948201949082019061100f565b9a918901359950506040909701359695505050505050565b6001600160a01b038116811461105557600080fd5b50565b80356105f581611040565b60008083601f84011261107557600080fd5b50813567ffffffffffffffff81111561108d57600080fd5b6020830191508360208285010111156110a557600080fd5b9250929050565b60008060008060008060008060008060006101208c8e0312156110ce57600080fd5b8b3567ffffffffffffffff808211156110e657600080fd5b818e0191508e601f8301126110fa57600080fd5b81358181111561110957600080fd5b8f60208260051b850101111561111e57600080fd5b60208381019e50909c508e01359a5061113960408f01611058565b995061114760608f01611058565b985060808e0135975060a08e0135965060c08e0135955060e08e013594506101008e013591508082111561117a57600080fd5b506111878e828f01611063565b915080935050809150509295989b509295989b9093969950565b60008060008060008060008060006101008a8c0312156111c057600080fd5b8935985060208a01356111d281611040565b975060408a01356111e281611040565b965060608a0135955060808a0135945060a08a0135935060c08a0135925060e08a013567ffffffffffffffff81111561121a57600080fd5b6112268c828d01611063565b915080935050809150509295985092959850929598565b60006020828403121561124f57600080fd5b5035919050565b60008060008060008060008060e0898b03121561127257600080fd5b883561127d81611040565b9750602089013561128d81611040565b965060408901359550606089013594506080890135935060a0890135925060c089013567ffffffffffffffff8111156112c557600080fd5b6112d18b828c01611063565b999c989b5096995094979396929594505050565b600080604083850312156112f857600080fd5b50508035926020909101359150565b60006020828403121561131957600080fd5b813561132481611040565b9392505050565b60006020828403121561133d57600080fd5b815161132481611040565b6020808252602c908201527f46756e6374696f6e206d7573742062652063616c6c6564207468726f7567682060408201526b19195b1959d85d1958d85b1b60a21b606082015260800190565b60006001600160601b0319808b60601b168352808a60601b16601484015250876028830152866048830152856068830152846088830152828460a8840137506000910160a801908152979650505050505050565b634e487b7160e01b600052603260045260246000fd5b634e487b7160e01b600052601160045260246000fd5b600181815b8085111561144f578160001904821115611435576114356113fe565b8085161561144257918102915b93841c9390800290611419565b509250929050565b60008261146657506001610e84565b8161147357506000610e84565b81600181146114895760028114611493576114af565b6001915050610e84565b60ff8411156114a4576114a46113fe565b50506001821b610e84565b5060208310610133831016604e8410600b84101617156114d2575081810a610e84565b6114dc8383611414565b80600019048211156114f0576114f06113fe565b029392505050565b60006113248383611457565b634e487b7160e01b600052601260045260246000fd5b60008261152957611529611504565b500490565b60008261153d5761153d611504565b500690565b60005b8381101561155d578181015183820152602001611545565b50506000910152565b60018060a01b03841681528260208201526060604082015260008251806060840152611599816080850160208701611542565b601f01601f191691909101608001949350505050565b600080604083850312156115c257600080fd5b825180151581146115d257600080fd5b602084015190925067ffffffffffffffff808211156115f057600080fd5b818501915085601f83011261160457600080fd5b81518181111561161657611616610f43565b611629601f8201601f1916602001610f59565b915080825286602082850101111561164057600080fd5b611651816020840160208601611542565b508092505050925092905056fea2646970667358221220e62f9f8792618e2533caae48e194278b3b908399695c13592db11356898cd68564736f6c63430008140033",
  "linkReferences": {},
  "deployedLinkReferences": {}
}