{
  "_format": "hh-sol-artifact-1",
  "contractName": "RollupAdminLogic",
  "sourceName": "src/rollup/RollupAdminLogic.sol",
  "abi": [
    {
      "anonymous": false,
      "inputs": [
        {
          "indexed": false,
          "internalType": "address",
          "name": "previousAdmin",
          "type": "address"
        },
        {
          "indexed": false,
          "internalType": "address",
          "name": "newAdmin",
          "type": "address"
        }
      ],
      "name": "AdminChanged",
      "type": "event"
    },
    {
      "anonymous": false,
      "inputs": [
        {
          "indexed": true,
          "internalType": "address",
          "name": "beacon",
          "type": "address"
        }
      ],
      "name": "BeaconUpgraded",
      "type": "event"
    },
    {
      "anonymous": false,
      "inputs": [
        {
          "indexed": true,
          "internalType": "uint64",
          "name": "nodeNum",
          "type": "uint64"
        },
        {
          "indexed": false,
          "internalType": "bytes32",
          "name": "blockHash",
          "type": "bytes32"
        },
        {
          "indexed": false,
          "internalType": "bytes32",
          "name": "sendRoot",
          "type": "bytes32"
        }
      ],
      "name": "NodeConfirmed",
      "type": "event"
    },
    {
      "anonymous": false,
      "inputs": [
        {
          "indexed": true,
          "internalType": "uint64",
          "name": "nodeNum",
          "type": "uint64"
        },
        {
          "indexed": true,
          "internalType": "bytes32",
          "name": "parentNodeHash",
          "type": "bytes32"
        },
        {
          "indexed": true,
          "internalType": "bytes32",
          "name": "nodeHash",
          "type": "bytes32"
        },
        {
          "indexed": false,
          "internalType": "bytes32",
          "name": "executionHash",
          "type": "bytes32"
        },
        {
          "components": [
            {
              "components": [
                {
                  "components": [
                    {
                      "internalType": "bytes32[2]",
                      "name": "bytes32Vals",
                      "type": "bytes32[2]"
                    },
                    {
                      "internalType": "uint64[2]",
                      "name": "u64Vals",
                      "type": "uint64[2]"
                    }
                  ],
                  "internalType": "struct GlobalState",
                  "name": "globalState",
                  "type": "tuple"
                },
                {
                  "internalType": "enum MachineStatus",
                  "name": "machineStatus",
                  "type": "uint8"
                }
              ],
              "internalType": "struct ExecutionState",
              "name": "beforeState",
              "type": "tuple"
            },
            {
              "components": [
                {
                  "components": [
                    {
                      "internalType": "bytes32[2]",
                      "name": "bytes32Vals",
                      "type": "bytes32[2]"
                    },
                    {
                      "internalType": "uint64[2]",
                      "name": "u64Vals",
                      "type": "uint64[2]"
                    }
                  ],
                  "internalType": "struct GlobalState",
                  "name": "globalState",
                  "type": "tuple"
                },
                {
                  "internalType": "enum MachineStatus",
                  "name": "machineStatus",
                  "type": "uint8"
                }
              ],
              "internalType": "struct ExecutionState",
              "name": "afterState",
              "type": "tuple"
            },
            {
              "internalType": "uint64",
              "name": "numBlocks",
              "type": "uint64"
            }
          ],
          "indexed": false,
          "internalType": "struct Assertion",
          "name": "assertion",
          "type": "tuple"
        },
        {
          "indexed": false,
          "internalType": "bytes32",
          "name": "afterInboxBatchAcc",
          "type": "bytes32"
        },
        {
          "indexed": false,
          "internalType": "bytes32",
          "name": "wasmModuleRoot",
          "type": "bytes32"
        },
        {
          "indexed": false,
          "internalType": "uint256",
          "name": "inboxMaxCount",
          "type": "uint256"
        }
      ],
      "name": "NodeCreated",
      "type": "event"
    },
    {
      "anonymous": false,
      "inputs": [
        {
          "indexed": true,
          "internalType": "uint64",
          "name": "nodeNum",
          "type": "uint64"
        }
      ],
      "name": "NodeRejected",
      "type": "event"
    },
    {
      "anonymous": false,
      "inputs": [
        {
          "indexed": true,
          "internalType": "uint256",
          "name": "id",
          "type": "uint256"
        }
      ],
      "name": "OwnerFunctionCalled",
      "type": "event"
    },
    {
      "anonymous": false,
      "inputs": [
        {
          "indexed": false,
          "internalType": "address",
          "name": "account",
          "type": "address"
        }
      ],
      "name": "Paused",
      "type": "event"
    },
    {
      "anonymous": false,
      "inputs": [
        {
          "indexed": true,
          "internalType": "uint64",
          "name": "challengeIndex",
          "type": "uint64"
        },
        {
          "indexed": false,
          "internalType": "address",
          "name": "asserter",
          "type": "address"
        },
        {
          "indexed": false,
          "internalType": "address",
          "name": "challenger",
          "type": "address"
        },
        {
          "indexed": false,
          "internalType": "uint64",
          "name": "challengedNode",
          "type": "uint64"
        }
      ],
      "name": "RollupChallengeStarted",
      "type": "event"
    },
    {
      "anonymous": false,
      "inputs": [
        {
          "indexed": false,
          "internalType": "bytes32",
          "name": "machineHash",
          "type": "bytes32"
        },
        {
          "indexed": false,
          "internalType": "uint256",
          "name": "chainId",
          "type": "uint256"
        }
      ],
      "name": "RollupInitialized",
      "type": "event"
    },
    {
      "anonymous": false,
      "inputs": [
        {
          "indexed": false,
          "internalType": "address",
          "name": "account",
          "type": "address"
        }
      ],
      "name": "Unpaused",
      "type": "event"
    },
    {
      "anonymous": false,
      "inputs": [
        {
          "indexed": true,
          "internalType": "address",
          "name": "implementation",
          "type": "address"
        }
      ],
      "name": "Upgraded",
      "type": "event"
    },
    {
      "anonymous": false,
      "inputs": [
        {
          "indexed": true,
          "internalType": "address",
          "name": "implementation",
          "type": "address"
        }
      ],
      "name": "UpgradedSecondary",
      "type": "event"
    },
    {
      "anonymous": false,
      "inputs": [
        {
          "indexed": true,
          "internalType": "address",
          "name": "user",
          "type": "address"
        },
        {
          "indexed": false,
          "internalType": "uint256",
          "name": "initialBalance",
          "type": "uint256"
        },
        {
          "indexed": false,
          "internalType": "uint256",
          "name": "finalBalance",
          "type": "uint256"
        }
      ],
      "name": "UserStakeUpdated",
      "type": "event"
    },
    {
      "anonymous": false,
      "inputs": [
        {
          "indexed": true,
          "internalType": "address",
          "name": "user",
          "type": "address"
        },
        {
          "indexed": false,
          "internalType": "uint256",
          "name": "initialBalance",
          "type": "uint256"
        },
        {
          "indexed": false,
          "internalType": "uint256",
          "name": "finalBalance",
          "type": "uint256"
        }
      ],
      "name": "UserWithdrawableFundsUpdated",
      "type": "event"
    },
    {
      "inputs": [
        {
          "internalType": "address",
          "name": "",
          "type": "address"
        }
      ],
      "name": "_stakerMap",
      "outputs": [
        {
          "internalType": "uint256",
          "name": "amountStaked",
          "type": "uint256"
        },
        {
          "internalType": "uint64",
          "name": "index",
          "type": "uint64"
        },
        {
          "internalType": "uint64",
          "name": "latestStakedNode",
          "type": "uint64"
        },
        {
          "internalType": "uint64",
          "name": "currentChallenge",
          "type": "uint64"
        },
        {
          "internalType": "bool",
          "name": "isStaked",
          "type": "bool"
        }
      ],
      "stateMutability": "view",
      "type": "function"
    },
    {
      "inputs": [
        {
          "internalType": "address",
          "name": "staker",
          "type": "address"
        }
      ],
      "name": "amountStaked",
      "outputs": [
        {
          "internalType": "uint256",
          "name": "",
          "type": "uint256"
        }
      ],
      "stateMutability": "view",
      "type": "function"
    },
    {
      "inputs": [],
      "name": "baseStake",
      "outputs": [
        {
          "internalType": "uint256",
          "name": "",
          "type": "uint256"
        }
      ],
      "stateMutability": "view",
      "type": "function"
    },
    {
      "inputs": [],
      "name": "bridge",
      "outputs": [
        {
          "internalType": "contract IBridge",
          "name": "",
          "type": "address"
        }
      ],
      "stateMutability": "view",
      "type": "function"
    },
    {
      "inputs": [],
      "name": "chainId",
      "outputs": [
        {
          "internalType": "uint256",
          "name": "",
          "type": "uint256"
        }
      ],
      "stateMutability": "view",
      "type": "function"
    },
    {
      "inputs": [],
      "name": "challengeManager",
      "outputs": [
        {
          "internalType": "contract IChallengeManager",
          "name": "",
          "type": "address"
        }
      ],
      "stateMutability": "view",
      "type": "function"
    },
    {
      "inputs": [],
      "name": "confirmPeriodBlocks",
      "outputs": [
        {
          "internalType": "uint64",
          "name": "",
          "type": "uint64"
        }
      ],
      "stateMutability": "view",
      "type": "function"
    },
    {
      "inputs": [
        {
          "components": [
            {
              "components": [
                {
                  "components": [
                    {
                      "internalType": "bytes32[2]",
                      "name": "bytes32Vals",
                      "type": "bytes32[2]"
                    },
                    {
                      "internalType": "uint64[2]",
                      "name": "u64Vals",
                      "type": "uint64[2]"
                    }
                  ],
                  "internalType": "struct GlobalState",
                  "name": "globalState",
                  "type": "tuple"
                },
                {
                  "internalType": "enum MachineStatus",
                  "name": "machineStatus",
                  "type": "uint8"
                }
              ],
              "internalType": "struct ExecutionState",
              "name": "beforeState",
              "type": "tuple"
            },
            {
              "components": [
                {
                  "components": [
                    {
                      "internalType": "bytes32[2]",
                      "name": "bytes32Vals",
                      "type": "bytes32[2]"
                    },
                    {
                      "internalType": "uint64[2]",
                      "name": "u64Vals",
                      "type": "uint64[2]"
                    }
                  ],
                  "internalType": "struct GlobalState",
                  "name": "globalState",
                  "type": "tuple"
                },
                {
                  "internalType": "enum MachineStatus",
                  "name": "machineStatus",
                  "type": "uint8"
                }
              ],
              "internalType": "struct ExecutionState",
              "name": "afterState",
              "type": "tuple"
            },
            {
              "internalType": "uint64",
              "name": "numBlocks",
              "type": "uint64"
            }
          ],
          "internalType": "struct Assertion",
          "name": "assertion",
          "type": "tuple"
        }
      ],
      "name": "createNitroMigrationGenesis",
      "outputs": [],
      "stateMutability": "nonpayable",
      "type": "function"
    },
    {
      "inputs": [
        {
          "internalType": "address",
          "name": "staker",
          "type": "address"
        }
      ],
      "name": "currentChallenge",
      "outputs": [
        {
          "internalType": "uint64",
          "name": "",
          "type": "uint64"
        }
      ],
      "stateMutability": "view",
      "type": "function"
    },
    {
      "inputs": [],
      "name": "extraChallengeTimeBlocks",
      "outputs": [
        {
          "internalType": "uint64",
          "name": "",
          "type": "uint64"
        }
      ],
      "stateMutability": "view",
      "type": "function"
    },
    {
      "inputs": [],
      "name": "firstUnresolvedNode",
      "outputs": [
        {
          "internalType": "uint64",
          "name": "",
          "type": "uint64"
        }
      ],
      "stateMutability": "view",
      "type": "function"
    },
    {
      "inputs": [
        {
          "internalType": "uint64",
          "name": "nodeNum",
          "type": "uint64"
        },
        {
          "internalType": "bytes32",
          "name": "blockHash",
          "type": "bytes32"
        },
        {
          "internalType": "bytes32",
          "name": "sendRoot",
          "type": "bytes32"
        }
      ],
      "name": "forceConfirmNode",
      "outputs": [],
      "stateMutability": "nonpayable",
      "type": "function"
    },
    {
      "inputs": [
        {
          "internalType": "uint64",
          "name": "prevNode",
          "type": "uint64"
        },
        {
          "internalType": "uint256",
          "name": "prevNodeInboxMaxCount",
          "type": "uint256"
        },
        {
          "components": [
            {
              "components": [
                {
                  "components": [
                    {
                      "internalType": "bytes32[2]",
                      "name": "bytes32Vals",
                      "type": "bytes32[2]"
                    },
                    {
                      "internalType": "uint64[2]",
                      "name": "u64Vals",
                      "type": "uint64[2]"
                    }
                  ],
                  "internalType": "struct GlobalState",
                  "name": "globalState",
                  "type": "tuple"
                },
                {
                  "internalType": "enum MachineStatus",
                  "name": "machineStatus",
                  "type": "uint8"
                }
              ],
              "internalType": "struct ExecutionState",
              "name": "beforeState",
              "type": "tuple"
            },
            {
              "components": [
                {
                  "components": [
                    {
                      "internalType": "bytes32[2]",
                      "name": "bytes32Vals",
                      "type": "bytes32[2]"
                    },
                    {
                      "internalType": "uint64[2]",
                      "name": "u64Vals",
                      "type": "uint64[2]"
                    }
                  ],
                  "internalType": "struct GlobalState",
                  "name": "globalState",
                  "type": "tuple"
                },
                {
                  "internalType": "enum MachineStatus",
                  "name": "machineStatus",
                  "type": "uint8"
                }
              ],
              "internalType": "struct ExecutionState",
              "name": "afterState",
              "type": "tuple"
            },
            {
              "internalType": "uint64",
              "name": "numBlocks",
              "type": "uint64"
            }
          ],
          "internalType": "struct Assertion",
          "name": "assertion",
          "type": "tuple"
        },
        {
          "internalType": "bytes32",
          "name": "expectedNodeHash",
          "type": "bytes32"
        }
      ],
      "name": "forceCreateNode",
      "outputs": [],
      "stateMutability": "nonpayable",
      "type": "function"
    },
    {
      "inputs": [
        {
          "internalType": "address[]",
          "name": "staker",
          "type": "address[]"
        }
      ],
      "name": "forceRefundStaker",
      "outputs": [],
      "stateMutability": "nonpayable",
      "type": "function"
    },
    {
      "inputs": [
        {
          "internalType": "address[]",
          "name": "stakerA",
          "type": "address[]"
        },
        {
          "internalType": "address[]",
          "name": "stakerB",
          "type": "address[]"
        }
      ],
      "name": "forceResolveChallenge",
      "outputs": [],
      "stateMutability": "nonpayable",
      "type": "function"
    },
    {
      "inputs": [
        {
          "internalType": "uint64",
          "name": "nodeNum",
          "type": "uint64"
        }
      ],
      "name": "getNode",
      "outputs": [
        {
          "components": [
            {
              "internalType": "bytes32",
              "name": "stateHash",
              "type": "bytes32"
            },
            {
              "internalType": "bytes32",
              "name": "challengeHash",
              "type": "bytes32"
            },
            {
              "internalType": "bytes32",
              "name": "confirmData",
              "type": "bytes32"
            },
            {
              "internalType": "uint64",
              "name": "prevNum",
              "type": "uint64"
            },
            {
              "internalType": "uint64",
              "name": "deadlineBlock",
              "type": "uint64"
            },
            {
              "internalType": "uint64",
              "name": "noChildConfirmedBeforeBlock",
              "type": "uint64"
            },
            {
              "internalType": "uint64",
              "name": "stakerCount",
              "type": "uint64"
            },
            {
              "internalType": "uint64",
              "name": "childStakerCount",
              "type": "uint64"
            },
            {
              "internalType": "uint64",
              "name": "firstChildBlock",
              "type": "uint64"
            },
            {
              "internalType": "uint64",
              "name": "latestChildNumber",
              "type": "uint64"
            },
            {
              "internalType": "uint64",
              "name": "createdAtBlock",
              "type": "uint64"
            },
            {
              "internalType": "bytes32",
              "name": "nodeHash",
              "type": "bytes32"
            }
          ],
          "internalType": "struct Node",
          "name": "",
          "type": "tuple"
        }
      ],
      "stateMutability": "view",
      "type": "function"
    },
    {
      "inputs": [
        {
          "internalType": "uint64",
          "name": "nodeNum",
          "type": "uint64"
        }
      ],
      "name": "getNodeCreationBlockForLogLookup",
      "outputs": [
        {
          "internalType": "uint256",
          "name": "",
          "type": "uint256"
        }
      ],
      "stateMutability": "view",
      "type": "function"
    },
    {
      "inputs": [
        {
          "internalType": "address",
          "name": "staker",
          "type": "address"
        }
      ],
      "name": "getStaker",
      "outputs": [
        {
          "components": [
            {
              "internalType": "uint256",
              "name": "amountStaked",
              "type": "uint256"
            },
            {
              "internalType": "uint64",
              "name": "index",
              "type": "uint64"
            },
            {
              "internalType": "uint64",
              "name": "latestStakedNode",
              "type": "uint64"
            },
            {
              "internalType": "uint64",
              "name": "currentChallenge",
              "type": "uint64"
            },
            {
              "internalType": "bool",
              "name": "isStaked",
              "type": "bool"
            }
          ],
          "internalType": "struct IRollupCore.Staker",
          "name": "",
          "type": "tuple"
        }
      ],
      "stateMutability": "view",
      "type": "function"
    },
    {
      "inputs": [
        {
          "internalType": "uint64",
          "name": "stakerNum",
          "type": "uint64"
        }
      ],
      "name": "getStakerAddress",
      "outputs": [
        {
          "internalType": "address",
          "name": "",
          "type": "address"
        }
      ],
      "stateMutability": "view",
      "type": "function"
    },
    {
      "inputs": [],
      "name": "inbox",
      "outputs": [
        {
          "internalType": "contract IInboxBase",
          "name": "",
          "type": "address"
        }
      ],
      "stateMutability": "view",
      "type": "function"
    },
    {
      "inputs": [
        {
          "components": [
            {
              "internalType": "uint64",
              "name": "confirmPeriodBlocks",
              "type": "uint64"
            },
            {
              "internalType": "uint64",
              "name": "extraChallengeTimeBlocks",
              "type": "uint64"
            },
            {
              "internalType": "address",
              "name": "stakeToken",
              "type": "address"
            },
            {
              "internalType": "uint256",
              "name": "baseStake",
              "type": "uint256"
            },
            {
              "internalType": "bytes32",
              "name": "wasmModuleRoot",
              "type": "bytes32"
            },
            {
              "internalType": "address",
              "name": "owner",
              "type": "address"
            },
            {
              "internalType": "address",
              "name": "loserStakeEscrow",
              "type": "address"
            },
            {
              "internalType": "uint256",
              "name": "chainId",
              "type": "uint256"
            },
            {
              "internalType": "string",
              "name": "chainConfig",
              "type": "string"
            },
            {
              "internalType": "uint64",
              "name": "genesisBlockNum",
              "type": "uint64"
            },
            {
              "components": [
                {
                  "internalType": "uint256",
                  "name": "delayBlocks",
                  "type": "uint256"
                },
                {
                  "internalType": "uint256",
                  "name": "futureBlocks",
                  "type": "uint256"
                },
                {
                  "internalType": "uint256",
                  "name": "delaySeconds",
                  "type": "uint256"
                },
                {
                  "internalType": "uint256",
                  "name": "futureSeconds",
                  "type": "uint256"
                }
              ],
              "internalType": "struct ISequencerInbox.MaxTimeVariation",
              "name": "sequencerInboxMaxTimeVariation",
              "type": "tuple"
            }
          ],
          "internalType": "struct Config",
          "name": "config",
          "type": "tuple"
        },
        {
          "components": [
            {
              "internalType": "contract IBridge",
              "name": "bridge",
              "type": "address"
            },
            {
              "internalType": "contract ISequencerInbox",
              "name": "sequencerInbox",
              "type": "address"
            },
            {
              "internalType": "contract IInboxBase",
              "name": "inbox",
              "type": "address"
            },
            {
              "internalType": "contract IOutbox",
              "name": "outbox",
              "type": "address"
            },
            {
              "internalType": "contract IRollupEventInbox",
              "name": "rollupEventInbox",
              "type": "address"
            },
            {
              "internalType": "contract IChallengeManager",
              "name": "challengeManager",
              "type": "address"
            },
            {
              "internalType": "address",
              "name": "rollupAdminLogic",
              "type": "address"
            },
            {
              "internalType": "contract IRollupUser",
              "name": "rollupUserLogic",
              "type": "address"
            },
            {
              "internalType": "address",
              "name": "validatorUtils",
              "type": "address"
            },
            {
              "internalType": "address",
              "name": "validatorWalletCreator",
              "type": "address"
            }
          ],
          "internalType": "struct ContractDependencies",
          "name": "connectedContracts",
          "type": "tuple"
        }
      ],
      "name": "initialize",
      "outputs": [],
      "stateMutability": "nonpayable",
      "type": "function"
    },
    {
      "inputs": [
        {
          "internalType": "address",
          "name": "staker",
          "type": "address"
        }
      ],
      "name": "isStaked",
      "outputs": [
        {
          "internalType": "bool",
          "name": "",
          "type": "bool"
        }
      ],
      "stateMutability": "view",
      "type": "function"
    },
    {
      "inputs": [
        {
          "internalType": "address",
          "name": "staker",
          "type": "address"
        }
      ],
      "name": "isStakedOnLatestConfirmed",
      "outputs": [
        {
          "internalType": "bool",
          "name": "",
          "type": "bool"
        }
      ],
      "stateMutability": "view",
      "type": "function"
    },
    {
      "inputs": [
        {
          "internalType": "address",
          "name": "",
          "type": "address"
        }
      ],
      "name": "isValidator",
      "outputs": [
        {
          "internalType": "bool",
          "name": "",
          "type": "bool"
        }
      ],
      "stateMutability": "view",
      "type": "function"
    },
    {
      "inputs": [
        {
          "internalType": "address",
          "name": "staker",
          "type": "address"
        }
      ],
      "name": "isZombie",
      "outputs": [
        {
          "internalType": "bool",
          "name": "",
          "type": "bool"
        }
      ],
      "stateMutability": "view",
      "type": "function"
    },
    {
      "inputs": [],
      "name": "lastStakeBlock",
      "outputs": [
        {
          "internalType": "uint64",
          "name": "",
          "type": "uint64"
        }
      ],
      "stateMutability": "view",
      "type": "function"
    },
    {
      "inputs": [],
      "name": "latestConfirmed",
      "outputs": [
        {
          "internalType": "uint64",
          "name": "",
          "type": "uint64"
        }
      ],
      "stateMutability": "view",
      "type": "function"
    },
    {
      "inputs": [],
      "name": "latestNodeCreated",
      "outputs": [
        {
          "internalType": "uint64",
          "name": "",
          "type": "uint64"
        }
      ],
      "stateMutability": "view",
      "type": "function"
    },
    {
      "inputs": [
        {
          "internalType": "address",
          "name": "staker",
          "type": "address"
        }
      ],
      "name": "latestStakedNode",
      "outputs": [
        {
          "internalType": "uint64",
          "name": "",
          "type": "uint64"
        }
      ],
      "stateMutability": "view",
      "type": "function"
    },
    {
      "inputs": [],
      "name": "loserStakeEscrow",
      "outputs": [
        {
          "internalType": "address",
          "name": "",
          "type": "address"
        }
      ],
      "stateMutability": "view",
      "type": "function"
    },
    {
      "inputs": [],
      "name": "minimumAssertionPeriod",
      "outputs": [
        {
          "internalType": "uint256",
          "name": "",
          "type": "uint256"
        }
      ],
      "stateMutability": "view",
      "type": "function"
    },
    {
      "inputs": [
        {
          "internalType": "uint64",
          "name": "nodeNum",
          "type": "uint64"
        },
        {
          "internalType": "address",
          "name": "staker",
          "type": "address"
        }
      ],
      "name": "nodeHasStaker",
      "outputs": [
        {
          "internalType": "bool",
          "name": "",
          "type": "bool"
        }
      ],
      "stateMutability": "view",
      "type": "function"
    },
    {
      "inputs": [],
      "name": "outbox",
      "outputs": [
        {
          "internalType": "contract IOutbox",
          "name": "",
          "type": "address"
        }
      ],
      "stateMutability": "view",
      "type": "function"
    },
    {
      "inputs": [],
      "name": "pause",
      "outputs": [],
      "stateMutability": "nonpayable",
      "type": "function"
    },
    {
      "inputs": [],
      "name": "paused",
      "outputs": [
        {
          "internalType": "bool",
          "name": "",
          "type": "bool"
        }
      ],
      "stateMutability": "view",
      "type": "function"
    },
    {
      "inputs": [],
      "name": "proxiableUUID",
      "outputs": [
        {
          "internalType": "bytes32",
          "name": "",
          "type": "bytes32"
        }
      ],
      "stateMutability": "view",
      "type": "function"
    },
    {
      "inputs": [
        {
          "internalType": "address",
          "name": "_outbox",
          "type": "address"
        }
      ],
      "name": "removeOldOutbox",
      "outputs": [],
      "stateMutability": "nonpayable",
      "type": "function"
    },
    {
      "inputs": [],
      "name": "resume",
      "outputs": [],
      "stateMutability": "nonpayable",
      "type": "function"
    },
    {
      "inputs": [],
      "name": "rollupDeploymentBlock",
      "outputs": [
        {
          "internalType": "uint256",
          "name": "",
          "type": "uint256"
        }
      ],
      "stateMutability": "view",
      "type": "function"
    },
    {
      "inputs": [],
      "name": "rollupEventInbox",
      "outputs": [
        {
          "internalType": "contract IRollupEventInbox",
          "name": "",
          "type": "address"
        }
      ],
      "stateMutability": "view",
      "type": "function"
    },
    {
      "inputs": [],
      "name": "sequencerInbox",
      "outputs": [
        {
          "internalType": "contract ISequencerInbox",
          "name": "",
          "type": "address"
        }
      ],
      "stateMutability": "view",
      "type": "function"
    },
    {
      "inputs": [
        {
          "internalType": "uint256",
          "name": "newBaseStake",
          "type": "uint256"
        }
      ],
      "name": "setBaseStake",
      "outputs": [],
      "stateMutability": "nonpayable",
      "type": "function"
    },
    {
      "inputs": [
        {
          "internalType": "uint64",
          "name": "newConfirmPeriod",
          "type": "uint64"
        }
      ],
      "name": "setConfirmPeriodBlocks",
      "outputs": [],
      "stateMutability": "nonpayable",
      "type": "function"
    },
    {
      "inputs": [
        {
          "internalType": "address",
          "name": "_inbox",
          "type": "address"
        },
        {
          "internalType": "bool",
          "name": "_enabled",
          "type": "bool"
        }
      ],
      "name": "setDelayedInbox",
      "outputs": [],
      "stateMutability": "nonpayable",
      "type": "function"
    },
    {
      "inputs": [
        {
          "internalType": "uint64",
          "name": "newExtraTimeBlocks",
          "type": "uint64"
        }
      ],
      "name": "setExtraChallengeTimeBlocks",
      "outputs": [],
      "stateMutability": "nonpayable",
      "type": "function"
    },
    {
      "inputs": [
        {
          "internalType": "contract IInboxBase",
          "name": "newInbox",
          "type": "address"
        }
      ],
      "name": "setInbox",
      "outputs": [],
      "stateMutability": "nonpayable",
      "type": "function"
    },
    {
      "inputs": [
        {
          "internalType": "address",
          "name": "newLoserStakerEscrow",
          "type": "address"
        }
      ],
      "name": "setLoserStakeEscrow",
      "outputs": [],
      "stateMutability": "nonpayable",
      "type": "function"
    },
    {
      "inputs": [
        {
          "internalType": "uint256",
          "name": "newPeriod",
          "type": "uint256"
        }
      ],
      "name": "setMinimumAssertionPeriod",
      "outputs": [],
      "stateMutability": "nonpayable",
      "type": "function"
    },
    {
      "inputs": [
        {
          "internalType": "contract IOutbox",
          "name": "_outbox",
          "type": "address"
        }
      ],
      "name": "setOutbox",
      "outputs": [],
      "stateMutability": "nonpayable",
      "type": "function"
    },
    {
      "inputs": [
        {
          "internalType": "address",
          "name": "newOwner",
          "type": "address"
        }
      ],
      "name": "setOwner",
      "outputs": [],
      "stateMutability": "nonpayable",
      "type": "function"
    },
    {
      "inputs": [
        {
          "internalType": "address",
          "name": "_sequencerInbox",
          "type": "address"
        }
      ],
      "name": "setSequencerInbox",
      "outputs": [],
      "stateMutability": "nonpayable",
      "type": "function"
    },
    {
      "inputs": [
        {
          "internalType": "address",
          "name": "newStakeToken",
          "type": "address"
        }
      ],
      "name": "setStakeToken",
      "outputs": [],
      "stateMutability": "nonpayable",
      "type": "function"
    },
    {
      "inputs": [
        {
          "internalType": "address[]",
          "name": "_validator",
          "type": "address[]"
        },
        {
          "internalType": "bool[]",
          "name": "_val",
          "type": "bool[]"
        }
      ],
      "name": "setValidator",
      "outputs": [],
      "stateMutability": "nonpayable",
      "type": "function"
    },
    {
      "inputs": [
        {
          "internalType": "bool",
          "name": "_validatorWhitelistDisabled",
          "type": "bool"
        }
      ],
      "name": "setValidatorWhitelistDisabled",
      "outputs": [],
      "stateMutability": "nonpayable",
      "type": "function"
    },
    {
      "inputs": [
        {
          "internalType": "bytes32",
          "name": "newWasmModuleRoot",
          "type": "bytes32"
        }
      ],
      "name": "setWasmModuleRoot",
      "outputs": [],
      "stateMutability": "nonpayable",
      "type": "function"
    },
    {
      "inputs": [],
      "name": "stakeToken",
      "outputs": [
        {
          "internalType": "address",
          "name": "",
          "type": "address"
        }
      ],
      "stateMutability": "view",
      "type": "function"
    },
    {
      "inputs": [],
      "name": "stakerCount",
      "outputs": [
        {
          "internalType": "uint64",
          "name": "",
          "type": "uint64"
        }
      ],
      "stateMutability": "view",
      "type": "function"
    },
    {
      "inputs": [],
      "name": "totalWithdrawableFunds",
      "outputs": [
        {
          "internalType": "uint256",
          "name": "",
          "type": "uint256"
        }
      ],
      "stateMutability": "view",
      "type": "function"
    },
    {
      "inputs": [
        {
          "internalType": "address",
          "name": "beacon",
          "type": "address"
        },
        {
          "internalType": "address",
          "name": "newImplementation",
          "type": "address"
        }
      ],
      "name": "upgradeBeacon",
      "outputs": [],
      "stateMutability": "nonpayable",
      "type": "function"
    },
    {
      "inputs": [
        {
          "internalType": "address",
          "name": "newImplementation",
          "type": "address"
        }
      ],
      "name": "upgradeSecondaryTo",
      "outputs": [],
      "stateMutability": "nonpayable",
      "type": "function"
    },
    {
      "inputs": [
        {
          "internalType": "address",
          "name": "newImplementation",
          "type": "address"
        },
        {
          "internalType": "bytes",
          "name": "data",
          "type": "bytes"
        }
      ],
      "name": "upgradeSecondaryToAndCall",
      "outputs": [],
      "stateMutability": "payable",
      "type": "function"
    },
    {
      "inputs": [
        {
          "internalType": "address",
          "name": "newImplementation",
          "type": "address"
        }
      ],
      "name": "upgradeTo",
      "outputs": [],
      "stateMutability": "nonpayable",
      "type": "function"
    },
    {
      "inputs": [
        {
          "internalType": "address",
          "name": "newImplementation",
          "type": "address"
        },
        {
          "internalType": "bytes",
          "name": "data",
          "type": "bytes"
        }
      ],
      "name": "upgradeToAndCall",
      "outputs": [],
      "stateMutability": "payable",
      "type": "function"
    },
    {
      "inputs": [],
      "name": "validatorUtils",
      "outputs": [
        {
          "internalType": "address",
          "name": "",
          "type": "address"
        }
      ],
      "stateMutability": "view",
      "type": "function"
    },
    {
      "inputs": [],
      "name": "validatorWalletCreator",
      "outputs": [
        {
          "internalType": "address",
          "name": "",
          "type": "address"
        }
      ],
      "stateMutability": "view",
      "type": "function"
    },
    {
      "inputs": [],
      "name": "validatorWhitelistDisabled",
      "outputs": [
        {
          "internalType": "bool",
          "name": "",
          "type": "bool"
        }
      ],
      "stateMutability": "view",
      "type": "function"
    },
    {
      "inputs": [],
      "name": "wasmModuleRoot",
      "outputs": [
        {
          "internalType": "bytes32",
          "name": "",
          "type": "bytes32"
        }
      ],
      "stateMutability": "view",
      "type": "function"
    },
    {
      "inputs": [
        {
          "internalType": "address",
          "name": "user",
          "type": "address"
        }
      ],
      "name": "withdrawableFunds",
      "outputs": [
        {
          "internalType": "uint256",
          "name": "",
          "type": "uint256"
        }
      ],
      "stateMutability": "view",
      "type": "function"
    },
    {
      "inputs": [
        {
          "internalType": "uint256",
          "name": "zombieNum",
          "type": "uint256"
        }
      ],
      "name": "zombieAddress",
      "outputs": [
        {
          "internalType": "address",
          "name": "",
          "type": "address"
        }
      ],
      "stateMutability": "view",
      "type": "function"
    },
    {
      "inputs": [],
      "name": "zombieCount",
      "outputs": [
        {
          "internalType": "uint256",
          "name": "",
          "type": "uint256"
        }
      ],
      "stateMutability": "view",
      "type": "function"
    },
    {
      "inputs": [
        {
          "internalType": "uint256",
          "name": "zombieNum",
          "type": "uint256"
        }
      ],
      "name": "zombieLatestStakedNode",
      "outputs": [
        {
          "internalType": "uint64",
          "name": "",
          "type": "uint64"
        }
      ],
      "stateMutability": "view",
      "type": "function"
    }
  ],
  "bytecode": "0x60c060405261001261006060201b60201c565b151560809015158152503073ffffffffffffffffffffffffffffffffffffffff1660a09073ffffffffffffffffffffffffffffffffffffffff1681525034801561005a575f80fd5b506101b2565b5f805f606473ffffffffffffffffffffffffffffffffffffffff1663051038f260e01b604051602401604051602081830303815290604052907bffffffffffffffffffffffffffffffffffffffffffffffffffffffff19166020820180517bffffffffffffffffffffffffffffffffffffffffffffffffffffffff83818316178352505050506040516100f3919061019c565b5f60405180830381855afa9150503d805f811461012b576040519150601f19603f3d011682016040523d82523d5f602084013e610130565b606091505b5091509150818015610143575060208151145b9250505090565b5f81519050919050565b5f81905092915050565b8281835e5f83830152505050565b5f6101768261014a565b6101808185610154565b935061019081856020860161015e565b80840191505092915050565b5f6101a7828461016c565b915081905092915050565b60805160a05161a3966102275f395f818161135f015281816113ed01528181611537015281816115c5015281816120a4015281816121320152818161242d015281816124bb015281816126470152818161343f01526134cd01525f8181613ef8015281816147720152616184015261a3965ff3fe60806040526004361061040f575f3560e01c80637ba9534a1161021d578063ce11e6ab11610122578063ef40a670116100aa578063f63a434a11610079578063f63a434a14610f77578063facd743b14610fb3578063fb0e722b14610fef578063fc8ffa0314611019578063ff204f3b146110415761040f565b8063ef40a67014610ead578063f065de3f14610ee9578063f33e1fac14610f13578063f38c937914610f4f5761040f565b8063dcd030aa116100f1578063dcd030aa14610db3578063dff6978714610def578063e78cea9214610e19578063e8bd492214610e43578063ee35f32714610e835761040f565b8063ce11e6ab14610cfb578063ce66d05c14610d25578063d01e660214610d4d578063d735e21d14610d895761040f565b8063948d6588116101a5578063a2b4f1d811610174578063a2b4f1d814610c1b578063a3ffb77214610c43578063aa38a6e714610c6b578063aa65af4814610c95578063bc45e0ae14610cd15761040f565b8063948d658814610b715780639846129a14610b995780639a8a059214610bb5578063a23c44b114610bdf5761040f565b80638640ce5f116101ec5780638640ce5f14610a7d5780638938496014610aa75780638ee1a12614610acf57806391c657e814610af957806392c8134c14610b355761040f565b80637ba9534a146109ed5780637c75c29814610a175780638456cb5914610a3f578063848bf91814610a555761040f565b806347fb24c5116103235780636177fd18116102ab5780636ddd37441161027a5780636ddd37441461090b57806371ef232c1461094757806376e7e23b14610971578063771b2f971461099b5780637b83a3fe146109c55761040f565b80636177fd181461083f57806363721d6b1461087b57806365f7f80d146108a557806369fd251c146108cf5761040f565b806352d1902d116102f257806352d1902d1461077357806353b60c4a1461079d578063567ca41b146107c55780635c975abb146107ed5780636136fe2e146108175761040f565b806347fb24c5146106dd5780634f1ef286146107055780634f61f8501461072157806351ed6a30146107495761040f565b80631b1689e9116103a65780632f7968e8116103755780632f7968e8146105ff5780633659cfe6146106275780633e96576e1461064f57806345e38b641461068b578063470dce4e146106b55761040f565b80631b1689e91461054757806328ff127a146105715780632e7acfa6146105995780632f30cabd146105c35761040f565b806306ae5851116103e257806306ae5851146104a55780630d40a0fd146104cd57806312ab3d3b146104f557806313af40351461051f5761040f565b8063014cc92c14610413578063023a96fe1461043d5780630397d45814610467578063046f7da21461048f575b5f80fd5b34801561041e575f80fd5b50610427611069565b6040516104349190616ec3565b60405180910390f35b348015610448575f80fd5b5061045161108e565b60405161045e9190616f37565b60405180910390f35b348015610472575f80fd5b5061048d60048036038101906104889190616f8b565b6110b3565b005b34801561049a575f80fd5b506104a36112ed565b005b3480156104b0575f80fd5b506104cb60048036038101906104c69190616fe9565b611325565b005b3480156104d8575f80fd5b506104f360048036038101906104ee9190616f8b565b61135d565b005b348015610500575f80fd5b506105096114e3565b604051610516919061702e565b60405180910390f35b34801561052a575f80fd5b5061054560048036038101906105409190616f8b565b6114f5565b005b348015610552575f80fd5b5061055b61152f565b6040516105689190617056565b60405180910390f35b34801561057c575f80fd5b50610597600480360381019061059291906170b1565b611535565b005b3480156105a4575f80fd5b506105ad611fbe565b6040516105ba919061712e565b60405180910390f35b3480156105ce575f80fd5b506105e960048036038101906105e49190616f8b565b611fd7565b6040516105f69190617056565b60405180910390f35b34801561060a575f80fd5b50610625600480360381019061062091906171a4565b61201d565b005b348015610632575f80fd5b5061064d60048036038101906106489190616f8b565b6120a2565b005b34801561065a575f80fd5b5061067560048036038101906106709190616f8b565b612228565b604051610682919061712e565b60405180910390f35b348015610696575f80fd5b5061069f612285565b6040516106ac9190617056565b60405180910390f35b3480156106c0575f80fd5b506106db60048036038101906106d69190617213565b61228b565b005b3480156106e8575f80fd5b5061070360048036038101906106fe91906172a3565b612370565b005b61071f600480360381019061071a919061741d565b61242b565b005b34801561072c575f80fd5b5061074760048036038101906107429190616f8b565b612567565b005b348015610754575f80fd5b5061075d61261f565b60405161076a9190616ec3565b60405180910390f35b34801561077e575f80fd5b50610787612644565b6040516107949190617486565b60405180910390f35b3480156107a8575f80fd5b506107c360048036038101906107be91906174da565b6126fb565b005b3480156107d0575f80fd5b506107eb60048036038101906107e69190616f8b565b61276c565b005b3480156107f8575f80fd5b506108016128b5565b60405161080e919061702e565b60405180910390f35b348015610822575f80fd5b5061083d60048036038101906108389190617505565b6128ca565b005b34801561084a575f80fd5b5061086560048036038101906108609190616f8b565b612924565b604051610872919061702e565b60405180910390f35b348015610886575f80fd5b5061088f61297a565b60405161089c9190617056565b60405180910390f35b3480156108b0575f80fd5b506108b9612986565b6040516108c6919061712e565b60405180910390f35b3480156108da575f80fd5b506108f560048036038101906108f09190616f8b565b6129a2565b604051610902919061712e565b60405180910390f35b348015610916575f80fd5b50610931600480360381019061092c9190617505565b6129ff565b60405161093e9190616ec3565b60405180910390f35b348015610952575f80fd5b5061095b612a4d565b6040516109689190617056565b60405180910390f35b34801561097c575f80fd5b50610985612a53565b6040516109929190617056565b60405180910390f35b3480156109a6575f80fd5b506109af612a59565b6040516109bc919061712e565b60405180910390f35b3480156109d0575f80fd5b506109eb60048036038101906109e69190617530565b612a73565b005b3480156109f8575f80fd5b50610a01612e34565b604051610a0e919061712e565b60405180910390f35b348015610a22575f80fd5b50610a3d6004803603810190610a3891906175b9565b612e51565b005b348015610a4a575f80fd5b50610a5361305d565b005b348015610a60575f80fd5b50610a7b6004803603810190610a769190617604565b613095565b005b348015610a88575f80fd5b50610a9161312d565b604051610a9e919061712e565b60405180910390f35b348015610ab2575f80fd5b50610acd6004803603810190610ac89190617642565b61314a565b005b348015610ada575f80fd5b50610ae3613182565b604051610af09190617486565b60405180910390f35b348015610b04575f80fd5b50610b1f6004803603810190610b1a9190616f8b565b613188565b604051610b2c919061702e565b60405180910390f35b348015610b40575f80fd5b50610b5b6004803603810190610b569190617505565b61322c565b604051610b68919061777f565b60405180910390f35b348015610b7c575f80fd5b50610b976004803603810190610b929190616fe9565b613405565b005b610bb36004803603810190610bae919061741d565b61343d565b005b348015610bc0575f80fd5b50610bc9613579565b604051610bd69190617056565b60405180910390f35b348015610bea575f80fd5b50610c056004803603810190610c009190616f8b565b61357f565b604051610c12919061781d565b60405180910390f35b348015610c26575f80fd5b50610c416004803603810190610c3c9190617836565b61368f565b005b348015610c4e575f80fd5b50610c696004803603810190610c6491906178b6565b6136d9565b005b348015610c76575f80fd5b50610c7f613857565b604051610c8c9190617954565b60405180910390f35b348015610ca0575f80fd5b50610cbb6004803603810190610cb6919061796d565b61387c565b604051610cc8919061702e565b60405180910390f35b348015610cdc575f80fd5b50610ce56138f2565b604051610cf29190616ec3565b60405180910390f35b348015610d06575f80fd5b50610d0f613917565b604051610d1c91906179cb565b60405180910390f35b348015610d30575f80fd5b50610d4b6004803603810190610d469190617505565b61393c565b005b348015610d58575f80fd5b50610d736004803603810190610d6e9190616fe9565b6139e1565b604051610d809190616ec3565b60405180910390f35b348015610d94575f80fd5b50610d9d613a27565b604051610daa919061712e565b60405180910390f35b348015610dbe575f80fd5b50610dd96004803603810190610dd49190616f8b565b613a44565b604051610de6919061702e565b60405180910390f35b348015610dfa575f80fd5b50610e03613ac1565b604051610e10919061712e565b60405180910390f35b348015610e24575f80fd5b50610e2d613acd565b604051610e3a9190617a04565b60405180910390f35b348015610e4e575f80fd5b50610e696004803603810190610e649190616f8b565b613af2565b604051610e7a959493929190617a1d565b60405180910390f35b348015610e8e575f80fd5b50610e97613b6c565b604051610ea49190617a8e565b60405180910390f35b348015610eb8575f80fd5b50610ed36004803603810190610ece9190616f8b565b613b91565b604051610ee09190617056565b60405180910390f35b348015610ef4575f80fd5b50610efd613bd9565b604051610f0a9190616ec3565b60405180910390f35b348015610f1e575f80fd5b50610f396004803603810190610f349190616fe9565b613bfe565b604051610f46919061712e565b60405180910390f35b348015610f5a575f80fd5b50610f756004803603810190610f709190617aa7565b613c39565b005b348015610f82575f80fd5b50610f9d6004803603810190610f989190617505565b613ef5565b604051610faa9190617056565b60405180910390f35b348015610fbe575f80fd5b50610fd96004803603810190610fd49190616f8b565b61402c565b604051610fe6919061702e565b60405180910390f35b348015610ffa575f80fd5b50611003614049565b6040516110109190617b45565b60405180910390f35b348015611024575f80fd5b5061103f600480360381019061103a9190616f8b565b61406e565b005b34801561104c575f80fd5b5061106760048036038101906110629190617b99565b614154565b005b606f5f9054906101000a900473ffffffffffffffffffffffffffffffffffffffff1681565b606e5f9054906101000a900473ffffffffffffffffffffffffffffffffffffffff1681565b6110bb6128b5565b6110fa576040517f08c379a00000000000000000000000000000000000000000000000000000000081526004016110f190617c1e565b60405180910390fd5b5f8073ffffffffffffffffffffffffffffffffffffffff168273ffffffffffffffffffffffffffffffffffffffff16141590505f3073ffffffffffffffffffffffffffffffffffffffff1663cd205fda6040518163ffffffff1660e01b8152600401602060405180830381865afa158015611177573d5f803e3d5ffd5b505050506040513d601f19601f8201168201806040525081019061119b9190617c50565b9050811515811515146111e3576040517f08c379a00000000000000000000000000000000000000000000000000000000081526004016111da90617cc5565b60405180910390fd5b5f6111ec613ac1565b67ffffffffffffffff1614611236576040517f08c379a000000000000000000000000000000000000000000000000000000000815260040161122d90617d2d565b60405180910390fd5b5f607c541461127a576040517f08c379a000000000000000000000000000000000000000000000000000000000815260040161127190617d95565b60405180910390fd5b8260725f6101000a81548173ffffffffffffffffffffffffffffffffffffffff021916908373ffffffffffffffffffffffffffffffffffffffff160217905550600d7fea8787f128d10b2cc0317b0c3960f9ad447f7f6c1ed189db1083ccffd20f456e60405160405180910390a2505050565b6112f561424e565b60047fea8787f128d10b2cc0317b0c3960f9ad447f7f6c1ed189db1083ccffd20f456e60405160405180910390a2565b80606781905550600c7fea8787f128d10b2cc0317b0c3960f9ad447f7f6c1ed189db1083ccffd20f456e60405160405180910390a250565b7f000000000000000000000000000000000000000000000000000000000000000073ffffffffffffffffffffffffffffffffffffffff163073ffffffffffffffffffffffffffffffffffffffff16036113eb576040517f08c379a00000000000000000000000000000000000000000000000000000000081526004016113e290617e23565b60405180910390fd5b7f000000000000000000000000000000000000000000000000000000000000000073ffffffffffffffffffffffffffffffffffffffff1661142a6142ee565b73ffffffffffffffffffffffffffffffffffffffff1614611480576040517f08c379a000000000000000000000000000000000000000000000000000000000815260040161147790617eb1565b60405180910390fd5b61148981614341565b6114e0815f67ffffffffffffffff8111156114a7576114a66172f9565b5b6040519080825280601f01601f1916602001820160405280156114d95781602001600182028036833780820191505090505b505f614344565b50565b607e5f9054906101000a900460ff1681565b6114fe816144ae565b60077fea8787f128d10b2cc0317b0c3960f9ad447f7f6c1ed189db1083ccffd20f456e60405160405180910390a250565b607d5481565b7f000000000000000000000000000000000000000000000000000000000000000073ffffffffffffffffffffffffffffffffffffffff163073ffffffffffffffffffffffffffffffffffffffff16036115c3576040517f08c379a00000000000000000000000000000000000000000000000000000000081526004016115ba90617e23565b60405180910390fd5b7f000000000000000000000000000000000000000000000000000000000000000073ffffffffffffffffffffffffffffffffffffffff166116026142ee565b73ffffffffffffffffffffffffffffffffffffffff1614611658576040517f08c379a000000000000000000000000000000000000000000000000000000000815260040161164f90617eb1565b60405180910390fd5b5f60019054906101000a900460ff1661167e575f8054906101000a900460ff1615611687565b6116866144fa565b5b6116c6576040517f08c379a00000000000000000000000000000000000000000000000000000000081526004016116bd90617f3f565b60405180910390fd5b5f8060019054906101000a900460ff1615905080156117135760015f60016101000a81548160ff02191690831515021790555060015f806101000a81548160ff0219169083151502179055505b43607d81905550815f01602081019061172c9190617f98565b606a5f6101000a81548173ffffffffffffffffffffffffffffffffffffffff021916908373ffffffffffffffffffffffffffffffffffffffff16021790555081602001602081019061177e9190617ffe565b606c5f6101000a81548173ffffffffffffffffffffffffffffffffffffffff021916908373ffffffffffffffffffffffffffffffffffffffff160217905550815f0160208101906117cf9190617f98565b73ffffffffffffffffffffffffffffffffffffffff166347fb24c58360400160208101906117fd91906174da565b60016040518363ffffffff1660e01b815260040161181c929190618029565b5f604051808303815f87803b158015611833575f80fd5b505af1158015611845573d5f803e3d5ffd5b50505050815f01602081019061185b9190617f98565b73ffffffffffffffffffffffffffffffffffffffff16634f61f8508360200160208101906118899190617ffe565b6040518263ffffffff1660e01b81526004016118a59190616ec3565b5f604051808303815f87803b1580156118bc575f80fd5b505af11580156118ce573d5f803e3d5ffd5b505050508160400160208101906118e591906174da565b60695f6101000a81548173ffffffffffffffffffffffffffffffffffffffff021916908373ffffffffffffffffffffffffffffffffffffffff1602179055508160600160208101906119379190617b99565b606b5f6101000a81548173ffffffffffffffffffffffffffffffffffffffff021916908373ffffffffffffffffffffffffffffffffffffffff160217905550815f0160208101906119889190617f98565b73ffffffffffffffffffffffffffffffffffffffff1663cee3d7288360600160208101906119b69190617b99565b60016040518363ffffffff1660e01b81526004016119d5929190618029565b5f604051808303815f87803b1580156119ec575f80fd5b505af11580156119fe573d5f803e3d5ffd5b50505050816080016020810190611a15919061808b565b606d5f6101000a81548173ffffffffffffffffffffffffffffffffffffffff021916908373ffffffffffffffffffffffffffffffffffffffff160217905550815f016020810190611a669190617f98565b73ffffffffffffffffffffffffffffffffffffffff166347fb24c5836080016020810190611a94919061808b565b60016040518363ffffffff1660e01b8152600401611ab3929190618029565b5f604051808303815f87803b158015611aca575f80fd5b505af1158015611adc573d5f803e3d5ffd5b50505050816080016020810190611af3919061808b565b73ffffffffffffffffffffffffffffffffffffffff1663cf8d56d68460e0013585806101000190611b2491906180c2565b6040518463ffffffff1660e01b8152600401611b4293929190618150565b5f604051808303815f87803b158015611b59575f80fd5b505af1158015611b6b573d5f803e3d5ffd5b50505050816020016020810190611b829190617ffe565b73ffffffffffffffffffffffffffffffffffffffff1663e0bc97295f60015f8060016040518663ffffffff1660e01b8152600401611bc4959493929190618245565b5f604051808303815f87803b158015611bdb575f80fd5b505af1158015611bed573d5f803e3d5ffd5b5050505081610100016020810190611c059190616f8b565b606f5f6101000a81548173ffffffffffffffffffffffffffffffffffffffff021916908373ffffffffffffffffffffffffffffffffffffffff16021790555081610120016020810190611c589190616f8b565b60705f6101000a81548173ffffffffffffffffffffffffffffffffffffffff021916908373ffffffffffffffffffffffffffffffffffffffff1602179055508160a0016020810190611caa91906182e4565b606e5f6101000a81548173ffffffffffffffffffffffffffffffffffffffff021916908373ffffffffffffffffffffffffffffffffffffffff1602179055505f611cf261450a565b9050611cfd8161456a565b835f016020810190611d0f9190617505565b60655f6101000a81548167ffffffffffffffff021916908367ffffffffffffffff160217905550836020016020810190611d499190617505565b606560086101000a81548167ffffffffffffffff021916908367ffffffffffffffff1602179055508360e0013560668190555083606001356067819055508360800135606881905550604b607381905550611da2614831565b73ffffffffffffffffffffffffffffffffffffffff168460c0016020810190611dcb9190616f8b565b73ffffffffffffffffffffffffffffffffffffffff1603611e21576040517f08c379a0000000000000000000000000000000000000000000000000000000008152600401611e1890618359565b60405180910390fd5b8360a0016020810190611e349190616f8b565b73ffffffffffffffffffffffffffffffffffffffff168460c0016020810190611e5d9190616f8b565b73ffffffffffffffffffffffffffffffffffffffff1603611eb3576040517f08c379a0000000000000000000000000000000000000000000000000000000008152600401611eaa906183c1565b60405180910390fd5b8360c0016020810190611ec69190616f8b565b60715f6101000a81548173ffffffffffffffffffffffffffffffffffffffff021916908373ffffffffffffffffffffffffffffffffffffffff160217905550836040016020810190611f189190616f8b565b60725f6101000a81548173ffffffffffffffffffffffffffffffffffffffff021916908373ffffffffffffffffffffffffffffffffffffffff1602179055507ffc1b83c11d99d08a938e0b82a0bd45f822f71ff5abf23f999c93c4533d75246484608001358560e00135604051611f909291906183df565b60405180910390a1508015611fb9575f8060016101000a81548160ff0219169083151502179055505b505050565b60655f9054906101000a900467ffffffffffffffff1681565b5f607b5f8373ffffffffffffffffffffffffffffffffffffffff1673ffffffffffffffffffffffffffffffffffffffff1681526020019081526020015f20549050919050565b6120256128b5565b612064576040517f08c379a000000000000000000000000000000000000000000000000000000000815260040161205b90617c1e565b60405180910390fd5b61206f838383614884565b60187fea8787f128d10b2cc0317b0c3960f9ad447f7f6c1ed189db1083ccffd20f456e60405160405180910390a2505050565b7f000000000000000000000000000000000000000000000000000000000000000073ffffffffffffffffffffffffffffffffffffffff163073ffffffffffffffffffffffffffffffffffffffff1603612130576040517f08c379a000000000000000000000000000000000000000000000000000000000815260040161212790617e23565b60405180910390fd5b7f000000000000000000000000000000000000000000000000000000000000000073ffffffffffffffffffffffffffffffffffffffff1661216f6142ee565b73ffffffffffffffffffffffffffffffffffffffff16146121c5576040517f08c379a00000000000000000000000000000000000000000000000000000000081526004016121bc90617eb1565b60405180910390fd5b6121ce81614a0f565b612225815f67ffffffffffffffff8111156121ec576121eb6172f9565b5b6040519080825280601f01601f19166020018201604052801561221e5781602001600182028036833780820191505090505b505f614a12565b50565b5f60795f8373ffffffffffffffffffffffffffffffffffffffff1673ffffffffffffffffffffffffffffffffffffffff1681526020019081526020015f2060010160089054906101000a900467ffffffffffffffff169050919050565b60735481565b6122936128b5565b6122d2576040517f08c379a00000000000000000000000000000000000000000000000000000000081526004016122c990617c1e565b60405180910390fd5b6122da612986565b67ffffffffffffffff168467ffffffffffffffff161461232f576040517f08c379a000000000000000000000000000000000000000000000000000000000815260040161232690618450565b60405180910390fd5b61233b82858584614b7c565b5060177fea8787f128d10b2cc0317b0c3960f9ad447f7f6c1ed189db1083ccffd20f456e60405160405180910390a250505050565b606a5f9054906101000a900473ffffffffffffffffffffffffffffffffffffffff1673ffffffffffffffffffffffffffffffffffffffff166347fb24c583836040518363ffffffff1660e01b81526004016123cc929190618029565b5f604051808303815f87803b1580156123e3575f80fd5b505af11580156123f5573d5f803e3d5ffd5b5050505060027fea8787f128d10b2cc0317b0c3960f9ad447f7f6c1ed189db1083ccffd20f456e60405160405180910390a25050565b7f000000000000000000000000000000000000000000000000000000000000000073ffffffffffffffffffffffffffffffffffffffff163073ffffffffffffffffffffffffffffffffffffffff16036124b9576040517f08c379a00000000000000000000000000000000000000000000000000000000081526004016124b090617e23565b60405180910390fd5b7f000000000000000000000000000000000000000000000000000000000000000073ffffffffffffffffffffffffffffffffffffffff166124f86142ee565b73ffffffffffffffffffffffffffffffffffffffff161461254e576040517f08c379a000000000000000000000000000000000000000000000000000000000815260040161254590617eb1565b60405180910390fd5b61255782614a0f565b61256382826001614a12565b5050565b606a5f9054906101000a900473ffffffffffffffffffffffffffffffffffffffff1673ffffffffffffffffffffffffffffffffffffffff16634f61f850826040518263ffffffff1660e01b81526004016125c19190616ec3565b5f604051808303815f87803b1580156125d8575f80fd5b505af11580156125ea573d5f803e3d5ffd5b50505050601b7fea8787f128d10b2cc0317b0c3960f9ad447f7f6c1ed189db1083ccffd20f456e60405160405180910390a250565b60725f9054906101000a900473ffffffffffffffffffffffffffffffffffffffff1681565b5f7f000000000000000000000000000000000000000000000000000000000000000073ffffffffffffffffffffffffffffffffffffffff163073ffffffffffffffffffffffffffffffffffffffff16146126d3576040517f08c379a00000000000000000000000000000000000000000000000000000000081526004016126ca906184de565b60405180910390fd5b7f360894a13ba1a3210667c828492db98dca3e2076cc3735a920a3ca505d382bbc5f1b905090565b8060695f6101000a81548173ffffffffffffffffffffffffffffffffffffffff021916908373ffffffffffffffffffffffffffffffffffffffff160217905550601c7fea8787f128d10b2cc0317b0c3960f9ad447f7f6c1ed189db1083ccffd20f456e60405160405180910390a250565b606b5f9054906101000a900473ffffffffffffffffffffffffffffffffffffffff1673ffffffffffffffffffffffffffffffffffffffff168173ffffffffffffffffffffffffffffffffffffffff16036127fb576040517f08c379a00000000000000000000000000000000000000000000000000000000081526004016127f290618546565b60405180910390fd5b606a5f9054906101000a900473ffffffffffffffffffffffffffffffffffffffff1673ffffffffffffffffffffffffffffffffffffffff1663cee3d728825f6040518363ffffffff1660e01b8152600401612857929190618029565b5f604051808303815f87803b15801561286e575f80fd5b505af1158015612880573d5f803e3d5ffd5b5050505060017fea8787f128d10b2cc0317b0c3960f9ad447f7f6c1ed189db1083ccffd20f456e60405160405180910390a250565b5f60335f9054906101000a900460ff16905090565b80606560086101000a81548167ffffffffffffffff021916908367ffffffffffffffff160217905550600a7fea8787f128d10b2cc0317b0c3960f9ad447f7f6c1ed189db1083ccffd20f456e60405160405180910390a250565b5f60795f8373ffffffffffffffffffffffffffffffffffffffff1673ffffffffffffffffffffffffffffffffffffffff1681526020019081526020015f2060010160189054906101000a900460ff169050919050565b5f607a80549050905090565b5f60755f9054906101000a900467ffffffffffffffff16905090565b5f60795f8373ffffffffffffffffffffffffffffffffffffffff1673ffffffffffffffffffffffffffffffffffffffff1681526020019081526020015f2060010160109054906101000a900467ffffffffffffffff169050919050565b5f60788267ffffffffffffffff1681548110612a1e57612a1d618564565b5b905f5260205f20015f9054906101000a900473ffffffffffffffffffffffffffffffffffffffff169050919050565b607c5481565b60675481565b606560089054906101000a900467ffffffffffffffff1681565b612a7b6128b5565b612aba576040517f08c379a0000000000000000000000000000000000000000000000000000000008152600401612ab190617c1e565b60405180910390fd5b5f805f1b90505f600190505f612ace612e34565b67ffffffffffffffff1614612b18576040517f08c379a0000000000000000000000000000000000000000000000000000000008152600401612b0f906185db565b60405180910390fd5b612b25835f015f01615258565b612b64576040517f08c379a0000000000000000000000000000000000000000000000000000000008152600401612b5b90618643565b60405180910390fd5b60016003811115612b7857612b77618661565b5b835f016080016020810190612b8d91906186b1565b6003811115612b9f57612b9e618661565b5b14612bdf576040517f08c379a0000000000000000000000000000000000000000000000000000000008152600401612bd690618726565b60405180910390fd5b818360a0015f015f01600160028110612bfb57612bfa618564565b5b602002013514612c40576040517f08c379a0000000000000000000000000000000000000000000000000000000008152600401612c379061878e565b60405180910390fd5b8067ffffffffffffffff168360a0015f016040015f60028110612c6657612c65618564565b5b602002016020810190612c799190617505565b67ffffffffffffffff1614612cc3576040517f08c379a0000000000000000000000000000000000000000000000000000000008152600401612cba906187f6565b60405180910390fd5b5f8360a0015f01604001600160028110612ce057612cdf618564565b5b602002016020810190612cf39190617505565b67ffffffffffffffff1614612d3d576040517f08c379a0000000000000000000000000000000000000000000000000000000008152600401612d349061885e565b60405180910390fd5b60016003811115612d5157612d50618661565b5b8360a0016080016020810190612d6791906186b1565b6003811115612d7957612d78618661565b5b14612db9576040517f08c379a0000000000000000000000000000000000000000000000000000000008152600401612db0906188c6565b60405180910390fd5b5f8360a0015f015f015f60028110612dd457612dd3618564565b5b60200201359050612df3845f8467ffffffffffffffff165f801b614b7c565b50612e0060018285614884565b601d7fea8787f128d10b2cc0317b0c3960f9ad447f7f6c1ed189db1083ccffd20f456e60405160405180910390a250505050565b5f607560109054906101000a900467ffffffffffffffff16905090565b612e596128b5565b612e98576040517f08c379a0000000000000000000000000000000000000000000000000000000008152600401612e8f90617c1e565b60405180910390fd5b5f8282905011612edd576040517f08c379a0000000000000000000000000000000000000000000000000000000008152600401612ed49061892e565b60405180910390fd5b5f5b8282905081101561302a575f67ffffffffffffffff1660795f858585818110612f0b57612f0a618564565b5b9050602002016020810190612f209190616f8b565b73ffffffffffffffffffffffffffffffffffffffff1673ffffffffffffffffffffffffffffffffffffffff1681526020019081526020015f2060010160109054906101000a900467ffffffffffffffff1667ffffffffffffffff1614612fbb576040517f08c379a0000000000000000000000000000000000000000000000000000000008152600401612fb290618996565b60405180910390fd5b612fec838383818110612fd157612fd0618564565b5b9050602002016020810190612fe69190616f8b565b5f615320565b5061301d83838381811061300357613002618564565b5b90506020020160208101906130189190616f8b565b615428565b8080600101915050612edf565b5060167fea8787f128d10b2cc0317b0c3960f9ad447f7f6c1ed189db1083ccffd20f456e60405160405180910390a25050565b61306561555a565b60037fea8787f128d10b2cc0317b0c3960f9ad447f7f6c1ed189db1083ccffd20f456e60405160405180910390a2565b8173ffffffffffffffffffffffffffffffffffffffff16633659cfe6826040518263ffffffff1660e01b81526004016130ce9190616ec3565b5f604051808303815f87803b1580156130e5575f80fd5b505af11580156130f7573d5f803e3d5ffd5b5050505060147fea8787f128d10b2cc0317b0c3960f9ad447f7f6c1ed189db1083ccffd20f456e60405160405180910390a25050565b5f607560189054906101000a900467ffffffffffffffff16905090565b80606881905550601a7fea8787f128d10b2cc0317b0c3960f9ad447f7f6c1ed189db1083ccffd20f456e60405160405180910390a250565b60685481565b5f805f90505b607a8054905081101561322257607a81815481106131af576131ae618564565b5b905f5260205f20015f015f9054906101000a900473ffffffffffffffffffffffffffffffffffffffff1673ffffffffffffffffffffffffffffffffffffffff168373ffffffffffffffffffffffffffffffffffffffff1603613215576001915050613227565b808060010191505061318e565b505f90505b919050565b613234616c70565b61323d826155fc565b604051806101800160405290815f82015481526020016001820154815260200160028201548152602001600382015f9054906101000a900467ffffffffffffffff1667ffffffffffffffff1667ffffffffffffffff1681526020016003820160089054906101000a900467ffffffffffffffff1667ffffffffffffffff1667ffffffffffffffff1681526020016003820160109054906101000a900467ffffffffffffffff1667ffffffffffffffff1667ffffffffffffffff1681526020016003820160189054906101000a900467ffffffffffffffff1667ffffffffffffffff1667ffffffffffffffff168152602001600482015f9054906101000a900467ffffffffffffffff1667ffffffffffffffff1667ffffffffffffffff1681526020016004820160089054906101000a900467ffffffffffffffff1667ffffffffffffffff1667ffffffffffffffff1681526020016004820160109054906101000a900467ffffffffffffffff1667ffffffffffffffff1667ffffffffffffffff1681526020016004820160189054906101000a900467ffffffffffffffff1667ffffffffffffffff1667ffffffffffffffff1681526020016005820154815250509050919050565b8060738190555060087fea8787f128d10b2cc0317b0c3960f9ad447f7f6c1ed189db1083ccffd20f456e60405160405180910390a250565b7f000000000000000000000000000000000000000000000000000000000000000073ffffffffffffffffffffffffffffffffffffffff163073ffffffffffffffffffffffffffffffffffffffff16036134cb576040517f08c379a00000000000000000000000000000000000000000000000000000000081526004016134c290617e23565b60405180910390fd5b7f000000000000000000000000000000000000000000000000000000000000000073ffffffffffffffffffffffffffffffffffffffff1661350a6142ee565b73ffffffffffffffffffffffffffffffffffffffff1614613560576040517f08c379a000000000000000000000000000000000000000000000000000000000815260040161355790617eb1565b60405180910390fd5b61356982614341565b61357582826001614344565b5050565b60665481565b613587616d21565b60795f8373ffffffffffffffffffffffffffffffffffffffff1673ffffffffffffffffffffffffffffffffffffffff1681526020019081526020015f206040518060a00160405290815f8201548152602001600182015f9054906101000a900467ffffffffffffffff1667ffffffffffffffff1667ffffffffffffffff1681526020016001820160089054906101000a900467ffffffffffffffff1667ffffffffffffffff1667ffffffffffffffff1681526020016001820160109054906101000a900467ffffffffffffffff1667ffffffffffffffff1667ffffffffffffffff1681526020016001820160189054906101000a900460ff1615151515815250509050919050565b80607e5f6101000a81548160ff021916908315150217905550601e7fea8787f128d10b2cc0317b0c3960f9ad447f7f6c1ed189db1083ccffd20f456e60405160405180910390a250565b5f848490501161371e576040517f08c379a00000000000000000000000000000000000000000000000000000000081526004016137159061892e565b60405180910390fd5b818190508484905014613766576040517f08c379a000000000000000000000000000000000000000000000000000000000815260040161375d906189fe565b60405180910390fd5b5f5b848490508110156138225782828281811061378657613785618564565b5b905060200201602081019061379b9190617836565b60745f8787858181106137b1576137b0618564565b5b90506020020160208101906137c69190616f8b565b73ffffffffffffffffffffffffffffffffffffffff1673ffffffffffffffffffffffffffffffffffffffff1681526020019081526020015f205f6101000a81548160ff0219169083151502179055508080600101915050613768565b5060067fea8787f128d10b2cc0317b0c3960f9ad447f7f6c1ed189db1083ccffd20f456e60405160405180910390a250505050565b606d5f9054906101000a900473ffffffffffffffffffffffffffffffffffffffff1681565b5f60775f8467ffffffffffffffff1667ffffffffffffffff1681526020019081526020015f205f8373ffffffffffffffffffffffffffffffffffffffff1673ffffffffffffffffffffffffffffffffffffffff1681526020019081526020015f205f9054906101000a900460ff16905092915050565b60705f9054906101000a900473ffffffffffffffffffffffffffffffffffffffff1681565b606b5f9054906101000a900473ffffffffffffffffffffffffffffffffffffffff1681565b5f8167ffffffffffffffff1611613988576040517f08c379a000000000000000000000000000000000000000000000000000000000815260040161397f90618a66565b60405180910390fd5b8060655f6101000a81548167ffffffffffffffff021916908367ffffffffffffffff16021790555060097fea8787f128d10b2cc0317b0c3960f9ad447f7f6c1ed189db1083ccffd20f456e60405160405180910390a250565b5f607a82815481106139f6576139f5618564565b5b905f5260205f20015f015f9054906101000a900473ffffffffffffffffffffffffffffffffffffffff169050919050565b5f607560089054906101000a900467ffffffffffffffff16905090565b5f60795f8373ffffffffffffffffffffffffffffffffffffffff1673ffffffffffffffffffffffffffffffffffffffff1681526020019081526020015f2060010160189054906101000a900460ff168015613aba5750613ab960755f9054906101000a900467ffffffffffffffff168361387c565b5b9050919050565b5f607880549050905090565b606a5f9054906101000a900473ffffffffffffffffffffffffffffffffffffffff1681565b6079602052805f5260405f205f91509050805f015490806001015f9054906101000a900467ffffffffffffffff16908060010160089054906101000a900467ffffffffffffffff16908060010160109054906101000a900467ffffffffffffffff16908060010160189054906101000a900460ff16905085565b606c5f9054906101000a900473ffffffffffffffffffffffffffffffffffffffff1681565b5f60795f8373ffffffffffffffffffffffffffffffffffffffff1673ffffffffffffffffffffffffffffffffffffffff1681526020019081526020015f205f01549050919050565b60715f9054906101000a900473ffffffffffffffffffffffffffffffffffffffff1681565b5f607a8281548110613c1357613c12618564565b5b905f5260205f20015f0160149054906101000a900467ffffffffffffffff169050919050565b613c416128b5565b613c80576040517f08c379a0000000000000000000000000000000000000000000000000000000008152600401613c7790617c1e565b60405180910390fd5b5f8484905011613cc5576040517f08c379a0000000000000000000000000000000000000000000000000000000008152600401613cbc9061892e565b60405180910390fd5b818190508484905014613d0d576040517f08c379a0000000000000000000000000000000000000000000000000000000008152600401613d04906189fe565b60405180910390fd5b5f5b84849050811015613ec0575f613d73868684818110613d3157613d30618564565b5b9050602002016020810190613d469190616f8b565b858585818110613d5957613d58618564565b5b9050602002016020810190613d6e9190616f8b565b615629565b90505f67ffffffffffffffff168167ffffffffffffffff1603613dcb576040517f08c379a0000000000000000000000000000000000000000000000000000000008152600401613dc290618ace565b60405180910390fd5b613dfb868684818110613de157613de0618564565b5b9050602002016020810190613df69190616f8b565b615796565b613e2b848484818110613e1157613e10618564565b5b9050602002016020810190613e269190616f8b565b615796565b606e5f9054906101000a900473ffffffffffffffffffffffffffffffffffffffff1673ffffffffffffffffffffffffffffffffffffffff166356e9df97826040518263ffffffff1660e01b8152600401613e85919061712e565b5f604051808303815f87803b158015613e9c575f80fd5b505af1158015613eae573d5f803e3d5ffd5b50505050508080600101915050613d0f565b5060157fea8787f128d10b2cc0317b0c3960f9ad447f7f6c1ed189db1083ccffd20f456e60405160405180910390a250505050565b5f7f000000000000000000000000000000000000000000000000000000000000000015613f90575f607f5f8467ffffffffffffffff1667ffffffffffffffff1681526020019081526020015f205490505f8111613f87576040517f08c379a0000000000000000000000000000000000000000000000000000000008152600401613f7e90618b36565b60405180910390fd5b80915050614027565b5f613f9a836155fc565b90505f8160030160089054906101000a900467ffffffffffffffff1667ffffffffffffffff1603614000576040517f08c379a0000000000000000000000000000000000000000000000000000000008152600401613ff790618b36565b60405180910390fd5b8060040160189054906101000a900467ffffffffffffffff1667ffffffffffffffff169150505b919050565b6074602052805f5260405f205f915054906101000a900460ff1681565b60695f9054906101000a900473ffffffffffffffffffffffffffffffffffffffff1681565b614076614831565b73ffffffffffffffffffffffffffffffffffffffff168173ffffffffffffffffffffffffffffffffffffffff16036140e3576040517f08c379a00000000000000000000000000000000000000000000000000000000081526004016140da90618b9e565b60405180910390fd5b8060715f6101000a81548173ffffffffffffffffffffffffffffffffffffffff021916908373ffffffffffffffffffffffffffffffffffffffff16021790555060197fea8787f128d10b2cc0317b0c3960f9ad447f7f6c1ed189db1083ccffd20f456e60405160405180910390a250565b80606b5f6101000a81548173ffffffffffffffffffffffffffffffffffffffff021916908373ffffffffffffffffffffffffffffffffffffffff160217905550606a5f9054906101000a900473ffffffffffffffffffffffffffffffffffffffff1673ffffffffffffffffffffffffffffffffffffffff1663cee3d7288260016040518363ffffffff1660e01b81526004016141f1929190618029565b5f604051808303815f87803b158015614208575f80fd5b505af115801561421a573d5f803e3d5ffd5b505050505f7fea8787f128d10b2cc0317b0c3960f9ad447f7f6c1ed189db1083ccffd20f456e60405160405180910390a250565b6142566128b5565b614295576040517f08c379a000000000000000000000000000000000000000000000000000000000815260040161428c90617c1e565b60405180910390fd5b5f60335f6101000a81548160ff0219169083151502179055507f5db9ee0a495bf2e6ff9c91a7834c1ba4fdd244a5e8aa4e537bd38aeae4b073aa6142d7615805565b6040516142e49190616ec3565b60405180910390a1565b5f61431a7f360894a13ba1a3210667c828492db98dca3e2076cc3735a920a3ca505d382bbc5f1b61580c565b5f015f9054906101000a900473ffffffffffffffffffffffffffffffffffffffff16905090565b50565b61436f7f49bd798cd84788856140a4cd5030756b4d08a9e4d55db725ec195f232d262a895f1b615815565b5f015f9054906101000a900460ff16156143915761438c8361581e565b6144a9565b8273ffffffffffffffffffffffffffffffffffffffff166352d1902d6040518163ffffffff1660e01b8152600401602060405180830381865afa9250505080156143f957506040513d601f19601f820116820180604052508101906143f69190618bd0565b60015b614438576040517f08c379a000000000000000000000000000000000000000000000000000000000815260040161442f90618c6b565b60405180910390fd5b7f2b1dbce74324248c222f0ec2d5ed7bd323cfc425b336f0253c5ccfda7265546d5f1b811461449c576040517f08c379a000000000000000000000000000000000000000000000000000000000815260040161449390618cf9565b60405180910390fd5b506144a88383836158d4565b5b505050565b7f7e644d79422f17c01e4894b5f4f588d331ebfa28653d42ae832dc59e38c9798f6144d7614831565b826040516144e6929190618d17565b60405180910390a16144f7816158ff565b50565b5f614504306159db565b15905090565b614512616c70565b61451a616d6b565b5f61454d60405180604001604052808481526020016001600381111561454357614542618661565b5b81525060016159fd565b9050614563815f801b5f801b5f435f801b615a40565b9250505090565b614572615b07565b8060765f8067ffffffffffffffff1667ffffffffffffffff1681526020019081526020015f205f820151815f015560208201518160010155604082015181600201556060820151816003015f6101000a81548167ffffffffffffffff021916908367ffffffffffffffff16021790555060808201518160030160086101000a81548167ffffffffffffffff021916908367ffffffffffffffff16021790555060a08201518160030160106101000a81548167ffffffffffffffff021916908367ffffffffffffffff16021790555060c08201518160030160186101000a81548167ffffffffffffffff021916908367ffffffffffffffff16021790555060e0820151816004015f6101000a81548167ffffffffffffffff021916908367ffffffffffffffff1602179055506101008201518160040160086101000a81548167ffffffffffffffff021916908367ffffffffffffffff1602179055506101208201518160040160106101000a81548167ffffffffffffffff021916908367ffffffffffffffff1602179055506101408201518160040160186101000a81548167ffffffffffffffff021916908367ffffffffffffffff160217905550610160820151816005015590505060015f6147489190618d6b565b607560086101000a81548167ffffffffffffffff021916908367ffffffffffffffff1602179055507f00000000000000000000000000000000000000000000000000000000000000001561482e57606473ffffffffffffffffffffffffffffffffffffffff1663a3b1b31d6040518163ffffffff1660e01b8152600401602060405180830381865afa1580156147e0573d5f803e3d5ffd5b505050506040513d601f19601f820116820180604052508101906148049190618dba565b607f5f8067ffffffffffffffff1667ffffffffffffffff1681526020019081526020015f20819055505b50565b5f61485d7fb53127684a568b3173ae13b9f8a6016e243e63b6e8ee1178d6a717850b5d61035f1b61580c565b5f015f9054906101000a900473ffffffffffffffffffffffffffffffffffffffff16905090565b5f61488e846155fc565b905061489a8383615b5f565b8160020154146148df576040517f08c379a00000000000000000000000000000000000000000000000000000000081526004016148d690618e2f565b60405180910390fd5b606b5f9054906101000a900473ffffffffffffffffffffffffffffffffffffffff1673ffffffffffffffffffffffffffffffffffffffff1663a04cee6083856040518363ffffffff1660e01b815260040161493b929190618e4d565b5f604051808303815f87803b158015614952575f80fd5b505af1158015614964573d5f803e3d5ffd5b505050508360755f6101000a81548167ffffffffffffffff021916908367ffffffffffffffff16021790555060018461499d9190618d6b565b607560086101000a81548167ffffffffffffffff021916908367ffffffffffffffff1602179055508367ffffffffffffffff167f22ef0479a7ff660660d1c2fe35f1b632cf31675c2d9378db8cec95b00d8ffa3c8484604051614a01929190618e4d565b60405180910390a250505050565b50565b614a3d7f4910fdfa16fed3260ed0e7147f7cc6da11a60208b5b9406d12a635614ffd91435f1b615815565b5f015f9054906101000a900460ff1615614a5f57614a5a83615b91565b614b77565b8273ffffffffffffffffffffffffffffffffffffffff166352d1902d6040518163ffffffff1660e01b8152600401602060405180830381865afa925050508015614ac757506040513d601f19601f82011682018060405250810190614ac49190618bd0565b60015b614b06576040517f08c379a0000000000000000000000000000000000000000000000000000000008152600401614afd90618ee4565b60405180910390fd5b7f360894a13ba1a3210667c828492db98dca3e2076cc3735a920a3ca505d382bbc5f1b8114614b6a576040517f08c379a0000000000000000000000000000000000000000000000000000000008152600401614b6190618f72565b60405180910390fd5b50614b76838383615c47565b5b505050565b5f60016003811115614b9157614b90618661565b5b8560a0016080016020810190614ba791906186b1565b6003811115614bb957614bb8618661565b5b1480614bfe575060026003811115614bd457614bd3618661565b5b8560a0016080016020810190614bea91906186b1565b6003811115614bfc57614bfb618661565b5b145b614c3d576040517f08c379a0000000000000000000000000000000000000000000000000000000008152600401614c3490618fda565b60405180910390fd5b614c45616d91565b614c4e8561322c565b8160600181905250606a5f9054906101000a900473ffffffffffffffffffffffffffffffffffffffff1673ffffffffffffffffffffffffffffffffffffffff166284120c6040518163ffffffff1660e01b8152600401602060405180830381865afa158015614cbf573d5f803e3d5ffd5b505050506040513d601f19601f82011682018060405250810190614ce39190618dba565b815f01818152505080606001515f0151614cff875f0186615c72565b14614d3f576040517f08c379a0000000000000000000000000000000000000000000000000000000008152600401614d3690619042565b60405180910390fd5b5f614d5e8760a0015f01803603810190614d59919061920d565b615cd2565b90505f614d7e885f015f01803603810190614d79919061920d565b615cd2565b90508067ffffffffffffffff168267ffffffffffffffff161015614dd7576040517f08c379a0000000000000000000000000000000000000000000000000000000008152600401614dce90619282565b60405180910390fd5b8067ffffffffffffffff168267ffffffffffffffff1603614e8357614e0f885f015f01803603810190614e0a919061920d565b615cf6565b67ffffffffffffffff16614e378960a0015f01803603810190614e32919061920d565b615cf6565b67ffffffffffffffff161015614e82576040517f08c379a0000000000000000000000000000000000000000000000000000000008152600401614e79906192ea565b60405180910390fd5b5b60026003811115614e9757614e96618661565b5b8860a0016080016020810190614ead91906186b1565b6003811115614ebf57614ebe618661565b5b1480614ef157505f614ee58960a0015f01803603810190614ee0919061920d565b615cf6565b67ffffffffffffffff16115b15614f05578180614f0190619308565b9250505b825f01518267ffffffffffffffff161115614f55576040517f08c379a0000000000000000000000000000000000000000000000000000000008152600401614f4c90619381565b60405180910390fd5b5f8267ffffffffffffffff16111561501657606a5f9054906101000a900473ffffffffffffffffffffffffffffffffffffffff1673ffffffffffffffffffffffffffffffffffffffff166316bf5579600184614fb1919061939f565b6040518263ffffffff1660e01b8152600401614fcd919061940a565b602060405180830381865afa158015614fe8573d5f803e3d5ffd5b505050506040513d601f19601f8201168201806040525081019061500c9190618bd0565b8360e00181815250505b50506150318680360381019061502c91906194d3565b615d1b565b81604001818152505060655f9054906101000a900467ffffffffffffffff164361505b9190618d6b565b8160c0019067ffffffffffffffff16908167ffffffffffffffff16815250505f8160600151610120015167ffffffffffffffff16118160a00190151590811515815250508060a00151156150cd576150bb816060015161012001516155fc565b600501548160800181815250506150e1565b806060015161016001518160800181815250505b6151008160a00151826080015183604001518460e00151606854615e20565b91508282148061511157505f801b83145b615150576040517f08c379a000000000000000000000000000000000000000000000000000000000815260040161514790619549565b60405180910390fd5b6151996151638760a001835f0151615c72565b615174836040015143606854615e6d565b61518d8980360381019061518891906194d3565b615ea2565b888560c0015187615a40565b81602001819052505f60016151ac612e34565b6151b69190618d6b565b90505f6151c2876155fc565b90506151d78282615ed290919063ffffffff16565b6151e48360200151615f56565b505081816060015161016001516151f9612e34565b67ffffffffffffffff167f4f4caa9e67fb994e349dd35d1ad0ce23053d4323f83ce11dc817b5435031d09684604001518a8660e00151606854885f015160405161524795949392919061978d565b60405180910390a450949350505050565b5f805f1b825f015f6002811061527157615270618564565b5b602002013514801561529e57505f801b825f0160016002811061529757615296618564565b5b6020020135145b80156152db57505f826040015f600281106152bc576152bb618564565b5b6020020160208101906152cf9190617505565b67ffffffffffffffff16145b801561531957505f826040016001600281106152fa576152f9618564565b5b60200201602081019061530d9190617505565b67ffffffffffffffff16145b9050919050565b5f8060795f8573ffffffffffffffffffffffffffffffffffffffff1673ffffffffffffffffffffffffffffffffffffffff1681526020019081526020015f2090505f815f01549050808411156153ab576040517f08c379a00000000000000000000000000000000000000000000000000000000081526004016153a29061982c565b60405180910390fd5b5f84826153b8919061984a565b905084835f01819055506153cc8682616259565b8573ffffffffffffffffffffffffffffffffffffffff167febd093d389ab57f3566918d2c379a2b4d9539e8eb95efad9d5e465457833fde6838760405161541492919061987d565b60405180910390a280935050505092915050565b5f60795f8373ffffffffffffffffffffffffffffffffffffffff1673ffffffffffffffffffffffffffffffffffffffff1681526020019081526020015f209050607a60405180604001604052808473ffffffffffffffffffffffffffffffffffffffff1681526020018360010160089054906101000a900467ffffffffffffffff1667ffffffffffffffff16815250908060018154018082558091505060019003905f5260205f20015f909190919091505f820151815f015f6101000a81548173ffffffffffffffffffffffffffffffffffffffff021916908373ffffffffffffffffffffffffffffffffffffffff1602179055506020820151815f0160146101000a81548167ffffffffffffffff021916908367ffffffffffffffff160217905550505061555682616359565b5050565b6155626128b5565b156155a2576040517f08c379a0000000000000000000000000000000000000000000000000000000008152600401615599906198ee565b60405180910390fd5b600160335f6101000a81548160ff0219169083151502179055507f62e78cea01bee320cd4e420270b5ea74000d11b0c9f74754ebdbfc544b05a2586155e5615805565b6040516155f29190616ec3565b60405180910390a1565b5f60765f8367ffffffffffffffff1667ffffffffffffffff1681526020019081526020015f209050919050565b5f8060795f8573ffffffffffffffffffffffffffffffffffffffff1673ffffffffffffffffffffffffffffffffffffffff1681526020019081526020015f2090505f60795f8573ffffffffffffffffffffffffffffffffffffffff1673ffffffffffffffffffffffffffffffffffffffff1681526020019081526020015f2090505f8260010160109054906101000a900467ffffffffffffffff1690505f67ffffffffffffffff168167ffffffffffffffff160361571c576040517f08c379a000000000000000000000000000000000000000000000000000000000815260040161571390619956565b60405180910390fd5b8160010160109054906101000a900467ffffffffffffffff1667ffffffffffffffff168167ffffffffffffffff161461578a576040517f08c379a0000000000000000000000000000000000000000000000000000000008152600401615781906199be565b60405180910390fd5b80935050505092915050565b5f60795f8373ffffffffffffffffffffffffffffffffffffffff1673ffffffffffffffffffffffffffffffffffffffff1681526020019081526020015f2090505f8160010160106101000a81548167ffffffffffffffff021916908367ffffffffffffffff1602179055505050565b5f33905090565b5f819050919050565b5f819050919050565b61582781616653565b615866576040517f08c379a000000000000000000000000000000000000000000000000000000000815260040161585d90619a4c565b60405180910390fd5b806158927f2b1dbce74324248c222f0ec2d5ed7bd323cfc425b336f0253c5ccfda7265546d5f1b61580c565b5f015f6101000a81548173ffffffffffffffffffffffffffffffffffffffff021916908373ffffffffffffffffffffffffffffffffffffffff16021790555050565b6158dd83616675565b5f825111806158e95750805b156158fa576158f883836166c4565b505b505050565b5f73ffffffffffffffffffffffffffffffffffffffff168173ffffffffffffffffffffffffffffffffffffffff160361596d576040517f08c379a000000000000000000000000000000000000000000000000000000000815260040161596490619ada565b60405180910390fd5b806159997fb53127684a568b3173ae13b9f8a6016e243e63b6e8ee1178d6a717850b5d61035f1b61580c565b5f015f6101000a81548173ffffffffffffffffffffffffffffffffffffffff021916908373ffffffffffffffffffffffffffffffffffffffff16021790555050565b5f808273ffffffffffffffffffffffffffffffffffffffff163b119050919050565b5f615a0a835f01516166f1565b828460200151604051602001615a2293929190619b6c565b60405160208183030381529060405280519060200120905092915050565b615a48616c70565b615a50616c70565b87815f018181525050868160200181815250508581604001818152505084816060019067ffffffffffffffff16908167ffffffffffffffff168152505083816080019067ffffffffffffffff16908167ffffffffffffffff1681525050838160a0019067ffffffffffffffff16908167ffffffffffffffff16815250504381610140019067ffffffffffffffff16908167ffffffffffffffff16815250508281610160018181525050809150509695505050505050565b5f60019054906101000a900460ff16615b55576040517f08c379a0000000000000000000000000000000000000000000000000000000008152600401615b4c90619c18565b60405180910390fd5b615b5d616792565b565b5f8282604051602001615b73929190619c36565b60405160208183030381529060405280519060200120905092915050565b615b9a81616653565b615bd9576040517f08c379a0000000000000000000000000000000000000000000000000000000008152600401615bd090619cd1565b60405180910390fd5b80615c057f360894a13ba1a3210667c828492db98dca3e2076cc3735a920a3ca505d382bbc5f1b61580c565b5f015f6101000a81548173ffffffffffffffffffffffffffffffffffffffff021916908373ffffffffffffffffffffffffffffffffffffffff16021790555050565b615c50836167fb565b5f82511180615c5c5750805b15615c6d57615c6b83836166c4565b505b505050565b5f615c8e835f01803603810190615c89919061920d565b6166f1565b82846080016020810190615ca291906186b1565b604051602001615cb493929190619b6c565b60405160208183030381529060405280519060200120905092915050565b5f81602001515f60028110615cea57615ce9618564565b5b60200201519050919050565b5f8160200151600160028110615d0f57615d0e618564565b5b60200201519050919050565b5f615d24616df1565b825f015160200151815f60028110615d3f57615d3e618564565b5b60200201906003811115615d5657615d55618661565b5b90816003811115615d6a57615d69618661565b5b8152505082602001516020015181600160028110615d8b57615d8a618564565b5b60200201906003811115615da257615da1618661565b5b90816003811115615db657615db5618661565b5b81525050615dc2616e13565b835f01515f0151815f60028110615ddc57615ddb618564565b5b602002018190525083602001515f015181600160028110615e0057615dff618564565b5b6020020181905250615e178282866040015161684a565b92505050919050565b5f8086615e2d575f615e30565b60015b90508086868686604051602001615e4b959493929190619d12565b6040516020818303038152906040528051906020012091505095945050505050565b5f838383604051602001615e8393929190619d70565b6040516020818303038152906040528051906020012090509392505050565b5f615ecb615eb683602001515f0151616978565b615ec684602001515f015161699b565b615b5f565b9050919050565b5f8260040160089054906101000a900467ffffffffffffffff1667ffffffffffffffff1603615f2757438260040160086101000a81548167ffffffffffffffff021916908367ffffffffffffffff1602179055505b808260040160106101000a81548167ffffffffffffffff021916908367ffffffffffffffff1602179055505050565b6075601081819054906101000a900467ffffffffffffffff1680929190615f7c90619308565b91906101000a81548167ffffffffffffffff021916908367ffffffffffffffff160217905550508060765f607560109054906101000a900467ffffffffffffffff1667ffffffffffffffff1667ffffffffffffffff1681526020019081526020015f205f820151815f015560208201518160010155604082015181600201556060820151816003015f6101000a81548167ffffffffffffffff021916908367ffffffffffffffff16021790555060808201518160030160086101000a81548167ffffffffffffffff021916908367ffffffffffffffff16021790555060a08201518160030160106101000a81548167ffffffffffffffff021916908367ffffffffffffffff16021790555060c08201518160030160186101000a81548167ffffffffffffffff021916908367ffffffffffffffff16021790555060e0820151816004015f6101000a81548167ffffffffffffffff021916908367ffffffffffffffff1602179055506101008201518160040160086101000a81548167ffffffffffffffff021916908367ffffffffffffffff1602179055506101208201518160040160106101000a81548167ffffffffffffffff021916908367ffffffffffffffff1602179055506101408201518160040160186101000a81548167ffffffffffffffff021916908367ffffffffffffffff16021790555061016082015181600501559050507f00000000000000000000000000000000000000000000000000000000000000001561625657606473ffffffffffffffffffffffffffffffffffffffff1663a3b1b31d6040518163ffffffff1660e01b8152600401602060405180830381865afa1580156161f2573d5f803e3d5ffd5b505050506040513d601f19601f820116820180604052508101906162169190618dba565b607f5f607560109054906101000a900467ffffffffffffffff1667ffffffffffffffff1667ffffffffffffffff1681526020019081526020015f20819055505b50565b5f607b5f8473ffffffffffffffffffffffffffffffffffffffff1673ffffffffffffffffffffffffffffffffffffffff1681526020019081526020015f205490505f82826162a79190619dac565b905080607b5f8673ffffffffffffffffffffffffffffffffffffffff1673ffffffffffffffffffffffffffffffffffffffff1681526020019081526020015f208190555082607c5f8282546162fc9190619dac565b925050819055508373ffffffffffffffffffffffffffffffffffffffff167fa740af14c56e4e04a617b1de1eb20de73270decbaaead14f142aabf3038e5ae2838360405161634b92919061987d565b60405180910390a250505050565b5f60795f8373ffffffffffffffffffffffffffffffffffffffff1673ffffffffffffffffffffffffffffffffffffffff1681526020019081526020015f2090508060010160189054906101000a900460ff166163ea576040517f08c379a00000000000000000000000000000000000000000000000000000000081526004016163e190619e29565b60405180910390fd5b5f816001015f9054906101000a900467ffffffffffffffff16905060786001607880549050616419919061984a565b8154811061642a57616429618564565b5b905f5260205f20015f9054906101000a900473ffffffffffffffffffffffffffffffffffffffff1660788267ffffffffffffffff16815481106164705761646f618564565b5b905f5260205f20015f6101000a81548173ffffffffffffffffffffffffffffffffffffffff021916908373ffffffffffffffffffffffffffffffffffffffff1602179055508060795f60788467ffffffffffffffff16815481106164d7576164d6618564565b5b905f5260205f20015f9054906101000a900473ffffffffffffffffffffffffffffffffffffffff1673ffffffffffffffffffffffffffffffffffffffff1673ffffffffffffffffffffffffffffffffffffffff1681526020019081526020015f206001015f6101000a81548167ffffffffffffffff021916908367ffffffffffffffff160217905550607880548061657257616571619e47565b5b600190038181905f5260205f20015f6101000a81549073ffffffffffffffffffffffffffffffffffffffff0219169055905560795f8473ffffffffffffffffffffffffffffffffffffffff1673ffffffffffffffffffffffffffffffffffffffff1681526020019081526020015f205f8082015f9055600182015f6101000a81549067ffffffffffffffff02191690556001820160086101000a81549067ffffffffffffffff02191690556001820160106101000a81549067ffffffffffffffff02191690556001820160186101000a81549060ff02191690555050505050565b5f808273ffffffffffffffffffffffffffffffffffffffff163b119050919050565b61667e8161581e565b8073ffffffffffffffffffffffffffffffffffffffff167ff7eed2a7fabbf1bec8d55ed5e785cc76622376dde5df4ff15470551e030b813460405160405180910390a250565b60606166e9838360405180606001604052806027815260200161a33a602791396169bf565b905092915050565b5f815f01515f6002811061670857616707618564565b5b6020020151825f015160016002811061672457616723618564565b5b602002015183602001515f600281106167405761673f618564565b5b6020020151846020015160016002811061675d5761675c618564565b5b60200201516040516020016167759493929190619efc565b604051602081830303815290604052805190602001209050919050565b5f60019054906101000a900460ff166167e0576040517f08c379a00000000000000000000000000000000000000000000000000000000081526004016167d790619c18565b60405180910390fd5b5f60335f6101000a81548160ff021916908315150217905550565b61680481615b91565b8073ffffffffffffffffffffffffffffffffffffffff167fbc7cd75a20ee27fd9adebab32041f755214dbc6bffa90cc0225b39da2e5c2d3b60405160405180910390a250565b5f80600267ffffffffffffffff811115616867576168666172f9565b5b6040519080825280602002602001820160405280156168955781602001602082028036833780820191505090505b5090506168d8855f600281106168ae576168ad618564565b5b60200201516168d3865f600281106168c9576168c8618564565b5b60200201516166f1565b616a88565b815f815181106168eb576168ea618564565b5b6020026020010181815250506169398560016002811061690e5761690d618564565b5b60200201516169348660016002811061692a57616929618564565b5b60200201516166f1565b616a88565b8160018151811061694d5761694c618564565b5b60200260200101818152505061696e5f8467ffffffffffffffff1683616bd5565b9150509392505050565b5f815f01515f6002811061698f5761698e618564565b5b60200201519050919050565b5f815f01516001600281106169b3576169b2618564565b5b60200201519050919050565b60606169ca84616653565b616a09576040517f08c379a0000000000000000000000000000000000000000000000000000000008152600401616a0090619fc4565b60405180910390fd5b5f808573ffffffffffffffffffffffffffffffffffffffff1685604051616a30919061a034565b5f60405180830381855af49150503d805f8114616a68576040519150601f19603f3d011682016040523d82523d5f602084013e616a6d565b606091505b5091509150616a7d828286616c0a565b925050509392505050565b5f60016003811115616a9d57616a9c618661565b5b836003811115616ab057616aaf618661565b5b03616ae35781604051602001616ac6919061a094565b604051602081830303815290604052805190602001209050616bcf565b60026003811115616af757616af6618661565b5b836003811115616b0a57616b09618661565b5b03616b3d5781604051602001616b20919061a103565b604051602081830303815290604052805190602001209050616bcf565b600380811115616b5057616b4f618661565b5b836003811115616b6357616b62618661565b5b03616b9457604051602001616b779061a172565b604051602081830303815290604052805190602001209050616bcf565b6040517f08c379a0000000000000000000000000000000000000000000000000000000008152600401616bc69061a1d0565b60405180910390fd5b92915050565b5f838383604051602001616beb9392919061a29f565b6040516020818303038152906040528051906020012090509392505050565b60608315616c1a57829050616c69565b5f83511115616c2c5782518084602001fd5b816040517f08c379a0000000000000000000000000000000000000000000000000000000008152600401616c60919061a319565b60405180910390fd5b9392505050565b6040518061018001604052805f80191681526020015f80191681526020015f80191681526020015f67ffffffffffffffff1681526020015f67ffffffffffffffff1681526020015f67ffffffffffffffff1681526020015f67ffffffffffffffff1681526020015f67ffffffffffffffff1681526020015f67ffffffffffffffff1681526020015f67ffffffffffffffff1681526020015f67ffffffffffffffff1681526020015f80191681525090565b6040518060a001604052805f81526020015f67ffffffffffffffff1681526020015f67ffffffffffffffff1681526020015f67ffffffffffffffff1681526020015f151581525090565b6040518060400160405280616d7e616e40565b8152602001616d8b616e62565b81525090565b6040518061010001604052805f8152602001616dab616c70565b81526020015f8019168152602001616dc1616c70565b81526020015f80191681526020015f151581526020015f67ffffffffffffffff1681526020015f80191681525090565b6040518060400160405280600290602082028036833780820191505090505090565b60405180604001604052806002905b616e2a616d6b565b815260200190600190039081616e225790505090565b6040518060400160405280600290602082028036833780820191505090505090565b6040518060400160405280600290602082028036833780820191505090505090565b5f73ffffffffffffffffffffffffffffffffffffffff82169050919050565b5f616ead82616e84565b9050919050565b616ebd81616ea3565b82525050565b5f602082019050616ed65f830184616eb4565b92915050565b5f819050919050565b5f616eff616efa616ef584616e84565b616edc565b616e84565b9050919050565b5f616f1082616ee5565b9050919050565b5f616f2182616f06565b9050919050565b616f3181616f17565b82525050565b5f602082019050616f4a5f830184616f28565b92915050565b5f604051905090565b5f80fd5b5f80fd5b616f6a81616ea3565b8114616f74575f80fd5b50565b5f81359050616f8581616f61565b92915050565b5f60208284031215616fa057616f9f616f59565b5b5f616fad84828501616f77565b91505092915050565b5f819050919050565b616fc881616fb6565b8114616fd2575f80fd5b50565b5f81359050616fe381616fbf565b92915050565b5f60208284031215616ffe57616ffd616f59565b5b5f61700b84828501616fd5565b91505092915050565b5f8115159050919050565b61702881617014565b82525050565b5f6020820190506170415f83018461701f565b92915050565b61705081616fb6565b82525050565b5f6020820190506170695f830184617047565b92915050565b5f80fd5b5f6101c082840312156170895761708861706f565b5b81905092915050565b5f61014082840312156170a8576170a761706f565b5b81905092915050565b5f8061016083850312156170c8576170c7616f59565b5b5f83013567ffffffffffffffff8111156170e5576170e4616f5d565b5b6170f185828601617073565b925050602061710285828601617092565b9150509250929050565b5f67ffffffffffffffff82169050919050565b6171288161710c565b82525050565b5f6020820190506171415f83018461711f565b92915050565b6171508161710c565b811461715a575f80fd5b50565b5f8135905061716b81617147565b92915050565b5f819050919050565b61718381617171565b811461718d575f80fd5b50565b5f8135905061719e8161717a565b92915050565b5f805f606084860312156171bb576171ba616f59565b5b5f6171c88682870161715d565b93505060206171d986828701617190565b92505060406171ea86828701617190565b9150509250925092565b5f610160828403121561720a5761720961706f565b5b81905092915050565b5f805f806101c0858703121561722c5761722b616f59565b5b5f6172398782880161715d565b945050602061724a87828801616fd5565b935050604061725b878288016171f4565b9250506101a061726d87828801617190565b91505092959194509250565b61728281617014565b811461728c575f80fd5b50565b5f8135905061729d81617279565b92915050565b5f80604083850312156172b9576172b8616f59565b5b5f6172c685828601616f77565b92505060206172d78582860161728f565b9150509250929050565b5f80fd5b5f80fd5b5f601f19601f8301169050919050565b7f4e487b71000000000000000000000000000000000000000000000000000000005f52604160045260245ffd5b61732f826172e9565b810181811067ffffffffffffffff8211171561734e5761734d6172f9565b5b80604052505050565b5f617360616f50565b905061736c8282617326565b919050565b5f67ffffffffffffffff82111561738b5761738a6172f9565b5b617394826172e9565b9050602081019050919050565b828183375f83830152505050565b5f6173c16173bc84617371565b617357565b9050828152602081018484840111156173dd576173dc6172e5565b5b6173e88482856173a1565b509392505050565b5f82601f830112617404576174036172e1565b5b81356174148482602086016173af565b91505092915050565b5f806040838503121561743357617432616f59565b5b5f61744085828601616f77565b925050602083013567ffffffffffffffff81111561746157617460616f5d565b5b61746d858286016173f0565b9150509250929050565b61748081617171565b82525050565b5f6020820190506174995f830184617477565b92915050565b5f6174a982616ea3565b9050919050565b6174b98161749f565b81146174c3575f80fd5b50565b5f813590506174d4816174b0565b92915050565b5f602082840312156174ef576174ee616f59565b5b5f6174fc848285016174c6565b91505092915050565b5f6020828403121561751a57617519616f59565b5b5f6175278482850161715d565b91505092915050565b5f610160828403121561754657617545616f59565b5b5f617553848285016171f4565b91505092915050565b5f80fd5b5f80fd5b5f8083601f840112617579576175786172e1565b5b8235905067ffffffffffffffff8111156175965761759561755c565b5b6020830191508360208202830111156175b2576175b1617560565b5b9250929050565b5f80602083850312156175cf576175ce616f59565b5b5f83013567ffffffffffffffff8111156175ec576175eb616f5d565b5b6175f885828601617564565b92509250509250929050565b5f806040838503121561761a57617619616f59565b5b5f61762785828601616f77565b925050602061763885828601616f77565b9150509250929050565b5f6020828403121561765757617656616f59565b5b5f61766484828501617190565b91505092915050565b61767681617171565b82525050565b6176858161710c565b82525050565b61018082015f8201516176a05f85018261766d565b5060208201516176b3602085018261766d565b5060408201516176c6604085018261766d565b5060608201516176d9606085018261767c565b5060808201516176ec608085018261767c565b5060a08201516176ff60a085018261767c565b5060c082015161771260c085018261767c565b5060e082015161772560e085018261767c565b5061010082015161773a61010085018261767c565b5061012082015161774f61012085018261767c565b5061014082015161776461014085018261767c565b5061016082015161777961016085018261766d565b50505050565b5f610180820190506177935f83018461768b565b92915050565b6177a281616fb6565b82525050565b6177b181617014565b82525050565b60a082015f8201516177cb5f850182617799565b5060208201516177de602085018261767c565b5060408201516177f1604085018261767c565b506060820151617804606085018261767c565b50608082015161781760808501826177a8565b50505050565b5f60a0820190506178305f8301846177b7565b92915050565b5f6020828403121561784b5761784a616f59565b5b5f6178588482850161728f565b91505092915050565b5f8083601f840112617876576178756172e1565b5b8235905067ffffffffffffffff8111156178935761789261755c565b5b6020830191508360208202830111156178af576178ae617560565b5b9250929050565b5f805f80604085870312156178ce576178cd616f59565b5b5f85013567ffffffffffffffff8111156178eb576178ea616f5d565b5b6178f787828801617564565b9450945050602085013567ffffffffffffffff81111561791a57617919616f5d565b5b61792687828801617861565b925092505092959194509250565b5f61793e82616f06565b9050919050565b61794e81617934565b82525050565b5f6020820190506179675f830184617945565b92915050565b5f806040838503121561798357617982616f59565b5b5f6179908582860161715d565b92505060206179a185828601616f77565b9150509250929050565b5f6179b582616f06565b9050919050565b6179c5816179ab565b82525050565b5f6020820190506179de5f8301846179bc565b92915050565b5f6179ee82616f06565b9050919050565b6179fe816179e4565b82525050565b5f602082019050617a175f8301846179f5565b92915050565b5f60a082019050617a305f830188617047565b617a3d602083018761711f565b617a4a604083018661711f565b617a57606083018561711f565b617a64608083018461701f565b9695505050505050565b5f617a7882616f06565b9050919050565b617a8881617a6e565b82525050565b5f602082019050617aa15f830184617a7f565b92915050565b5f805f8060408587031215617abf57617abe616f59565b5b5f85013567ffffffffffffffff811115617adc57617adb616f5d565b5b617ae887828801617564565b9450945050602085013567ffffffffffffffff811115617b0b57617b0a616f5d565b5b617b1787828801617564565b925092505092959194509250565b5f617b2f82616f06565b9050919050565b617b3f81617b25565b82525050565b5f602082019050617b585f830184617b36565b92915050565b5f617b6882616ea3565b9050919050565b617b7881617b5e565b8114617b82575f80fd5b50565b5f81359050617b9381617b6f565b92915050565b5f60208284031215617bae57617bad616f59565b5b5f617bbb84828501617b85565b91505092915050565b5f82825260208201905092915050565b7f5061757361626c653a206e6f74207061757365640000000000000000000000005f82015250565b5f617c08601483617bc4565b9150617c1382617bd4565b602082019050919050565b5f6020820190508181035f830152617c3581617bfc565b9050919050565b5f81519050617c4a81617279565b92915050565b5f60208284031215617c6557617c64616f59565b5b5f617c7284828501617c3c565b91505092915050565b7f4e4f5f555345525f4c4f4749435f535550504f525400000000000000000000005f82015250565b5f617caf601583617bc4565b9150617cba82617c7b565b602082019050919050565b5f6020820190508181035f830152617cdc81617ca3565b9050919050565b7f4e4f5f4143544956455f5354414b4552530000000000000000000000000000005f82015250565b5f617d17601183617bc4565b9150617d2282617ce3565b602082019050919050565b5f6020820190508181035f830152617d4481617d0b565b9050919050565b7f4e4f5f50454e44494e475f5749544844524157000000000000000000000000005f82015250565b5f617d7f601383617bc4565b9150617d8a82617d4b565b602082019050919050565b5f6020820190508181035f830152617dac81617d73565b9050919050565b7f46756e6374696f6e206d7573742062652063616c6c6564207468726f756768205f8201527f64656c656761746563616c6c0000000000000000000000000000000000000000602082015250565b5f617e0d602c83617bc4565b9150617e1882617db3565b604082019050919050565b5f6020820190508181035f830152617e3a81617e01565b9050919050565b7f46756e6374696f6e206d7573742062652063616c6c6564207468726f756768205f8201527f6163746976652070726f78790000000000000000000000000000000000000000602082015250565b5f617e9b602c83617bc4565b9150617ea682617e41565b604082019050919050565b5f6020820190508181035f830152617ec881617e8f565b9050919050565b7f496e697469616c697a61626c653a20636f6e747261637420697320616c7265615f8201527f647920696e697469616c697a6564000000000000000000000000000000000000602082015250565b5f617f29602e83617bc4565b9150617f3482617ecf565b604082019050919050565b5f6020820190508181035f830152617f5681617f1d565b9050919050565b5f617f6782616ea3565b9050919050565b617f7781617f5d565b8114617f81575f80fd5b50565b5f81359050617f9281617f6e565b92915050565b5f60208284031215617fad57617fac616f59565b5b5f617fba84828501617f84565b91505092915050565b5f617fcd82616ea3565b9050919050565b617fdd81617fc3565b8114617fe7575f80fd5b50565b5f81359050617ff881617fd4565b92915050565b5f6020828403121561801357618012616f59565b5b5f61802084828501617fea565b91505092915050565b5f60408201905061803c5f830185616eb4565b618049602083018461701f565b9392505050565b5f61805a82616ea3565b9050919050565b61806a81618050565b8114618074575f80fd5b50565b5f8135905061808581618061565b92915050565b5f602082840312156180a05761809f616f59565b5b5f6180ad84828501618077565b91505092915050565b5f80fd5b5f80fd5b5f80fd5b5f80833560016020038436030381126180de576180dd6180b6565b5b80840192508235915067ffffffffffffffff821115618100576180ff6180ba565b5b60208301925060018202360383131561811c5761811b6180be565b5b509250929050565b5f61812f8385617bc4565b935061813c8385846173a1565b618145836172e9565b840190509392505050565b5f6040820190506181635f830186617047565b8181036020830152618176818486618124565b9050949350505050565b5f819050919050565b5f6181a361819e61819984618180565b616edc565b616fb6565b9050919050565b6181b381618189565b82525050565b5f82825260208201905092915050565b50565b5f6181d75f836181b9565b91506181e2826181c9565b5f82019050919050565b5f819050919050565b5f61820f61820a618205846181ec565b616edc565b616fb6565b9050919050565b61821f816181f5565b82525050565b5f61822f82616f06565b9050919050565b61823f81618225565b82525050565b5f60c0820190506182585f8301886181aa565b8181036020830152618269816181cc565b90506182786040830187618216565b6182856060830186618236565b61829260808301856181aa565b61829f60a0830184618216565b9695505050505050565b5f6182b382616ea3565b9050919050565b6182c3816182a9565b81146182cd575f80fd5b50565b5f813590506182de816182ba565b92915050565b5f602082840312156182f9576182f8616f59565b5b5f618306848285016182d0565b91505092915050565b7f494e56414c49445f455343524f575f41444d494e0000000000000000000000005f82015250565b5f618343601483617bc4565b915061834e8261830f565b602082019050919050565b5f6020820190508181035f83015261837081618337565b9050919050565b7f494e56414c49445f455343524f575f4f574e45520000000000000000000000005f82015250565b5f6183ab601483617bc4565b91506183b682618377565b602082019050919050565b5f6020820190508181035f8301526183d88161839f565b9050919050565b5f6040820190506183f25f830185617477565b6183ff6020830184617047565b9392505050565b7f4f4e4c595f4c41544553545f434f4e4649524d454400000000000000000000005f82015250565b5f61843a601583617bc4565b915061844582618406565b602082019050919050565b5f6020820190508181035f8301526184678161842e565b9050919050565b7f555550535570677261646561626c653a206d757374206e6f742062652063616c5f8201527f6c6564207468726f7567682064656c656761746563616c6c0000000000000000602082015250565b5f6184c8603883617bc4565b91506184d38261846e565b604082019050919050565b5f6020820190508181035f8301526184f5816184bc565b9050919050565b7f4355525f4f5554424f58000000000000000000000000000000000000000000005f82015250565b5f618530600a83617bc4565b915061853b826184fc565b602082019050919050565b5f6020820190508181035f83015261855d81618524565b9050919050565b7f4e487b71000000000000000000000000000000000000000000000000000000005f52603260045260245ffd5b7f4e4f4e5f47454e455349535f4e4f4445535f45584953540000000000000000005f82015250565b5f6185c5601783617bc4565b91506185d082618591565b602082019050919050565b5f6020820190508181035f8301526185f2816185b9565b9050919050565b7f4e4f545f454d5054595f4245464f5245000000000000000000000000000000005f82015250565b5f61862d601083617bc4565b9150618638826185f9565b602082019050919050565b5f6020820190508181035f83015261865a81618621565b9050919050565b7f4e487b71000000000000000000000000000000000000000000000000000000005f52602160045260245ffd5b6004811061869a575f80fd5b50565b5f813590506186ab8161868e565b92915050565b5f602082840312156186c6576186c5616f59565b5b5f6186d38482850161869d565b91505092915050565b7f4245464f52455f4d414348494e455f4e4f545f46494e495348454400000000005f82015250565b5f618710601b83617bc4565b915061871b826186dc565b602082019050919050565b5f6020820190508181035f83015261873d81618704565b9050919050565b7f4e4f545f5a45524f5f53454e44524f4f540000000000000000000000000000005f82015250565b5f618778601183617bc4565b915061878382618744565b602082019050919050565b5f6020820190508181035f8301526187a58161876c565b9050919050565b7f494e424f585f4e4f545f41545f4f4e45000000000000000000000000000000005f82015250565b5f6187e0601083617bc4565b91506187eb826187ac565b602082019050919050565b5f6020820190508181035f83015261880d816187d4565b9050919050565b7f504f534954494f4e5f494e5f4d4553534147455f4e4f545f5a45524f000000005f82015250565b5f618848601c83617bc4565b915061885382618814565b602082019050919050565b5f6020820190508181035f8301526188758161883c565b9050919050565b7f41465445525f4d414348494e455f4e4f545f46494e49534845440000000000005f82015250565b5f6188b0601a83617bc4565b91506188bb8261887c565b602082019050919050565b5f6020820190508181035f8301526188dd816188a4565b9050919050565b7f454d5054595f41525241590000000000000000000000000000000000000000005f82015250565b5f618918600b83617bc4565b9150618923826188e4565b602082019050919050565b5f6020820190508181035f8301526189458161890c565b9050919050565b7f5354414b45525f494e5f4348414c4c00000000000000000000000000000000005f82015250565b5f618980600f83617bc4565b915061898b8261894c565b602082019050919050565b5f6020820190508181035f8301526189ad81618974565b9050919050565b7f57524f4e475f4c454e47544800000000000000000000000000000000000000005f82015250565b5f6189e8600c83617bc4565b91506189f3826189b4565b602082019050919050565b5f6020820190508181035f830152618a15816189dc565b9050919050565b7f494e56414c49445f434f4e4649524d5f504552494f44000000000000000000005f82015250565b5f618a50601683617bc4565b9150618a5b82618a1c565b602082019050919050565b5f6020820190508181035f830152618a7d81618a44565b9050919050565b7f4e4f545f494e5f4348414c4c00000000000000000000000000000000000000005f82015250565b5f618ab8600c83617bc4565b9150618ac382618a84565b602082019050919050565b5f6020820190508181035f830152618ae581618aac565b9050919050565b7f4e4f5f4e4f4445000000000000000000000000000000000000000000000000005f82015250565b5f618b20600783617bc4565b9150618b2b82618aec565b602082019050919050565b5f6020820190508181035f830152618b4d81618b14565b9050919050565b7f494e56414c49445f455343524f570000000000000000000000000000000000005f82015250565b5f618b88600e83617bc4565b9150618b9382618b54565b602082019050919050565b5f6020820190508181035f830152618bb581618b7c565b9050919050565b5f81519050618bca8161717a565b92915050565b5f60208284031215618be557618be4616f59565b5b5f618bf284828501618bbc565b91505092915050565b7f45524331393637557067726164653a206e6577207365636f6e6461727920696d5f8201527f706c656d656e746174696f6e206973206e6f7420555550530000000000000000602082015250565b5f618c55603883617bc4565b9150618c6082618bfb565b604082019050919050565b5f6020820190508181035f830152618c8281618c49565b9050919050565b7f45524331393637557067726164653a20756e737570706f72746564207365636f5f8201527f6e646172792070726f786961626c655555494400000000000000000000000000602082015250565b5f618ce3603383617bc4565b9150618cee82618c89565b604082019050919050565b5f6020820190508181035f830152618d1081618cd7565b9050919050565b5f604082019050618d2a5f830185616eb4565b618d376020830184616eb4565b9392505050565b7f4e487b71000000000000000000000000000000000000000000000000000000005f52601160045260245ffd5b5f618d758261710c565b9150618d808361710c565b9250828201905067ffffffffffffffff811115618da057618d9f618d3e565b5b92915050565b5f81519050618db481616fbf565b92915050565b5f60208284031215618dcf57618dce616f59565b5b5f618ddc84828501618da6565b91505092915050565b7f434f4e4649524d5f4441544100000000000000000000000000000000000000005f82015250565b5f618e19600c83617bc4565b9150618e2482618de5565b602082019050919050565b5f6020820190508181035f830152618e4681618e0d565b9050919050565b5f604082019050618e605f830185617477565b618e6d6020830184617477565b9392505050565b7f45524331393637557067726164653a206e657720696d706c656d656e746174695f8201527f6f6e206973206e6f742055555053000000000000000000000000000000000000602082015250565b5f618ece602e83617bc4565b9150618ed982618e74565b604082019050919050565b5f6020820190508181035f830152618efb81618ec2565b9050919050565b7f45524331393637557067726164653a20756e737570706f727465642070726f785f8201527f6961626c65555549440000000000000000000000000000000000000000000000602082015250565b5f618f5c602983617bc4565b9150618f6782618f02565b604082019050919050565b5f6020820190508181035f830152618f8981618f50565b9050919050565b7f4241445f41465445525f535441545553000000000000000000000000000000005f82015250565b5f618fc4601083617bc4565b9150618fcf82618f90565b602082019050919050565b5f6020820190508181035f830152618ff181618fb8565b9050919050565b7f505245565f53544154455f4841534800000000000000000000000000000000005f82015250565b5f61902c600f83617bc4565b915061903782618ff8565b602082019050919050565b5f6020820190508181035f83015261905981619020565b9050919050565b5f80fd5b5f67ffffffffffffffff82111561907e5761907d6172f9565b5b602082029050919050565b5f61909b61909684619064565b617357565b905080602084028301858111156190b5576190b4617560565b5b835b818110156190de57806190ca8882617190565b8452602084019350506020810190506190b7565b5050509392505050565b5f82601f8301126190fc576190fb6172e1565b5b6002619109848285619089565b91505092915050565b5f67ffffffffffffffff82111561912c5761912b6172f9565b5b602082029050919050565b5f61914961914484619112565b617357565b9050806020840283018581111561916357619162617560565b5b835b8181101561918c5780619178888261715d565b845260208401935050602081019050619165565b5050509392505050565b5f82601f8301126191aa576191a96172e1565b5b60026191b7848285619137565b91505092915050565b5f608082840312156191d5576191d4619060565b5b6191df6040617357565b90505f6191ee848285016190e8565b5f83015250604061920184828501619196565b60208301525092915050565b5f6080828403121561922257619221616f59565b5b5f61922f848285016191c0565b91505092915050565b7f494e424f585f4241434b574152445300000000000000000000000000000000005f82015250565b5f61926c600f83617bc4565b915061927782619238565b602082019050919050565b5f6020820190508181035f83015261929981619260565b9050919050565b7f494e424f585f504f535f494e5f4d53475f4241434b57415244530000000000005f82015250565b5f6192d4601a83617bc4565b91506192df826192a0565b602082019050919050565b5f6020820190508181035f830152619301816192c8565b9050919050565b5f6193128261710c565b915067ffffffffffffffff820361932c5761932b618d3e565b5b600182019050919050565b7f494e424f585f504153545f454e440000000000000000000000000000000000005f82015250565b5f61936b600e83617bc4565b915061937682619337565b602082019050919050565b5f6020820190508181035f8301526193988161935f565b9050919050565b5f6193a98261710c565b91506193b48361710c565b9250828203905067ffffffffffffffff8111156193d4576193d3618d3e565b5b92915050565b5f6193f46193ef6193ea8461710c565b616edc565b616fb6565b9050919050565b619404816193da565b82525050565b5f60208201905061941d5f8301846193fb565b92915050565b5f60a0828403121561943857619437619060565b5b6194426040617357565b90505f619451848285016191c0565b5f8301525060806194648482850161869d565b60208301525092915050565b5f610160828403121561948657619485619060565b5b6194906060617357565b90505f61949f84828501619423565b5f8301525060a06194b284828501619423565b6020830152506101406194c78482850161715d565b60408301525092915050565b5f61016082840312156194e9576194e8616f59565b5b5f6194f684828501619470565b91505092915050565b7f554e45585045435445445f4e4f44455f484153480000000000000000000000005f82015250565b5f619533601483617bc4565b915061953e826194ff565b602082019050919050565b5f6020820190508181035f83015261956081619527565b9050919050565b5f82905092915050565b5f82905092915050565b5f82905092915050565b82818337505050565b61959a60408383619585565b5050565b5f82905092915050565b5f60029050919050565b5f81905092915050565b5f819050919050565b5f6195d0838361767c565b60208301905092915050565b5f6195ea602084018461715d565b905092915050565b5f602082019050919050565b619607816195a8565b61961181846195b2565b925061961c826195bc565b805f5b838110156196545761963182846195dc565b61963b87826195c5565b9650619646836195f2565b92505060018101905061961f565b505050505050565b6080820161966c5f83018361957b565b6196785f85018261958e565b50619686604083018361959e565b61969360408501826195fe565b50505050565b5f6196a7602084018461869d565b905092915050565b600481106196c0576196bf618661565b5b50565b5f8190506196d0826196af565b919050565b5f6196df826196c3565b9050919050565b6196ef816196d5565b82525050565b60a082016197055f830183619571565b6197115f85018261965c565b5061971f6080830183619699565b61972c60808501826196e6565b50505050565b61016082016197435f830183619567565b61974f5f8501826196f5565b5061975d60a0830183619567565b61976a60a08501826196f5565b506197796101408301836195dc565b61978761014085018261767c565b50505050565b5f6101e0820190506197a15f830188617477565b6197ae6020830187619732565b6197bc610180830186617477565b6197ca6101a0830185617477565b6197d86101c0830184617047565b9695505050505050565b7f544f4f5f4c4954544c455f5354414b45000000000000000000000000000000005f82015250565b5f619816601083617bc4565b9150619821826197e2565b602082019050919050565b5f6020820190508181035f8301526198438161980a565b9050919050565b5f61985482616fb6565b915061985f83616fb6565b925082820390508181111561987757619876618d3e565b5b92915050565b5f6040820190506198905f830185617047565b61989d6020830184617047565b9392505050565b7f5061757361626c653a20706175736564000000000000000000000000000000005f82015250565b5f6198d8601083617bc4565b91506198e3826198a4565b602082019050919050565b5f6020820190508181035f830152619905816198cc565b9050919050565b7f4e4f5f4348414c000000000000000000000000000000000000000000000000005f82015250565b5f619940600783617bc4565b915061994b8261990c565b602082019050919050565b5f6020820190508181035f83015261996d81619934565b9050919050565b7f444946465f494e5f4348414c00000000000000000000000000000000000000005f82015250565b5f6199a8600c83617bc4565b91506199b382619974565b602082019050919050565b5f6020820190508181035f8301526199d58161999c565b9050919050565b7f455243313936373a206e6577207365636f6e6461727920696d706c656d656e745f8201527f6174696f6e206973206e6f74206120636f6e7472616374000000000000000000602082015250565b5f619a36603783617bc4565b9150619a41826199dc565b604082019050919050565b5f6020820190508181035f830152619a6381619a2a565b9050919050565b7f455243313936373a206e65772061646d696e20697320746865207a65726f20615f8201527f6464726573730000000000000000000000000000000000000000000000000000602082015250565b5f619ac4602683617bc4565b9150619acf82619a6a565b604082019050919050565b5f6020820190508181035f830152619af181619ab8565b9050919050565b5f819050919050565b619b12619b0d82617171565b619af8565b82525050565b5f819050919050565b619b32619b2d82616fb6565b619b18565b82525050565b5f8160f81b9050919050565b5f619b4e82619b38565b9050919050565b619b66619b61826196d5565b619b44565b82525050565b5f619b778286619b01565b602082019150619b878285619b21565b602082019150619b978284619b55565b600182019150819050949350505050565b7f496e697469616c697a61626c653a20636f6e7472616374206973206e6f7420695f8201527f6e697469616c697a696e67000000000000000000000000000000000000000000602082015250565b5f619c02602b83617bc4565b9150619c0d82619ba8565b604082019050919050565b5f6020820190508181035f830152619c2f81619bf6565b9050919050565b5f619c418285619b01565b602082019150619c518284619b01565b6020820191508190509392505050565b7f455243313936373a206e657720696d706c656d656e746174696f6e206973206e5f8201527f6f74206120636f6e747261637400000000000000000000000000000000000000602082015250565b5f619cbb602d83617bc4565b9150619cc682619c61565b604082019050919050565b5f6020820190508181035f830152619ce881619caf565b9050919050565b5f60ff82169050919050565b619d0c619d0782619cef565b619b44565b82525050565b5f619d1d8288619cfb565b600182019150619d2d8287619b01565b602082019150619d3d8286619b01565b602082019150619d4d8285619b01565b602082019150619d5d8284619b01565b6020820191508190509695505050505050565b5f619d7b8286619b01565b602082019150619d8b8285619b21565b602082019150619d9b8284619b01565b602082019150819050949350505050565b5f619db682616fb6565b9150619dc183616fb6565b9250828201905080821115619dd957619dd8618d3e565b5b92915050565b7f4e4f545f5354414b4544000000000000000000000000000000000000000000005f82015250565b5f619e13600a83617bc4565b9150619e1e82619ddf565b602082019050919050565b5f6020820190508181035f830152619e4081619e07565b9050919050565b7f4e487b71000000000000000000000000000000000000000000000000000000005f52603160045260245ffd5b5f81905092915050565b7f476c6f62616c2073746174653a000000000000000000000000000000000000005f82015250565b5f619eb2600d83619e74565b9150619ebd82619e7e565b600d82019050919050565b5f8160c01b9050919050565b5f619ede82619ec8565b9050919050565b619ef6619ef18261710c565b619ed4565b82525050565b5f619f0682619ea6565b9150619f128287619b01565b602082019150619f228286619b01565b602082019150619f328285619ee5565b600882019150619f428284619ee5565b60088201915081905095945050505050565b7f416464726573733a2064656c65676174652063616c6c20746f206e6f6e2d636f5f8201527f6e74726163740000000000000000000000000000000000000000000000000000602082015250565b5f619fae602683617bc4565b9150619fb982619f54565b604082019050919050565b5f6020820190508181035f830152619fdb81619fa2565b9050919050565b5f81519050919050565b5f81905092915050565b8281835e5f83830152505050565b5f61a00e82619fe2565b61a0188185619fec565b935061a028818560208601619ff6565b80840191505092915050565b5f61a03f828461a004565b915081905092915050565b7f426c6f636b2073746174653a00000000000000000000000000000000000000005f82015250565b5f61a07e600c83619e74565b915061a0898261a04a565b600c82019050919050565b5f61a09e8261a072565b915061a0aa8284619b01565b60208201915081905092915050565b7f426c6f636b2073746174652c206572726f7265643a00000000000000000000005f82015250565b5f61a0ed601583619e74565b915061a0f88261a0b9565b601582019050919050565b5f61a10d8261a0e1565b915061a1198284619b01565b60208201915081905092915050565b7f426c6f636b2073746174652c20746f6f206661723a00000000000000000000005f82015250565b5f61a15c601583619e74565b915061a1678261a128565b601582019050919050565b5f61a17c8261a150565b9150819050919050565b7f4241445f424c4f434b5f535441545553000000000000000000000000000000005f82015250565b5f61a1ba601083617bc4565b915061a1c58261a186565b602082019050919050565b5f6020820190508181035f83015261a1e78161a1ae565b9050919050565b5f81519050919050565b5f81905092915050565b5f819050602082019050919050565b61a21a81617171565b82525050565b5f61a22b838361a211565b60208301905092915050565b5f602082019050919050565b5f61a24d8261a1ee565b61a257818561a1f8565b935061a2628361a202565b805f5b8381101561a29257815161a279888261a220565b975061a2848361a237565b92505060018101905061a265565b5085935050505092915050565b5f61a2aa8286619b21565b60208201915061a2ba8285619b21565b60208201915061a2ca828461a243565b9150819050949350505050565b5f81519050919050565b5f61a2eb8261a2d7565b61a2f58185617bc4565b935061a305818560208601619ff6565b61a30e816172e9565b840191505092915050565b5f6020820190508181035f83015261a331818461a2e1565b90509291505056fe416464726573733a206c6f772d6c6576656c2064656c65676174652063616c6c206661696c6564a2646970667358221220c2c8af054a3cff071cdd111e0e7c81df4e131e6f436cc8702a7ea28bc981541c64736f6c634300081a0033",
  "linkReferences": {},
  "deployedLinkReferences": {}
}