{
  "_format": "hh-sol-artifact-1",
  "contractName": "ChallengeManager",
  "sourceName": "src/challenge/ChallengeManager.sol",
  "abi": [
    {
      "inputs": [
        {
          "internalType": "address",
          "name": "sender",
          "type": "address"
        },
        {
          "internalType": "address",
          "name": "owner",
          "type": "address"
        }
      ],
      "name": "NotOwner",
      "type": "error"
    },
    {
      "anonymous": false,
      "inputs": [
        {
          "indexed": true,
          "internalType": "uint64",
          "name": "challengeIndex",
          "type": "uint64"
        },
        {
          "indexed": true,
          "internalType": "bytes32",
          "name": "challengeRoot",
          "type": "bytes32"
        },
        {
          "indexed": false,
          "internalType": "uint256",
          "name": "challengedSegmentStart",
          "type": "uint256"
        },
        {
          "indexed": false,
          "internalType": "uint256",
          "name": "challengedSegmentLength",
          "type": "uint256"
        },
        {
          "indexed": false,
          "internalType": "bytes32[]",
          "name": "chainHashes",
          "type": "bytes32[]"
        }
      ],
      "name": "Bisected",
      "type": "event"
    },
    {
      "anonymous": false,
      "inputs": [
        {
          "indexed": true,
          "internalType": "uint64",
          "name": "challengeIndex",
          "type": "uint64"
        },
        {
          "indexed": false,
          "internalType": "enum IChallengeManager.ChallengeTerminationType",
          "name": "kind",
          "type": "uint8"
        }
      ],
      "name": "ChallengeEnded",
      "type": "event"
    },
    {
      "anonymous": false,
      "inputs": [
        {
          "indexed": true,
          "internalType": "uint64",
          "name": "challengeIndex",
          "type": "uint64"
        },
        {
          "indexed": false,
          "internalType": "uint256",
          "name": "blockSteps",
          "type": "uint256"
        }
      ],
      "name": "ExecutionChallengeBegun",
      "type": "event"
    },
    {
      "anonymous": false,
      "inputs": [
        {
          "indexed": true,
          "internalType": "uint64",
          "name": "challengeIndex",
          "type": "uint64"
        },
        {
          "components": [
            {
              "internalType": "bytes32[2]",
              "name": "bytes32Vals",
              "type": "bytes32[2]"
            },
            {
              "internalType": "uint64[2]",
              "name": "u64Vals",
              "type": "uint64[2]"
            }
          ],
          "indexed": false,
          "internalType": "struct GlobalState",
          "name": "startState",
          "type": "tuple"
        },
        {
          "components": [
            {
              "internalType": "bytes32[2]",
              "name": "bytes32Vals",
              "type": "bytes32[2]"
            },
            {
              "internalType": "uint64[2]",
              "name": "u64Vals",
              "type": "uint64[2]"
            }
          ],
          "indexed": false,
          "internalType": "struct GlobalState",
          "name": "endState",
          "type": "tuple"
        }
      ],
      "name": "InitiatedChallenge",
      "type": "event"
    },
    {
      "anonymous": false,
      "inputs": [
        {
          "indexed": true,
          "internalType": "uint64",
          "name": "challengeIndex",
          "type": "uint64"
        }
      ],
      "name": "OneStepProofCompleted",
      "type": "event"
    },
    {
      "inputs": [
        {
          "internalType": "uint64",
          "name": "challengeIndex",
          "type": "uint64"
        },
        {
          "components": [
            {
              "internalType": "uint256",
              "name": "oldSegmentsStart",
              "type": "uint256"
            },
            {
              "internalType": "uint256",
              "name": "oldSegmentsLength",
              "type": "uint256"
            },
            {
              "internalType": "bytes32[]",
              "name": "oldSegments",
              "type": "bytes32[]"
            },
            {
              "internalType": "uint256",
              "name": "challengePosition",
              "type": "uint256"
            }
          ],
          "internalType": "struct ChallengeLib.SegmentSelection",
          "name": "selection",
          "type": "tuple"
        },
        {
          "internalType": "bytes32[]",
          "name": "newSegments",
          "type": "bytes32[]"
        }
      ],
      "name": "bisectExecution",
      "outputs": [],
      "stateMutability": "nonpayable",
      "type": "function"
    },
    {
      "inputs": [],
      "name": "bridge",
      "outputs": [
        {
          "internalType": "contract IBridge",
          "name": "",
          "type": "address"
        }
      ],
      "stateMutability": "view",
      "type": "function"
    },
    {
      "inputs": [
        {
          "internalType": "uint64",
          "name": "challengeIndex",
          "type": "uint64"
        },
        {
          "components": [
            {
              "internalType": "uint256",
              "name": "oldSegmentsStart",
              "type": "uint256"
            },
            {
              "internalType": "uint256",
              "name": "oldSegmentsLength",
              "type": "uint256"
            },
            {
              "internalType": "bytes32[]",
              "name": "oldSegments",
              "type": "bytes32[]"
            },
            {
              "internalType": "uint256",
              "name": "challengePosition",
              "type": "uint256"
            }
          ],
          "internalType": "struct ChallengeLib.SegmentSelection",
          "name": "selection",
          "type": "tuple"
        },
        {
          "internalType": "enum MachineStatus[2]",
          "name": "machineStatuses",
          "type": "uint8[2]"
        },
        {
          "internalType": "bytes32[2]",
          "name": "globalStateHashes",
          "type": "bytes32[2]"
        },
        {
          "internalType": "uint256",
          "name": "numSteps",
          "type": "uint256"
        }
      ],
      "name": "challengeExecution",
      "outputs": [],
      "stateMutability": "nonpayable",
      "type": "function"
    },
    {
      "inputs": [
        {
          "internalType": "uint64",
          "name": "challengeIndex",
          "type": "uint64"
        }
      ],
      "name": "challengeInfo",
      "outputs": [
        {
          "components": [
            {
              "components": [
                {
                  "internalType": "address",
                  "name": "addr",
                  "type": "address"
                },
                {
                  "internalType": "uint256",
                  "name": "timeLeft",
                  "type": "uint256"
                }
              ],
              "internalType": "struct ChallengeLib.Participant",
              "name": "current",
              "type": "tuple"
            },
            {
              "components": [
                {
                  "internalType": "address",
                  "name": "addr",
                  "type": "address"
                },
                {
                  "internalType": "uint256",
                  "name": "timeLeft",
                  "type": "uint256"
                }
              ],
              "internalType": "struct ChallengeLib.Participant",
              "name": "next",
              "type": "tuple"
            },
            {
              "internalType": "uint256",
              "name": "lastMoveTimestamp",
              "type": "uint256"
            },
            {
              "internalType": "bytes32",
              "name": "wasmModuleRoot",
              "type": "bytes32"
            },
            {
              "internalType": "bytes32",
              "name": "challengeStateHash",
              "type": "bytes32"
            },
            {
              "internalType": "uint64",
              "name": "maxInboxMessages",
              "type": "uint64"
            },
            {
              "internalType": "enum ChallengeLib.ChallengeMode",
              "name": "mode",
              "type": "uint8"
            }
          ],
          "internalType": "struct ChallengeLib.Challenge",
          "name": "",
          "type": "tuple"
        }
      ],
      "stateMutability": "view",
      "type": "function"
    },
    {
      "inputs": [
        {
          "internalType": "uint256",
          "name": "",
          "type": "uint256"
        }
      ],
      "name": "challenges",
      "outputs": [
        {
          "components": [
            {
              "internalType": "address",
              "name": "addr",
              "type": "address"
            },
            {
              "internalType": "uint256",
              "name": "timeLeft",
              "type": "uint256"
            }
          ],
          "internalType": "struct ChallengeLib.Participant",
          "name": "current",
          "type": "tuple"
        },
        {
          "components": [
            {
              "internalType": "address",
              "name": "addr",
              "type": "address"
            },
            {
              "internalType": "uint256",
              "name": "timeLeft",
              "type": "uint256"
            }
          ],
          "internalType": "struct ChallengeLib.Participant",
          "name": "next",
          "type": "tuple"
        },
        {
          "internalType": "uint256",
          "name": "lastMoveTimestamp",
          "type": "uint256"
        },
        {
          "internalType": "bytes32",
          "name": "wasmModuleRoot",
          "type": "bytes32"
        },
        {
          "internalType": "bytes32",
          "name": "challengeStateHash",
          "type": "bytes32"
        },
        {
          "internalType": "uint64",
          "name": "maxInboxMessages",
          "type": "uint64"
        },
        {
          "internalType": "enum ChallengeLib.ChallengeMode",
          "name": "mode",
          "type": "uint8"
        }
      ],
      "stateMutability": "view",
      "type": "function"
    },
    {
      "inputs": [
        {
          "internalType": "uint64",
          "name": "challengeIndex",
          "type": "uint64"
        }
      ],
      "name": "clearChallenge",
      "outputs": [],
      "stateMutability": "nonpayable",
      "type": "function"
    },
    {
      "inputs": [
        {
          "internalType": "bytes32",
          "name": "wasmModuleRoot_",
          "type": "bytes32"
        },
        {
          "internalType": "enum MachineStatus[2]",
          "name": "startAndEndMachineStatuses_",
          "type": "uint8[2]"
        },
        {
          "components": [
            {
              "internalType": "bytes32[2]",
              "name": "bytes32Vals",
              "type": "bytes32[2]"
            },
            {
              "internalType": "uint64[2]",
              "name": "u64Vals",
              "type": "uint64[2]"
            }
          ],
          "internalType": "struct GlobalState[2]",
          "name": "startAndEndGlobalStates_",
          "type": "tuple[2]"
        },
        {
          "internalType": "uint64",
          "name": "numBlocks",
          "type": "uint64"
        },
        {
          "internalType": "address",
          "name": "asserter_",
          "type": "address"
        },
        {
          "internalType": "address",
          "name": "challenger_",
          "type": "address"
        },
        {
          "internalType": "uint256",
          "name": "asserterTimeLeft_",
          "type": "uint256"
        },
        {
          "internalType": "uint256",
          "name": "challengerTimeLeft_",
          "type": "uint256"
        }
      ],
      "name": "createChallenge",
      "outputs": [
        {
          "internalType": "uint64",
          "name": "",
          "type": "uint64"
        }
      ],
      "stateMutability": "nonpayable",
      "type": "function"
    },
    {
      "inputs": [
        {
          "internalType": "uint64",
          "name": "challengeIndex",
          "type": "uint64"
        }
      ],
      "name": "currentResponder",
      "outputs": [
        {
          "internalType": "address",
          "name": "",
          "type": "address"
        }
      ],
      "stateMutability": "view",
      "type": "function"
    },
    {
      "inputs": [
        {
          "internalType": "bytes32",
          "name": "wasmModuleRoot",
          "type": "bytes32"
        }
      ],
      "name": "getOsp",
      "outputs": [
        {
          "internalType": "contract IOneStepProofEntry",
          "name": "",
          "type": "address"
        }
      ],
      "stateMutability": "view",
      "type": "function"
    },
    {
      "inputs": [
        {
          "internalType": "contract IChallengeResultReceiver",
          "name": "resultReceiver_",
          "type": "address"
        },
        {
          "internalType": "contract ISequencerInbox",
          "name": "sequencerInbox_",
          "type": "address"
        },
        {
          "internalType": "contract IBridge",
          "name": "bridge_",
          "type": "address"
        },
        {
          "internalType": "contract IOneStepProofEntry",
          "name": "osp_",
          "type": "address"
        }
      ],
      "name": "initialize",
      "outputs": [],
      "stateMutability": "nonpayable",
      "type": "function"
    },
    {
      "inputs": [
        {
          "internalType": "uint64",
          "name": "challengeIndex",
          "type": "uint64"
        }
      ],
      "name": "isTimedOut",
      "outputs": [
        {
          "internalType": "bool",
          "name": "",
          "type": "bool"
        }
      ],
      "stateMutability": "view",
      "type": "function"
    },
    {
      "inputs": [
        {
          "internalType": "uint64",
          "name": "challengeIndex",
          "type": "uint64"
        },
        {
          "components": [
            {
              "internalType": "uint256",
              "name": "oldSegmentsStart",
              "type": "uint256"
            },
            {
              "internalType": "uint256",
              "name": "oldSegmentsLength",
              "type": "uint256"
            },
            {
              "internalType": "bytes32[]",
              "name": "oldSegments",
              "type": "bytes32[]"
            },
            {
              "internalType": "uint256",
              "name": "challengePosition",
              "type": "uint256"
            }
          ],
          "internalType": "struct ChallengeLib.SegmentSelection",
          "name": "selection",
          "type": "tuple"
        },
        {
          "internalType": "bytes",
          "name": "proof",
          "type": "bytes"
        }
      ],
      "name": "oneStepProveExecution",
      "outputs": [],
      "stateMutability": "nonpayable",
      "type": "function"
    },
    {
      "inputs": [],
      "name": "osp",
      "outputs": [
        {
          "internalType": "contract IOneStepProofEntry",
          "name": "",
          "type": "address"
        }
      ],
      "stateMutability": "view",
      "type": "function"
    },
    {
      "inputs": [
        {
          "internalType": "bytes32",
          "name": "",
          "type": "bytes32"
        }
      ],
      "name": "ospCond",
      "outputs": [
        {
          "internalType": "contract IOneStepProofEntry",
          "name": "",
          "type": "address"
        }
      ],
      "stateMutability": "view",
      "type": "function"
    },
    {
      "inputs": [
        {
          "internalType": "contract IOneStepProofEntry",
          "name": "osp_",
          "type": "address"
        },
        {
          "internalType": "bytes32",
          "name": "condRoot",
          "type": "bytes32"
        },
        {
          "internalType": "contract IOneStepProofEntry",
          "name": "condOsp",
          "type": "address"
        }
      ],
      "name": "postUpgradeInit",
      "outputs": [],
      "stateMutability": "nonpayable",
      "type": "function"
    },
    {
      "inputs": [],
      "name": "resultReceiver",
      "outputs": [
        {
          "internalType": "contract IChallengeResultReceiver",
          "name": "",
          "type": "address"
        }
      ],
      "stateMutability": "view",
      "type": "function"
    },
    {
      "inputs": [],
      "name": "sequencerInbox",
      "outputs": [
        {
          "internalType": "contract ISequencerInbox",
          "name": "",
          "type": "address"
        }
      ],
      "stateMutability": "view",
      "type": "function"
    },
    {
      "inputs": [
        {
          "internalType": "uint64",
          "name": "challengeIndex",
          "type": "uint64"
        }
      ],
      "name": "timeout",
      "outputs": [],
      "stateMutability": "nonpayable",
      "type": "function"
    },
    {
      "inputs": [],
      "name": "totalChallengesCreated",
      "outputs": [
        {
          "internalType": "uint64",
          "name": "",
          "type": "uint64"
        }
      ],
      "stateMutability": "view",
      "type": "function"
    }
  ],
  "bytecode": "0x60a06040523060805234801561001457600080fd5b50608051612cab6100376000396000818161082501526114350152612cab6000f3fe608060405234801561001057600080fd5b50600436106101115760003560e01c80638f1d3776116100ad578063e78cea9211610071578063e78cea921461031a578063ee35f3271461032d578063f26a62c614610340578063f8c8765e14610353578063fb7be0a11461036657600080fd5b80638f1d3776146102055780639ede42b9146102a8578063a521b032146102cb578063d248d124146102de578063dc74bf8b146102f157600080fd5b806314eab5e7146101165780631b45c86a1461014657806323a9ef231461015b5780633504f1d7146101865780633690b011146101995780635038934d146101ac57806356e9df97146101bf5780635ef489e6146101d25780637fd07a9c146101e5575b600080fd5b610129610124366004612241565b610379565b6040516001600160401b0390911681526020015b60405180910390f35b6101596101543660046122d4565b6106f0565b005b61016e6101693660046122d4565b6107c0565b6040516001600160a01b03909116815260200161013d565b60025461016e906001600160a01b031681565b61016e6101a73660046122ef565b6107e4565b6101596101ba366004612308565b61081a565b6101596101cd3660046122d4565b610900565b600054610129906001600160401b031681565b6101f86101f33660046122d4565b610a6e565b60405161013d919061238c565b6102956102133660046122ef565b6001602081815260009283526040928390208351808501855281546001600160a01b0390811682529382015481840152845180860190955260028201549093168452600381015491840191909152600481015460058201546006830154600790930154939493919290916001600160401b03811690600160401b900460ff1687565b60405161013d97969594939291906123fe565b6102bb6102b63660046122d4565b610b47565b604051901515815260200161013d565b6101596102d9366004612461565b610b68565b6101596102ec366004612505565b610fde565b61016e6102ff3660046122ef565b6006602052600090815260409020546001600160a01b031681565b60045461016e906001600160a01b031681565b60035461016e906001600160a01b031681565b60055461016e906001600160a01b031681565b610159610361366004612597565b61142a565b6101596103743660046125f3565b611556565b6002546000906001600160a01b031633146103ce5760405162461bcd60e51b815260206004820152601060248201526f13d3931657d493d313155417d0d2105360821b60448201526064015b60405180910390fd5b6040805160028082526060820183526000926020830190803683370190505090506104936103ff60208b018b612697565b61048e8a60005b6080020180360381019061041a9190612756565b8051805160209182015192820151805190830151604080516c23b637b130b61039ba30ba329d60991b81870152602d810194909452604d8401959095526001600160c01b031960c092831b8116606d850152911b1660758201528251808203605d018152607d909101909252815191012090565b611cc4565b816000815181106104a6576104a6612681565b60209081029190910101526104d58960016020020160208101906104ca9190612697565b61048e8a6001610406565b816001815181106104e8576104e8612681565b6020908102919091010152600080548190819061050d906001600160401b0316612804565b91906101000a8154816001600160401b0302191690836001600160401b031602179055905060006001600160401b0316816001600160401b031614156105555761055561282b565b6001600160401b0381166000908152600160205260408120600581018d90559061058f61058a368d90038d0160808e01612756565b611de8565b905060026105a360408e0160208f01612697565b60038111156105b4576105b4612362565b14806105e2575060006105d76105d2368e90038e0160808f01612756565b611dfd565b6001600160401b0316115b156105f557806105f181612804565b9150505b6007820180546040805180820182526001600160a01b038d811680835260209283018d90526002880180546001600160a01b03199081169092179055600388018d905583518085018552918e16808352919092018b90528654909116178555600185018990554260048601556001600160401b0384811668ffffffffffffffffff1990931692909217600160401b179092559051908416907f76604fe17af46c9b5f53ffe99ff23e0f655dab91886b07ac1fc0254319f7145a906106bf908e90608082019061288b565b60405180910390a26106dd8360008c6001600160401b031687611e0c565b5090925050505b98975050505050505050565b60006001600160401b038216600090815260016020526040902060070154600160401b900460ff16600281111561072957610729612362565b1415604051806040016040528060078152602001661393d7d0d2105360ca1b815250906107695760405162461bcd60e51b81526004016103c591906128a7565b5061077381610b47565b6107b25760405162461bcd60e51b815260206004820152601060248201526f54494d454f55545f444541444c494e4560801b60448201526064016103c5565b6107bd816000611ea2565b50565b6001600160401b03166000908152600160205260409020546001600160a01b031690565b6000818152600660205260408120546001600160a01b0316806108145750506005546001600160a01b0316919050565b92915050565b306001600160a01b037f00000000000000000000000000000000000000000000000000000000000000001614156108635760405162461bcd60e51b81526004016103c5906128fc565b7fb53127684a568b3173ae13b9f8a6016e243e63b6e8ee1178d6a717850b5d61038054336001600160a01b038216146108c057604051631194af8760e11b81523360048201526001600160a01b03821660248201526044016103c5565b505060009182526006602052604090912080546001600160a01b039283166001600160a01b03199182161790915560058054939092169216919091179055565b6002546001600160a01b0316331461094d5760405162461bcd60e51b815260206004820152601060248201526f2727aa2fa922a9afa922a1a2a4ab22a960811b60448201526064016103c5565b60006001600160401b038216600090815260016020526040902060070154600160401b900460ff16600281111561098657610986612362565b1415604051806040016040528060078152602001661393d7d0d2105360ca1b815250906109c65760405162461bcd60e51b81526004016103c591906128a7565b506001600160401b038116600081815260016020819052604080832080546001600160a01b031990811682559281018490556002810180549093169092556003808301849055600483018490556005830184905560068301939093556007909101805468ffffffffffffffffff19169055517ffdaece6c274a4b56af16761f83fd6b1062823192630ea08e019fdf9b2d747f4091610a6391612958565b60405180910390a250565b610a76612197565b6001600160401b0382811660009081526001602081815260409283902083516101208101855281546001600160a01b0390811660e0830190815294830154610100830152938152845180860186526002808401549095168152600383015481850152928101929092526004810154938201939093526005830154606082015260068301546080820152600783015493841660a08201529260c0840191600160401b90910460ff1690811115610b2d57610b2d612362565b6002811115610b3e57610b3e612362565b90525092915050565b6001600160401b038116600090815260016020526040812061081490611fd0565b6001600160401b038416600090815260016020526040812085918591610b8d846107c0565b6001600160a01b0316336001600160a01b031614610bbd5760405162461bcd60e51b81526004016103c59061296b565b610bc684610b47565b15610be35760405162461bcd60e51b81526004016103c590612990565b6000826002811115610bf757610bf7612362565b1415610c655760006007820154600160401b900460ff166002811115610c1f57610c1f612362565b1415604051806040016040528060078152602001661393d7d0d2105360ca1b81525090610c5f5760405162461bcd60e51b81526004016103c591906128a7565b50610d24565b6001826002811115610c7957610c79612362565b1415610cc35760016007820154600160401b900460ff166002811115610ca157610ca1612362565b14610cbe5760405162461bcd60e51b81526004016103c5906129b7565b610d24565b6002826002811115610cd757610cd7612362565b1415610d1c5760026007820154600160401b900460ff166002811115610cff57610cff612362565b14610cbe5760405162461bcd60e51b81526004016103c5906129df565b610d2461282b565b610d7283356020850135610d3b6040870187612a0b565b80806020026020016040519081016040528093929190818152602001838360200280828437600092019190915250611fe892505050565b816006015414610d945760405162461bcd60e51b81526004016103c590612a5b565b6002610da36040850185612a0b565b90501080610dce57506001610dbb6040850185612a0b565b610dc6929150612a7e565b836060013510155b15610deb5760405162461bcd60e51b81526004016103c590612a95565b600080610df78961201f565b9150915060018111610e375760405162461bcd60e51b81526020600482015260096024820152681513d3d7d4d213d49560ba1b60448201526064016103c5565b806028811115610e45575060285b610e50816001612ac0565b8814610e8d5760405162461bcd60e51b815260206004820152600c60248201526b57524f4e475f44454752454560a01b60448201526064016103c5565b50610ed78989896000818110610ea557610ea5612681565b602002919091013590508a8a610ebc600182612a7e565b818110610ecb57610ecb612681565b905060200201356120b0565b610f168a83838b8b80806020026020016040519081016040528093929190818152602001838360200280828437600092019190915250611e0c92505050565b50600090505b6007820154600160401b900460ff166002811115610f3c57610f3c612362565b1415610f485750610fd5565b6040805180820190915281546001600160a01b03168152600182015460208201526004820154610f789042612a7e565b81602001818151610f899190612a7e565b90525060028201805483546001600160a01b038083166001600160a01b031992831617865560038601805460018801558551929093169116179091556020909101519055426004909101555b50505050505050565b6001600160401b038416600090815260016020526040902084908490600290611006846107c0565b6001600160a01b0316336001600160a01b0316146110365760405162461bcd60e51b81526004016103c59061296b565b61103f84610b47565b1561105c5760405162461bcd60e51b81526004016103c590612990565b600082600281111561107057611070612362565b14156110de5760006007820154600160401b900460ff16600281111561109857611098612362565b1415604051806040016040528060078152602001661393d7d0d2105360ca1b815250906110d85760405162461bcd60e51b81526004016103c591906128a7565b5061119d565b60018260028111156110f2576110f2612362565b141561113c5760016007820154600160401b900460ff16600281111561111a5761111a612362565b146111375760405162461bcd60e51b81526004016103c5906129b7565b61119d565b600282600281111561115057611150612362565b14156111955760026007820154600160401b900460ff16600281111561117857611178612362565b146111375760405162461bcd60e51b81526004016103c5906129df565b61119d61282b565b6111b483356020850135610d3b6040870187612a0b565b8160060154146111d65760405162461bcd60e51b81526004016103c590612a5b565b60026111e56040850185612a0b565b90501080611210575060016111fd6040850185612a0b565b611208929150612a7e565b836060013510155b1561122d5760405162461bcd60e51b81526004016103c590612a95565b6001600160401b038816600090815260016020526040812090806112508a61201f565b9092509050600181146112755760405162461bcd60e51b81526004016103c590612ad8565b50600061128583600501546107e4565b60408051808201825260078601546001600160401b031681526004546001600160a01b0390811660208301529290921691635d3adcfb9185906112ca908f018f612a0b565b8f606001358181106112de576112de612681565b905060200201358d8d6040518663ffffffff1660e01b8152600401611307959493929190612afa565b60206040518083038186803b15801561131f57600080fd5b505afa158015611333573d6000803e3d6000fd5b505050506040513d601f19601f820116820180604052508101906113579190612b51565b905061136660408b018b612a0b565b61137560608d01356001612ac0565b81811061138457611384612681565b905060200201358114156113c95760405162461bcd60e51b815260206004820152600c60248201526b14d0535157d3d4d417d1539160a21b60448201526064016103c5565b6040516001600160401b038c16907fc2cc42e04ff8c36de71c6a2937ea9f161dd0dd9e175f00caa26e5200643c781e90600090a261141e8b6001600160401b0316600090815260016020526040812060060155565b5060009150610f1c9050565b306001600160a01b037f00000000000000000000000000000000000000000000000000000000000000001614156114735760405162461bcd60e51b81526004016103c5906128fc565b6002546001600160a01b0316156114bb5760405162461bcd60e51b815260206004820152600c60248201526b1053149150511657d253925560a21b60448201526064016103c5565b6001600160a01b0384166115065760405162461bcd60e51b81526020600482015260126024820152712727afa922a9aaa62a2fa922a1a2a4ab22a960711b60448201526064016103c5565b600280546001600160a01b039586166001600160a01b0319918216179091556003805494861694821694909417909355600480549285169284169290921790915560058054919093169116179055565b6001600160401b03851660009081526001602081905260409091208691869161157e846107c0565b6001600160a01b0316336001600160a01b0316146115ae5760405162461bcd60e51b81526004016103c59061296b565b6115b784610b47565b156115d45760405162461bcd60e51b81526004016103c590612990565b60008260028111156115e8576115e8612362565b14156116565760006007820154600160401b900460ff16600281111561161057611610612362565b1415604051806040016040528060078152602001661393d7d0d2105360ca1b815250906116505760405162461bcd60e51b81526004016103c591906128a7565b50611715565b600182600281111561166a5761166a612362565b14156116b45760016007820154600160401b900460ff16600281111561169257611692612362565b146116af5760405162461bcd60e51b81526004016103c5906129b7565b611715565b60028260028111156116c8576116c8612362565b141561170d5760026007820154600160401b900460ff1660028111156116f0576116f0612362565b146116af5760405162461bcd60e51b81526004016103c5906129df565b61171561282b565b61172c83356020850135610d3b6040870187612a0b565b81600601541461174e5760405162461bcd60e51b81526004016103c590612a5b565b600261175d6040850185612a0b565b90501080611788575060016117756040850185612a0b565b611780929150612a7e565b836060013510155b156117a55760405162461bcd60e51b81526004016103c590612a95565b60018510156117ec5760405162461bcd60e51b815260206004820152601360248201527210d2105313115391d157d513d3d7d4d213d495606a1b60448201526064016103c5565b650800000000008511156118375760405162461bcd60e51b81526020600482015260126024820152714348414c4c454e47455f544f4f5f4c4f4e4760701b60448201526064016103c5565b6118798861185961184b60208b018b612697565b8960005b6020020135611cc4565b61187461186c60408c0160208d01612697565b8a600161184f565b6120b0565b6001600160401b0389166000908152600160205260408120908061189c8b61201f565b91509150806001146118c05760405162461bcd60e51b81526004016103c590612ad8565b60016118cf60208c018c612697565b60038111156118e0576118e0612362565b1461199a576118f560408b0160208c01612697565b600381111561190657611906612362565b61191360208c018c612697565b600381111561192457611924612362565b1480156119355750883560208a0135145b6119715760405162461bcd60e51b815260206004820152600d60248201526c48414c5445445f4348414e474560981b60448201526064016103c5565b6119928c6001600160401b0316600090815260016020526040812060060155565b505050611bff565b60026119ac60408c0160208d01612697565b60038111156119bd576119bd612362565b1415611a0657883560208a013514611a065760405162461bcd60e51b815260206004820152600c60248201526b4552524f525f4348414e474560a01b60448201526064016103c5565b6040805160028082526060820183526000926020830190803683370190505090506000611a3685600501546107e4565b60058601546040516301265ef960e21b81528d35600482015260248101919091529091506001600160a01b038216906304997be49060440160206040518083038186803b158015611a8657600080fd5b505afa158015611a9a573d6000803e3d6000fd5b505050506040513d601f19601f82011682018060405250810190611abe9190612b51565b82600081518110611ad157611ad1612681565b60209081029190910101526001600160a01b03811663d8558b878d6001602002016020810190611b019190612697565b8d600160200201356040518363ffffffff1660e01b8152600401611b26929190612b6a565b60206040518083038186803b158015611b3e57600080fd5b505afa158015611b52573d6000803e3d6000fd5b505050506040513d601f19601f82011682018060405250810190611b769190612b51565b82600181518110611b8957611b89612681565b602090810291909101015260078501805460ff60401b1916600160411b179055611bb68e60008c85611e0c565b8d6001600160401b03167f24e032e170243bbea97e140174b22dc7e54fb85925afbf52c70e001cd6af16db85604051611bf191815260200190565b60405180910390a250505050505b60006007820154600160401b900460ff166002811115611c2157611c21612362565b1415611c2d5750611cba565b6040805180820190915281546001600160a01b03168152600182015460208201526004820154611c5d9042612a7e565b81602001818151611c6e9190612a7e565b90525060028201805483546001600160a01b038083166001600160a01b031992831617865560038601805460018801558551929093169116179091556020909101519055426004909101555b5050505050505050565b60006001836003811115611cda57611cda612362565b1415611d20576040516b213637b1b59039ba30ba329d60a11b6020820152602c8101839052604c015b604051602081830303815290604052805190602001209050610814565b6002836003811115611d3457611d34612362565b1415611d6a5760405174213637b1b59039ba30ba32961032b93937b932b21d60591b602082015260358101839052605501611d03565b6003836003811115611d7e57611d7e612362565b1415611dad5760405174213637b1b59039ba30ba3296103a37b7903330b91d60591b6020820152603501611d03565b60405162461bcd60e51b815260206004820152601060248201526f4241445f424c4f434b5f53544154555360801b60448201526064016103c5565b6020810151600090815b602002015192915050565b60208101516000906001611df2565b6001821015611e1d57611e1d61282b565b600281511015611e2f57611e2f61282b565b6000611e3c848484611fe8565b6001600160401b038616600081815260016020526040908190206006018390555191925082917f86b34e9455464834eca718f62d4481437603bb929d8a78ccde5d1bc79fa06d6890611e9390889088908890612b81565b60405180910390a35050505050565b6001600160401b03821660008181526001602081905260408083206002808201805483546001600160a01b0319808216865596850188905595811690915560038301869055600480840187905560058401879055600684019690965560078301805468ffffffffffffffffff1916905590549251630357aa4960e01b8152948501959095526001600160a01b03948516602485018190529285166044850181905290949293909290911690630357aa4990606401600060405180830381600087803b158015611f7057600080fd5b505af1158015611f84573d6000803e3d6000fd5b50505050846001600160401b03167ffdaece6c274a4b56af16761f83fd6b1062823192630ea08e019fdf9b2d747f4085604051611fc19190612958565b60405180910390a25050505050565b6001810154600090611fe183612185565b1192915050565b6000838383604051602001611fff93929190612bd6565b6040516020818303038152906040528051906020012090505b9392505050565b6000808060016120326040860186612a0b565b61203d929150612a7e565b905061204d816020860135612c2e565b915061205d606085013583612c42565b612068908535612ac0565b925060026120796040860186612a0b565b612084929150612a7e565b846060013514156120aa5761209d816020860135612c61565b6120a79083612ac0565b91505b50915091565b816120be6040850185612a0b565b85606001358181106120d2576120d2612681565b90506020020135146121145760405162461bcd60e51b815260206004820152600b60248201526a15d493d391d7d4d510549560aa1b60448201526064016103c5565b806121226040850185612a0b565b61213160608701356001612ac0565b81811061214057612140612681565b9050602002013514156121805760405162461bcd60e51b815260206004820152600860248201526714d0535157d1539160c21b60448201526064016103c5565b505050565b60008160040154426108149190612a7e565b604080516101208101909152600060e08201818152610100830191909152819081526020016121d6604080518082019091526000808252602082015290565b815260006020820181905260408201819052606082018190526080820181905260a09091015290565b806040810183101561081457600080fd5b80356001600160401b038116811461222757600080fd5b919050565b6001600160a01b03811681146107bd57600080fd5b600080600080600080600080610200898b03121561225e57600080fd5b8835975061226f8a60208b016121ff565b965061016089018a81111561228357600080fd5b60608a01965061229281612210565b9550506101808901356122a48161222c565b93506101a08901356122b58161222c565b979a96995094979396929592945050506101c0820135916101e0013590565b6000602082840312156122e657600080fd5b61201882612210565b60006020828403121561230157600080fd5b5035919050565b60008060006060848603121561231d57600080fd5b83356123288161222c565b925060208401359150604084013561233f8161222c565b809150509250925092565b80516001600160a01b03168252602090810151910152565b634e487b7160e01b600052602160045260246000fd5b6003811061238857612388612362565b9052565b6000610120820190506123a082845161234a565b60208301516123b2604084018261234a565b5060408301516080830152606083015160a0830152608083015160c08301526001600160401b0360a08401511660e083015260c08301516123f7610100840182612378565b5092915050565b610120810161240d828a61234a565b61241a604083018961234a565b8660808301528560a08301528460c08301526001600160401b03841660e08301526106e4610100830184612378565b60006080828403121561245b57600080fd5b50919050565b6000806000806060858703121561247757600080fd5b61248085612210565b935060208501356001600160401b038082111561249c57600080fd5b6124a888838901612449565b945060408701359150808211156124be57600080fd5b818701915087601f8301126124d257600080fd5b8135818111156124e157600080fd5b8860208260051b85010111156124f657600080fd5b95989497505060200194505050565b6000806000806060858703121561251b57600080fd5b61252485612210565b935060208501356001600160401b038082111561254057600080fd5b61254c88838901612449565b9450604087013591508082111561256257600080fd5b818701915087601f83011261257657600080fd5b81358181111561258557600080fd5b8860208285010111156124f657600080fd5b600080600080608085870312156125ad57600080fd5b84356125b88161222c565b935060208501356125c88161222c565b925060408501356125d88161222c565b915060608501356125e88161222c565b939692955090935050565b600080600080600060e0868803121561260b57600080fd5b61261486612210565b945060208601356001600160401b0381111561262f57600080fd5b61263b88828901612449565b94505061264b87604088016121ff565b925061265a87608088016121ff565b9497939650919460c0013592915050565b634e487b7160e01b600052604160045260246000fd5b634e487b7160e01b600052603260045260246000fd5b6000602082840312156126a957600080fd5b81356004811061201857600080fd5b604080519081016001600160401b03811182821017156126da576126da61266b565b60405290565b600082601f8301126126f157600080fd5b604051604081018181106001600160401b03821117156127135761271361266b565b806040525080604084018581111561272a57600080fd5b845b8181101561274b5761273d81612210565b83526020928301920161272c565b509195945050505050565b60006080828403121561276857600080fd5b604051604081018181106001600160401b038211171561278a5761278a61266b565b604052601f8301841361279c57600080fd5b6127a46126b8565b8060408501868111156127b657600080fd5b855b818110156127d05780358452602093840193016127b8565b508184526127de87826126e0565b6020850152509195945050505050565b634e487b7160e01b600052601160045260246000fd5b60006001600160401b0380831681811415612821576128216127ee565b6001019392505050565b634e487b7160e01b600052600160045260246000fd5b604081833760006040838101828152908301915b6002811015612884576001600160401b0361286f84612210565b16825260209283019290910190600101612855565b5050505050565b610100810161289a8285612841565b6120186080830184612841565b600060208083528351808285015260005b818110156128d4578581018301518582016040015282016128b8565b818111156128e6576000604083870101525b50601f01601f1916929092016040019392505050565b6020808252602c908201527f46756e6374696f6e206d7573742062652063616c6c6564207468726f7567682060408201526b19195b1959d85d1958d85b1b60a21b606082015260800190565b600481106107bd576107bd612362565b6020810161296583612948565b91905290565b6020808252600b908201526a21a420a62fa9a2a72222a960a91b604082015260600190565b6020808252600d908201526c4348414c5f444541444c494e4560981b604082015260600190565b6020808252600e908201526d4348414c5f4e4f545f424c4f434b60901b604082015260600190565b60208082526012908201527121a420a62fa727aa2fa2ac22a1aaaa24a7a760711b604082015260600190565b6000808335601e19843603018112612a2257600080fd5b8301803591506001600160401b03821115612a3c57600080fd5b6020019150600581901b3603821315612a5457600080fd5b9250929050565b6020808252600990820152684249535f535441544560b81b604082015260600190565b600082821015612a9057612a906127ee565b500390565b6020808252601190820152704241445f4348414c4c454e47455f504f5360781b604082015260600190565b60008219821115612ad357612ad36127ee565b500190565b602080825260089082015267544f4f5f4c4f4e4760c01b604082015260600190565b8551815260018060a01b03602087015116602082015284604082015283606082015260a060808201528160a0820152818360c0830137600081830160c090810191909152601f909201601f19160101949350505050565b600060208284031215612b6357600080fd5b5051919050565b60408101612b7784612948565b9281526020015290565b6000606082018583526020858185015260606040850152818551808452608086019150828701935060005b81811015612bc857845183529383019391830191600101612bac565b509098975050505050505050565b83815260006020848184015260408301845182860160005b82811015612c0a57815184529284019290840190600101612bee565b509198975050505050505050565b634e487b7160e01b600052601260045260246000fd5b600082612c3d57612c3d612c18565b500490565b6000816000190483118215151615612c5c57612c5c6127ee565b500290565b600082612c7057612c70612c18565b50069056fea2646970667358221220680bb49499063d1f05e7666296daf42f599170836c96c96494066a1b9d0c737f64736f6c63430008090033",
  "linkReferences": {},
  "deployedLinkReferences": {}
}