{
  "_format": "hh-sol-artifact-1",
  "contractName": "OneStepProofEntry",
  "sourceName": "src/osp/OneStepProofEntry.sol",
  "abi": [
    {
      "inputs": [
        {
          "internalType": "contract IOneStepProver",
          "name": "prover0_",
          "type": "address"
        },
        {
          "internalType": "contract IOneStepProver",
          "name": "proverMem_",
          "type": "address"
        },
        {
          "internalType": "contract IOneStepProver",
          "name": "proverMath_",
          "type": "address"
        },
        {
          "internalType": "contract IOneStepProver",
          "name": "proverHostIo_",
          "type": "address"
        }
      ],
      "stateMutability": "nonpayable",
      "type": "constructor"
    },
    {
      "inputs": [
        {
          "internalType": "enum MachineStatus",
          "name": "status",
          "type": "uint8"
        },
        {
          "internalType": "bytes32",
          "name": "globalStateHash",
          "type": "bytes32"
        }
      ],
      "name": "getEndMachineHash",
      "outputs": [
        {
          "internalType": "bytes32",
          "name": "",
          "type": "bytes32"
        }
      ],
      "stateMutability": "pure",
      "type": "function"
    },
    {
      "inputs": [
        {
          "internalType": "bytes32",
          "name": "globalStateHash",
          "type": "bytes32"
        },
        {
          "internalType": "bytes32",
          "name": "wasmModuleRoot",
          "type": "bytes32"
        }
      ],
      "name": "getStartMachineHash",
      "outputs": [
        {
          "internalType": "bytes32",
          "name": "",
          "type": "bytes32"
        }
      ],
      "stateMutability": "pure",
      "type": "function"
    },
    {
      "inputs": [
        {
          "components": [
            {
              "internalType": "uint256",
              "name": "maxInboxMessagesRead",
              "type": "uint256"
            },
            {
              "internalType": "contract IBridge",
              "name": "bridge",
              "type": "address"
            }
          ],
          "internalType": "struct ExecutionContext",
          "name": "execCtx",
          "type": "tuple"
        },
        {
          "internalType": "uint256",
          "name": "machineStep",
          "type": "uint256"
        },
        {
          "internalType": "bytes32",
          "name": "beforeHash",
          "type": "bytes32"
        },
        {
          "internalType": "bytes",
          "name": "proof",
          "type": "bytes"
        }
      ],
      "name": "proveOneStep",
      "outputs": [
        {
          "internalType": "bytes32",
          "name": "afterHash",
          "type": "bytes32"
        }
      ],
      "stateMutability": "view",
      "type": "function"
    },
    {
      "inputs": [],
      "name": "prover0",
      "outputs": [
        {
          "internalType": "contract IOneStepProver",
          "name": "",
          "type": "address"
        }
      ],
      "stateMutability": "view",
      "type": "function"
    },
    {
      "inputs": [],
      "name": "proverHostIo",
      "outputs": [
        {
          "internalType": "contract IOneStepProver",
          "name": "",
          "type": "address"
        }
      ],
      "stateMutability": "view",
      "type": "function"
    },
    {
      "inputs": [],
      "name": "proverMath",
      "outputs": [
        {
          "internalType": "contract IOneStepProver",
          "name": "",
          "type": "address"
        }
      ],
      "stateMutability": "view",
      "type": "function"
    },
    {
      "inputs": [],
      "name": "proverMem",
      "outputs": [
        {
          "internalType": "contract IOneStepProver",
          "name": "",
          "type": "address"
        }
      ],
      "stateMutability": "view",
      "type": "function"
    }
  ],
  "bytecode": "0x60806040523480156200001157600080fd5b5060405162002f2f38038062002f2f8339810160408190526200003491620000a5565b600080546001600160a01b039586166001600160a01b031991821617909155600180549486169482169490941790935560028054928516928416929092179091556003805491909316911617905562000102565b80516001600160a01b0381168114620000a057600080fd5b919050565b60008060008060808587031215620000bc57600080fd5b620000c78562000088565b9350620000d76020860162000088565b9250620000e76040860162000088565b9150620000f76060860162000088565b905092959194509250565b612e1d80620001126000396000f3fe608060405234801561001057600080fd5b506004361061006d5760003560e01c806304997be4146100725780631f128bc01461009857806330a5509f146100c35780635d3adcfb146100d65780635f52fd7c146100e957806366e5d9c3146100fc578063d8558b871461010f575b600080fd5b6100856100803660046121c8565b610122565b6040519081526020015b60405180910390f35b6001546100ab906001600160a01b031681565b6040516001600160a01b03909116815260200161008f565b6000546100ab906001600160a01b031681565b6100856100e43660046121ea565b6102c8565b6003546100ab906001600160a01b031681565b6002546100ab906001600160a01b031681565b61008561011d366004612295565b61095a565b60408051600380825260808201909252600091829190816020015b604080518082019091526000808252602082015281526020019060019003908161013d57505060408051808201825260008082526020918201819052825180840190935260048352908201529091508160008151811061019f5761019f6122d7565b60200260200101819052506101b46000610a5b565b816001815181106101c7576101c76122d7565b60200260200101819052506101dc6000610a5b565b816002815181106101ef576101ef6122d7565b6020908102919091018101919091526040805180830182528381528151808301909252808252600092820192909252610226612067565b604080518082018252606080825260006020808401829052845180860186528082018390526000198082528651610180810188528481529283018990529582018190529281018690526080810184905260a0810183905260c081018c905260e081018290526101008101829052610120810191909152610140810193909352610160830189905290916102b881610a8e565b9750505050505050505b92915050565b60006102d2612085565b6102da61213c565b6040805160208101909152606081526040805180820190915260008082526020820152600061030a888883610ccc565b90955090508861031986610a8e565b146103615760405162461bcd60e51b815260206004820152601360248201527209a828690929c8abe848a8c9ea48abe9082a69606b1b60448201526064015b60405180910390fd5b600085516003811115610376576103766122ed565b146103905761038485610a8e565b95505050505050610951565b650800000000006103a28b6001612319565b14156103b5576002855261038485610a8e565b6103c0888883610f28565b90945090506103d0888883610fec565b80925081945050508461016001516103fd8660e0015163ffffffff1686866110c69092919063ffffffff16565b146104395760405162461bcd60e51b815260206004820152600c60248201526b1353d115531154d7d493d3d560a21b6044820152606401610358565b60606104516040518060200160405280606081525090565b60408051602081019091526060815261046b8b8b86611111565b9450925061047a8b8b86610fec565b945091506104898b8b86610fec565b809550819250505060006104bf60408a61012001516104a89190612347565b63ffffffff1685856112109092919063ffffffff16565b905060006104e38a610100015163ffffffff1683856112569092919063ffffffff16565b90508860600151811461052d5760405162461bcd60e51b815260206004820152601260248201527110905117d1955390d51253d394d7d493d3d560721b6044820152606401610358565b8460408b6101200151610540919061236a565b63ffffffff1681518110610556576105566122d7565b6020026020010151965050505050508787829080926105779392919061238d565b975097505060008460e0015163ffffffff1690506001856101200181815161059f91906123b7565b63ffffffff1690525081516000602861ffff8316108015906105c65750603561ffff831611155b806105e65750603661ffff8316108015906105e65750603e61ffff831611155b806105f5575061ffff8216603f145b80610604575061ffff82166040145b1561061b57506001546001600160a01b0316610832565b61ffff821660451480610632575061ffff82166050145b806106605750604661ffff8316108015906106605750610654600960466123df565b61ffff168261ffff1611155b8061068e5750606761ffff83161080159061068e5750610682600260676123df565b61ffff168261ffff1611155b806106ae5750606a61ffff8316108015906106ae5750607861ffff831611155b806106dc5750605161ffff8316108015906106dc57506106d0600960516123df565b61ffff168261ffff1611155b8061070a5750607961ffff83161080159061070a57506106fe600260796123df565b61ffff168261ffff1611155b8061072a5750607c61ffff83161080159061072a5750608a61ffff831611155b80610739575061ffff821660a7145b80610756575061ffff821660ac1480610756575061ffff821660ad145b80610776575060c061ffff831610801590610776575060c461ffff831611155b80610796575060bc61ffff831610801590610796575060bf61ffff831611155b156107ad57506002546001600160a01b0316610832565b61801061ffff8316108015906107c9575061801361ffff831611155b806107eb575061802061ffff8316108015906107eb575061802461ffff831611155b8061080d575061803061ffff83161080159061080d575061803261ffff831611155b1561082457506003546001600160a01b0316610832565b506000546001600160a01b03165b806001600160a01b0316633604366f8e8989888f8f6040518763ffffffff1660e01b81526004016108689695949392919061253e565b60006040518083038186803b15801561088057600080fd5b505afa158015610894573d6000803e3d6000fd5b505050506040513d6000823e601f3d908101601f191682016040526108bc9190810190612b67565b9097509550600061ffff831661802314806108dc575061ffff8316618024145b15905080156108f7576108f08685896110c6565b6101608901525b60028851600381111561090c5761090c6122ed565b148015610920575061014088015160001914155b1561093d5761092e886112cb565b6109378861134f565b50600088525b61094688610a8e565b985050505050505050505b95945050505050565b60006001836003811115610970576109706122ed565b14156109a457816040516020016109879190612cc1565b6040516020818303038152906040528051906020012090506102c2565b60028360038111156109b8576109b86122ed565b14156109e2576040516f26b0b1b434b7329032b93937b932b21d60811b6020820152603001610987565b60038360038111156109f6576109f66122ed565b1415610a20576040516f26b0b1b434b732903a37b7903330b91d60811b6020820152603001610987565b60405162461bcd60e51b815260206004820152601060248201526f4241445f424c4f434b5f53544154555360801b6044820152606401610358565b604080518082019091526000808252602082015250604080518082019091526000815263ffffffff909116602082015290565b60008082516003811115610aa457610aa46122ed565b1415610bc2576000610ad3610abc846020015161137f565b610140850151604086015191906000191415611404565b90506000610afe610ae785608001516114f7565b61014086015160a087015191906000191415611404565b9050600082610b10866060015161137f565b60c087015160e0808901516101008a01516101208b01516101408c01516101608d01516040516f26b0b1b434b73290393ab73734b7339d60811b602082015260308101999099526050890197909752607088018a905260908801959095526001600160e01b031992841b831660b088015290831b821660b487015290911b1660b884015260bc83015260dc82015260fc0160408051601f19818403018152919052805160209091012095945050505050565b600182516003811115610bd757610bd76122ed565b1415610c0f578160c00151604051602001610bf29190612cc1565b604051602081830303815290604052805190602001209050919050565b600282516003811115610c2457610c246122ed565b1415610c4e576040516f26b0b1b434b7329032b93937b932b21d60811b6020820152603001610bf2565b600382516003811115610c6357610c636122ed565b1415610c8d576040516f26b0b1b434b732903a37b7903330b91d60811b6020820152603001610bf2565b60405162461bcd60e51b815260206004820152600f60248201526e4241445f4d4143485f53544154555360881b6044820152606401610358565b919050565b610cd4612085565b81600080610ce3878785611590565b9350905060ff8116610cf85760009150610d75565b8060ff1660011415610d0d5760019150610d75565b8060ff1660021415610d225760029150610d75565b8060ff1660031415610d375760039150610d75565b60405162461bcd60e51b8152602060048201526013602482015272554e4b4e4f574e5f4d4143485f53544154555360681b6044820152606401610358565b50610d7e612067565b610d86612067565b60408051808201909152600080825260208201526040805180820190915260608152600060208201526040805180820190915260008082526020820152610dce8b8b896115c6565b97509450610ddd8b8b896116c5565b97509250610dec8b8b896115c6565b97509350610dfb8b8b8961171b565b97509150610e0a8b8b896116c5565b8098508192505050604051806101800160405280876003811115610e3057610e306122ed565b8152602081019690965260408601939093526060850193909352608084015260a0830191909152600060c0830181905260e08301819052610100830181905261012083018190526101408301819052610160909201919091529250610e989050858583611843565b60c08401919091529050610ead85858361185f565b63ffffffff90911660e08401529050610ec785858361185f565b63ffffffff9091166101008401529050610ee285858361185f565b63ffffffff9091166101208401529050610efd858583611843565b6101408401919091529050610f13858583611843565b61016084019190915291959194509092505050565b610f3061213c565b60408051606081018252600080825260208201819052918101829052839190600080600080610f608b8b89611843565b97509550610f6f8b8b896118c3565b97509450610f7e8b8b89611843565b97509350610f8d8b8b89611843565b97509250610f9c8b8b89611843565b97509150610fab8b8b8961185f565b6040805160c081018252988952602089019790975295870194909452506060850191909152608084015263ffffffff1660a083015290969095509350505050565b604080516020810190915260608152816000611009868684611590565b92509050600060ff82166001600160401b0381111561102a5761102a6122c1565b604051908082528060200260200182016040528015611053578160200160208202803683370190505b50905060005b8260ff168160ff1610156110aa57611072888886611843565b838360ff1681518110611087576110876122d7565b6020026020010181965082815250505080806110a290612ce6565b915050611059565b5060405180602001604052808281525093505050935093915050565b600061110784846110d68561193e565b6040518060400160405280601381526020017226b7b23ab6329036b2b935b632903a3932b29d60691b8152506119ba565b90505b9392505050565b6060816000611121868684611590565b9250905060ff81166001600160401b03811115611140576111406122c1565b60405190808252806020026020018201604052801561118557816020015b604080518082019091526000808252602082015281526020019060019003908161115e5790505b50925060005b8160ff16811015611206576000806111a4898987611acc565b955091506111b3898987611b25565b809650819250505060405180604001604052808361ffff168152602001828152508684815181106111e6576111e66122d7565b6020026020010181905250505080806111fe90612d06565b91505061118b565b5050935093915050565b6000611107848461122085611b7a565b6040518060400160405280601881526020017724b739ba393ab1ba34b7b71036b2b935b632903a3932b29d60411b8152506119ba565b60405168233ab731ba34b7b71d60b91b602082015260298101829052600090819060490160405160208183030381529060405280519060200120905061095185858360405180604001604052806015815260200174233ab731ba34b7b71036b2b935b632903a3932b29d60591b8152506119ba565b60408101515160a0820151516000198114806112e8575060001982145b156112f557505060029052565b61130283608001516114f7565b60a08401515260208301516113169061137f565b60408401515260808301516113319082602082015260609052565b50602091820151808301919091526040805192830190526060825252565b60006113638283610140015160001c611d19565b61136f57506000919050565b5060001961014090910152600190565b60208101518151515160005b818110156113fd5783516113a8906113a39083611d5b565b611d93565b6040516b2b30b63ab29039ba30b1b59d60a11b6020820152602c810191909152604c8101849052606c0160405160208183030381529060405280519060200120925080806113f590612d06565b91505061138b565b5050919050565b60006000198314156114545760405162461bcd60e51b81526020600482015260196024820152784d554c5449535441434b5f4e4f535441434b5f41435449564560381b6044820152606401610358565b81156114dd57835160001914156114a75760405162461bcd60e51b815260206004820152601760248201527626aaa62a24a9aa20a1a5afa727a9aa20a1a5afa6a0a4a760491b6044820152606401610358565b83516020808601516040516114c0939287929101612d21565b60405160208183030381529060405280519060200120905061110a565b83516020808601516040516114c093879390929101612d21565b602081015160005b82515181101561158a5761152f83600001518281518110611522576115226122d7565b6020026020010151611db0565b6040517129ba30b1b590333930b6b29039ba30b1b59d60711b6020820152603281019190915260528101839052607201604051602081830303815290604052805190602001209150808061158290612d06565b9150506114ff565b50919050565b6000818484828181106115a5576115a56122d7565b919091013560f81c92508190506115bb81612d06565b915050935093915050565b6115ce612067565b8160006115dc868684611843565b9250905060006115ed878785611b25565b935090506000816001600160401b0381111561160b5761160b6122c1565b60405190808252806020026020018201604052801561165057816020015b60408051808201909152600080825260208201528152602001906001900390816116295790505b50905060005b815181101561169e5761166a898987611e20565b83838151811061167c5761167c6122d7565b602002602001018197508290525050808061169690612d06565b915050611656565b50604080516060810182529081019182529081526020810192909252509590945092505050565b60408051808201909152600080825260208201528160006116e7868684611843565b9250905060006116f8878785611843565b604080518082019091529384526020840191909152919791965090945050505050565b60408051808201909152606081526000602082015281600061173e868684611843565b925090506060868684818110611756576117566122d7565b909101356001600160f81b0319161590506117de578261177581612d06565b604080516001808252818301909252919550909150816020015b611797612194565b81526020019060019003908161178f5790505090506117b7878785611f1c565b826000815181106117ca576117ca6122d7565b602002602001018195508290525050611822565b826117e881612d06565b6040805160008082526020820190925291955090915061181e565b61180b612194565b8152602001906001900390816118035790505b5090505b60405180604001604052808281526020018381525093505050935093915050565b60008181611852868684611b25565b9097909650945050505050565b600081815b60048110156118ba5760088363ffffffff16901b925085858381811061188c5761188c6122d7565b919091013560f81c939093179250816118a481612d06565b92505080806118b290612d06565b915050611864565b50935093915050565b604080516060810182526000808252602082018190529181019190915281600080806118f0888886611fb5565b945092506118ff888886611fb5565b9450915061190e888886611843565b604080516060810182526001600160401b0396871681529490951660208501529383015250969095509350505050565b600081600001516119528360200151612013565b6040808501516060860151608087015160a08801519351610bf2969594906020016626b7b23ab6329d60c91b81526007810196909652602786019490945260478501929092526067840152608783015260e01b6001600160e01b03191660a782015260ab0190565b8160005b855151811015611a835760018516611a1f578282876000015183815181106119e8576119e86122d7565b6020026020010151604051602001611a0293929190612d4d565b604051602081830303815290604052805190602001209150611a6a565b8286600001518281518110611a3657611a366122d7565b602002602001015183604051602001611a5193929190612d4d565b6040516020818303038152906040528051906020012091505b60019490941c9380611a7b81612d06565b9150506119be565b508315611ac45760405162461bcd60e51b815260206004820152600f60248201526e141493d3d197d513d3d7d4d213d495608a1b6044820152606401610358565b949350505050565b600081815b60028110156118ba5760088361ffff16901b9250858583818110611af757611af76122d7565b919091013560f81c93909317925081611b0f81612d06565b9250508080611b1d90612d06565b915050611ad1565b600081815b60208110156118ba57600883901b9250858583818110611b4c57611b4c6122d7565b919091013560f81c93909317925081611b6481612d06565b9250508080611b7290612d06565b915050611b2a565b60008082516022611b8b9190612d93565b611b9690600e612319565b6001600160401b03811115611bad57611bad6122c1565b6040519080825280601f01601f191660200182016040528015611bd7576020820181803683370190505b5090506c24b739ba393ab1ba34b7b7399d60991b60208201526000600d9050835160f81b828281518110611c0d57611c0d6122d7565b60200101906001600160f81b031916908160001a90535080611c2e81612d06565b91505060005b8451811015611d09576000858281518110611c5157611c516122d7565b602002602001015190506008816000015161ffff16901c60f81b848481518110611c7d57611c7d6122d7565b60200101906001600160f81b031916908160001a905350805160f81b84611ca5856001612319565b81518110611cb557611cb56122d7565b60200101906001600160f81b031916908160001a905350611cd7600284612319565b6020808301518683018201819052919450611cf29085612319565b935050508080611d0190612d06565b915050611c34565b5050805160209091012092915050565b6000606082901c15611d2d575060006102c2565b5063ffffffff818116610120840152602082901c811661010084015260409190911c1660e090910152600190565b60408051808201909152600080825260208201528251805183908110611d8357611d836122d7565b6020026020010151905092915050565b600081600001518260200151604051602001610bf2929190612db2565b6000611dbf8260000151611d93565b602080840151604080860151606087015191516b29ba30b1b590333930b6b29d60a11b94810194909452602c840194909452604c8301919091526001600160e01b031960e093841b8116606c840152921b9091166070820152607401610bf2565b6040805180820190915260008082526020820152816000858583818110611e4957611e496122d7565b919091013560f81c9150829050611e5f81612d06565b925050611e6a600690565b6006811115611e7b57611e7b6122ed565b60ff168160ff161115611ec15760405162461bcd60e51b815260206004820152600e60248201526d4241445f56414c55455f5459504560901b6044820152606401610358565b6000611ece878785611b25565b809450819250505060405180604001604052808360ff166006811115611ef657611ef66122ed565b6006811115611f0757611f076122ed565b81526020018281525093505050935093915050565b611f24612194565b81611f3f604080518082019091526000808252602082015290565b6000806000611f4f898987611e20565b95509350611f5e898987611843565b95509250611f6d89898761185f565b95509150611f7c89898761185f565b60408051608081018252968752602087019590955263ffffffff9384169486019490945290911660608401525090969095509350505050565b600081815b60088110156118ba576008836001600160401b0316901b9250858583818110611fe557611fe56122d7565b919091013560f81c93909317925081611ffd81612d06565b925050808061200b90612d06565b915050611fba565b805160208083015160408085015190516626b2b6b7b93c9d60c91b938101939093526001600160c01b031960c094851b811660278501529190931b16602f8201526037810191909152600090605701610bf2565b60408051606080820183529181019182529081526000602082015290565b60408051610180810190915280600081526020016120a1612067565b81526020016120c0604080518082019091526000808252602082015290565b81526020016120cd612067565b81526020016120ed60408051808201909152606081526000602082015290565b815260200161210c604080518082019091526000808252602082015290565b815260006020820181905260408201819052606082018190526080820181905260a0820181905260c09091015290565b6040805160c081019091526000815260208101612172604080516060810182526000808252602082018190529181019190915290565b8152600060208201819052604082018190526060820181905260809091015290565b6040805160c08101825260006080820181815260a08301829052825260208201819052918101829052606081019190915290565b600080604083850312156121db57600080fd5b50508035926020909101359150565b600080600080600085870360a081121561220357600080fd5b604081121561221157600080fd5b50859450604086013593506060860135925060808601356001600160401b038082111561223d57600080fd5b818801915088601f83011261225157600080fd5b81358181111561226057600080fd5b89602082850101111561227257600080fd5b9699959850939650602001949392505050565b6004811061229257600080fd5b50565b600080604083850312156122a857600080fd5b82356122b381612285565b946020939093013593505050565b634e487b7160e01b600052604160045260246000fd5b634e487b7160e01b600052603260045260246000fd5b634e487b7160e01b600052602160045260246000fd5b634e487b7160e01b600052601160045260246000fd5b6000821982111561232c5761232c612303565b500190565b634e487b7160e01b600052601260045260246000fd5b600063ffffffff8084168061235e5761235e612331565b92169190910492915050565b600063ffffffff8084168061238157612381612331565b92169190910692915050565b6000808585111561239d57600080fd5b838611156123aa57600080fd5b5050820193919092039150565b600063ffffffff8083168185168083038211156123d6576123d6612303565b01949350505050565b600061ffff8083168185168083038211156123d6576123d6612303565b6004811061240c5761240c6122ed565b9052565b805160078110612422576124226122ed565b8252602090810151910152565b805160408084529051602084830181905281516060860181905260009392820191849160808801905b8084101561247f5761246b828651612410565b938201936001939093019290850190612458565b509581015196019590955250919392505050565b8051604080845281518482018190526000926060916020918201918388019190865b828110156124fe5784516124ca858251612410565b80830151858901528781015163ffffffff90811688870152908701511660808501529381019360a0909301926001016124b5565b509687015197909601969096525093949350505050565b81835281816020850137506000828201602090810191909152601f909101601f19169091010190565b8635815260006101c060208901356001600160a01b03811680821461256257600080fd5b806020860152505080604084015261257d81840189516123fc565b6020880151816101e085015261259761038085018261242f565b91505060408801516125b761020085018280518252602090810151910152565b5060608801516101bf1980858403016102408601526125d6838361242f565b925060808a015191508085840301610260860152506125f58282612493565b91505060a088015161261561028085018280518252602090810151910152565b5060c08801516102c084015260e088015163ffffffff81166102e08501525061010088015163ffffffff81166103008501525061012088015163ffffffff811661032085015250610140880151610340840152610160808901516103608501526126e160608501898051825260208101516001600160401b0380825116602085015280602083015116604085015250604081015160608401525060408101516080830152606081015160a0830152608081015160c083015263ffffffff60a08201511660e08301525050565b6126fb81850188805161ffff168252602090810151910152565b508281036101a0840152612710818587612515565b9998505050505050505050565b604080519081016001600160401b038111828210171561273f5761273f6122c1565b60405290565b604051602081016001600160401b038111828210171561273f5761273f6122c1565b604051608081016001600160401b038111828210171561273f5761273f6122c1565b60405160c081016001600160401b038111828210171561273f5761273f6122c1565b604051606081016001600160401b038111828210171561273f5761273f6122c1565b60405161018081016001600160401b038111828210171561273f5761273f6122c1565b604051601f8201601f191681016001600160401b0381118282101715612818576128186122c1565b604052919050565b8051610cc781612285565b60006001600160401b03821115612844576128446122c1565b5060051b60200190565b60006040828403121561286057600080fd5b61286861271d565b905081516007811061287957600080fd5b808252506020820151602082015292915050565b600060408083850312156128a057600080fd5b6128a861271d565b915082516001600160401b03808211156128c157600080fd5b818501915060208083880312156128d757600080fd5b6128df612745565b8351838111156128ee57600080fd5b80850194505087601f85011261290357600080fd5b835192506129186129138461282b565b6127f0565b83815260069390931b8401820192828101908985111561293757600080fd5b948301945b8486101561295d5761294e8a8761284e565b8252948601949083019061293c565b8252508552948501519484019490945250909392505050565b60006040828403121561298857600080fd5b61299061271d565b9050815181526020820151602082015292915050565b805163ffffffff81168114610cc757600080fd5b600060408083850312156129cd57600080fd5b6129d561271d565b915082516001600160401b038111156129ed57600080fd5b8301601f810185136129fe57600080fd5b80516020612a0e6129138361282b565b82815260a09283028401820192828201919089851115612a2d57600080fd5b948301945b84861015612a965780868b031215612a4a5760008081fd5b612a52612767565b612a5c8b8861284e565b815287870151858201526060612a738189016129a6565b89830152612a83608089016129a6565b9082015283529485019491830191612a32565b50808752505080860151818601525050505092915050565b80516001600160401b0381168114610cc757600080fd5b6000818303610100811215612ad957600080fd5b612ae1612789565b8351815291506060601f1982011215612af957600080fd5b50612b026127ab565b612b0e60208401612aae565b8152612b1c60408401612aae565b602082015260608301516040820152806020830152506080820151604082015260a0820151606082015260c08201516080820152612b5c60e083016129a6565b60a082015292915050565b600080610120808486031215612b7c57600080fd5b83516001600160401b0380821115612b9357600080fd5b908501906101c08288031215612ba857600080fd5b612bb06127cd565b612bb983612820565b8152602083015182811115612bcd57600080fd5b612bd98982860161288d565b602083015250612bec8860408501612976565b6040820152608083015182811115612c0357600080fd5b612c0f8982860161288d565b60608301525060a083015182811115612c2757600080fd5b612c33898286016129ba565b608083015250612c468860c08501612976565b60a082015261010091508183015160c0820152612c648484016129a6565b60e0820152610140612c778185016129a6565b838301526101609250612c8b8385016129a6565b8583015261018084015181830152506101a08301518282015280955050505050612cb88460208501612ac5565b90509250929050565b7026b0b1b434b732903334b734b9b432b21d60791b8152601181019190915260310190565b600060ff821660ff811415612cfd57612cfd612303565b60010192915050565b6000600019821415612d1a57612d1a612303565b5060010190565b6a36bab63a34b9ba30b1b59d60a91b8152600b810193909352602b830191909152604b820152606b0190565b6000845160005b81811015612d6e5760208188018101518583015201612d54565b81811115612d7d576000828501525b5091909101928352506020820152604001919050565b6000816000190483118215151615612dad57612dad612303565b500290565b652b30b63ab29d60d11b8152600060078410612dd057612dd06122ed565b5060f89290921b600683015260078201526027019056fea26469706673582212206630cc3ca936424a379d3ba5328e6633b67f26f2f4c58f0334dbe3c122002ad364736f6c63430008090033",
  "linkReferences": {},
  "deployedLinkReferences": {}
}