{
  "_format": "hh-sol-artifact-1",
  "contractName": "ValidatorWallet",
  "sourceName": "src/rollup/ValidatorWallet.sol",
  "abi": [
    {
      "inputs": [
        {
          "internalType": "uint256",
          "name": "expected",
          "type": "uint256"
        },
        {
          "internalType": "uint256",
          "name": "actual",
          "type": "uint256"
        }
      ],
      "name": "BadArrayLength",
      "type": "error"
    },
    {
      "inputs": [
        {
          "internalType": "address",
          "name": "actual",
          "type": "address"
        }
      ],
      "name": "NotExecutorOrOwner",
      "type": "error"
    },
    {
      "inputs": [
        {
          "internalType": "address",
          "name": "expected",
          "type": "address"
        },
        {
          "internalType": "address",
          "name": "actual",
          "type": "address"
        },
        {
          "internalType": "address",
          "name": "destination",
          "type": "address"
        }
      ],
      "name": "OnlyOwnerDestination",
      "type": "error"
    },
    {
      "inputs": [
        {
          "internalType": "address",
          "name": "destination",
          "type": "address"
        }
      ],
      "name": "WithdrawEthFail",
      "type": "error"
    },
    {
      "anonymous": false,
      "inputs": [
        {
          "indexed": true,
          "internalType": "address",
          "name": "destination",
          "type": "address"
        },
        {
          "indexed": false,
          "internalType": "bool",
          "name": "isSet",
          "type": "bool"
        }
      ],
      "name": "AllowedExecutorDestinationsUpdated",
      "type": "event"
    },
    {
      "anonymous": false,
      "inputs": [
        {
          "indexed": true,
          "internalType": "address",
          "name": "executor",
          "type": "address"
        },
        {
          "indexed": false,
          "internalType": "bool",
          "name": "isExecutor",
          "type": "bool"
        }
      ],
      "name": "ExecutorUpdated",
      "type": "event"
    },
    {
      "anonymous": false,
      "inputs": [
        {
          "indexed": true,
          "internalType": "address",
          "name": "previousOwner",
          "type": "address"
        },
        {
          "indexed": true,
          "internalType": "address",
          "name": "newOwner",
          "type": "address"
        }
      ],
      "name": "OwnershipTransferred",
      "type": "event"
    },
    {
      "inputs": [
        {
          "internalType": "address",
          "name": "",
          "type": "address"
        }
      ],
      "name": "allowedExecutorDestinations",
      "outputs": [
        {
          "internalType": "bool",
          "name": "",
          "type": "bool"
        }
      ],
      "stateMutability": "view",
      "type": "function"
    },
    {
      "inputs": [
        {
          "internalType": "bytes",
          "name": "data",
          "type": "bytes"
        },
        {
          "internalType": "address",
          "name": "destination",
          "type": "address"
        },
        {
          "internalType": "uint256",
          "name": "amount",
          "type": "uint256"
        }
      ],
      "name": "executeTransaction",
      "outputs": [],
      "stateMutability": "payable",
      "type": "function"
    },
    {
      "inputs": [
        {
          "internalType": "contract IGasRefunder",
          "name": "gasRefunder",
          "type": "address"
        },
        {
          "internalType": "bytes",
          "name": "data",
          "type": "bytes"
        },
        {
          "internalType": "address",
          "name": "destination",
          "type": "address"
        },
        {
          "internalType": "uint256",
          "name": "amount",
          "type": "uint256"
        }
      ],
      "name": "executeTransactionWithGasRefunder",
      "outputs": [],
      "stateMutability": "payable",
      "type": "function"
    },
    {
      "inputs": [
        {
          "internalType": "bytes[]",
          "name": "data",
          "type": "bytes[]"
        },
        {
          "internalType": "address[]",
          "name": "destination",
          "type": "address[]"
        },
        {
          "internalType": "uint256[]",
          "name": "amount",
          "type": "uint256[]"
        }
      ],
      "name": "executeTransactions",
      "outputs": [],
      "stateMutability": "payable",
      "type": "function"
    },
    {
      "inputs": [
        {
          "internalType": "contract IGasRefunder",
          "name": "gasRefunder",
          "type": "address"
        },
        {
          "internalType": "bytes[]",
          "name": "data",
          "type": "bytes[]"
        },
        {
          "internalType": "address[]",
          "name": "destination",
          "type": "address[]"
        },
        {
          "internalType": "uint256[]",
          "name": "amount",
          "type": "uint256[]"
        }
      ],
      "name": "executeTransactionsWithGasRefunder",
      "outputs": [],
      "stateMutability": "payable",
      "type": "function"
    },
    {
      "inputs": [
        {
          "internalType": "address",
          "name": "",
          "type": "address"
        }
      ],
      "name": "executors",
      "outputs": [
        {
          "internalType": "bool",
          "name": "",
          "type": "bool"
        }
      ],
      "stateMutability": "view",
      "type": "function"
    },
    {
      "inputs": [
        {
          "internalType": "address",
          "name": "_executor",
          "type": "address"
        },
        {
          "internalType": "address",
          "name": "_owner",
          "type": "address"
        },
        {
          "internalType": "address[]",
          "name": "initialExecutorAllowedDests",
          "type": "address[]"
        }
      ],
      "name": "initialize",
      "outputs": [],
      "stateMutability": "nonpayable",
      "type": "function"
    },
    {
      "inputs": [],
      "name": "owner",
      "outputs": [
        {
          "internalType": "address",
          "name": "",
          "type": "address"
        }
      ],
      "stateMutability": "view",
      "type": "function"
    },
    {
      "inputs": [],
      "name": "renounceOwnership",
      "outputs": [],
      "stateMutability": "nonpayable",
      "type": "function"
    },
    {
      "inputs": [
        {
          "internalType": "address[]",
          "name": "destinations",
          "type": "address[]"
        },
        {
          "internalType": "bool[]",
          "name": "isSet",
          "type": "bool[]"
        }
      ],
      "name": "setAllowedExecutorDestinations",
      "outputs": [],
      "stateMutability": "nonpayable",
      "type": "function"
    },
    {
      "inputs": [
        {
          "internalType": "address[]",
          "name": "newExecutors",
          "type": "address[]"
        },
        {
          "internalType": "bool[]",
          "name": "isExecutor",
          "type": "bool[]"
        }
      ],
      "name": "setExecutor",
      "outputs": [],
      "stateMutability": "nonpayable",
      "type": "function"
    },
    {
      "inputs": [
        {
          "internalType": "contract IChallengeManager",
          "name": "manager",
          "type": "address"
        },
        {
          "internalType": "uint64[]",
          "name": "challenges",
          "type": "uint64[]"
        }
      ],
      "name": "timeoutChallenges",
      "outputs": [],
      "stateMutability": "nonpayable",
      "type": "function"
    },
    {
      "inputs": [
        {
          "internalType": "contract IGasRefunder",
          "name": "gasRefunder",
          "type": "address"
        },
        {
          "internalType": "contract IChallengeManager",
          "name": "manager",
          "type": "address"
        },
        {
          "internalType": "uint64[]",
          "name": "challenges",
          "type": "uint64[]"
        }
      ],
      "name": "timeoutChallengesWithGasRefunder",
      "outputs": [],
      "stateMutability": "nonpayable",
      "type": "function"
    },
    {
      "inputs": [
        {
          "internalType": "address",
          "name": "newOwner",
          "type": "address"
        }
      ],
      "name": "transferOwnership",
      "outputs": [],
      "stateMutability": "nonpayable",
      "type": "function"
    },
    {
      "inputs": [
        {
          "internalType": "address",
          "name": "destination",
          "type": "address"
        }
      ],
      "name": "validateExecuteTransaction",
      "outputs": [],
      "stateMutability": "view",
      "type": "function"
    },
    {
      "inputs": [
        {
          "internalType": "uint256",
          "name": "amount",
          "type": "uint256"
        },
        {
          "internalType": "address",
          "name": "destination",
          "type": "address"
        }
      ],
      "name": "withdrawEth",
      "outputs": [],
      "stateMutability": "nonpayable",
      "type": "function"
    },
    {
      "stateMutability": "payable",
      "type": "receive"
    }
  ],
  "bytecode": "0x60c06040523073ffffffffffffffffffffffffffffffffffffffff1660809073ffffffffffffffffffffffffffffffffffffffff168152506202000060a090815250348015604b575f80fd5b5060805160a05161349361007b5f395f818161072f015281816118630152611d6101525f610e1701526134935ff3fe6080604052600436106100f6575f3560e01c80639ac2a01111610089578063c179f1d911610058578063c179f1d9146102e1578063ce1d571f146102fd578063d327821a14610319578063f2fde38b14610341576100fd565b80639ac2a0111461022d5780639be7bbd214610269578063a158657c14610291578063af1b9a07146102b9576100fd565b8063715018a6116100c5578063715018a6146101a957806372f45866146101bf57806377a24f36146101db5780638da5cb5b14610203576100fd565b8063097da1f8146101015780630a2435f81461011d578063193c8edd146101455780633a7c721a14610181576100fd565b366100fd57005b5f80fd5b61011b6004803603810190610116919061224e565b610369565b005b348015610128575f80fd5b50610143600480360381019061013e919061237c565b610817565b005b348015610150575f80fd5b5061016b600480360381019061016691906123fa565b610a74565b604051610178919061243f565b60405180910390f35b34801561018c575f80fd5b506101a760048036038101906101a2919061237c565b610a91565b005b3480156101b4575f80fd5b506101bd610cbc565b005b6101d960048036038101906101d49190612502565b610d43565b005b3480156101e6575f80fd5b5061020160048036038101906101fc91906125b2565b610d5a565b005b34801561020e575f80fd5b506102176110a8565b6040516102249190612632565b60405180910390f35b348015610238575f80fd5b50610253600480360381019061024e91906123fa565b6110d0565b604051610260919061243f565b60405180910390f35b348015610274575f80fd5b5061028f600480360381019061028a91906123fa565b6110ed565b005b34801561029c575f80fd5b506102b760048036038101906102b2919061264b565b6111d5565b005b3480156102c4575f80fd5b506102df60048036038101906102da9190612719565b611300565b005b6102fb60048036038101906102f69190612776565b611311565b005b6103176004803603810190610312919061283a565b61194d565b005b348015610324575f80fd5b5061033f600480360381019061033a91906128ab565b611960565b005b34801561034c575f80fd5b50610367600480360381019061036291906123fa565b611e48565b005b60655f610374611f3e565b73ffffffffffffffffffffffffffffffffffffffff1673ffffffffffffffffffffffffffffffffffffffff1681526020019081526020015f205f9054906101000a900460ff1615801561040157506103ca611f3e565b73ffffffffffffffffffffffffffffffffffffffff166103e86110a8565b73ffffffffffffffffffffffffffffffffffffffff1614155b1561044a5761040e611f3e565b6040517ff26aea8b0000000000000000000000000000000000000000000000000000000081526004016104419190612632565b60405180910390fd5b845f805a90505f8787905011156104ba5761047a8573ffffffffffffffffffffffffffffffffffffffff16611f45565b6104b9576040517f08c379a00000000000000000000000000000000000000000000000000000000081526004016104b090612976565b60405180910390fd5b5b6104c3856110ed565b5f8573ffffffffffffffffffffffffffffffffffffffff168589896040516104ec9291906129d0565b5f6040518083038185875af1925050503d805f8114610526576040519150601f19603f3d011682016040523d82523d5f602084013e61052b565b606091505b5050905080610540576040513d805f833e8082fd5b505f73ffffffffffffffffffffffffffffffffffffffff168373ffffffffffffffffffffffffffffffffffffffff161461080d575f8036905090505f6020601f8361058b9190612a15565b6105959190612a75565b90506102006002826105a79190612be0565b6105b19190612a75565b6006826105be9190612c2a565b6105c89190612a15565b836105d39190612a15565b92503273ffffffffffffffffffffffffffffffffffffffff163373ffffffffffffffffffffffffffffffffffffffff1614610610575f9150610781565b5f73ffffffffffffffffffffffffffffffffffffffff168473ffffffffffffffffffffffffffffffffffffffff1614610780578373ffffffffffffffffffffffffffffffffffffffff1663e83a2d826040518163ffffffff1660e01b81526004015f60405180830381865afa9250505080156106ae57506040513d5f823e3d601f19601f820116820180604052508101906106ab9190612de6565b60015b1561077f575f81511461077d575f8573ffffffffffffffffffffffffffffffffffffffff16631f6d6ef76040518163ffffffff1660e01b8152600401602060405180830381865afa158015610705573d5f803e3d5ffd5b505050506040513d601f19601f820116820180604052508101906107299190612e41565b905048817f0000000000000000000000000000000000000000000000000000000000000000845161075a9190612c2a565b6107649190612c2a565b61076e9190612a75565b856107799190612a15565b9450505b505b5b5b8473ffffffffffffffffffffffffffffffffffffffff1663e3db8a49335a866107aa9190612e6c565b856040518463ffffffff1660e01b81526004016107c993929190612ece565b6020604051808303815f875af11580156107e5573d5f803e3d5ffd5b505050506040513d601f19601f820116820180604052508101906108099190612f2d565b5050505b5050505050505050565b61081f611f3e565b73ffffffffffffffffffffffffffffffffffffffff1661083d6110a8565b73ffffffffffffffffffffffffffffffffffffffff1614610893576040517f08c379a000000000000000000000000000000000000000000000000000000000815260040161088a90612fa2565b60405180910390fd5b8181905084849050146108e55783839050828290506040517f1104a7860000000000000000000000000000000000000000000000000000000081526004016108dc929190612fc0565b60405180910390fd5b5f5b848490508167ffffffffffffffff161015610a6d5782828267ffffffffffffffff1681811061091957610918612fe7565b5b905060200201602081019061092e9190613028565b60655f87878567ffffffffffffffff1681811061094e5761094d612fe7565b5b905060200201602081019061096391906123fa565b73ffffffffffffffffffffffffffffffffffffffff1673ffffffffffffffffffffffffffffffffffffffff1681526020019081526020015f205f6101000a81548160ff02191690831515021790555084848267ffffffffffffffff168181106109cf576109ce612fe7565b5b90506020020160208101906109e491906123fa565b73ffffffffffffffffffffffffffffffffffffffff167f9fdbc2d48b8a0db2f62663bf9312ad02f5b1f6414ad600b55a247d09aeec3ea284848467ffffffffffffffff16818110610a3857610a37612fe7565b5b9050602002016020810190610a4d9190613028565b604051610a5a919061243f565b60405180910390a28060010190506108e7565b5050505050565b6066602052805f5260405f205f915054906101000a900460ff1681565b610a99611f3e565b73ffffffffffffffffffffffffffffffffffffffff16610ab76110a8565b73ffffffffffffffffffffffffffffffffffffffff1614610b0d576040517f08c379a0000000000000000000000000000000000000000000000000000000008152600401610b0490612fa2565b60405180910390fd5b818190508484905014610b5f5783839050828290506040517f1104a786000000000000000000000000000000000000000000000000000000008152600401610b56929190612fc0565b60405180910390fd5b5f5b84849050811015610cb557828282818110610b7f57610b7e612fe7565b5b9050602002016020810190610b949190613028565b60665f878785818110610baa57610ba9612fe7565b5b9050602002016020810190610bbf91906123fa565b73ffffffffffffffffffffffffffffffffffffffff1673ffffffffffffffffffffffffffffffffffffffff1681526020019081526020015f205f6101000a81548160ff021916908315150217905550848482818110610c2157610c20612fe7565b5b9050602002016020810190610c3691906123fa565b73ffffffffffffffffffffffffffffffffffffffff167fab063fe575c4df359aaf3733bcf10706bacfdd24557e670a2c1cba126ae4d8a4848484818110610c8057610c7f612fe7565b5b9050602002016020810190610c959190613028565b604051610ca2919061243f565b60405180910390a2806001019050610b61565b5050505050565b610cc4611f3e565b73ffffffffffffffffffffffffffffffffffffffff16610ce26110a8565b73ffffffffffffffffffffffffffffffffffffffff1614610d38576040517f08c379a0000000000000000000000000000000000000000000000000000000008152600401610d2f90612fa2565b60405180910390fd5b610d415f611f67565b565b610d525f878787878787611311565b505050505050565b5f60019054906101000a900460ff16610d80575f8054906101000a900460ff1615610d89565b610d8861202a565b5b610dc8576040517f08c379a0000000000000000000000000000000000000000000000000000000008152600401610dbf906130c3565b60405180910390fd5b5f8060019054906101000a900460ff161590508015610e155760015f60016101000a81548160ff02191690831515021790555060015f806101000a81548160ff0219169083151502179055505b7f000000000000000000000000000000000000000000000000000000000000000073ffffffffffffffffffffffffffffffffffffffff163073ffffffffffffffffffffffffffffffffffffffff1603610ea3576040517f08c379a0000000000000000000000000000000000000000000000000000000008152600401610e9a90613151565b60405180910390fd5b610eab61203a565b610eb484611e48565b600160655f8773ffffffffffffffffffffffffffffffffffffffff1673ffffffffffffffffffffffffffffffffffffffff1681526020019081526020015f205f6101000a81548160ff0219169083151502179055508473ffffffffffffffffffffffffffffffffffffffff167f9fdbc2d48b8a0db2f62663bf9312ad02f5b1f6414ad600b55a247d09aeec3ea26001604051610f50919061243f565b60405180910390a25f5b838390508167ffffffffffffffff16101561108057600160665f86868567ffffffffffffffff16818110610f9157610f90612fe7565b5b9050602002016020810190610fa691906123fa565b73ffffffffffffffffffffffffffffffffffffffff1673ffffffffffffffffffffffffffffffffffffffff1681526020019081526020015f205f6101000a81548160ff02191690831515021790555083838267ffffffffffffffff1681811061101257611011612fe7565b5b905060200201602081019061102791906123fa565b73ffffffffffffffffffffffffffffffffffffffff167fab063fe575c4df359aaf3733bcf10706bacfdd24557e670a2c1cba126ae4d8a4600160405161106d919061243f565b60405180910390a2806001019050610f5a565b5080156110a1575f8060016101000a81548160ff0219169083151502179055505b5050505050565b5f60335f9054906101000a900473ffffffffffffffffffffffffffffffffffffffff16905090565b6065602052805f5260405f205f915054906101000a900460ff1681565b60665f8273ffffffffffffffffffffffffffffffffffffffff1673ffffffffffffffffffffffffffffffffffffffff1681526020019081526020015f205f9054906101000a900460ff1615801561117e5750611147611f3e565b73ffffffffffffffffffffffffffffffffffffffff166111656110a8565b73ffffffffffffffffffffffffffffffffffffffff1614155b156111d25761118b6110a8565b611193611f3e565b826040517f41fc6f8a0000000000000000000000000000000000000000000000000000000081526004016111c99392919061316f565b60405180910390fd5b50565b6111dd611f3e565b73ffffffffffffffffffffffffffffffffffffffff166111fb6110a8565b73ffffffffffffffffffffffffffffffffffffffff1614611251576040517f08c379a000000000000000000000000000000000000000000000000000000000815260040161124890612fa2565b60405180910390fd5b5f8173ffffffffffffffffffffffffffffffffffffffff1683604051611276906131c7565b5f6040518083038185875af1925050503d805f81146112b0576040519150601f19603f3d011682016040523d82523d5f602084013e6112b5565b606091505b50509050806112fb57816040517f7edbb4980000000000000000000000000000000000000000000000000000000081526004016112f29190612632565b60405180910390fd5b505050565b61130c5f848484611960565b505050565b60655f61131c611f3e565b73ffffffffffffffffffffffffffffffffffffffff1673ffffffffffffffffffffffffffffffffffffffff1681526020019081526020015f205f9054906101000a900460ff161580156113a95750611372611f3e565b73ffffffffffffffffffffffffffffffffffffffff166113906110a8565b73ffffffffffffffffffffffffffffffffffffffff1614155b156113f2576113b6611f3e565b6040517ff26aea8b0000000000000000000000000000000000000000000000000000000081526004016113e99190612632565b60405180910390fd5b865f805a90505f89899050905087879050811461144b5780888890506040517f1104a786000000000000000000000000000000000000000000000000000000008152600401611442929190612fc0565b60405180910390fd5b8585905081146114975780868690506040517f1104a78600000000000000000000000000000000000000000000000000000000815260040161148e929190612fc0565b60405180910390fd5b5f5b81811015611673575f8b8b838181106114b5576114b4612fe7565b5b90506020028101906114c791906131e7565b90501115611555576115158989838181106114e5576114e4612fe7565b5b90506020020160208101906114fa91906123fa565b73ffffffffffffffffffffffffffffffffffffffff16611f45565b611554576040517f08c379a000000000000000000000000000000000000000000000000000000000815260040161154b90612976565b60405180910390fd5b5b61158589898381811061156b5761156a612fe7565b5b905060200201602081019061158091906123fa565b6110ed565b5f89898381811061159957611598612fe7565b5b90506020020160208101906115ae91906123fa565b73ffffffffffffffffffffffffffffffffffffffff168888848181106115d7576115d6612fe7565b5b905060200201358d8d858181106115f1576115f0612fe7565b5b905060200281019061160391906131e7565b6040516116119291906129d0565b5f6040518083038185875af1925050503d805f811461164b576040519150601f19603f3d011682016040523d82523d5f602084013e611650565b606091505b5050905080611665576040513d805f833e8082fd5b508080600101915050611499565b50505f73ffffffffffffffffffffffffffffffffffffffff168373ffffffffffffffffffffffffffffffffffffffff1614611941575f8036905090505f6020601f836116bf9190612a15565b6116c99190612a75565b90506102006002826116db9190612be0565b6116e59190612a75565b6006826116f29190612c2a565b6116fc9190612a15565b836117079190612a15565b92503273ffffffffffffffffffffffffffffffffffffffff163373ffffffffffffffffffffffffffffffffffffffff1614611744575f91506118b5565b5f73ffffffffffffffffffffffffffffffffffffffff168473ffffffffffffffffffffffffffffffffffffffff16146118b4578373ffffffffffffffffffffffffffffffffffffffff1663e83a2d826040518163ffffffff1660e01b81526004015f60405180830381865afa9250505080156117e257506040513d5f823e3d601f19601f820116820180604052508101906117df9190612de6565b60015b156118b3575f8151146118b1575f8573ffffffffffffffffffffffffffffffffffffffff16631f6d6ef76040518163ffffffff1660e01b8152600401602060405180830381865afa158015611839573d5f803e3d5ffd5b505050506040513d601f19601f8201168201806040525081019061185d9190612e41565b905048817f0000000000000000000000000000000000000000000000000000000000000000845161188e9190612c2a565b6118989190612c2a565b6118a29190612a75565b856118ad9190612a15565b9450505b505b5b5b8473ffffffffffffffffffffffffffffffffffffffff1663e3db8a49335a866118de9190612e6c565b856040518463ffffffff1660e01b81526004016118fd93929190612ece565b6020604051808303815f875af1158015611919573d5f803e3d5ffd5b505050506040513d601f19601f8201168201806040525081019061193d9190612f2d565b5050505b50505050505050505050565b61195a5f85858585610369565b50505050565b60655f61196b611f3e565b73ffffffffffffffffffffffffffffffffffffffff1673ffffffffffffffffffffffffffffffffffffffff1681526020019081526020015f205f9054906101000a900460ff161580156119f857506119c1611f3e565b73ffffffffffffffffffffffffffffffffffffffff166119df6110a8565b73ffffffffffffffffffffffffffffffffffffffff1614155b15611a4157611a05611f3e565b6040517ff26aea8b000000000000000000000000000000000000000000000000000000008152600401611a389190612632565b60405180910390fd5b835f805a90505f8585905090505f5b81811015611b71578773ffffffffffffffffffffffffffffffffffffffff16631b45c86a888884818110611a8757611a86612fe7565b5b9050602002016020810190611a9c9190613286565b6040518263ffffffff1660e01b8152600401611ab891906132c0565b5f604051808303815f87803b158015611acf575f80fd5b505af1925050508015611ae0575060015b611b63573d805f8114611b0e576040519150601f19603f3d011682016040523d82523d5f602084013e611b13565b606091505b505f815103611b5d575f611b5c576040517f08c379a0000000000000000000000000000000000000000000000000000000008152600401611b5390613323565b60405180910390fd5b5b50611b64565b5b8080600101915050611a50565b50505f73ffffffffffffffffffffffffffffffffffffffff168373ffffffffffffffffffffffffffffffffffffffff1614611e3f575f8036905090505f6020601f83611bbd9190612a15565b611bc79190612a75565b9050610200600282611bd99190612be0565b611be39190612a75565b600682611bf09190612c2a565b611bfa9190612a15565b83611c059190612a15565b92503273ffffffffffffffffffffffffffffffffffffffff163373ffffffffffffffffffffffffffffffffffffffff1614611c42575f9150611db3565b5f73ffffffffffffffffffffffffffffffffffffffff168473ffffffffffffffffffffffffffffffffffffffff1614611db2578373ffffffffffffffffffffffffffffffffffffffff1663e83a2d826040518163ffffffff1660e01b81526004015f60405180830381865afa925050508015611ce057506040513d5f823e3d601f19601f82011682018060405250810190611cdd9190612de6565b60015b15611db1575f815114611daf575f8573ffffffffffffffffffffffffffffffffffffffff16631f6d6ef76040518163ffffffff1660e01b8152600401602060405180830381865afa158015611d37573d5f803e3d5ffd5b505050506040513d601f19601f82011682018060405250810190611d5b9190612e41565b905048817f00000000000000000000000000000000000000000000000000000000000000008451611d8c9190612c2a565b611d969190612c2a565b611da09190612a75565b85611dab9190612a15565b9450505b505b5b5b8473ffffffffffffffffffffffffffffffffffffffff1663e3db8a49335a86611ddc9190612e6c565b856040518463ffffffff1660e01b8152600401611dfb93929190612ece565b6020604051808303815f875af1158015611e17573d5f803e3d5ffd5b505050506040513d601f19601f82011682018060405250810190611e3b9190612f2d565b5050505b50505050505050565b611e50611f3e565b73ffffffffffffffffffffffffffffffffffffffff16611e6e6110a8565b73ffffffffffffffffffffffffffffffffffffffff1614611ec4576040517f08c379a0000000000000000000000000000000000000000000000000000000008152600401611ebb90612fa2565b60405180910390fd5b5f73ffffffffffffffffffffffffffffffffffffffff168173ffffffffffffffffffffffffffffffffffffffff1603611f32576040517f08c379a0000000000000000000000000000000000000000000000000000000008152600401611f29906133b1565b60405180910390fd5b611f3b81611f67565b50565b5f33905090565b5f808273ffffffffffffffffffffffffffffffffffffffff163b119050919050565b5f60335f9054906101000a900473ffffffffffffffffffffffffffffffffffffffff1690508160335f6101000a81548173ffffffffffffffffffffffffffffffffffffffff021916908373ffffffffffffffffffffffffffffffffffffffff1602179055508173ffffffffffffffffffffffffffffffffffffffff168173ffffffffffffffffffffffffffffffffffffffff167f8be0079c531659141344cd1fd0a4f28419497f9722a3daafe3b4186f6b6457e060405160405180910390a35050565b5f61203430612092565b15905090565b5f60019054906101000a900460ff16612088576040517f08c379a000000000000000000000000000000000000000000000000000000000815260040161207f9061343f565b60405180910390fd5b6120906120b4565b565b5f808273ffffffffffffffffffffffffffffffffffffffff163b119050919050565b5f60019054906101000a900460ff16612102576040517f08c379a00000000000000000000000000000000000000000000000000000000081526004016120f99061343f565b60405180910390fd5b61211261210d611f3e565b611f67565b565b5f604051905090565b5f80fd5b5f80fd5b5f73ffffffffffffffffffffffffffffffffffffffff82169050919050565b5f61214e82612125565b9050919050565b5f61215f82612144565b9050919050565b61216f81612155565b8114612179575f80fd5b50565b5f8135905061218a81612166565b92915050565b5f80fd5b5f80fd5b5f80fd5b5f8083601f8401126121b1576121b0612190565b5b8235905067ffffffffffffffff8111156121ce576121cd612194565b5b6020830191508360018202830111156121ea576121e9612198565b5b9250929050565b6121fa81612144565b8114612204575f80fd5b50565b5f81359050612215816121f1565b92915050565b5f819050919050565b61222d8161221b565b8114612237575f80fd5b50565b5f8135905061224881612224565b92915050565b5f805f805f608086880312156122675761226661211d565b5b5f6122748882890161217c565b955050602086013567ffffffffffffffff81111561229557612294612121565b5b6122a18882890161219c565b945094505060406122b488828901612207565b92505060606122c58882890161223a565b9150509295509295909350565b5f8083601f8401126122e7576122e6612190565b5b8235905067ffffffffffffffff81111561230457612303612194565b5b6020830191508360208202830111156123205761231f612198565b5b9250929050565b5f8083601f84011261233c5761233b612190565b5b8235905067ffffffffffffffff81111561235957612358612194565b5b60208301915083602082028301111561237557612374612198565b5b9250929050565b5f805f80604085870312156123945761239361211d565b5b5f85013567ffffffffffffffff8111156123b1576123b0612121565b5b6123bd878288016122d2565b9450945050602085013567ffffffffffffffff8111156123e0576123df612121565b5b6123ec87828801612327565b925092505092959194509250565b5f6020828403121561240f5761240e61211d565b5b5f61241c84828501612207565b91505092915050565b5f8115159050919050565b61243981612425565b82525050565b5f6020820190506124525f830184612430565b92915050565b5f8083601f84011261246d5761246c612190565b5b8235905067ffffffffffffffff81111561248a57612489612194565b5b6020830191508360208202830111156124a6576124a5612198565b5b9250929050565b5f8083601f8401126124c2576124c1612190565b5b8235905067ffffffffffffffff8111156124df576124de612194565b5b6020830191508360208202830111156124fb576124fa612198565b5b9250929050565b5f805f805f806060878903121561251c5761251b61211d565b5b5f87013567ffffffffffffffff81111561253957612538612121565b5b61254589828a01612458565b9650965050602087013567ffffffffffffffff81111561256857612567612121565b5b61257489828a016122d2565b9450945050604087013567ffffffffffffffff81111561259757612596612121565b5b6125a389828a016124ad565b92509250509295509295509295565b5f805f80606085870312156125ca576125c961211d565b5b5f6125d787828801612207565b94505060206125e887828801612207565b935050604085013567ffffffffffffffff81111561260957612608612121565b5b612615878288016122d2565b925092505092959194509250565b61262c81612144565b82525050565b5f6020820190506126455f830184612623565b92915050565b5f80604083850312156126615761266061211d565b5b5f61266e8582860161223a565b925050602061267f85828601612207565b9150509250929050565b5f61269382612144565b9050919050565b6126a381612689565b81146126ad575f80fd5b50565b5f813590506126be8161269a565b92915050565b5f8083601f8401126126d9576126d8612190565b5b8235905067ffffffffffffffff8111156126f6576126f5612194565b5b60208301915083602082028301111561271257612711612198565b5b9250929050565b5f805f604084860312156127305761272f61211d565b5b5f61273d868287016126b0565b935050602084013567ffffffffffffffff81111561275e5761275d612121565b5b61276a868287016126c4565b92509250509250925092565b5f805f805f805f6080888a0312156127915761279061211d565b5b5f61279e8a828b0161217c565b975050602088013567ffffffffffffffff8111156127bf576127be612121565b5b6127cb8a828b01612458565b9650965050604088013567ffffffffffffffff8111156127ee576127ed612121565b5b6127fa8a828b016122d2565b9450945050606088013567ffffffffffffffff81111561281d5761281c612121565b5b6128298a828b016124ad565b925092505092959891949750929550565b5f805f80606085870312156128525761285161211d565b5b5f85013567ffffffffffffffff81111561286f5761286e612121565b5b61287b8782880161219c565b9450945050602061288e87828801612207565b925050604061289f8782880161223a565b91505092959194509250565b5f805f80606085870312156128c3576128c261211d565b5b5f6128d08782880161217c565b94505060206128e1878288016126b0565b935050604085013567ffffffffffffffff81111561290257612901612121565b5b61290e878288016126c4565b925092505092959194509250565b5f82825260208201905092915050565b7f4e4f5f434f44455f41545f4144445200000000000000000000000000000000005f82015250565b5f612960600f8361291c565b915061296b8261292c565b602082019050919050565b5f6020820190508181035f83015261298d81612954565b9050919050565b5f81905092915050565b828183375f83830152505050565b5f6129b78385612994565b93506129c483858461299e565b82840190509392505050565b5f6129dc8284866129ac565b91508190509392505050565b7f4e487b71000000000000000000000000000000000000000000000000000000005f52601160045260245ffd5b5f612a1f8261221b565b9150612a2a8361221b565b9250828201905080821115612a4257612a416129e8565b5b92915050565b7f4e487b71000000000000000000000000000000000000000000000000000000005f52601260045260245ffd5b5f612a7f8261221b565b9150612a8a8361221b565b925082612a9a57612a99612a48565b5b828204905092915050565b5f8160011c9050919050565b5f808291508390505b6001851115612afa57808604811115612ad657612ad56129e8565b5b6001851615612ae55780820291505b8081029050612af385612aa5565b9450612aba565b94509492505050565b5f82612b125760019050612bcd565b81612b1f575f9050612bcd565b8160018114612b355760028114612b3f57612b6e565b6001915050612bcd565b60ff841115612b5157612b506129e8565b5b8360020a915084821115612b6857612b676129e8565b5b50612bcd565b5060208310610133831016604e8410600b8410161715612ba35782820a905083811115612b9e57612b9d6129e8565b5b612bcd565b612bb08484846001612ab1565b92509050818404811115612bc757612bc66129e8565b5b81810290505b9392505050565b5f60ff82169050919050565b5f612bea8261221b565b9150612bf583612bd4565b9250612c227fffffffffffffffffffffffffffffffffffffffffffffffffffffffffffffffff8484612b03565b905092915050565b5f612c348261221b565b9150612c3f8361221b565b9250828202612c4d8161221b565b91508282048414831517612c6457612c636129e8565b5b5092915050565b5f601f19601f8301169050919050565b7f4e487b71000000000000000000000000000000000000000000000000000000005f52604160045260245ffd5b612cb182612c6b565b810181811067ffffffffffffffff82111715612cd057612ccf612c7b565b5b80604052505050565b5f612ce2612114565b9050612cee8282612ca8565b919050565b5f67ffffffffffffffff821115612d0d57612d0c612c7b565b5b602082029050602081019050919050565b5f819050919050565b612d3081612d1e565b8114612d3a575f80fd5b50565b5f81519050612d4b81612d27565b92915050565b5f612d63612d5e84612cf3565b612cd9565b90508083825260208201905060208402830185811115612d8657612d85612198565b5b835b81811015612daf5780612d9b8882612d3d565b845260208401935050602081019050612d88565b5050509392505050565b5f82601f830112612dcd57612dcc612190565b5b8151612ddd848260208601612d51565b91505092915050565b5f60208284031215612dfb57612dfa61211d565b5b5f82015167ffffffffffffffff811115612e1857612e17612121565b5b612e2484828501612db9565b91505092915050565b5f81519050612e3b81612224565b92915050565b5f60208284031215612e5657612e5561211d565b5b5f612e6384828501612e2d565b91505092915050565b5f612e768261221b565b9150612e818361221b565b9250828203905081811115612e9957612e986129e8565b5b92915050565b5f612ea982612125565b9050919050565b612eb981612e9f565b82525050565b612ec88161221b565b82525050565b5f606082019050612ee15f830186612eb0565b612eee6020830185612ebf565b612efb6040830184612ebf565b949350505050565b612f0c81612425565b8114612f16575f80fd5b50565b5f81519050612f2781612f03565b92915050565b5f60208284031215612f4257612f4161211d565b5b5f612f4f84828501612f19565b91505092915050565b7f4f776e61626c653a2063616c6c6572206973206e6f7420746865206f776e65725f82015250565b5f612f8c60208361291c565b9150612f9782612f58565b602082019050919050565b5f6020820190508181035f830152612fb981612f80565b9050919050565b5f604082019050612fd35f830185612ebf565b612fe06020830184612ebf565b9392505050565b7f4e487b71000000000000000000000000000000000000000000000000000000005f52603260045260245ffd5b5f8135905061302281612f03565b92915050565b5f6020828403121561303d5761303c61211d565b5b5f61304a84828501613014565b91505092915050565b7f496e697469616c697a61626c653a20636f6e747261637420697320616c7265615f8201527f647920696e697469616c697a6564000000000000000000000000000000000000602082015250565b5f6130ad602e8361291c565b91506130b882613053565b604082019050919050565b5f6020820190508181035f8301526130da816130a1565b9050919050565b7f46756e6374696f6e206d7573742062652063616c6c6564207468726f756768205f8201527f64656c656761746563616c6c0000000000000000000000000000000000000000602082015250565b5f61313b602c8361291c565b9150613146826130e1565b604082019050919050565b5f6020820190508181035f8301526131688161312f565b9050919050565b5f6060820190506131825f830186612623565b61318f6020830185612623565b61319c6040830184612623565b949350505050565b50565b5f6131b25f83612994565b91506131bd826131a4565b5f82019050919050565b5f6131d1826131a7565b9150819050919050565b5f80fd5b5f80fd5b5f80fd5b5f8083356001602003843603038112613203576132026131db565b5b80840192508235915067ffffffffffffffff821115613225576132246131df565b5b602083019250600182023603831315613241576132406131e3565b5b509250929050565b5f67ffffffffffffffff82169050919050565b61326581613249565b811461326f575f80fd5b50565b5f813590506132808161325c565b92915050565b5f6020828403121561329b5761329a61211d565b5b5f6132a884828501613272565b91505092915050565b6132ba81613249565b82525050565b5f6020820190506132d35f8301846132b1565b92915050565b7f47415300000000000000000000000000000000000000000000000000000000005f82015250565b5f61330d60038361291c565b9150613318826132d9565b602082019050919050565b5f6020820190508181035f83015261333a81613301565b9050919050565b7f4f776e61626c653a206e6577206f776e657220697320746865207a65726f20615f8201527f6464726573730000000000000000000000000000000000000000000000000000602082015250565b5f61339b60268361291c565b91506133a682613341565b604082019050919050565b5f6020820190508181035f8301526133c88161338f565b9050919050565b7f496e697469616c697a61626c653a20636f6e7472616374206973206e6f7420695f8201527f6e697469616c697a696e67000000000000000000000000000000000000000000602082015250565b5f613429602b8361291c565b9150613434826133cf565b604082019050919050565b5f6020820190508181035f8301526134568161341d565b905091905056fea26469706673582212206a88149bfd334c16ba46f764a31f97255ac697ebe61c821fcc9c7dd5bcd5181f64736f6c634300081a0033",
  "linkReferences": {},
  "deployedLinkReferences": {}
}