{
  "_format": "hh-sol-artifact-1",
  "contractName": "SdkStorage",
  "sourceName": "src/mocks/SdkStorage.sol",
  "abi": [
    {
      "inputs": [],
      "name": "populate",
      "outputs": [],
      "stateMutability": "nonpayable",
      "type": "function"
    },
    {
      "inputs": [],
      "name": "remove",
      "outputs": [],
      "stateMutability": "nonpayable",
      "type": "function"
    }
  ],
  "bytecode": "0x608060405234801561001057600080fd5b5061148c806100206000396000f3fe608060405234801561001057600080fd5b50600436106100365760003560e01c8063a7f437791461003b578063f809f20514610045575b600080fd5b61004361004d565b005b61004361041d565b6007805461005a906111b8565b159050610121576007805461006e816111b8565b8061008957634e487b7160e01b600052603160045260246000fd5b601f811180156100a057600181146100c257610118565b6001826021036101000a03600183039250600283028482191617935050610118565b8360005260206000208260208114610105576020600019808601828104949094018054601f959095169092036101000a0119909216825560011990940193610115565b81546000835560ff1916603e1794505b50505b5050905561004d565b601060088054610130906111b8565b905011156101f85760088054610145816111b8565b8061016057634e487b7160e01b600052603160045260246000fd5b601f811180156101775760018114610199576101ef565b6001826021036101000a036001830392506002830284821916179350506101ef565b83600052602060002082602081146101dc576020600019808601828104949094018054601f959095169092036101000a01199092168255600119909401936101ec565b81546000835560ff1916603e1794505b50505b50509055610121565b60408051808201909152600f8082526e7761736d2069732063757465203c3360881b602090920191825261022e91600991610e45565b505b6005541561027f576005805480610249576102496111f3565b60008281526020902060046000199092019182040180546001600160401b03600860038516026101000a02191690559055610230565b600654600110156102be57600680548061029b5761029b6111f3565b6001900381819060005260206000200160006102b79190610ec9565b905561027f565b60005b60088110156102f8576000818152600a6020526040902080546001600160a01b0319169055806102f08161121f565b9150506102c1565b5060086000908152600a60209081527f2c1fd36ba11b13b555f58753742999069764391f450ca8727fe8a3eeffe6777580546001600160a01b03191690911790555b6004816001600160a01b0316101561037f576001600160a01b0381166000908152600b6020526040812061036d91610eee565b806103778161123a565b91505061033a565b506004805480610391576103916111f3565b60008281526020812060026000199390930192830201805465ffffffffffff19168155600101819055915560188190556019819055601a819055601b556103da601c6000610f13565b6103e6601d6000610f34565b6021805465ffffffffffff19908116909155600060228190556023805483169055602481905560258054909216909155602655565b565b600080546001600160a81b0319166170011781556001805460306001600160a01b03199091161790556002805465ffffffffffff1916657fffffff002017905560406003555b6020816001600160401b031610156104e457600580546001810182556000919091527f036b6384b5eca791c62761152d0c79bb0604c104a5fb6f4eb0703f3154bb3db06004820401805460039092166008026101000a6001600160401b038181021990931692841602919091179055806104dc81611261565b915050610463565b50604d60056007815481106104fb576104fb61127e565b90600052602060002090600491828204019190066008026101000a8154816001600160401b0302191690836001600160401b0316021790555060005b600a81101561063f576006816001600160401b0381111561055a5761055a611294565b604051908082528060200260200182016040528015610583578160200160208202803683370190505b508154600181018355600092835260209283902082516105a99491909201920190610f70565b5060005b8181101561062c5780600683815481106105c9576105c961127e565b9060005260206000200182815481106105e4576105e461127e565b90600052602060002090600691828204019190066005026101000a81548164ffffffffff021916908364ffffffffff16021790555080806106249061121f565b9150506105ad565b50806106378161121f565b915050610537565b5060005b600a8110156107015760005b818110156106ee5760026006838154811061066c5761066c61127e565b9060005260206000200182815481106106875761068761127e565b90600052602060002090600691828204019190066005028282829054906101000a900464ffffffffff166106bb91906112aa565b92506101000a81548164ffffffffff021916908364ffffffffff16021790555080806106e69061121f565b91505061064f565b50806106f98161121f565b915050610643565b5060005b601f8160ff16101561075c576007816040516020016107259291906112d7565b60405160208183030381529060405260079080519060200190610749929190610e45565b50806107548161138c565b915050610705565b5060005b60508160ff1610156107b7576008816040516020016107809291906112d7565b604051602081830303815290604052600890805190602001906107a4929190610e45565b50806107af8161138c565b915050610760565b5060408051808201909152600f8082526e617262697472756d207374796c757360881b60209092019182526107ee91600991610e45565b5060005b6010811015610834576000818152600a6020526040902080546001600160a01b0319166001600160a01b0383161790558061082c8161121f565b9150506107f2565b5060005b6004816001600160a01b031610156108f85760408051600080825260208083018085526001600160a01b0386168352600b909152929020905161087b929061101d565b5060005b816001600160a01b031681116108e5576001600160a01b0382166000908152600b60209081526040822080546001810182559083529181902090820401805460ff601f9093166101000a92830219169091179055806108dd8161121f565b91505061087f565b50806108f08161123a565b915050610838565b5060005b60048160030b121561097b57600c8054600101808255600082905263ffffffff83169190829081106109305761093061127e565b60009182526020808320600386900b84529190910190526040902080546001600160a01b0319166001600160a01b039290921691909117905580610973816113ac565b9150506108fc565b5060005b60048160ff1610156109ed576109968160016113c6565b6001600160f81b031960f883901b166000908152600d6020526040812060ff9290921691906109c66002856113eb565b60ff16158152602081019190915260400160002055806109e58161138c565b91505061097f565b50604051657374796c757360d01b8152600290600e906006019081526040519081900360200190208154815461ffff19811661ffff9092169182178355835463ffffffff6201000091829004160265ffffffffffff1990911690911717815560019182015491015560005b6004811015610b0c5760048054600181018255600091909152600280547f8a35acfbc15ff81a39ae7d344fd709f28e8600b4aa8c65c6b64bfe7fe36bd19b928202928301805461ffff90921661ffff19831681178255925465ffffffffffff19909216909217620100009182900463ffffffff169091021790556003547f8a35acfbc15ff81a39ae7d344fd709f28e8600b4aa8c65c6b64bfe7fe36bd19c9091015580610b048161121f565b915050610a58565b5060408051808201909152600e8082526d4c3220697320666f7220796f752160901b6020909201918252610b4291601191610e45565b5060005b6005811015610b9d578060148160058110610b6357610b6361127e565b600a91828204019190066003026101000a81548162ffffff021916908362ffffff1602179055508080610b959061121f565b915050610b46565b5060005b6002811015610bef578060168160028110610bbe57610bbe61127e565b0180546001600160a01b0319166001600160a01b039290921691909117905580610be78161121f565b915050610ba1565b5060005b6004811015610c85578060188160048110610c1057610c1061127e565b01805460ff191660ff9290921691909117905560188160048110610c3657610c3661127e565b0154610c469060ff1660016113c6565b60188260048110610c5957610c5961127e565b01805460ff929092166101000261ff001990921691909117905580610c7d8161121f565b915050610bf3565b5060005b6003811015610d2f57610c9a6110b0565b60005b6004811215610cd85780828260048110610cb957610cb961127e565b600b9290920b6020909202015280610cd08161141b565b915050610c9d565b50601c8054600181018255600091909152610d1a906002027f0e4562a10381dec21b205ed72637e6b1b523bdd0e4d4d50af5cd23dd4500a211018260046110ce565b50508080610d279061121f565b915050610c89565b5060005b6004811015610dc25760005b600481600b0b1215610daf57601d8260048110610d5e57610d5e61127e565b01805460018082018355600092835260209092206002820401805492909116600c026101000a6001600160601b03818102199093169284160291909117905580610da781611434565b915050610d3f565b5080610dba8161121f565b915050610d33565b5060005b6003811015610e4257600260218260038110610de457610de461127e565b825460029190910291909101805461ffff90921661ffff19831681178255835465ffffffffffff1990931617620100009283900463ffffffff1690920291909117815560019182015491015580610e3a8161121f565b915050610dc6565b50565b828054610e51906111b8565b90600052602060002090601f016020900481019282610e735760008555610eb9565b82601f10610e8c57805160ff1916838001178555610eb9565b82800160010185558215610eb9579182015b82811115610eb9578251825591602001919060010190610e9e565b50610ec5929150611164565b5090565b508054600082556005016006900490600052602060002090810190610e429190611164565b50805460008255601f016020900490600052602060002090810190610e429190611164565b5080546000825560020290600052602060002090810190610e429190611179565b506000610f418282611193565b506001016000610f518282611193565b506001016000610f618282611193565b5061041b906001016000611193565b82805482825590600052602060002090600501600690048101928215610eb95791602002820160005b83821115610fdf57835183826101000a81548164ffffffffff021916908364ffffffffff1602179055509260200192600501602081600401049283019260010302610f99565b80156110105782816101000a81549064ffffffffff0219169055600501602081600401049283019260010302610fdf565b5050610ec5929150611164565b82805482825590600052602060002090601f01602090048101928215610eb95791602002820160005b8382111561108357835183826101000a81548160ff0219169083151502179055509260200192600101602081600001049283019260010302611046565b80156110105782816101000a81549060ff0219169055600101602081600001049283019260010302611083565b60405180608001604052806004906020820280368337509192915050565b600283019183908215610eb95791602002820160005b8382111561113157835183826101000a8154816001600160601b030219169083600b0b6001600160601b031602179055509260200192600c01602081600b010492830192600103026110e4565b80156110105782816101000a8154906001600160601b030219169055600c01602081600b01049283019260010302611131565b5b80821115610ec55760008155600101611165565b80821115610ec55760008082556001820155600201611179565b508054600082556001016002900490600052602060002090810190610e429190611164565b600181811c908216806111cc57607f821691505b602082108114156111ed57634e487b7160e01b600052602260045260246000fd5b50919050565b634e487b7160e01b600052603160045260246000fd5b634e487b7160e01b600052601160045260246000fd5b600060001982141561123357611233611209565b5060010190565b60006001600160a01b038281168082141561125757611257611209565b6001019392505050565b60006001600160401b038083168181141561125757611257611209565b634e487b7160e01b600052603260045260246000fd5b634e487b7160e01b600052604160045260246000fd5b600064ffffffffff808316818516818304811182151516156112ce576112ce611209565b02949350505050565b600080845481600182811c9150808316806112f357607f831692505b602080841082141561131357634e487b7160e01b86526022600452602486fd5b818015611327576001811461133857611365565b60ff19861689528489019650611365565b60008b81526020902060005b8681101561135d5781548b820152908501908301611344565b505084890196505b50505061137e848860f81b6001600160f81b0319169052565b929092019695505050505050565b600060ff821660ff8114156113a3576113a3611209565b60010192915050565b60008160030b637fffffff8114156113a3576113a3611209565b600060ff821660ff84168060ff038211156113e3576113e3611209565b019392505050565b600060ff83168061140c57634e487b7160e01b600052601260045260246000fd5b8060ff84160691505092915050565b60006001600160ff1b0382141561123357611233611209565b600081600b0b6b7fffffffffffffffffffffff8114156113a3576113a361120956fea26469706673582212207fff0c6884ce2f8f45ede07cfe79337eaccb3448f321aae188fca64654463c7b64736f6c63430008090033",
  "linkReferences": {},
  "deployedLinkReferences": {}
}