{
  "_format": "hh-sol-artifact-1",
  "contractName": "SimpleStorageL2",
  "sourceName": "contracts/SimpleStorageL2.sol",
  "abi": [
    {
      "inputs": [
        {
          "internalType": "contract ArbSys",
          "name": "_arbsys",
          "type": "address"
        }
      ],
      "stateMutability": "nonpayable",
      "type": "constructor"
    },
    {
      "anonymous": false,
      "inputs": [
        {
          "indexed": true,
          "internalType": "uint256",
          "name": "withdrawalId",
          "type": "uint256"
        }
      ],
      "name": "L2ToL1TxCreated",
      "type": "event"
    },
    {
      "inputs": [],
      "name": "arbsys",
      "outputs": [
        {
          "internalType": "contract ArbSys",
          "name": "",
          "type": "address"
        }
      ],
      "stateMutability": "view",
      "type": "function"
    },
    {
      "inputs": [],
      "name": "l1Target",
      "outputs": [
        {
          "internalType": "address",
          "name": "",
          "type": "address"
        }
      ],
      "stateMutability": "view",
      "type": "function"
    },
    {
      "inputs": [
        {
          "internalType": "string",
          "name": "messageToL1",
          "type": "string"
        }
      ],
      "name": "sendTxToL1",
      "outputs": [
        {
          "internalType": "uint256",
          "name": "",
          "type": "uint256"
        }
      ],
      "stateMutability": "payable",
      "type": "function"
    },
    {
      "inputs": [
        {
          "internalType": "string",
          "name": "message",
          "type": "string"
        }
      ],
      "name": "setMessage",
      "outputs": [],
      "stateMutability": "nonpayable",
      "type": "function"
    },
    {
      "inputs": [],
      "name": "storageData",
      "outputs": [
        {
          "internalType": "string",
          "name": "message",
          "type": "string"
        },
        {
          "internalType": "address",
          "name": "caller",
          "type": "address"
        }
      ],
      "stateMutability": "view",
      "type": "function"
    },
    {
      "inputs": [
        {
          "internalType": "address",
          "name": "_l1Target",
          "type": "address"
        }
      ],
      "name": "updateL1Target",
      "outputs": [],
      "stateMutability": "nonpayable",
      "type": "function"
    }
  ],
  "bytecode": "0x608060405234801561001057600080fd5b506040516106ed3803806106ed83398101604081905261002f91610054565b600180546001600160a01b0319166001600160a01b0392909216919091179055610084565b60006020828403121561006657600080fd5b81516001600160a01b038116811461007d57600080fd5b9392505050565b61065a806100936000396000f3fe6080604052600436106100555760003560e01c8063368b87721461005a5780635325e4a61461007c578063586fcfeb146100b9578063a51c8cb9146100dc578063bc32bb3f146100fc578063f3c61c2b1461011d575b600080fd5b34801561006657600080fd5b5061007a610075366004610332565b61015a565b005b34801561008857600080fd5b5060005461009c906001600160a01b031681565b6040516001600160a01b0390911681526020015b60405180910390f35b3480156100c557600080fd5b506100ce61017c565b6040516100b0929190610429565b3480156100e857600080fd5b5060015461009c906001600160a01b031681565b61010f61010a366004610332565b61021d565b6040519081526020016100b0565b34801561012957600080fd5b5061007a610138366004610453565b600080546001600160a01b0319166001600160a01b0392909216919091179055565b600380546001600160a01b031916331790556002610178828261050c565b5050565b60028054819061018b90610483565b80601f01602080910402602001604051908101604052809291908181526020018280546101b790610483565b80156102045780601f106101d957610100808354040283529160200191610204565b820191906000526020600020905b8154815290600101906020018083116101e757829003601f168201915b505050600190930154919250506001600160a01b031682565b60008063368b877260e01b8360405160240161023991906105cc565b60408051601f198184030181529181526020820180516001600160e01b03166001600160e01b0319909416939093179092526001546000805493516349460b4d60e11b8152929450926001600160a01b039182169263928c169a926102a492169086906004016105df565b6020604051808303816000875af11580156102c3573d6000803e3d6000fd5b505050506040513d601f19601f820116820180604052508101906102e7919061060b565b60405190915081907facd96f3817031b95eab52de9132d4a9dd13dac3d9dfcfe950ca9283c89b851a590600090a29392505050565b634e487b7160e01b600052604160045260246000fd5b60006020828403121561034457600080fd5b813567ffffffffffffffff8082111561035c57600080fd5b818401915084601f83011261037057600080fd5b8135818111156103825761038261031c565b604051601f8201601f19908116603f011681019083821181831017156103aa576103aa61031c565b816040528281528760208487010111156103c357600080fd5b826020860160208301376000928101602001929092525095945050505050565b6000815180845260005b81811015610409576020818501810151868301820152016103ed565b506000602082860101526020601f19601f83011685010191505092915050565b60408152600061043c60408301856103e3565b905060018060a01b03831660208301529392505050565b60006020828403121561046557600080fd5b81356001600160a01b038116811461047c57600080fd5b9392505050565b600181811c9082168061049757607f821691505b6020821081036104b757634e487b7160e01b600052602260045260246000fd5b50919050565b601f82111561050757600081815260208120601f850160051c810160208610156104e45750805b601f850160051c820191505b81811015610503578281556001016104f0565b5050505b505050565b815167ffffffffffffffff8111156105265761052661031c565b61053a816105348454610483565b846104bd565b602080601f83116001811461056f57600084156105575750858301515b600019600386901b1c1916600185901b178555610503565b600085815260208120601f198616915b8281101561059e5788860151825594840194600190910190840161057f565b50858210156105bc5787850151600019600388901b60f8161c191681555b5050505050600190811b01905550565b60208152600061047c60208301846103e3565b6001600160a01b0383168152604060208201819052600090610603908301846103e3565b949350505050565b60006020828403121561061d57600080fd5b505191905056fea26469706673582212208c2c842dabe356df3d48a113d139a85305b5111bed7c3b98c4d7b17ddf459bd664736f6c63430008140033",
  "linkReferences": {},
  "deployedLinkReferences": {}
}