{
  "_format": "hh-sol-artifact-1",
  "contractName": "SimpleCacheManager",
  "sourceName": "src/mocks/SimpleCacheManager.sol",
  "abi": [
    {
      "inputs": [
        {
          "internalType": "address",
          "name": "program",
          "type": "address"
        }
      ],
      "name": "cacheProgram",
      "outputs": [],
      "stateMutability": "nonpayable",
      "type": "function"
    },
    {
      "inputs": [
        {
          "internalType": "address",
          "name": "program",
          "type": "address"
        }
      ],
      "name": "evictProgram",
      "outputs": [],
      "stateMutability": "nonpayable",
      "type": "function"
    }
  ],
  "bytecode": "0x608060405234801561001057600080fd5b50610122806100206000396000f3fe6080604052348015600f57600080fd5b506004361060325760003560e01c80636c769c09146037578063e73ac9f2146048575b600080fd5b6046604236600460be565b6057565b005b6046605336600460be565b60b1565b607263ce972013823f5b6040518263ffffffff1660e01b8152600401607e91815260200190565b600060405180830381600087803b158015609757600080fd5b505af115801560aa573d6000803e3d6000fd5b5050505050565b6072634ceac817823f6061565b60006020828403121560cf57600080fd5b81356001600160a01b038116811460e557600080fd5b939250505056fea264697066735822122080860538c0b81fa8383ac0669fa33b595bc44eeea931e41884f118ac9b53bbf064736f6c63430008090033",
  "linkReferences": {},
  "deployedLinkReferences": {}
}