{
  "_format": "hh-sol-artifact-1",
  "contractName": "ERC20RollupUserLogic",
  "sourceName": "src/rollup/RollupUserLogic.sol",
  "abi": [
    {
      "anonymous": false,
      "inputs": [
        {
          "indexed": false,
          "internalType": "address",
          "name": "previousAdmin",
          "type": "address"
        },
        {
          "indexed": false,
          "internalType": "address",
          "name": "newAdmin",
          "type": "address"
        }
      ],
      "name": "AdminChanged",
      "type": "event"
    },
    {
      "anonymous": false,
      "inputs": [
        {
          "indexed": true,
          "internalType": "address",
          "name": "beacon",
          "type": "address"
        }
      ],
      "name": "BeaconUpgraded",
      "type": "event"
    },
    {
      "anonymous": false,
      "inputs": [
        {
          "indexed": true,
          "internalType": "uint64",
          "name": "nodeNum",
          "type": "uint64"
        },
        {
          "indexed": false,
          "internalType": "bytes32",
          "name": "blockHash",
          "type": "bytes32"
        },
        {
          "indexed": false,
          "internalType": "bytes32",
          "name": "sendRoot",
          "type": "bytes32"
        }
      ],
      "name": "NodeConfirmed",
      "type": "event"
    },
    {
      "anonymous": false,
      "inputs": [
        {
          "indexed": true,
          "internalType": "uint64",
          "name": "nodeNum",
          "type": "uint64"
        },
        {
          "indexed": true,
          "internalType": "bytes32",
          "name": "parentNodeHash",
          "type": "bytes32"
        },
        {
          "indexed": true,
          "internalType": "bytes32",
          "name": "nodeHash",
          "type": "bytes32"
        },
        {
          "indexed": false,
          "internalType": "bytes32",
          "name": "executionHash",
          "type": "bytes32"
        },
        {
          "components": [
            {
              "components": [
                {
                  "components": [
                    {
                      "internalType": "bytes32[2]",
                      "name": "bytes32Vals",
                      "type": "bytes32[2]"
                    },
                    {
                      "internalType": "uint64[2]",
                      "name": "u64Vals",
                      "type": "uint64[2]"
                    }
                  ],
                  "internalType": "struct GlobalState",
                  "name": "globalState",
                  "type": "tuple"
                },
                {
                  "internalType": "enum MachineStatus",
                  "name": "machineStatus",
                  "type": "uint8"
                }
              ],
              "internalType": "struct ExecutionState",
              "name": "beforeState",
              "type": "tuple"
            },
            {
              "components": [
                {
                  "components": [
                    {
                      "internalType": "bytes32[2]",
                      "name": "bytes32Vals",
                      "type": "bytes32[2]"
                    },
                    {
                      "internalType": "uint64[2]",
                      "name": "u64Vals",
                      "type": "uint64[2]"
                    }
                  ],
                  "internalType": "struct GlobalState",
                  "name": "globalState",
                  "type": "tuple"
                },
                {
                  "internalType": "enum MachineStatus",
                  "name": "machineStatus",
                  "type": "uint8"
                }
              ],
              "internalType": "struct ExecutionState",
              "name": "afterState",
              "type": "tuple"
            },
            {
              "internalType": "uint64",
              "name": "numBlocks",
              "type": "uint64"
            }
          ],
          "indexed": false,
          "internalType": "struct Assertion",
          "name": "assertion",
          "type": "tuple"
        },
        {
          "indexed": false,
          "internalType": "bytes32",
          "name": "afterInboxBatchAcc",
          "type": "bytes32"
        },
        {
          "indexed": false,
          "internalType": "bytes32",
          "name": "wasmModuleRoot",
          "type": "bytes32"
        },
        {
          "indexed": false,
          "internalType": "uint256",
          "name": "inboxMaxCount",
          "type": "uint256"
        }
      ],
      "name": "NodeCreated",
      "type": "event"
    },
    {
      "anonymous": false,
      "inputs": [
        {
          "indexed": true,
          "internalType": "uint64",
          "name": "nodeNum",
          "type": "uint64"
        }
      ],
      "name": "NodeRejected",
      "type": "event"
    },
    {
      "anonymous": false,
      "inputs": [
        {
          "indexed": false,
          "internalType": "address",
          "name": "account",
          "type": "address"
        }
      ],
      "name": "Paused",
      "type": "event"
    },
    {
      "anonymous": false,
      "inputs": [
        {
          "indexed": true,
          "internalType": "uint64",
          "name": "challengeIndex",
          "type": "uint64"
        },
        {
          "indexed": false,
          "internalType": "address",
          "name": "asserter",
          "type": "address"
        },
        {
          "indexed": false,
          "internalType": "address",
          "name": "challenger",
          "type": "address"
        },
        {
          "indexed": false,
          "internalType": "uint64",
          "name": "challengedNode",
          "type": "uint64"
        }
      ],
      "name": "RollupChallengeStarted",
      "type": "event"
    },
    {
      "anonymous": false,
      "inputs": [
        {
          "indexed": false,
          "internalType": "bytes32",
          "name": "machineHash",
          "type": "bytes32"
        },
        {
          "indexed": false,
          "internalType": "uint256",
          "name": "chainId",
          "type": "uint256"
        }
      ],
      "name": "RollupInitialized",
      "type": "event"
    },
    {
      "anonymous": false,
      "inputs": [
        {
          "indexed": false,
          "internalType": "address",
          "name": "account",
          "type": "address"
        }
      ],
      "name": "Unpaused",
      "type": "event"
    },
    {
      "anonymous": false,
      "inputs": [
        {
          "indexed": true,
          "internalType": "address",
          "name": "implementation",
          "type": "address"
        }
      ],
      "name": "Upgraded",
      "type": "event"
    },
    {
      "anonymous": false,
      "inputs": [
        {
          "indexed": true,
          "internalType": "address",
          "name": "implementation",
          "type": "address"
        }
      ],
      "name": "UpgradedSecondary",
      "type": "event"
    },
    {
      "anonymous": false,
      "inputs": [
        {
          "indexed": true,
          "internalType": "address",
          "name": "user",
          "type": "address"
        },
        {
          "indexed": false,
          "internalType": "uint256",
          "name": "initialBalance",
          "type": "uint256"
        },
        {
          "indexed": false,
          "internalType": "uint256",
          "name": "finalBalance",
          "type": "uint256"
        }
      ],
      "name": "UserStakeUpdated",
      "type": "event"
    },
    {
      "anonymous": false,
      "inputs": [
        {
          "indexed": true,
          "internalType": "address",
          "name": "user",
          "type": "address"
        },
        {
          "indexed": false,
          "internalType": "uint256",
          "name": "initialBalance",
          "type": "uint256"
        },
        {
          "indexed": false,
          "internalType": "uint256",
          "name": "finalBalance",
          "type": "uint256"
        }
      ],
      "name": "UserWithdrawableFundsUpdated",
      "type": "event"
    },
    {
      "inputs": [],
      "name": "VALIDATOR_AFK_BLOCKS",
      "outputs": [
        {
          "internalType": "uint256",
          "name": "",
          "type": "uint256"
        }
      ],
      "stateMutability": "view",
      "type": "function"
    },
    {
      "inputs": [
        {
          "internalType": "address",
          "name": "",
          "type": "address"
        }
      ],
      "name": "_stakerMap",
      "outputs": [
        {
          "internalType": "uint256",
          "name": "amountStaked",
          "type": "uint256"
        },
        {
          "internalType": "uint64",
          "name": "index",
          "type": "uint64"
        },
        {
          "internalType": "uint64",
          "name": "latestStakedNode",
          "type": "uint64"
        },
        {
          "internalType": "uint64",
          "name": "currentChallenge",
          "type": "uint64"
        },
        {
          "internalType": "bool",
          "name": "isStaked",
          "type": "bool"
        }
      ],
      "stateMutability": "view",
      "type": "function"
    },
    {
      "inputs": [
        {
          "internalType": "address",
          "name": "stakerAddress",
          "type": "address"
        },
        {
          "internalType": "uint256",
          "name": "tokenAmount",
          "type": "uint256"
        }
      ],
      "name": "addToDeposit",
      "outputs": [],
      "stateMutability": "nonpayable",
      "type": "function"
    },
    {
      "inputs": [
        {
          "internalType": "address",
          "name": "staker",
          "type": "address"
        }
      ],
      "name": "amountStaked",
      "outputs": [
        {
          "internalType": "uint256",
          "name": "",
          "type": "uint256"
        }
      ],
      "stateMutability": "view",
      "type": "function"
    },
    {
      "inputs": [],
      "name": "baseStake",
      "outputs": [
        {
          "internalType": "uint256",
          "name": "",
          "type": "uint256"
        }
      ],
      "stateMutability": "view",
      "type": "function"
    },
    {
      "inputs": [],
      "name": "bridge",
      "outputs": [
        {
          "internalType": "contract IBridge",
          "name": "",
          "type": "address"
        }
      ],
      "stateMutability": "view",
      "type": "function"
    },
    {
      "inputs": [],
      "name": "chainId",
      "outputs": [
        {
          "internalType": "uint256",
          "name": "",
          "type": "uint256"
        }
      ],
      "stateMutability": "view",
      "type": "function"
    },
    {
      "inputs": [],
      "name": "challengeManager",
      "outputs": [
        {
          "internalType": "contract IChallengeManager",
          "name": "",
          "type": "address"
        }
      ],
      "stateMutability": "view",
      "type": "function"
    },
    {
      "inputs": [
        {
          "internalType": "uint256",
          "name": "challengeIndex",
          "type": "uint256"
        },
        {
          "internalType": "address",
          "name": "winningStaker",
          "type": "address"
        },
        {
          "internalType": "address",
          "name": "losingStaker",
          "type": "address"
        }
      ],
      "name": "completeChallenge",
      "outputs": [],
      "stateMutability": "nonpayable",
      "type": "function"
    },
    {
      "inputs": [
        {
          "internalType": "bytes32",
          "name": "blockHash",
          "type": "bytes32"
        },
        {
          "internalType": "bytes32",
          "name": "sendRoot",
          "type": "bytes32"
        }
      ],
      "name": "confirmNextNode",
      "outputs": [],
      "stateMutability": "nonpayable",
      "type": "function"
    },
    {
      "inputs": [],
      "name": "confirmPeriodBlocks",
      "outputs": [
        {
          "internalType": "uint64",
          "name": "",
          "type": "uint64"
        }
      ],
      "stateMutability": "view",
      "type": "function"
    },
    {
      "inputs": [
        {
          "internalType": "uint64",
          "name": "nodeNum",
          "type": "uint64"
        }
      ],
      "name": "countStakedZombies",
      "outputs": [
        {
          "internalType": "uint256",
          "name": "",
          "type": "uint256"
        }
      ],
      "stateMutability": "view",
      "type": "function"
    },
    {
      "inputs": [
        {
          "internalType": "uint64",
          "name": "nodeNum",
          "type": "uint64"
        }
      ],
      "name": "countZombiesStakedOnChildren",
      "outputs": [
        {
          "internalType": "uint256",
          "name": "",
          "type": "uint256"
        }
      ],
      "stateMutability": "view",
      "type": "function"
    },
    {
      "inputs": [
        {
          "internalType": "address[2]",
          "name": "stakers",
          "type": "address[2]"
        },
        {
          "internalType": "uint64[2]",
          "name": "nodeNums",
          "type": "uint64[2]"
        },
        {
          "internalType": "enum MachineStatus[2]",
          "name": "machineStatuses",
          "type": "uint8[2]"
        },
        {
          "components": [
            {
              "internalType": "bytes32[2]",
              "name": "bytes32Vals",
              "type": "bytes32[2]"
            },
            {
              "internalType": "uint64[2]",
              "name": "u64Vals",
              "type": "uint64[2]"
            }
          ],
          "internalType": "struct GlobalState[2]",
          "name": "globalStates",
          "type": "tuple[2]"
        },
        {
          "internalType": "uint64",
          "name": "numBlocks",
          "type": "uint64"
        },
        {
          "internalType": "bytes32",
          "name": "secondExecutionHash",
          "type": "bytes32"
        },
        {
          "internalType": "uint256[2]",
          "name": "proposedBlocks",
          "type": "uint256[2]"
        },
        {
          "internalType": "bytes32[2]",
          "name": "wasmModuleRoots",
          "type": "bytes32[2]"
        }
      ],
      "name": "createChallenge",
      "outputs": [],
      "stateMutability": "nonpayable",
      "type": "function"
    },
    {
      "inputs": [
        {
          "internalType": "address",
          "name": "staker",
          "type": "address"
        }
      ],
      "name": "currentChallenge",
      "outputs": [
        {
          "internalType": "uint64",
          "name": "",
          "type": "uint64"
        }
      ],
      "stateMutability": "view",
      "type": "function"
    },
    {
      "inputs": [],
      "name": "currentRequiredStake",
      "outputs": [
        {
          "internalType": "uint256",
          "name": "",
          "type": "uint256"
        }
      ],
      "stateMutability": "view",
      "type": "function"
    },
    {
      "inputs": [],
      "name": "extraChallengeTimeBlocks",
      "outputs": [
        {
          "internalType": "uint64",
          "name": "",
          "type": "uint64"
        }
      ],
      "stateMutability": "view",
      "type": "function"
    },
    {
      "inputs": [],
      "name": "firstUnresolvedNode",
      "outputs": [
        {
          "internalType": "uint64",
          "name": "",
          "type": "uint64"
        }
      ],
      "stateMutability": "view",
      "type": "function"
    },
    {
      "inputs": [
        {
          "internalType": "uint64",
          "name": "nodeNum",
          "type": "uint64"
        }
      ],
      "name": "getNode",
      "outputs": [
        {
          "components": [
            {
              "internalType": "bytes32",
              "name": "stateHash",
              "type": "bytes32"
            },
            {
              "internalType": "bytes32",
              "name": "challengeHash",
              "type": "bytes32"
            },
            {
              "internalType": "bytes32",
              "name": "confirmData",
              "type": "bytes32"
            },
            {
              "internalType": "uint64",
              "name": "prevNum",
              "type": "uint64"
            },
            {
              "internalType": "uint64",
              "name": "deadlineBlock",
              "type": "uint64"
            },
            {
              "internalType": "uint64",
              "name": "noChildConfirmedBeforeBlock",
              "type": "uint64"
            },
            {
              "internalType": "uint64",
              "name": "stakerCount",
              "type": "uint64"
            },
            {
              "internalType": "uint64",
              "name": "childStakerCount",
              "type": "uint64"
            },
            {
              "internalType": "uint64",
              "name": "firstChildBlock",
              "type": "uint64"
            },
            {
              "internalType": "uint64",
              "name": "latestChildNumber",
              "type": "uint64"
            },
            {
              "internalType": "uint64",
              "name": "createdAtBlock",
              "type": "uint64"
            },
            {
              "internalType": "bytes32",
              "name": "nodeHash",
              "type": "bytes32"
            }
          ],
          "internalType": "struct Node",
          "name": "",
          "type": "tuple"
        }
      ],
      "stateMutability": "view",
      "type": "function"
    },
    {
      "inputs": [
        {
          "internalType": "uint64",
          "name": "nodeNum",
          "type": "uint64"
        }
      ],
      "name": "getNodeCreationBlockForLogLookup",
      "outputs": [
        {
          "internalType": "uint256",
          "name": "",
          "type": "uint256"
        }
      ],
      "stateMutability": "view",
      "type": "function"
    },
    {
      "inputs": [
        {
          "internalType": "address",
          "name": "staker",
          "type": "address"
        }
      ],
      "name": "getStaker",
      "outputs": [
        {
          "components": [
            {
              "internalType": "uint256",
              "name": "amountStaked",
              "type": "uint256"
            },
            {
              "internalType": "uint64",
              "name": "index",
              "type": "uint64"
            },
            {
              "internalType": "uint64",
              "name": "latestStakedNode",
              "type": "uint64"
            },
            {
              "internalType": "uint64",
              "name": "currentChallenge",
              "type": "uint64"
            },
            {
              "internalType": "bool",
              "name": "isStaked",
              "type": "bool"
            }
          ],
          "internalType": "struct IRollupCore.Staker",
          "name": "",
          "type": "tuple"
        }
      ],
      "stateMutability": "view",
      "type": "function"
    },
    {
      "inputs": [
        {
          "internalType": "uint64",
          "name": "stakerNum",
          "type": "uint64"
        }
      ],
      "name": "getStakerAddress",
      "outputs": [
        {
          "internalType": "address",
          "name": "",
          "type": "address"
        }
      ],
      "stateMutability": "view",
      "type": "function"
    },
    {
      "inputs": [],
      "name": "inbox",
      "outputs": [
        {
          "internalType": "contract IInboxBase",
          "name": "",
          "type": "address"
        }
      ],
      "stateMutability": "view",
      "type": "function"
    },
    {
      "inputs": [
        {
          "internalType": "address",
          "name": "_stakeToken",
          "type": "address"
        }
      ],
      "name": "initialize",
      "outputs": [],
      "stateMutability": "view",
      "type": "function"
    },
    {
      "inputs": [],
      "name": "isERC20Enabled",
      "outputs": [
        {
          "internalType": "bool",
          "name": "",
          "type": "bool"
        }
      ],
      "stateMutability": "view",
      "type": "function"
    },
    {
      "inputs": [
        {
          "internalType": "address",
          "name": "staker",
          "type": "address"
        }
      ],
      "name": "isStaked",
      "outputs": [
        {
          "internalType": "bool",
          "name": "",
          "type": "bool"
        }
      ],
      "stateMutability": "view",
      "type": "function"
    },
    {
      "inputs": [
        {
          "internalType": "address",
          "name": "staker",
          "type": "address"
        }
      ],
      "name": "isStakedOnLatestConfirmed",
      "outputs": [
        {
          "internalType": "bool",
          "name": "",
          "type": "bool"
        }
      ],
      "stateMutability": "view",
      "type": "function"
    },
    {
      "inputs": [
        {
          "internalType": "address",
          "name": "",
          "type": "address"
        }
      ],
      "name": "isValidator",
      "outputs": [
        {
          "internalType": "bool",
          "name": "",
          "type": "bool"
        }
      ],
      "stateMutability": "view",
      "type": "function"
    },
    {
      "inputs": [
        {
          "internalType": "address",
          "name": "staker",
          "type": "address"
        }
      ],
      "name": "isZombie",
      "outputs": [
        {
          "internalType": "bool",
          "name": "",
          "type": "bool"
        }
      ],
      "stateMutability": "view",
      "type": "function"
    },
    {
      "inputs": [],
      "name": "lastStakeBlock",
      "outputs": [
        {
          "internalType": "uint64",
          "name": "",
          "type": "uint64"
        }
      ],
      "stateMutability": "view",
      "type": "function"
    },
    {
      "inputs": [],
      "name": "latestConfirmed",
      "outputs": [
        {
          "internalType": "uint64",
          "name": "",
          "type": "uint64"
        }
      ],
      "stateMutability": "view",
      "type": "function"
    },
    {
      "inputs": [],
      "name": "latestNodeCreated",
      "outputs": [
        {
          "internalType": "uint64",
          "name": "",
          "type": "uint64"
        }
      ],
      "stateMutability": "view",
      "type": "function"
    },
    {
      "inputs": [
        {
          "internalType": "address",
          "name": "staker",
          "type": "address"
        }
      ],
      "name": "latestStakedNode",
      "outputs": [
        {
          "internalType": "uint64",
          "name": "",
          "type": "uint64"
        }
      ],
      "stateMutability": "view",
      "type": "function"
    },
    {
      "inputs": [],
      "name": "loserStakeEscrow",
      "outputs": [
        {
          "internalType": "address",
          "name": "",
          "type": "address"
        }
      ],
      "stateMutability": "view",
      "type": "function"
    },
    {
      "inputs": [],
      "name": "minimumAssertionPeriod",
      "outputs": [
        {
          "internalType": "uint256",
          "name": "",
          "type": "uint256"
        }
      ],
      "stateMutability": "view",
      "type": "function"
    },
    {
      "inputs": [
        {
          "internalType": "uint256",
          "name": "tokenAmount",
          "type": "uint256"
        },
        {
          "internalType": "uint64",
          "name": "nodeNum",
          "type": "uint64"
        },
        {
          "internalType": "bytes32",
          "name": "nodeHash",
          "type": "bytes32"
        }
      ],
      "name": "newStakeOnExistingNode",
      "outputs": [],
      "stateMutability": "nonpayable",
      "type": "function"
    },
    {
      "inputs": [
        {
          "internalType": "uint256",
          "name": "tokenAmount",
          "type": "uint256"
        },
        {
          "components": [
            {
              "components": [
                {
                  "components": [
                    {
                      "internalType": "bytes32[2]",
                      "name": "bytes32Vals",
                      "type": "bytes32[2]"
                    },
                    {
                      "internalType": "uint64[2]",
                      "name": "u64Vals",
                      "type": "uint64[2]"
                    }
                  ],
                  "internalType": "struct GlobalState",
                  "name": "globalState",
                  "type": "tuple"
                },
                {
                  "internalType": "enum MachineStatus",
                  "name": "machineStatus",
                  "type": "uint8"
                }
              ],
              "internalType": "struct ExecutionState",
              "name": "beforeState",
              "type": "tuple"
            },
            {
              "components": [
                {
                  "components": [
                    {
                      "internalType": "bytes32[2]",
                      "name": "bytes32Vals",
                      "type": "bytes32[2]"
                    },
                    {
                      "internalType": "uint64[2]",
                      "name": "u64Vals",
                      "type": "uint64[2]"
                    }
                  ],
                  "internalType": "struct GlobalState",
                  "name": "globalState",
                  "type": "tuple"
                },
                {
                  "internalType": "enum MachineStatus",
                  "name": "machineStatus",
                  "type": "uint8"
                }
              ],
              "internalType": "struct ExecutionState",
              "name": "afterState",
              "type": "tuple"
            },
            {
              "internalType": "uint64",
              "name": "numBlocks",
              "type": "uint64"
            }
          ],
          "internalType": "struct Assertion",
          "name": "assertion",
          "type": "tuple"
        },
        {
          "internalType": "bytes32",
          "name": "expectedNodeHash",
          "type": "bytes32"
        },
        {
          "internalType": "uint256",
          "name": "prevNodeInboxMaxCount",
          "type": "uint256"
        }
      ],
      "name": "newStakeOnNewNode",
      "outputs": [],
      "stateMutability": "nonpayable",
      "type": "function"
    },
    {
      "inputs": [
        {
          "internalType": "uint64",
          "name": "nodeNum",
          "type": "uint64"
        },
        {
          "internalType": "address",
          "name": "staker",
          "type": "address"
        }
      ],
      "name": "nodeHasStaker",
      "outputs": [
        {
          "internalType": "bool",
          "name": "",
          "type": "bool"
        }
      ],
      "stateMutability": "view",
      "type": "function"
    },
    {
      "inputs": [],
      "name": "outbox",
      "outputs": [
        {
          "internalType": "contract IOutbox",
          "name": "",
          "type": "address"
        }
      ],
      "stateMutability": "view",
      "type": "function"
    },
    {
      "inputs": [],
      "name": "owner",
      "outputs": [
        {
          "internalType": "address",
          "name": "",
          "type": "address"
        }
      ],
      "stateMutability": "view",
      "type": "function"
    },
    {
      "inputs": [],
      "name": "paused",
      "outputs": [
        {
          "internalType": "bool",
          "name": "",
          "type": "bool"
        }
      ],
      "stateMutability": "view",
      "type": "function"
    },
    {
      "inputs": [],
      "name": "proxiableUUID",
      "outputs": [
        {
          "internalType": "bytes32",
          "name": "",
          "type": "bytes32"
        }
      ],
      "stateMutability": "view",
      "type": "function"
    },
    {
      "inputs": [
        {
          "internalType": "uint256",
          "name": "target",
          "type": "uint256"
        }
      ],
      "name": "reduceDeposit",
      "outputs": [],
      "stateMutability": "nonpayable",
      "type": "function"
    },
    {
      "inputs": [
        {
          "internalType": "address",
          "name": "stakerAddress",
          "type": "address"
        }
      ],
      "name": "rejectNextNode",
      "outputs": [],
      "stateMutability": "nonpayable",
      "type": "function"
    },
    {
      "inputs": [
        {
          "internalType": "uint256",
          "name": "startIndex",
          "type": "uint256"
        }
      ],
      "name": "removeOldZombies",
      "outputs": [],
      "stateMutability": "nonpayable",
      "type": "function"
    },
    {
      "inputs": [],
      "name": "removeWhitelistAfterFork",
      "outputs": [],
      "stateMutability": "nonpayable",
      "type": "function"
    },
    {
      "inputs": [],
      "name": "removeWhitelistAfterValidatorAfk",
      "outputs": [],
      "stateMutability": "nonpayable",
      "type": "function"
    },
    {
      "inputs": [
        {
          "internalType": "uint256",
          "name": "zombieNum",
          "type": "uint256"
        },
        {
          "internalType": "uint256",
          "name": "maxNodes",
          "type": "uint256"
        }
      ],
      "name": "removeZombie",
      "outputs": [],
      "stateMutability": "nonpayable",
      "type": "function"
    },
    {
      "inputs": [
        {
          "internalType": "uint256",
          "name": "nodeNum",
          "type": "uint256"
        }
      ],
      "name": "requireUnresolved",
      "outputs": [],
      "stateMutability": "view",
      "type": "function"
    },
    {
      "inputs": [],
      "name": "requireUnresolvedExists",
      "outputs": [],
      "stateMutability": "view",
      "type": "function"
    },
    {
      "inputs": [
        {
          "internalType": "uint256",
          "name": "blockNumber",
          "type": "uint256"
        },
        {
          "internalType": "uint64",
          "name": "firstUnresolvedNodeNum",
          "type": "uint64"
        },
        {
          "internalType": "uint64",
          "name": "latestCreatedNode",
          "type": "uint64"
        }
      ],
      "name": "requiredStake",
      "outputs": [
        {
          "internalType": "uint256",
          "name": "",
          "type": "uint256"
        }
      ],
      "stateMutability": "view",
      "type": "function"
    },
    {
      "inputs": [
        {
          "internalType": "address",
          "name": "stakerAddress",
          "type": "address"
        }
      ],
      "name": "returnOldDeposit",
      "outputs": [],
      "stateMutability": "nonpayable",
      "type": "function"
    },
    {
      "inputs": [],
      "name": "rollupDeploymentBlock",
      "outputs": [
        {
          "internalType": "uint256",
          "name": "",
          "type": "uint256"
        }
      ],
      "stateMutability": "view",
      "type": "function"
    },
    {
      "inputs": [],
      "name": "rollupEventInbox",
      "outputs": [
        {
          "internalType": "contract IRollupEventInbox",
          "name": "",
          "type": "address"
        }
      ],
      "stateMutability": "view",
      "type": "function"
    },
    {
      "inputs": [],
      "name": "sequencerInbox",
      "outputs": [
        {
          "internalType": "contract ISequencerInbox",
          "name": "",
          "type": "address"
        }
      ],
      "stateMutability": "view",
      "type": "function"
    },
    {
      "inputs": [
        {
          "internalType": "uint64",
          "name": "nodeNum",
          "type": "uint64"
        },
        {
          "internalType": "bytes32",
          "name": "nodeHash",
          "type": "bytes32"
        }
      ],
      "name": "stakeOnExistingNode",
      "outputs": [],
      "stateMutability": "nonpayable",
      "type": "function"
    },
    {
      "inputs": [
        {
          "components": [
            {
              "components": [
                {
                  "components": [
                    {
                      "internalType": "bytes32[2]",
                      "name": "bytes32Vals",
                      "type": "bytes32[2]"
                    },
                    {
                      "internalType": "uint64[2]",
                      "name": "u64Vals",
                      "type": "uint64[2]"
                    }
                  ],
                  "internalType": "struct GlobalState",
                  "name": "globalState",
                  "type": "tuple"
                },
                {
                  "internalType": "enum MachineStatus",
                  "name": "machineStatus",
                  "type": "uint8"
                }
              ],
              "internalType": "struct ExecutionState",
              "name": "beforeState",
              "type": "tuple"
            },
            {
              "components": [
                {
                  "components": [
                    {
                      "internalType": "bytes32[2]",
                      "name": "bytes32Vals",
                      "type": "bytes32[2]"
                    },
                    {
                      "internalType": "uint64[2]",
                      "name": "u64Vals",
                      "type": "uint64[2]"
                    }
                  ],
                  "internalType": "struct GlobalState",
                  "name": "globalState",
                  "type": "tuple"
                },
                {
                  "internalType": "enum MachineStatus",
                  "name": "machineStatus",
                  "type": "uint8"
                }
              ],
              "internalType": "struct ExecutionState",
              "name": "afterState",
              "type": "tuple"
            },
            {
              "internalType": "uint64",
              "name": "numBlocks",
              "type": "uint64"
            }
          ],
          "internalType": "struct Assertion",
          "name": "assertion",
          "type": "tuple"
        },
        {
          "internalType": "bytes32",
          "name": "expectedNodeHash",
          "type": "bytes32"
        },
        {
          "internalType": "uint256",
          "name": "prevNodeInboxMaxCount",
          "type": "uint256"
        }
      ],
      "name": "stakeOnNewNode",
      "outputs": [],
      "stateMutability": "nonpayable",
      "type": "function"
    },
    {
      "inputs": [],
      "name": "stakeToken",
      "outputs": [
        {
          "internalType": "address",
          "name": "",
          "type": "address"
        }
      ],
      "stateMutability": "view",
      "type": "function"
    },
    {
      "inputs": [],
      "name": "stakerCount",
      "outputs": [
        {
          "internalType": "uint64",
          "name": "",
          "type": "uint64"
        }
      ],
      "stateMutability": "view",
      "type": "function"
    },
    {
      "inputs": [],
      "name": "totalWithdrawableFunds",
      "outputs": [
        {
          "internalType": "uint256",
          "name": "",
          "type": "uint256"
        }
      ],
      "stateMutability": "view",
      "type": "function"
    },
    {
      "inputs": [],
      "name": "validatorUtils",
      "outputs": [
        {
          "internalType": "address",
          "name": "",
          "type": "address"
        }
      ],
      "stateMutability": "view",
      "type": "function"
    },
    {
      "inputs": [],
      "name": "validatorWalletCreator",
      "outputs": [
        {
          "internalType": "address",
          "name": "",
          "type": "address"
        }
      ],
      "stateMutability": "view",
      "type": "function"
    },
    {
      "inputs": [],
      "name": "validatorWhitelistDisabled",
      "outputs": [
        {
          "internalType": "bool",
          "name": "",
          "type": "bool"
        }
      ],
      "stateMutability": "view",
      "type": "function"
    },
    {
      "inputs": [],
      "name": "wasmModuleRoot",
      "outputs": [
        {
          "internalType": "bytes32",
          "name": "",
          "type": "bytes32"
        }
      ],
      "stateMutability": "view",
      "type": "function"
    },
    {
      "inputs": [],
      "name": "withdrawStakerFunds",
      "outputs": [
        {
          "internalType": "uint256",
          "name": "",
          "type": "uint256"
        }
      ],
      "stateMutability": "nonpayable",
      "type": "function"
    },
    {
      "inputs": [
        {
          "internalType": "address",
          "name": "user",
          "type": "address"
        }
      ],
      "name": "withdrawableFunds",
      "outputs": [
        {
          "internalType": "uint256",
          "name": "",
          "type": "uint256"
        }
      ],
      "stateMutability": "view",
      "type": "function"
    },
    {
      "inputs": [
        {
          "internalType": "uint256",
          "name": "zombieNum",
          "type": "uint256"
        }
      ],
      "name": "zombieAddress",
      "outputs": [
        {
          "internalType": "address",
          "name": "",
          "type": "address"
        }
      ],
      "stateMutability": "view",
      "type": "function"
    },
    {
      "inputs": [],
      "name": "zombieCount",
      "outputs": [
        {
          "internalType": "uint256",
          "name": "",
          "type": "uint256"
        }
      ],
      "stateMutability": "view",
      "type": "function"
    },
    {
      "inputs": [
        {
          "internalType": "uint256",
          "name": "zombieNum",
          "type": "uint256"
        }
      ],
      "name": "zombieLatestStakedNode",
      "outputs": [
        {
          "internalType": "uint64",
          "name": "",
          "type": "uint64"
        }
      ],
      "stateMutability": "view",
      "type": "function"
    }
  ],
  "bytecode": "0x60e060405261001261006760201b60201c565b151560809015158152503073ffffffffffffffffffffffffffffffffffffffff1660a09073ffffffffffffffffffffffffffffffffffffffff168152504660c090815250348015610061575f80fd5b506101b9565b5f805f606473ffffffffffffffffffffffffffffffffffffffff1663051038f260e01b604051602401604051602081830303815290604052907bffffffffffffffffffffffffffffffffffffffffffffffffffffffff19166020820180517bffffffffffffffffffffffffffffffffffffffffffffffffffffffff83818316178352505050506040516100fa91906101a3565b5f60405180830381855afa9150503d805f8114610132576040519150601f19603f3d011682016040523d82523d5f602084013e610137565b606091505b509150915081801561014a575060208151145b9250505090565b5f81519050919050565b5f81905092915050565b8281835e5f83830152505050565b5f61017d82610151565b610187818561015b565b9350610197818560208601610165565b80840191505092915050565b5f6101ae8284610173565b915081905092915050565b60805160a05160c05161b6106101f85f395f61666001525f818161159b01528181613eb50152613f4301525f81816145f4015261736f015261b6105ff3fe608060405234801561000f575f80fd5b5060043610610405575f3560e01c8063771b2f971161021e578063cd205fda1161012e578063edfd03ed116100b6578063f33e1fac11610085578063f33e1fac14610c55578063f3f0a03e14610c85578063f63a434a14610ca1578063facd743b14610cd1578063fb0e722b14610d0157610405565b8063edfd03ed14610bcd578063ee35f32714610be9578063ef40a67014610c07578063f065de3f14610c3757610405565b8063d735e21d116100fd578063d735e21d14610b0f578063dcd030aa14610b2d578063dff6978714610b5d578063e78cea9214610b7b578063e8bd492214610b9957610405565b8063cd205fda14610a87578063ce11e6ab14610aa5578063d01e660214610ac3578063d29a4e2714610af357610405565b806392c8134c116101b1578063aa65af4811610180578063aa65af48146109e3578063b0ebedc714610a13578063bc45e0ae14610a43578063c2c2e68e14610a61578063c4d66de814610a6b57610405565b806392c8134c146109475780639a8a059214610977578063a23c44b114610995578063aa38a6e7146109c557610405565b80638640ce5f116101ed5780638640ce5f146108bd5780638da5cb5b146108db5780638ee1a126146108f957806391c657e81461091757610405565b8063771b2f9714610849578063773d984e146108675780637ba9534a146108835780637e2d2155146108a157610405565b806354ce89611161031957806367425daf116102ac5780636ddd37441161027b5780636ddd3744146107a55780636f57644e146107d557806371ef232c146107f15780637427be511461080f57806376e7e23b1461082b57610405565b806367425daf1461071f57806369fd251c146107295780636b94c33b146107595780636d08d0a21461077557610405565b806361373919116102e857806361373919146106955780636177fd18146106b357806363721d6b146106e357806365f7f80d1461070157610405565b806354ce89611461060f5780635c617e941461062b5780635c975abb1461065b5780635eb405d51461067957610405565b80632b2af0ab1161039c57806345e38b641161036b57806345e38b64146105795780634ceccfe5146105975780634d26732d146105b557806351ed6a30146105d357806352d1902d146105f157610405565b80632b2af0ab146104df5780632e7acfa6146104fb5780632f30cabd146105195780633e96576e1461054957610405565b806318baaab9116103d857806318baaab91461047f5780631aeb55a0146104895780631b1689e9146104a55780631e83d30f146104c357610405565b8063014cc92c14610409578063023a96fe146104275780630357aa491461044557806312ab3d3b14610461575b5f80fd5b610411610d1f565b60405161041e9190617f2a565b60405180910390f35b61042f610d44565b60405161043c9190617f9e565b60405180910390f35b61045f600480360381019061045a9190618021565b610d69565b005b610469610ea4565b604051610476919061808b565b60405180910390f35b610487610eb6565b005b6104a3600480360381019061049e9190618114565b610f68565b005b6104ad6111f2565b6040516104ba9190618161565b60405180910390f35b6104dd60048036038101906104d8919061817a565b6111f8565b005b6104f960048036038101906104f4919061817a565b6113d2565b005b61050361147d565b60405161051091906181b4565b60405180910390f35b610533600480360381019061052e91906181cd565b611496565b6040516105409190618161565b60405180910390f35b610563600480360381019061055e91906181cd565b6114dc565b60405161057091906181b4565b60405180910390f35b610581611539565b60405161058e9190618161565b60405180910390f35b61059f61153f565b6040516105ac9190618161565b60405180910390f35b6105bd611545565b6040516105ca9190618161565b60405180910390f35b6105db611573565b6040516105e89190617f2a565b60405180910390f35b6105f9611598565b6040516106069190618207565b60405180910390f35b61062960048036038101906106249190618243565b61164f565b005b61064560048036038101906106409190618296565b6119a2565b6040516106529190618161565b60405180910390f35b6106636119f7565b604051610670919061808b565b60405180910390f35b610693600480360381019061068e91906182c1565b611a0c565b005b61069d612056565b6040516106aa9190618161565b60405180910390f35b6106cd60048036038101906106c891906181cd565b6122f0565b6040516106da919061808b565b60405180910390f35b6106eb612346565b6040516106f89190618161565b60405180910390f35b610709612352565b60405161071691906181b4565b60405180910390f35b61072761236e565b005b610743600480360381019061073e91906181cd565b6123f6565b60405161075091906181b4565b60405180910390f35b610773600480360381019061076e91906181cd565b612453565b005b61078f600480360381019061078a9190618296565b612a9a565b60405161079c9190618161565b60405180910390f35b6107bf60048036038101906107ba9190618296565b612b4d565b6040516107cc9190617f2a565b60405180910390f35b6107ef60048036038101906107ea91906183c9565b612b9b565b005b6107f96134e0565b6040516108069190618161565b60405180910390f35b610829600480360381019061082491906181cd565b6134e6565b005b61083361370c565b6040516108409190618161565b60405180910390f35b610851613712565b60405161085e91906181b4565b60405180910390f35b610881600480360381019061087c919061847e565b61372c565b005b61088b61374d565b60405161089891906181b4565b60405180910390f35b6108bb60048036038101906108b691906184ce565b61376a565b005b6108c561395e565b6040516108d291906181b4565b60405180910390f35b6108e361397b565b6040516108f09190617f2a565b60405180910390f35b610901613989565b60405161090e9190618207565b60405180910390f35b610931600480360381019061092c91906181cd565b61398f565b60405161093e919061808b565b60405180910390f35b610961600480360381019061095c9190618296565b613a33565b60405161096e919061861e565b60405180910390f35b61097f613c0c565b60405161098c9190618161565b60405180910390f35b6109af60048036038101906109aa91906181cd565b613c12565b6040516109bc91906186bc565b60405180910390f35b6109cd613d22565b6040516109da91906186f5565b60405180910390f35b6109fd60048036038101906109f8919061870e565b613d47565b604051610a0a919061808b565b60405180910390f35b610a2d6004803603810190610a28919061874c565b613dbd565b604051610a3a9190618161565b60405180910390f35b610a4b613ddc565b604051610a589190617f2a565b60405180910390f35b610a69613e01565b005b610a856004803603810190610a8091906181cd565b613eb3565b005b610a8f61408e565b604051610a9c919061808b565b60405180910390f35b610aad6140e5565b604051610aba91906187bc565b60405180910390f35b610add6004803603810190610ad8919061817a565b61410a565b604051610aea9190617f2a565b60405180910390f35b610b0d6004803603810190610b0891906187d5565b614150565b005b610b17614173565b604051610b2491906181b4565b60405180910390f35b610b476004803603810190610b4291906181cd565b614190565b604051610b54919061808b565b60405180910390f35b610b6561420d565b604051610b7291906181b4565b60405180910390f35b610b83614219565b604051610b90919061885c565b60405180910390f35b610bb36004803603810190610bae91906181cd565b61423e565b604051610bc4959493929190618875565b60405180910390f35b610be76004803603810190610be2919061817a565b6142b8565b005b610bf1614426565b604051610bfe91906188e6565b60405180910390f35b610c216004803603810190610c1c91906181cd565b61444b565b604051610c2e9190618161565b60405180910390f35b610c3f614493565b604051610c4c9190617f2a565b60405180910390f35b610c6f6004803603810190610c6a919061817a565b6144b8565b604051610c7c91906181b4565b60405180910390f35b610c9f6004803603810190610c9a91906188ff565b6144f3565b005b610cbb6004803603810190610cb69190618296565b6145f1565b604051610cc89190618161565b60405180910390f35b610ceb6004803603810190610ce691906181cd565b614728565b604051610cf8919061808b565b60405180910390f35b610d09614745565b604051610d16919061895d565b60405180910390f35b606f5f9054906101000a900473ffffffffffffffffffffffffffffffffffffffff1681565b606e5f9054906101000a900473ffffffffffffffffffffffffffffffffffffffff1681565b610d716119f7565b15610db1576040517f08c379a0000000000000000000000000000000000000000000000000000000008152600401610da8906189d0565b60405180910390fd5b606e5f9054906101000a900473ffffffffffffffffffffffffffffffffffffffff1673ffffffffffffffffffffffffffffffffffffffff163373ffffffffffffffffffffffffffffffffffffffff1614610e40576040517f08c379a0000000000000000000000000000000000000000000000000000000008152600401610e3790618a38565b60405180910390fd5b610e4a828261476a565b67ffffffffffffffff168314610e95576040517f08c379a0000000000000000000000000000000000000000000000000000000008152600401610e8c90618aa0565b60405180910390fd5b610e9f82826148d7565b505050565b607e5f9054906101000a900460ff1681565b607e5f9054906101000a900460ff1615610f05576040517f08c379a0000000000000000000000000000000000000000000000000000000008152600401610efc90618b08565b60405180910390fd5b610f0d61497b565b610f4c576040517f08c379a0000000000000000000000000000000000000000000000000000000008152600401610f4390618b70565b60405180910390fd5b6001607e5f6101000a81548160ff021916908315150217905550565b60745f3373ffffffffffffffffffffffffffffffffffffffff1673ffffffffffffffffffffffffffffffffffffffff1681526020019081526020015f205f9054906101000a900460ff1680610fc85750607e5f9054906101000a900460ff165b611007576040517f08c379a0000000000000000000000000000000000000000000000000000000008152600401610ffe90618bd8565b60405180910390fd5b61100f6119f7565b1561104f576040517f08c379a0000000000000000000000000000000000000000000000000000000008152600401611046906189d0565b60405180910390fd5b61105833614190565b611097576040517f08c379a000000000000000000000000000000000000000000000000000000000815260040161108e90618c40565b60405180910390fd5b61109f614173565b67ffffffffffffffff168267ffffffffffffffff16101580156110dd57506110c561374d565b67ffffffffffffffff168267ffffffffffffffff1611155b61111c576040517f08c379a000000000000000000000000000000000000000000000000000000000815260040161111390618ca8565b60405180910390fd5b5f61112683614bc5565b90508181600501541461116e576040517f08c379a000000000000000000000000000000000000000000000000000000000815260040161116590618d10565b60405180910390fd5b806003015f9054906101000a900467ffffffffffffffff1667ffffffffffffffff16611199336114dc565b67ffffffffffffffff16146111e3576040517f08c379a00000000000000000000000000000000000000000000000000000000081526004016111da90618d78565b60405180910390fd5b6111ed3384614bf2565b505050565b607d5481565b60745f3373ffffffffffffffffffffffffffffffffffffffff1673ffffffffffffffffffffffffffffffffffffffff1681526020019081526020015f205f9054906101000a900460ff16806112585750607e5f9054906101000a900460ff165b611297576040517f08c379a000000000000000000000000000000000000000000000000000000000815260040161128e90618bd8565b60405180910390fd5b61129f6119f7565b158061136457503073ffffffffffffffffffffffffffffffffffffffff16606a5f9054906101000a900473ffffffffffffffffffffffffffffffffffffffff1673ffffffffffffffffffffffffffffffffffffffff1663cb23bcb56040518163ffffffff1660e01b8152600401602060405180830381865afa158015611327573d5f803e3d5ffd5b505050506040513d601f19601f8201168201806040525081019061134b9190618dd1565b73ffffffffffffffffffffffffffffffffffffffff1614155b6113a3576040517f08c379a000000000000000000000000000000000000000000000000000000000815260040161139a90618e46565b60405180910390fd5b6113ac33614c6c565b5f6113b5611545565b9050808210156113c3578091505b6113cd3383614d15565b505050565b6113da614173565b67ffffffffffffffff16811015611426576040517f08c379a000000000000000000000000000000000000000000000000000000000815260040161141d90618eae565b60405180910390fd5b61142e61374d565b67ffffffffffffffff1681111561147a576040517f08c379a000000000000000000000000000000000000000000000000000000000815260040161147190618f16565b60405180910390fd5b50565b60655f9054906101000a900467ffffffffffffffff1681565b5f607b5f8373ffffffffffffffffffffffffffffffffffffffff1673ffffffffffffffffffffffffffffffffffffffff1681526020019081526020015f20549050919050565b5f60795f8373ffffffffffffffffffffffffffffffffffffffff1673ffffffffffffffffffffffffffffffffffffffff1681526020019081526020015f2060010160089054906101000a900467ffffffffffffffff169050919050565b60735481565b61b2fa81565b5f8061154f614173565b905061156d438261155e61374d565b67ffffffffffffffff16614e1d565b91505090565b60725f9054906101000a900473ffffffffffffffffffffffffffffffffffffffff1681565b5f7f000000000000000000000000000000000000000000000000000000000000000073ffffffffffffffffffffffffffffffffffffffff163073ffffffffffffffffffffffffffffffffffffffff1614611627576040517f08c379a000000000000000000000000000000000000000000000000000000000815260040161161e90618fa4565b60405180910390fd5b7f2b1dbce74324248c222f0ec2d5ed7bd323cfc425b336f0253c5ccfda7265546d5f1b905090565b60745f3373ffffffffffffffffffffffffffffffffffffffff1673ffffffffffffffffffffffffffffffffffffffff1681526020019081526020015f205f9054906101000a900460ff16806116af5750607e5f9054906101000a900460ff165b6116ee576040517f08c379a00000000000000000000000000000000000000000000000000000000081526004016116e590618bd8565b60405180910390fd5b6116f66119f7565b15611736576040517f08c379a000000000000000000000000000000000000000000000000000000000815260040161172d906189d0565b60405180910390fd5b61173f33614190565b61177e576040517f08c379a000000000000000000000000000000000000000000000000000000000815260040161177590618c40565b60405180910390fd5b5f611788336114dc565b90505f61179482613a33565b610140015167ffffffffffffffff16436117ae9190618fef565b90506073548110156117f5576040517f08c379a00000000000000000000000000000000000000000000000000000000081526004016117ec9061906c565b60405180910390fd5b600260038111156118095761180861908a565b5b8560a001608001602081019061181f91906190da565b60038111156118315761183061908a565b5b14806118645750826118578660a0015f01803603810190611852919061933e565b6150b2565b67ffffffffffffffff1610155b6118a3576040517f08c379a000000000000000000000000000000000000000000000000000000000815260040161189a906193b3565b60405180910390fd5b5f856101400160208101906118b89190618296565b67ffffffffffffffff1611611902576040517f08c379a00000000000000000000000000000000000000000000000000000000081526004016118f99061941b565b60405180910390fd5b600160038111156119165761191561908a565b5b855f01608001602081019061192b91906190da565b600381111561193d5761193c61908a565b5b1461197d576040517f08c379a000000000000000000000000000000000000000000000000000000000815260040161197490619483565b60405180910390fd5b5061198a848284866150d6565b5061199c3361199761374d565b614bf2565b50505050565b5f806119ac612346565b90505f805b828110156119ec576119cb856119c68361410a565b613d47565b156119df5781806119db906194a1565b9250505b80806001019150506119b1565b508092505050919050565b5f60335f9054906101000a900460ff16905090565b60745f3373ffffffffffffffffffffffffffffffffffffffff1673ffffffffffffffffffffffffffffffffffffffff1681526020019081526020015f205f9054906101000a900460ff1680611a6c5750607e5f9054906101000a900460ff165b611aab576040517f08c379a0000000000000000000000000000000000000000000000000000000008152600401611aa290618bd8565b60405180910390fd5b611ab36119f7565b15611af3576040517f08c379a0000000000000000000000000000000000000000000000000000000008152600401611aea906189d0565b60405180910390fd5b611afb61236e565b5f611b04614173565b90505f611b1082614bc5565b9050611cdc81604051806101800160405290815f82015481526020016001820154815260200160028201548152602001600382015f9054906101000a900467ffffffffffffffff1667ffffffffffffffff1667ffffffffffffffff1681526020016003820160089054906101000a900467ffffffffffffffff1667ffffffffffffffff1667ffffffffffffffff1681526020016003820160109054906101000a900467ffffffffffffffff1667ffffffffffffffff1667ffffffffffffffff1681526020016003820160189054906101000a900467ffffffffffffffff1667ffffffffffffffff1667ffffffffffffffff168152602001600482015f9054906101000a900467ffffffffffffffff1667ffffffffffffffff1667ffffffffffffffff1681526020016004820160089054906101000a900467ffffffffffffffff1667ffffffffffffffff1667ffffffffffffffff1681526020016004820160109054906101000a900467ffffffffffffffff1667ffffffffffffffff1667ffffffffffffffff1681526020016004820160189054906101000a900467ffffffffffffffff1667ffffffffffffffff1667ffffffffffffffff1681526020016005820154815250506157b2565b611ce4612352565b67ffffffffffffffff16816003015f9054906101000a900467ffffffffffffffff1667ffffffffffffffff1614611d1e57611d1d6194e8565b5b5f611d3f826003015f9054906101000a900467ffffffffffffffff16614bc5565b9050611f0b81604051806101800160405290815f82015481526020016001820154815260200160028201548152602001600382015f9054906101000a900467ffffffffffffffff1667ffffffffffffffff1667ffffffffffffffff1681526020016003820160089054906101000a900467ffffffffffffffff1667ffffffffffffffff1667ffffffffffffffff1681526020016003820160109054906101000a900467ffffffffffffffff1667ffffffffffffffff1667ffffffffffffffff1681526020016003820160189054906101000a900467ffffffffffffffff1667ffffffffffffffff1667ffffffffffffffff168152602001600482015f9054906101000a900467ffffffffffffffff1667ffffffffffffffff1667ffffffffffffffff1681526020016004820160089054906101000a900467ffffffffffffffff1667ffffffffffffffff1667ffffffffffffffff1681526020016004820160109054906101000a900467ffffffffffffffff1667ffffffffffffffff1667ffffffffffffffff1681526020016004820160189054906101000a900467ffffffffffffffff1667ffffffffffffffff1667ffffffffffffffff168152602001600582015481525050615806565b611f145f6142b8565b5f611f1e846119a2565b90505f81611f42856003015f9054906101000a900467ffffffffffffffff16612a9a565b611f4c9190618fef565b9050818460030160189054906101000a900467ffffffffffffffff1667ffffffffffffffff1611611fb2576040517f08c379a0000000000000000000000000000000000000000000000000000000008152600401611fa99061955f565b60405180910390fd5b808460030160189054906101000a900467ffffffffffffffff1667ffffffffffffffff16611fe0919061957d565b836004015f9054906101000a900467ffffffffffffffff1667ffffffffffffffff1614612042576040517f08c379a0000000000000000000000000000000000000000000000000000000008152600401612039906195fa565b60405180910390fd5b61204d85888861585a565b50505050505050565b5f60745f3373ffffffffffffffffffffffffffffffffffffffff1673ffffffffffffffffffffffffffffffffffffffff1681526020019081526020015f205f9054906101000a900460ff16806120b75750607e5f9054906101000a900460ff165b6120f6576040517f08c379a00000000000000000000000000000000000000000000000000000000081526004016120ed90618bd8565b60405180910390fd5b6120fe6119f7565b15806121c357503073ffffffffffffffffffffffffffffffffffffffff16606a5f9054906101000a900473ffffffffffffffffffffffffffffffffffffffff1673ffffffffffffffffffffffffffffffffffffffff1663cb23bcb56040518163ffffffff1660e01b8152600401602060405180830381865afa158015612186573d5f803e3d5ffd5b505050506040513d601f19601f820116820180604052508101906121aa9190618dd1565b73ffffffffffffffffffffffffffffffffffffffff1614155b612202576040517f08c379a00000000000000000000000000000000000000000000000000000000081526004016121f990618e46565b60405180910390fd5b5f61220c336159e5565b905060725f9054906101000a900473ffffffffffffffffffffffffffffffffffffffff1673ffffffffffffffffffffffffffffffffffffffff1663a9059cbb33836040518363ffffffff1660e01b815260040161226a929190619618565b6020604051808303815f875af1158015612286573d5f803e3d5ffd5b505050506040513d601f19601f820116820180604052508101906122aa9190619669565b6122e9576040517f08c379a00000000000000000000000000000000000000000000000000000000081526004016122e0906196de565b60405180910390fd5b8091505090565b5f60795f8373ffffffffffffffffffffffffffffffffffffffff1673ffffffffffffffffffffffffffffffffffffffff1681526020019081526020015f2060010160189054906101000a900460ff169050919050565b5f607a80549050905090565b5f60755f9054906101000a900467ffffffffffffffff16905090565b5f612377614173565b67ffffffffffffffff16905061238b612352565b67ffffffffffffffff16811180156123b457506123a661374d565b67ffffffffffffffff168111155b6123f3576040517f08c379a00000000000000000000000000000000000000000000000000000000081526004016123ea90619746565b60405180910390fd5b50565b5f60795f8373ffffffffffffffffffffffffffffffffffffffff1673ffffffffffffffffffffffffffffffffffffffff1681526020019081526020015f2060010160109054906101000a900467ffffffffffffffff169050919050565b60745f3373ffffffffffffffffffffffffffffffffffffffff1673ffffffffffffffffffffffffffffffffffffffff1681526020019081526020015f205f9054906101000a900460ff16806124b35750607e5f9054906101000a900460ff165b6124f2576040517f08c379a00000000000000000000000000000000000000000000000000000000081526004016124e990618bd8565b60405180910390fd5b6124fa6119f7565b1561253a576040517f08c379a0000000000000000000000000000000000000000000000000000000008152600401612531906189d0565b60405180910390fd5b61254261236e565b5f61254b612352565b90505f612556614173565b90505f61256282614bc5565b90508267ffffffffffffffff16816003015f9054906101000a900467ffffffffffffffff1667ffffffffffffffff1603612a555761259f84614190565b6125de576040517f08c379a00000000000000000000000000000000000000000000000000000000081526004016125d590618c40565b60405180910390fd5b6125f96125ea856114dc565b67ffffffffffffffff166113d2565b6126038285613d47565b15612643576040517f08c379a000000000000000000000000000000000000000000000000000000000815260040161263a906197ae565b60405180910390fd5b61280d81604051806101800160405290815f82015481526020016001820154815260200160028201548152602001600382015f9054906101000a900467ffffffffffffffff1667ffffffffffffffff1667ffffffffffffffff1681526020016003820160089054906101000a900467ffffffffffffffff1667ffffffffffffffff1667ffffffffffffffff1681526020016003820160109054906101000a900467ffffffffffffffff1667ffffffffffffffff1667ffffffffffffffff1681526020016003820160189054906101000a900467ffffffffffffffff1667ffffffffffffffff1667ffffffffffffffff168152602001600482015f9054906101000a900467ffffffffffffffff1667ffffffffffffffff1667ffffffffffffffff1681526020016004820160089054906101000a900467ffffffffffffffff1667ffffffffffffffff1667ffffffffffffffff1681526020016004820160109054906101000a900467ffffffffffffffff1667ffffffffffffffff1667ffffffffffffffff1681526020016004820160189054906101000a900467ffffffffffffffff1667ffffffffffffffff1667ffffffffffffffff1681526020016005820154815250506157b2565b6129df61281984614bc5565b604051806101800160405290815f82015481526020016001820154815260200160028201548152602001600382015f9054906101000a900467ffffffffffffffff1667ffffffffffffffff1667ffffffffffffffff1681526020016003820160089054906101000a900467ffffffffffffffff1667ffffffffffffffff1667ffffffffffffffff1681526020016003820160109054906101000a900467ffffffffffffffff1667ffffffffffffffff1667ffffffffffffffff1681526020016003820160189054906101000a900467ffffffffffffffff1667ffffffffffffffff1667ffffffffffffffff168152602001600482015f9054906101000a900467ffffffffffffffff1667ffffffffffffffff1667ffffffffffffffff1681526020016004820160089054906101000a900467ffffffffffffffff1667ffffffffffffffff1667ffffffffffffffff1681526020016004820160109054906101000a900467ffffffffffffffff1667ffffffffffffffff1667ffffffffffffffff1681526020016004820160189054906101000a900467ffffffffffffffff1667ffffffffffffffff1667ffffffffffffffff168152602001600582015481525050615806565b6129e85f6142b8565b6129f1826119a2565b8160030160189054906101000a900467ffffffffffffffff1667ffffffffffffffff1614612a54576040517f08c379a0000000000000000000000000000000000000000000000000000000008152600401612a4b90619816565b60405180910390fd5b5b612a5d615ada565b8167ffffffffffffffff167feaffa3d968707ec919a2fc9f31d5ab2b86c905881ff561725d5a82fc95ad464060405160405180910390a250505050565b5f80612aa4612346565b90505f805b82811015612b42575f612abb82615b29565b90508567ffffffffffffffff16815f0160149054906101000a900467ffffffffffffffff1667ffffffffffffffff1614158015612b205750612b1f86825f015f9054906101000a900473ffffffffffffffffffffffffffffffffffffffff16613d47565b5b15612b34578280612b30906194a1565b9350505b508080600101915050612aa9565b508092505050919050565b5f60788267ffffffffffffffff1681548110612b6c57612b6b619834565b5b905f5260205f20015f9054906101000a900473ffffffffffffffffffffffffffffffffffffffff169050919050565b60745f3373ffffffffffffffffffffffffffffffffffffffff1673ffffffffffffffffffffffffffffffffffffffff1681526020019081526020015f205f9054906101000a900460ff1680612bfb5750607e5f9054906101000a900460ff165b612c3a576040517f08c379a0000000000000000000000000000000000000000000000000000000008152600401612c3190618bd8565b60405180910390fd5b612c426119f7565b15612c82576040517f08c379a0000000000000000000000000000000000000000000000000000000008152600401612c79906189d0565b60405180910390fd5b86600160028110612c9657612c95619834565b5b602002016020810190612ca99190618296565b67ffffffffffffffff16875f60028110612cc657612cc5619834565b5b602002016020810190612cd99190618296565b67ffffffffffffffff1610612d23576040517f08c379a0000000000000000000000000000000000000000000000000000000008152600401612d1a906198ab565b60405180910390fd5b612d2b61374d565b67ffffffffffffffff1687600160028110612d4957612d48619834565b5b602002016020810190612d5c9190618296565b67ffffffffffffffff161115612da7576040517f08c379a0000000000000000000000000000000000000000000000000000000008152600401612d9e90619913565b60405180910390fd5b865f60028110612dba57612db9619834565b5b602002016020810190612dcd9190618296565b67ffffffffffffffff16612ddf612352565b67ffffffffffffffff1610612e29576040517f08c379a0000000000000000000000000000000000000000000000000000000008152600401612e209061997b565b60405180910390fd5b5f612e58885f60028110612e4057612e3f619834565b5b602002016020810190612e539190618296565b614bc5565b90505f612e8a89600160028110612e7257612e71619834565b5b602002016020810190612e859190618296565b614bc5565b9050806003015f9054906101000a900467ffffffffffffffff1667ffffffffffffffff16826003015f9054906101000a900467ffffffffffffffff1667ffffffffffffffff1614612f10576040517f08c379a0000000000000000000000000000000000000000000000000000000008152600401612f07906199e3565b60405180910390fd5b612f3e8a5f60028110612f2657612f25619834565b5b602002016020810190612f3991906181cd565b614c6c565b612f6d8a600160028110612f5557612f54619834565b5b602002016020810190612f6891906181cd565b614c6c565b612fc1895f60028110612f8357612f82619834565b5b602002016020810190612f969190618296565b8b5f60028110612fa957612fa8619834565b5b602002016020810190612fbc91906181cd565b613d47565b613000576040517f08c379a0000000000000000000000000000000000000000000000000000000008152600401612ff790619a4b565b60405180910390fd5b6130568960016002811061301757613016619834565b5b60200201602081019061302a9190618296565b8b60016002811061303e5761303d619834565b5b60200201602081019061305191906181cd565b613d47565b613095576040517f08c379a000000000000000000000000000000000000000000000000000000000815260040161308c90619ab3565b60405180910390fd5b6131556131208960028060200260405190810160405280929190826002602002808284375f81840152601f19601f82011690508083019250505050505089600280602002604051908101604052809291905f905b8282101561311657838260800201803603810190613107919061933e565b815260200190600101906130e9565b5050505089615b4d565b855f6002811061313357613132619834565b5b6020020135855f6002811061314b5761314a619834565b5b6020020135615c7b565b82600101541461319a576040517f08c379a000000000000000000000000000000000000000000000000000000000815260040161319190619b1b565b60405180910390fd5b6131d585856001600281106131b2576131b1619834565b5b6020020135856001600281106131cb576131ca619834565b5b6020020135615c7b565b81600101541461321a576040517f08c379a000000000000000000000000000000000000000000000000000000000815260040161321190619b83565b60405180910390fd5b5f606560089054906101000a900467ffffffffffffffff1667ffffffffffffffff16855f6002811061324f5761324e619834565b5b60200201358460030160089054906101000a900467ffffffffffffffff1667ffffffffffffffff166132819190618fef565b6132a1856003015f9054906101000a900467ffffffffffffffff16614bc5565b60040160089054906101000a900467ffffffffffffffff1667ffffffffffffffff166132cd919061957d565b6132d7919061957d565b9050846001600281106132ed576132ec619834565b5b60200201358110156133565761334e8b5f6002811061330f5761330e619834565b5b60200201602081019061332291906181cd565b8c60016002811061333657613335619834565b5b60200201602081019061334991906181cd565b6148d7565b5050506134d6565b5f6133c38c8b8b8b89600c8c5f6002811061337457613373619834565b5b6020020135896133849190618fef565b61338e9190619ba1565b600c8d6001600281106133a4576133a3619834565b5b60200201358a6133b49190618fef565b6133be9190619ba1565b615cb0565b905061341b8c5f600281106133db576133da619834565b5b6020020160208101906133ee91906181cd565b8d60016002811061340257613401619834565b5b60200201602081019061341591906181cd565b83615dc8565b8067ffffffffffffffff167f6db7dc2f507647d135035469b27aa79cea90582779d084a7821d6cd092cbd8738d5f6002811061345a57613459619834565b5b60200201602081019061346d91906181cd565b8e60016002811061348157613480619834565b5b60200201602081019061349491906181cd565b8e5f600281106134a7576134a6619834565b5b6020020160208101906134ba9190618296565b6040516134c993929190619be2565b60405180910390a2505050505b5050505050505050565b607c5481565b60745f3373ffffffffffffffffffffffffffffffffffffffff1673ffffffffffffffffffffffffffffffffffffffff1681526020019081526020015f205f9054906101000a900460ff16806135465750607e5f9054906101000a900460ff165b613585576040517f08c379a000000000000000000000000000000000000000000000000000000000815260040161357c90618bd8565b60405180910390fd5b61358d6119f7565b158061365257503073ffffffffffffffffffffffffffffffffffffffff16606a5f9054906101000a900473ffffffffffffffffffffffffffffffffffffffff1673ffffffffffffffffffffffffffffffffffffffff1663cb23bcb56040518163ffffffff1660e01b8152600401602060405180830381865afa158015613615573d5f803e3d5ffd5b505050506040513d601f19601f820116820180604052508101906136399190618dd1565b73ffffffffffffffffffffffffffffffffffffffff1614155b613691576040517f08c379a000000000000000000000000000000000000000000000000000000000815260040161368890618e46565b60405180910390fd5b613699612352565b67ffffffffffffffff166136ac826114dc565b67ffffffffffffffff1611156136f7576040517f08c379a00000000000000000000000000000000000000000000000000000000081526004016136ee90619c61565b60405180910390fd5b61370081614c6c565b61370981615e9b565b50565b60675481565b606560089054906101000a900467ffffffffffffffff1681565b61373583615fac565b61373f8282610f68565b6137488361617c565b505050565b5f607560109054906101000a900467ffffffffffffffff16905090565b60745f3373ffffffffffffffffffffffffffffffffffffffff1673ffffffffffffffffffffffffffffffffffffffff1681526020019081526020015f205f9054906101000a900460ff16806137ca5750607e5f9054906101000a900460ff165b613809576040517f08c379a000000000000000000000000000000000000000000000000000000000815260040161380090618bd8565b60405180910390fd5b6138116119f7565b15613851576040517f08c379a0000000000000000000000000000000000000000000000000000000008152600401613848906189d0565b60405180910390fd5b613859612346565b821061389a576040517f08c379a000000000000000000000000000000000000000000000000000000000815260040161389190619cc9565b60405180910390fd5b5f6138a48361410a565b90505f6138b0846144b8565b90505f806138bc612352565b67ffffffffffffffff1690505b808367ffffffffffffffff16101580156138e257508482105b1561392b575f6138f184614bc5565b90506138fd848661625c565b806003015f9054906101000a900467ffffffffffffffff1693508280613922906194a1565b935050506138c9565b808367ffffffffffffffff16101561394b5761394686616469565b613956565b61395586846165c0565b5b505050505050565b5f607560189054906101000a900467ffffffffffffffff16905090565b5f613984616609565b905090565b60685481565b5f805f90505b607a80549050811015613a2957607a81815481106139b6576139b5619834565b5b905f5260205f20015f015f9054906101000a900473ffffffffffffffffffffffffffffffffffffffff1673ffffffffffffffffffffffffffffffffffffffff168373ffffffffffffffffffffffffffffffffffffffff1603613a1c576001915050613a2e565b8080600101915050613995565b505f90505b919050565b613a3b617cd7565b613a4482614bc5565b604051806101800160405290815f82015481526020016001820154815260200160028201548152602001600382015f9054906101000a900467ffffffffffffffff1667ffffffffffffffff1667ffffffffffffffff1681526020016003820160089054906101000a900467ffffffffffffffff1667ffffffffffffffff1667ffffffffffffffff1681526020016003820160109054906101000a900467ffffffffffffffff1667ffffffffffffffff1667ffffffffffffffff1681526020016003820160189054906101000a900467ffffffffffffffff1667ffffffffffffffff1667ffffffffffffffff168152602001600482015f9054906101000a900467ffffffffffffffff1667ffffffffffffffff1667ffffffffffffffff1681526020016004820160089054906101000a900467ffffffffffffffff1667ffffffffffffffff1667ffffffffffffffff1681526020016004820160109054906101000a900467ffffffffffffffff1667ffffffffffffffff1667ffffffffffffffff1681526020016004820160189054906101000a900467ffffffffffffffff1667ffffffffffffffff1667ffffffffffffffff1681526020016005820154815250509050919050565b60665481565b613c1a617d88565b60795f8373ffffffffffffffffffffffffffffffffffffffff1673ffffffffffffffffffffffffffffffffffffffff1681526020019081526020015f206040518060a00160405290815f8201548152602001600182015f9054906101000a900467ffffffffffffffff1667ffffffffffffffff1667ffffffffffffffff1681526020016001820160089054906101000a900467ffffffffffffffff1667ffffffffffffffff1667ffffffffffffffff1681526020016001820160109054906101000a900467ffffffffffffffff1667ffffffffffffffff1667ffffffffffffffff1681526020016001820160189054906101000a900460ff1615151515815250509050919050565b606d5f9054906101000a900473ffffffffffffffffffffffffffffffffffffffff1681565b5f60775f8467ffffffffffffffff1667ffffffffffffffff1681526020019081526020015f205f8373ffffffffffffffffffffffffffffffffffffffff1673ffffffffffffffffffffffffffffffffffffffff1681526020019081526020015f205f9054906101000a900460ff16905092915050565b5f613dd384848467ffffffffffffffff16614e1d565b90509392505050565b60705f9054906101000a900473ffffffffffffffffffffffffffffffffffffffff1681565b607e5f9054906101000a900460ff1615613e50576040517f08c379a0000000000000000000000000000000000000000000000000000000008152600401613e4790618b08565b60405180910390fd5b613e5861665c565b613e97576040517f08c379a0000000000000000000000000000000000000000000000000000000008152600401613e8e90619d31565b60405180910390fd5b6001607e5f6101000a81548160ff021916908315150217905550565b7f000000000000000000000000000000000000000000000000000000000000000073ffffffffffffffffffffffffffffffffffffffff163073ffffffffffffffffffffffffffffffffffffffff1603613f41576040517f08c379a0000000000000000000000000000000000000000000000000000000008152600401613f3890619dbf565b60405180910390fd5b7f000000000000000000000000000000000000000000000000000000000000000073ffffffffffffffffffffffffffffffffffffffff16613f80616686565b73ffffffffffffffffffffffffffffffffffffffff1614613fd6576040517f08c379a0000000000000000000000000000000000000000000000000000000008152600401613fcd90619e4d565b60405180910390fd5b5f73ffffffffffffffffffffffffffffffffffffffff168173ffffffffffffffffffffffffffffffffffffffff1603614044576040517f08c379a000000000000000000000000000000000000000000000000000000000815260040161403b90619eb5565b60405180910390fd5b61404c61408e565b61408b576040517f08c379a000000000000000000000000000000000000000000000000000000000815260040161408290619f1d565b60405180910390fd5b50565b5f8073ffffffffffffffffffffffffffffffffffffffff1660725f9054906101000a900473ffffffffffffffffffffffffffffffffffffffff1673ffffffffffffffffffffffffffffffffffffffff161415905090565b606b5f9054906101000a900473ffffffffffffffffffffffffffffffffffffffff1681565b5f607a828154811061411f5761411e619834565b5b905f5260205f20015f015f9054906101000a900473ffffffffffffffffffffffffffffffffffffffff169050919050565b61415984615fac565b61416483838361164f565b61416d8461617c565b50505050565b5f607560089054906101000a900467ffffffffffffffff16905090565b5f60795f8373ffffffffffffffffffffffffffffffffffffffff1673ffffffffffffffffffffffffffffffffffffffff1681526020019081526020015f2060010160189054906101000a900460ff168015614206575061420560755f9054906101000a900467ffffffffffffffff1683613d47565b5b9050919050565b5f607880549050905090565b606a5f9054906101000a900473ffffffffffffffffffffffffffffffffffffffff1681565b6079602052805f5260405f205f91509050805f015490806001015f9054906101000a900467ffffffffffffffff16908060010160089054906101000a900467ffffffffffffffff16908060010160109054906101000a900467ffffffffffffffff16908060010160189054906101000a900460ff16905085565b60745f3373ffffffffffffffffffffffffffffffffffffffff1673ffffffffffffffffffffffffffffffffffffffff1681526020019081526020015f205f9054906101000a900460ff16806143185750607e5f9054906101000a900460ff165b614357576040517f08c379a000000000000000000000000000000000000000000000000000000000815260040161434e90618bd8565b60405180910390fd5b61435f6119f7565b1561439f576040517f08c379a0000000000000000000000000000000000000000000000000000000008152600401614396906189d0565b60405180910390fd5b5f6143a8612346565b90505f6143b3612352565b67ffffffffffffffff1690505f8390505b8281101561441f575b816143d7826144b8565b67ffffffffffffffff161015614412576143f081616469565b82806143fb90619f3b565b93505082811061440d57505050614423565b6143cd565b80806001019150506143c4565b5050505b50565b606c5f9054906101000a900473ffffffffffffffffffffffffffffffffffffffff1681565b5f60795f8373ffffffffffffffffffffffffffffffffffffffff1673ffffffffffffffffffffffffffffffffffffffff1681526020019081526020015f205f01549050919050565b60715f9054906101000a900473ffffffffffffffffffffffffffffffffffffffff1681565b5f607a82815481106144cd576144cc619834565b5b905f5260205f20015f0160149054906101000a900467ffffffffffffffff169050919050565b60745f3373ffffffffffffffffffffffffffffffffffffffff1673ffffffffffffffffffffffffffffffffffffffff1681526020019081526020015f205f9054906101000a900460ff16806145535750607e5f9054906101000a900460ff165b614592576040517f08c379a000000000000000000000000000000000000000000000000000000000815260040161458990618bd8565b60405180910390fd5b61459a6119f7565b156145da576040517f08c379a00000000000000000000000000000000000000000000000000000000081526004016145d1906189d0565b60405180910390fd5b6145e482826166d9565b6145ed8161617c565b5050565b5f7f00000000000000000000000000000000000000000000000000000000000000001561468c575f607f5f8467ffffffffffffffff1667ffffffffffffffff1681526020019081526020015f205490505f8111614683576040517f08c379a000000000000000000000000000000000000000000000000000000000815260040161467a90619fac565b60405180910390fd5b80915050614723565b5f61469683614bc5565b90505f8160030160089054906101000a900467ffffffffffffffff1667ffffffffffffffff16036146fc576040517f08c379a00000000000000000000000000000000000000000000000000000000081526004016146f390619fac565b60405180910390fd5b8060040160189054906101000a900467ffffffffffffffff1667ffffffffffffffff169150505b919050565b6074602052805f5260405f205f915054906101000a900460ff1681565b60695f9054906101000a900473ffffffffffffffffffffffffffffffffffffffff1681565b5f8060795f8573ffffffffffffffffffffffffffffffffffffffff1673ffffffffffffffffffffffffffffffffffffffff1681526020019081526020015f2090505f60795f8573ffffffffffffffffffffffffffffffffffffffff1673ffffffffffffffffffffffffffffffffffffffff1681526020019081526020015f2090505f8260010160109054906101000a900467ffffffffffffffff1690505f67ffffffffffffffff168167ffffffffffffffff160361485d576040517f08c379a00000000000000000000000000000000000000000000000000000000081526004016148549061a014565b60405180910390fd5b8160010160109054906101000a900467ffffffffffffffff1667ffffffffffffffff168167ffffffffffffffff16146148cb576040517f08c379a00000000000000000000000000000000000000000000000000000000081526004016148c29061a07c565b60405180910390fd5b80935050505092915050565b5f6148e18261444b565b90505f6148ed8461444b565b90508082111561490f576149018382614d15565b8261490c9190618fef565b91505b5f60028361491d919061a0c7565b905061492985826167d7565b80836149359190618fef565b92506149408561688c565b61496b60715f9054906101000a900473ffffffffffffffffffffffffffffffffffffffff16846168fb565b614974846169fb565b5050505050565b5f8061498d61498861374d565b614bc5565b604051806101800160405290815f82015481526020016001820154815260200160028201548152602001600382015f9054906101000a900467ffffffffffffffff1667ffffffffffffffff1667ffffffffffffffff1681526020016003820160089054906101000a900467ffffffffffffffff1667ffffffffffffffff1667ffffffffffffffff1681526020016003820160109054906101000a900467ffffffffffffffff1667ffffffffffffffff1667ffffffffffffffff1681526020016003820160189054906101000a900467ffffffffffffffff1667ffffffffffffffff1667ffffffffffffffff168152602001600482015f9054906101000a900467ffffffffffffffff1667ffffffffffffffff1667ffffffffffffffff1681526020016004820160089054906101000a900467ffffffffffffffff1667ffffffffffffffff1667ffffffffffffffff1681526020016004820160109054906101000a900467ffffffffffffffff1667ffffffffffffffff1667ffffffffffffffff1681526020016004820160189054906101000a900467ffffffffffffffff1667ffffffffffffffff1667ffffffffffffffff16815260200160058201548152505090505f81610140015167ffffffffffffffff1603614b6f575f915050614bc2565b4361b2fa60655f9054906101000a900467ffffffffffffffff16836101400151614b99919061a0f7565b67ffffffffffffffff16614bad919061957d565b1015614bbd576001915050614bc2565b5f9150505b90565b5f60765f8367ffffffffffffffff1667ffffffffffffffff1681526020019081526020015f209050919050565b5f60795f8473ffffffffffffffffffffffffffffffffffffffff1673ffffffffffffffffffffffffffffffffffffffff1681526020019081526020015f209050614c3c8284616b2d565b818160010160086101000a81548167ffffffffffffffff021916908367ffffffffffffffff160217905550505050565b614c75816122f0565b614cb4576040517f08c379a0000000000000000000000000000000000000000000000000000000008152600401614cab90618c40565b60405180910390fd5b5f67ffffffffffffffff16614cc8826123f6565b67ffffffffffffffff1614614d12576040517f08c379a0000000000000000000000000000000000000000000000000000000008152600401614d099061a17c565b60405180910390fd5b50565b5f8060795f8573ffffffffffffffffffffffffffffffffffffffff1673ffffffffffffffffffffffffffffffffffffffff1681526020019081526020015f2090505f815f0154905080841115614da0576040517f08c379a0000000000000000000000000000000000000000000000000000000008152600401614d979061a1e4565b60405180910390fd5b5f8482614dad9190618fef565b905084835f0181905550614dc186826168fb565b8573ffffffffffffffffffffffffffffffffffffffff167febd093d389ab57f3566918d2c379a2b4d9539e8eb95efad9d5e465457833fde68387604051614e0992919061a202565b60405180910390a280935050505092915050565b5f81600184614e2c919061a229565b67ffffffffffffffff1603614e455760675490506150ab565b5f614e4f84614bc5565b60030160089054906101000a900467ffffffffffffffff1667ffffffffffffffff16905080851015614e86576067549150506150ab565b5f604051806101400160405280600162ffffff1681526020016201e05b62ffffff1681526020016201f7d162ffffff1681526020016201389162ffffff168152602001620329e162ffffff1681526020016201be4362ffffff1681526020016204cb8c62ffffff1681526020016201fbc462ffffff16815260200162036d3262ffffff1681526020016202797362ffffff1681525090505f604051806101400160405280600162ffffff1681526020016201c03062ffffff1681526020016201b69962ffffff16815260200161fde262ffffff168152602001620265c662ffffff16815260200162013b8e62ffffff168152602001620329e162ffffff1681526020016201389162ffffff1681526020016201f7d162ffffff1681526020016201537562ffffff1681525090505f8388614fc09190618fef565b90505f60655f9054906101000a900467ffffffffffffffff1667ffffffffffffffff16600a83614ff09190619ba1565b614ffa919061a0c7565b90505f600a8261500a919061a0c7565b6002615016919061a393565b90505f85600a84615027919061a3dd565b600a811061503857615037619834565b5b602002015162ffffff168261504d9190619ba1565b90505f85600a8561505e919061a3dd565b600a811061506f5761506e619834565b5b602002015162ffffff1682615084919061a0c7565b90505f810361509257600190505b806067546150a09190619ba1565b985050505050505050505b9392505050565b5f81602001515f600281106150ca576150c9619834565b5b60200201519050919050565b5f600160038111156150eb576150ea61908a565b5b8560a001608001602081019061510191906190da565b60038111156151135761511261908a565b5b148061515857506002600381111561512e5761512d61908a565b5b8560a001608001602081019061514491906190da565b60038111156151565761515561908a565b5b145b615197576040517f08c379a000000000000000000000000000000000000000000000000000000000815260040161518e9061a457565b60405180910390fd5b61519f617dd2565b6151a885613a33565b8160600181905250606a5f9054906101000a900473ffffffffffffffffffffffffffffffffffffffff1673ffffffffffffffffffffffffffffffffffffffff166284120c6040518163ffffffff1660e01b8152600401602060405180830381865afa158015615219573d5f803e3d5ffd5b505050506040513d601f19601f8201168201806040525081019061523d919061a489565b815f01818152505080606001515f0151615259875f0186616def565b14615299576040517f08c379a00000000000000000000000000000000000000000000000000000000081526004016152909061a4fe565b60405180910390fd5b5f6152b88760a0015f018036038101906152b3919061933e565b6150b2565b90505f6152d8885f015f018036038101906152d3919061933e565b6150b2565b90508067ffffffffffffffff168267ffffffffffffffff161015615331576040517f08c379a00000000000000000000000000000000000000000000000000000000081526004016153289061a566565b60405180910390fd5b8067ffffffffffffffff168267ffffffffffffffff16036153dd57615369885f015f01803603810190615364919061933e565b616e4f565b67ffffffffffffffff166153918960a0015f0180360381019061538c919061933e565b616e4f565b67ffffffffffffffff1610156153dc576040517f08c379a00000000000000000000000000000000000000000000000000000000081526004016153d39061a5ce565b60405180910390fd5b5b600260038111156153f1576153f061908a565b5b8860a001608001602081019061540791906190da565b60038111156154195761541861908a565b5b148061544b57505f61543f8960a0015f0180360381019061543a919061933e565b616e4f565b67ffffffffffffffff16115b1561545f57818061545b9061a5ec565b9250505b825f01518267ffffffffffffffff1611156154af576040517f08c379a00000000000000000000000000000000000000000000000000000000081526004016154a69061a665565b60405180910390fd5b5f8267ffffffffffffffff16111561557057606a5f9054906101000a900473ffffffffffffffffffffffffffffffffffffffff1673ffffffffffffffffffffffffffffffffffffffff166316bf557960018461550b919061a229565b6040518263ffffffff1660e01b8152600401615527919061a6b3565b602060405180830381865afa158015615542573d5f803e3d5ffd5b505050506040513d601f19601f82011682018060405250810190615566919061a6e0565b8360e00181815250505b505061558b86803603810190615586919061a7bb565b616e74565b81604001818152505060655f9054906101000a900467ffffffffffffffff16436155b5919061a0f7565b8160c0019067ffffffffffffffff16908167ffffffffffffffff16815250505f8160600151610120015167ffffffffffffffff16118160a00190151590811515815250508060a00151156156275761561581606001516101200151614bc5565b6005015481608001818152505061563b565b806060015161016001518160800181815250505b61565a8160a00151826080015183604001518460e00151606854616f79565b91508282148061566b57505f801b83145b6156aa576040517f08c379a00000000000000000000000000000000000000000000000000000000081526004016156a19061a831565b60405180910390fd5b6156f36156bd8760a001835f0151616def565b6156ce836040015143606854615c7b565b6156e7898036038101906156e2919061a7bb565b616fc6565b888560c0015187616ff6565b81602001819052505f600161570661374d565b615710919061a0f7565b90505f61571c87614bc5565b905061573182826170bd90919063ffffffff16565b61573e8360200151617141565b5050818160600151610160015161575361374d565b67ffffffffffffffff167f4f4caa9e67fb994e349dd35d1ad0ce23053d4323f83ce11dc817b5435031d09684604001518a8660e00151606854885f01516040516157a195949392919061aa75565b60405180910390a450949350505050565b806080015167ffffffffffffffff16431015615803576040517f08c379a00000000000000000000000000000000000000000000000000000000081526004016157fa9061ab14565b60405180910390fd5b50565b8060a0015167ffffffffffffffff16431015615857576040517f08c379a000000000000000000000000000000000000000000000000000000000815260040161584e9061ab7c565b60405180910390fd5b50565b5f61586484614bc5565b90506158708383617444565b8160020154146158b5576040517f08c379a00000000000000000000000000000000000000000000000000000000081526004016158ac9061abe4565b60405180910390fd5b606b5f9054906101000a900473ffffffffffffffffffffffffffffffffffffffff1673ffffffffffffffffffffffffffffffffffffffff1663a04cee6083856040518363ffffffff1660e01b815260040161591192919061ac02565b5f604051808303815f87803b158015615928575f80fd5b505af115801561593a573d5f803e3d5ffd5b505050508360755f6101000a81548167ffffffffffffffff021916908367ffffffffffffffff160217905550600184615973919061a0f7565b607560086101000a81548167ffffffffffffffff021916908367ffffffffffffffff1602179055508367ffffffffffffffff167f22ef0479a7ff660660d1c2fe35f1b632cf31675c2d9378db8cec95b00d8ffa3c84846040516159d792919061ac02565b60405180910390a250505050565b5f80607b5f8473ffffffffffffffffffffffffffffffffffffffff1673ffffffffffffffffffffffffffffffffffffffff1681526020019081526020015f205490505f607b5f8573ffffffffffffffffffffffffffffffffffffffff1673ffffffffffffffffffffffffffffffffffffffff1681526020019081526020015f208190555080607c5f828254615a7a9190618fef565b925050819055508273ffffffffffffffffffffffffffffffffffffffff167fa740af14c56e4e04a617b1de1eb20de73270decbaaead14f142aabf3038e5ae2825f604051615ac992919061ac62565b60405180910390a280915050919050565b6075600881819054906101000a900467ffffffffffffffff1680929190615b009061a5ec565b91906101000a81548167ffffffffffffffff021916908367ffffffffffffffff16021790555050565b5f607a8281548110615b3e57615b3d619834565b5b905f5260205f20019050919050565b5f80600267ffffffffffffffff811115615b6a57615b69619119565b5b604051908082528060200260200182016040528015615b985781602001602082028036833780820191505090505b509050615bdb855f60028110615bb157615bb0619834565b5b6020020151615bd6865f60028110615bcc57615bcb619834565b5b6020020151617476565b617517565b815f81518110615bee57615bed619834565b5b602002602001018181525050615c3c85600160028110615c1157615c10619834565b5b6020020151615c3786600160028110615c2d57615c2c619834565b5b6020020151617476565b617517565b81600181518110615c5057615c4f619834565b5b602002602001018181525050615c715f8467ffffffffffffffff1683617664565b9150509392505050565b5f838383604051602001615c919392919061acc9565b6040516020818303038152906040528051906020012090509392505050565b5f606e5f9054906101000a900473ffffffffffffffffffffffffffffffffffffffff1673ffffffffffffffffffffffffffffffffffffffff166314eab5e7855f60028110615d0157615d00619834565b5b60200201358989898d5f60028110615d1c57615d1b619834565b5b602002016020810190615d2f91906181cd565b8e600160028110615d4357615d42619834565b5b602002016020810190615d5691906181cd565b8a8a6040518963ffffffff1660e01b8152600401615d7b98979695949392919061ae41565b6020604051808303815f875af1158015615d97573d5f803e3d5ffd5b505050506040513d601f19601f82011682018060405250810190615dbb919061aed6565b9050979650505050505050565b8060795f8573ffffffffffffffffffffffffffffffffffffffff1673ffffffffffffffffffffffffffffffffffffffff1681526020019081526020015f2060010160106101000a81548167ffffffffffffffff021916908367ffffffffffffffff1602179055508060795f8473ffffffffffffffffffffffffffffffffffffffff1673ffffffffffffffffffffffffffffffffffffffff1681526020019081526020015f2060010160106101000a81548167ffffffffffffffff021916908367ffffffffffffffff160217905550505050565b5f60795f8373ffffffffffffffffffffffffffffffffffffffff1673ffffffffffffffffffffffffffffffffffffffff1681526020019081526020015f2090505f615ee4612352565b9050615ef08184613d47565b15615f3c578067ffffffffffffffff168260010160089054906101000a900467ffffffffffffffff1667ffffffffffffffff1614615f3157615f306194e8565b5b615f3b818461625c565b5b5f825f01549050615f4d84826168fb565b615f5684617699565b8373ffffffffffffffffffffffffffffffffffffffff167febd093d389ab57f3566918d2c379a2b4d9539e8eb95efad9d5e465457833fde6825f604051615f9e92919061ac62565b60405180910390a250505050565b60745f3373ffffffffffffffffffffffffffffffffffffffff1673ffffffffffffffffffffffffffffffffffffffff1681526020019081526020015f205f9054906101000a900460ff168061600c5750607e5f9054906101000a900460ff165b61604b576040517f08c379a000000000000000000000000000000000000000000000000000000000815260040161604290618bd8565b60405180910390fd5b6160536119f7565b15616093576040517f08c379a000000000000000000000000000000000000000000000000000000000815260040161608a906189d0565b60405180910390fd5b61609c336122f0565b156160dc576040517f08c379a00000000000000000000000000000000000000000000000000000000081526004016160d39061af4b565b60405180910390fd5b6160e53361398f565b15616125576040517f08c379a000000000000000000000000000000000000000000000000000000000815260040161611c9061afb3565b60405180910390fd5b61612d611545565b81101561616f576040517f08c379a00000000000000000000000000000000000000000000000000000000081526004016161669061b01b565b60405180910390fd5b6161793382617993565b50565b60725f9054906101000a900473ffffffffffffffffffffffffffffffffffffffff1673ffffffffffffffffffffffffffffffffffffffff166323b872dd3330846040518463ffffffff1660e01b81526004016161da9392919061b039565b6020604051808303815f875af11580156161f6573d5f803e3d5ffd5b505050506040513d601f19601f8201168201806040525081019061621a9190619669565b616259576040517f08c379a00000000000000000000000000000000000000000000000000000000081526004016162509061b0b8565b60405180910390fd5b50565b60775f8367ffffffffffffffff1667ffffffffffffffff1681526020019081526020015f205f8273ffffffffffffffffffffffffffffffffffffffff1673ffffffffffffffffffffffffffffffffffffffff1681526020019081526020015f205f9054906101000a900460ff16616308576040517f08c379a00000000000000000000000000000000000000000000000000000000081526004016162ff90618c40565b60405180910390fd5b5f60775f8467ffffffffffffffff1667ffffffffffffffff1681526020019081526020015f205f8373ffffffffffffffffffffffffffffffffffffffff1673ffffffffffffffffffffffffffffffffffffffff1681526020019081526020015f205f6101000a81548160ff0219169083151502179055505f61638983614bc5565b905080600301601881819054906101000a900467ffffffffffffffff16809291906163b39061b0d6565b91906101000a81548167ffffffffffffffff021916908367ffffffffffffffff160217905550505f67ffffffffffffffff168367ffffffffffffffff16111561646457616416816003015f9054906101000a900467ffffffffffffffff16614bc5565b6004015f81819054906101000a900467ffffffffffffffff168092919061643c9061b0d6565b91906101000a81548167ffffffffffffffff021916908367ffffffffffffffff160217905550505b505050565b607a6001607a8054905061647d9190618fef565b8154811061648e5761648d619834565b5b905f5260205f2001607a82815481106164aa576164a9619834565b5b905f5260205f20015f82015f9054906101000a900473ffffffffffffffffffffffffffffffffffffffff16815f015f6101000a81548173ffffffffffffffffffffffffffffffffffffffff021916908373ffffffffffffffffffffffffffffffffffffffff1602179055505f820160149054906101000a900467ffffffffffffffff16815f0160146101000a81548167ffffffffffffffff021916908367ffffffffffffffff160217905550905050607a80548061656b5761656a61b0fd565b5b600190038181905f5260205f20015f8082015f6101000a81549073ffffffffffffffffffffffffffffffffffffffff02191690555f820160146101000a81549067ffffffffffffffff02191690555050905550565b80607a83815481106165d5576165d4619834565b5b905f5260205f20015f0160146101000a81548167ffffffffffffffff021916908367ffffffffffffffff1602179055505050565b5f6166357fb53127684a568b3173ae13b9f8a6016e243e63b6e8ee1178d6a717850b5d61035f1b617c58565b5f015f9054906101000a900473ffffffffffffffffffffffffffffffffffffffff16905090565b5f467f00000000000000000000000000000000000000000000000000000000000000001415905090565b5f6166b27f2b1dbce74324248c222f0ec2d5ed7bd323cfc425b336f0253c5ccfda7265546d5f1b617c58565b5f015f9054906101000a900473ffffffffffffffffffffffffffffffffffffffff16905090565b60745f3373ffffffffffffffffffffffffffffffffffffffff1673ffffffffffffffffffffffffffffffffffffffff1681526020019081526020015f205f9054906101000a900460ff16806167395750607e5f9054906101000a900460ff165b616778576040517f08c379a000000000000000000000000000000000000000000000000000000000815260040161676f90618bd8565b60405180910390fd5b6167806119f7565b156167c0576040517f08c379a00000000000000000000000000000000000000000000000000000000081526004016167b7906189d0565b60405180910390fd5b6167c982614c6c565b6167d382826167d7565b5050565b5f60795f8473ffffffffffffffffffffffffffffffffffffffff1673ffffffffffffffffffffffffffffffffffffffff1681526020019081526020015f2090505f815f015490505f838261682b919061957d565b905080835f01819055508473ffffffffffffffffffffffffffffffffffffffff167febd093d389ab57f3566918d2c379a2b4d9539e8eb95efad9d5e465457833fde6838360405161687d92919061a202565b60405180910390a25050505050565b5f60795f8373ffffffffffffffffffffffffffffffffffffffff1673ffffffffffffffffffffffffffffffffffffffff1681526020019081526020015f2090505f8160010160106101000a81548167ffffffffffffffff021916908367ffffffffffffffff1602179055505050565b5f607b5f8473ffffffffffffffffffffffffffffffffffffffff1673ffffffffffffffffffffffffffffffffffffffff1681526020019081526020015f205490505f8282616949919061957d565b905080607b5f8673ffffffffffffffffffffffffffffffffffffffff1673ffffffffffffffffffffffffffffffffffffffff1681526020019081526020015f208190555082607c5f82825461699e919061957d565b925050819055508373ffffffffffffffffffffffffffffffffffffffff167fa740af14c56e4e04a617b1de1eb20de73270decbaaead14f142aabf3038e5ae283836040516169ed92919061a202565b60405180910390a250505050565b5f60795f8373ffffffffffffffffffffffffffffffffffffffff1673ffffffffffffffffffffffffffffffffffffffff1681526020019081526020015f209050607a60405180604001604052808473ffffffffffffffffffffffffffffffffffffffff1681526020018360010160089054906101000a900467ffffffffffffffff1667ffffffffffffffff16815250908060018154018082558091505060019003905f5260205f20015f909190919091505f820151815f015f6101000a81548173ffffffffffffffffffffffffffffffffffffffff021916908373ffffffffffffffffffffffffffffffffffffffff1602179055506020820151815f0160146101000a81548167ffffffffffffffff021916908367ffffffffffffffff1602179055505050616b2982617699565b5050565b60775f8367ffffffffffffffff1667ffffffffffffffff1681526020019081526020015f205f8273ffffffffffffffffffffffffffffffffffffffff1673ffffffffffffffffffffffffffffffffffffffff1681526020019081526020015f205f9054906101000a900460ff1615616bda576040517f08c379a0000000000000000000000000000000000000000000000000000000008152600401616bd19061af4b565b60405180910390fd5b600160775f8467ffffffffffffffff1667ffffffffffffffff1681526020019081526020015f205f8373ffffffffffffffffffffffffffffffffffffffff1673ffffffffffffffffffffffffffffffffffffffff1681526020019081526020015f205f6101000a81548160ff0219169083151502179055505f616c5c83614bc5565b90505f8160030160089054906101000a900467ffffffffffffffff1667ffffffffffffffff1603616cc2576040517f08c379a0000000000000000000000000000000000000000000000000000000008152600401616cb990619fac565b60405180910390fd5b5f8160030160189054906101000a900467ffffffffffffffff169050600181616ceb919061a0f7565b8260030160186101000a81548167ffffffffffffffff021916908367ffffffffffffffff1602179055505f67ffffffffffffffff168467ffffffffffffffff161115616de9575f616d52836003015f9054906101000a900467ffffffffffffffff16614bc5565b9050806004015f81819054906101000a900467ffffffffffffffff1680929190616d7b9061a5ec565b91906101000a81548167ffffffffffffffff021916908367ffffffffffffffff160217905550505f8267ffffffffffffffff1603616de757616de660655f9054906101000a900467ffffffffffffffff1643616dd7919061a0f7565b82617c6190919063ffffffff16565b5b505b50505050565b5f616e0b835f01803603810190616e06919061933e565b617476565b82846080016020810190616e1f91906190da565b604051602001616e319392919061b15e565b60405160208183030381529060405280519060200120905092915050565b5f8160200151600160028110616e6857616e67619834565b5b60200201519050919050565b5f616e7d617e32565b825f015160200151815f60028110616e9857616e97619834565b5b60200201906003811115616eaf57616eae61908a565b5b90816003811115616ec357616ec261908a565b5b8152505082602001516020015181600160028110616ee457616ee3619834565b5b60200201906003811115616efb57616efa61908a565b5b90816003811115616f0f57616f0e61908a565b5b81525050616f1b617e54565b835f01515f0151815f60028110616f3557616f34619834565b5b602002018190525083602001515f015181600160028110616f5957616f58619834565b5b6020020181905250616f7082828660400151615b4d565b92505050919050565b5f8086616f86575f616f89565b60015b90508086868686604051602001616fa495949392919061b1bd565b6040516020818303038152906040528051906020012091505095945050505050565b5f616fef616fda83602001515f0151617c90565b616fea84602001515f0151617cb3565b617444565b9050919050565b616ffe617cd7565b617006617cd7565b87815f018181525050868160200181815250508581604001818152505084816060019067ffffffffffffffff16908167ffffffffffffffff168152505083816080019067ffffffffffffffff16908167ffffffffffffffff1681525050838160a0019067ffffffffffffffff16908167ffffffffffffffff16815250504381610140019067ffffffffffffffff16908167ffffffffffffffff16815250508281610160018181525050809150509695505050505050565b5f8260040160089054906101000a900467ffffffffffffffff1667ffffffffffffffff160361711257438260040160086101000a81548167ffffffffffffffff021916908367ffffffffffffffff1602179055505b808260040160106101000a81548167ffffffffffffffff021916908367ffffffffffffffff1602179055505050565b6075601081819054906101000a900467ffffffffffffffff16809291906171679061a5ec565b91906101000a81548167ffffffffffffffff021916908367ffffffffffffffff160217905550508060765f607560109054906101000a900467ffffffffffffffff1667ffffffffffffffff1667ffffffffffffffff1681526020019081526020015f205f820151815f015560208201518160010155604082015181600201556060820151816003015f6101000a81548167ffffffffffffffff021916908367ffffffffffffffff16021790555060808201518160030160086101000a81548167ffffffffffffffff021916908367ffffffffffffffff16021790555060a08201518160030160106101000a81548167ffffffffffffffff021916908367ffffffffffffffff16021790555060c08201518160030160186101000a81548167ffffffffffffffff021916908367ffffffffffffffff16021790555060e0820151816004015f6101000a81548167ffffffffffffffff021916908367ffffffffffffffff1602179055506101008201518160040160086101000a81548167ffffffffffffffff021916908367ffffffffffffffff1602179055506101208201518160040160106101000a81548167ffffffffffffffff021916908367ffffffffffffffff1602179055506101408201518160040160186101000a81548167ffffffffffffffff021916908367ffffffffffffffff16021790555061016082015181600501559050507f00000000000000000000000000000000000000000000000000000000000000001561744157606473ffffffffffffffffffffffffffffffffffffffff1663a3b1b31d6040518163ffffffff1660e01b8152600401602060405180830381865afa1580156173dd573d5f803e3d5ffd5b505050506040513d601f19601f82011682018060405250810190617401919061a489565b607f5f607560109054906101000a900467ffffffffffffffff1667ffffffffffffffff1667ffffffffffffffff1681526020019081526020015f20819055505b50565b5f828260405160200161745892919061b21b565b60405160208183030381529060405280519060200120905092915050565b5f815f01515f6002811061748d5761748c619834565b5b6020020151825f01516001600281106174a9576174a8619834565b5b602002015183602001515f600281106174c5576174c4619834565b5b602002015184602001516001600281106174e2576174e1619834565b5b60200201516040516020016174fa949392919061b2ce565b604051602081830303815290604052805190602001209050919050565b5f6001600381111561752c5761752b61908a565b5b83600381111561753f5761753e61908a565b5b036175725781604051602001617555919061b370565b60405160208183030381529060405280519060200120905061765e565b600260038111156175865761758561908a565b5b8360038111156175995761759861908a565b5b036175cc57816040516020016175af919061b3df565b60405160208183030381529060405280519060200120905061765e565b6003808111156175df576175de61908a565b5b8360038111156175f2576175f161908a565b5b03617623576040516020016176069061b44e565b60405160208183030381529060405280519060200120905061765e565b6040517f08c379a00000000000000000000000000000000000000000000000000000000081526004016176559061b4ac565b60405180910390fd5b92915050565b5f83838360405160200161767a9392919061b57b565b6040516020818303038152906040528051906020012090509392505050565b5f60795f8373ffffffffffffffffffffffffffffffffffffffff1673ffffffffffffffffffffffffffffffffffffffff1681526020019081526020015f2090508060010160189054906101000a900460ff1661772a576040517f08c379a000000000000000000000000000000000000000000000000000000000815260040161772190618c40565b60405180910390fd5b5f816001015f9054906101000a900467ffffffffffffffff169050607860016078805490506177599190618fef565b8154811061776a57617769619834565b5b905f5260205f20015f9054906101000a900473ffffffffffffffffffffffffffffffffffffffff1660788267ffffffffffffffff16815481106177b0576177af619834565b5b905f5260205f20015f6101000a81548173ffffffffffffffffffffffffffffffffffffffff021916908373ffffffffffffffffffffffffffffffffffffffff1602179055508060795f60788467ffffffffffffffff168154811061781757617816619834565b5b905f5260205f20015f9054906101000a900473ffffffffffffffffffffffffffffffffffffffff1673ffffffffffffffffffffffffffffffffffffffff1673ffffffffffffffffffffffffffffffffffffffff1681526020019081526020015f206001015f6101000a81548167ffffffffffffffff021916908367ffffffffffffffff16021790555060788054806178b2576178b161b0fd565b5b600190038181905f5260205f20015f6101000a81549073ffffffffffffffffffffffffffffffffffffffff0219169055905560795f8473ffffffffffffffffffffffffffffffffffffffff1673ffffffffffffffffffffffffffffffffffffffff1681526020019081526020015f205f8082015f9055600182015f6101000a81549067ffffffffffffffff02191690556001820160086101000a81549067ffffffffffffffff02191690556001820160106101000a81549067ffffffffffffffff02191690556001820160186101000a81549060ff02191690555050505050565b5f6078805490509050607883908060018154018082558091505060019003905f5260205f20015f9091909190916101000a81548173ffffffffffffffffffffffffffffffffffffffff021916908373ffffffffffffffffffffffffffffffffffffffff1602179055506040518060a001604052808381526020018267ffffffffffffffff16815260200160755f9054906101000a900467ffffffffffffffff1667ffffffffffffffff1681526020015f67ffffffffffffffff1681526020016001151581525060795f8573ffffffffffffffffffffffffffffffffffffffff1673ffffffffffffffffffffffffffffffffffffffff1681526020019081526020015f205f820151815f01556020820151816001015f6101000a81548167ffffffffffffffff021916908367ffffffffffffffff16021790555060408201518160010160086101000a81548167ffffffffffffffff021916908367ffffffffffffffff16021790555060608201518160010160106101000a81548167ffffffffffffffff021916908367ffffffffffffffff16021790555060808201518160010160186101000a81548160ff021916908315150217905550905050600160775f60755f9054906101000a900467ffffffffffffffff1667ffffffffffffffff1667ffffffffffffffff1681526020019081526020015f205f8573ffffffffffffffffffffffffffffffffffffffff1673ffffffffffffffffffffffffffffffffffffffff1681526020019081526020015f205f6101000a81548160ff02191690831515021790555043607560186101000a81548167ffffffffffffffff021916908367ffffffffffffffff1602179055508273ffffffffffffffffffffffffffffffffffffffff167febd093d389ab57f3566918d2c379a2b4d9539e8eb95efad9d5e465457833fde65f84604051617c4b92919061b5b3565b60405180910390a2505050565b5f819050919050565b808260030160106101000a81548167ffffffffffffffff021916908367ffffffffffffffff1602179055505050565b5f815f01515f60028110617ca757617ca6619834565b5b60200201519050919050565b5f815f0151600160028110617ccb57617cca619834565b5b60200201519050919050565b6040518061018001604052805f80191681526020015f80191681526020015f80191681526020015f67ffffffffffffffff1681526020015f67ffffffffffffffff1681526020015f67ffffffffffffffff1681526020015f67ffffffffffffffff1681526020015f67ffffffffffffffff1681526020015f67ffffffffffffffff1681526020015f67ffffffffffffffff1681526020015f67ffffffffffffffff1681526020015f80191681525090565b6040518060a001604052805f81526020015f67ffffffffffffffff1681526020015f67ffffffffffffffff1681526020015f67ffffffffffffffff1681526020015f151581525090565b6040518061010001604052805f8152602001617dec617cd7565b81526020015f8019168152602001617e02617cd7565b81526020015f80191681526020015f151581526020015f67ffffffffffffffff1681526020015f80191681525090565b6040518060400160405280600290602082028036833780820191505090505090565b60405180604001604052806002905b617e6b617e81565b815260200190600190039081617e635790505090565b6040518060400160405280617e94617ea7565b8152602001617ea1617ec9565b81525090565b6040518060400160405280600290602082028036833780820191505090505090565b6040518060400160405280600290602082028036833780820191505090505090565b5f73ffffffffffffffffffffffffffffffffffffffff82169050919050565b5f617f1482617eeb565b9050919050565b617f2481617f0a565b82525050565b5f602082019050617f3d5f830184617f1b565b92915050565b5f819050919050565b5f617f66617f61617f5c84617eeb565b617f43565b617eeb565b9050919050565b5f617f7782617f4c565b9050919050565b5f617f8882617f6d565b9050919050565b617f9881617f7e565b82525050565b5f602082019050617fb15f830184617f8f565b92915050565b5f604051905090565b5f80fd5b5f819050919050565b617fd681617fc4565b8114617fe0575f80fd5b50565b5f81359050617ff181617fcd565b92915050565b61800081617f0a565b811461800a575f80fd5b50565b5f8135905061801b81617ff7565b92915050565b5f805f6060848603121561803857618037617fc0565b5b5f61804586828701617fe3565b93505060206180568682870161800d565b92505060406180678682870161800d565b9150509250925092565b5f8115159050919050565b61808581618071565b82525050565b5f60208201905061809e5f83018461807c565b92915050565b5f67ffffffffffffffff82169050919050565b6180c0816180a4565b81146180ca575f80fd5b50565b5f813590506180db816180b7565b92915050565b5f819050919050565b6180f3816180e1565b81146180fd575f80fd5b50565b5f8135905061810e816180ea565b92915050565b5f806040838503121561812a57618129617fc0565b5b5f618137858286016180cd565b925050602061814885828601618100565b9150509250929050565b61815b81617fc4565b82525050565b5f6020820190506181745f830184618152565b92915050565b5f6020828403121561818f5761818e617fc0565b5b5f61819c84828501617fe3565b91505092915050565b6181ae816180a4565b82525050565b5f6020820190506181c75f8301846181a5565b92915050565b5f602082840312156181e2576181e1617fc0565b5b5f6181ef8482850161800d565b91505092915050565b618201816180e1565b82525050565b5f60208201905061821a5f8301846181f8565b92915050565b5f80fd5b5f610160828403121561823a57618239618220565b5b81905092915050565b5f805f6101a0848603121561825b5761825a617fc0565b5b5f61826886828701618224565b93505061016061827a86828701618100565b92505061018061828c86828701617fe3565b9150509250925092565b5f602082840312156182ab576182aa617fc0565b5b5f6182b8848285016180cd565b91505092915050565b5f80604083850312156182d7576182d6617fc0565b5b5f6182e485828601618100565b92505060206182f585828601618100565b9150509250929050565b5f80fd5b5f8190508260206002028201111561831e5761831d6182ff565b5b92915050565b5f8190508260206002028201111561833f5761833e6182ff565b5b92915050565b5f819050826020600202820111156183605761835f6182ff565b5b92915050565b5f81905082608060020282011115618381576183806182ff565b5b92915050565b5f819050826020600202820111156183a2576183a16182ff565b5b92915050565b5f819050826020600202820111156183c3576183c26182ff565b5b92915050565b5f805f805f805f80610280898b0312156183e6576183e5617fc0565b5b5f6183f38b828c01618303565b98505060406184048b828c01618324565b97505060806184158b828c01618345565b96505060c06184268b828c01618366565b9550506101c06184388b828c016180cd565b9450506101e061844a8b828c01618100565b93505061020061845c8b828c01618387565b92505061024061846e8b828c016183a8565b9150509295985092959890939650565b5f805f6060848603121561849557618494617fc0565b5b5f6184a286828701617fe3565b93505060206184b3868287016180cd565b92505060406184c486828701618100565b9150509250925092565b5f80604083850312156184e4576184e3617fc0565b5b5f6184f185828601617fe3565b925050602061850285828601617fe3565b9150509250929050565b618515816180e1565b82525050565b618524816180a4565b82525050565b61018082015f82015161853f5f85018261850c565b506020820151618552602085018261850c565b506040820151618565604085018261850c565b506060820151618578606085018261851b565b50608082015161858b608085018261851b565b5060a082015161859e60a085018261851b565b5060c08201516185b160c085018261851b565b5060e08201516185c460e085018261851b565b506101008201516185d961010085018261851b565b506101208201516185ee61012085018261851b565b5061014082015161860361014085018261851b565b5061016082015161861861016085018261850c565b50505050565b5f610180820190506186325f83018461852a565b92915050565b61864181617fc4565b82525050565b61865081618071565b82525050565b60a082015f82015161866a5f850182618638565b50602082015161867d602085018261851b565b506040820151618690604085018261851b565b5060608201516186a3606085018261851b565b5060808201516186b66080850182618647565b50505050565b5f60a0820190506186cf5f830184618656565b92915050565b5f6186df82617f6d565b9050919050565b6186ef816186d5565b82525050565b5f6020820190506187085f8301846186e6565b92915050565b5f806040838503121561872457618723617fc0565b5b5f618731858286016180cd565b92505060206187428582860161800d565b9150509250929050565b5f805f6060848603121561876357618762617fc0565b5b5f61877086828701617fe3565b9350506020618781868287016180cd565b9250506040618792868287016180cd565b9150509250925092565b5f6187a682617f6d565b9050919050565b6187b68161879c565b82525050565b5f6020820190506187cf5f8301846187ad565b92915050565b5f805f806101c085870312156187ee576187ed617fc0565b5b5f6187fb87828801617fe3565b945050602061880c87828801618224565b93505061018061881e87828801618100565b9250506101a061883087828801617fe3565b91505092959194509250565b5f61884682617f6d565b9050919050565b6188568161883c565b82525050565b5f60208201905061886f5f83018461884d565b92915050565b5f60a0820190506188885f830188618152565b61889560208301876181a5565b6188a260408301866181a5565b6188af60608301856181a5565b6188bc608083018461807c565b9695505050505050565b5f6188d082617f6d565b9050919050565b6188e0816188c6565b82525050565b5f6020820190506188f95f8301846188d7565b92915050565b5f806040838503121561891557618914617fc0565b5b5f6189228582860161800d565b925050602061893385828601617fe3565b9150509250929050565b5f61894782617f6d565b9050919050565b6189578161893d565b82525050565b5f6020820190506189705f83018461894e565b92915050565b5f82825260208201905092915050565b7f5061757361626c653a20706175736564000000000000000000000000000000005f82015250565b5f6189ba601083618976565b91506189c582618986565b602082019050919050565b5f6020820190508181035f8301526189e7816189ae565b9050919050565b7f57524f4e475f53454e44455200000000000000000000000000000000000000005f82015250565b5f618a22600c83618976565b9150618a2d826189ee565b602082019050919050565b5f6020820190508181035f830152618a4f81618a16565b9050919050565b7f4e4f545f494e5f4348414c0000000000000000000000000000000000000000005f82015250565b5f618a8a600b83618976565b9150618a9582618a56565b602082019050919050565b5f6020820190508181035f830152618ab781618a7e565b9050919050565b7f57484954454c4953545f44495341424c454400000000000000000000000000005f82015250565b5f618af2601283618976565b9150618afd82618abe565b602082019050919050565b5f6020820190508181035f830152618b1f81618ae6565b9050919050565b7f56414c494441544f525f4e4f545f41464b0000000000000000000000000000005f82015250565b5f618b5a601183618976565b9150618b6582618b26565b602082019050919050565b5f6020820190508181035f830152618b8781618b4e565b9050919050565b7f4e4f545f56414c494441544f52000000000000000000000000000000000000005f82015250565b5f618bc2600d83618976565b9150618bcd82618b8e565b602082019050919050565b5f6020820190508181035f830152618bef81618bb6565b9050919050565b7f4e4f545f5354414b4544000000000000000000000000000000000000000000005f82015250565b5f618c2a600a83618976565b9150618c3582618bf6565b602082019050919050565b5f6020820190508181035f830152618c5781618c1e565b9050919050565b7f4e4f44455f4e554d5f4f55545f4f465f52414e474500000000000000000000005f82015250565b5f618c92601583618976565b9150618c9d82618c5e565b602082019050919050565b5f6020820190508181035f830152618cbf81618c86565b9050919050565b7f4e4f44455f52454f5247000000000000000000000000000000000000000000005f82015250565b5f618cfa600a83618976565b9150618d0582618cc6565b602082019050919050565b5f6020820190508181035f830152618d2781618cee565b9050919050565b7f4e4f545f5354414b45445f5052455600000000000000000000000000000000005f82015250565b5f618d62600f83618976565b9150618d6d82618d2e565b602082019050919050565b5f6020820190508181035f830152618d8f81618d56565b9050919050565b5f618da082617f0a565b9050919050565b618db081618d96565b8114618dba575f80fd5b50565b5f81519050618dcb81618da7565b92915050565b5f60208284031215618de657618de5617fc0565b5b5f618df384828501618dbd565b91505092915050565b7f5041555345445f414e445f4143544956450000000000000000000000000000005f82015250565b5f618e30601183618976565b9150618e3b82618dfc565b602082019050919050565b5f6020820190508181035f830152618e5d81618e24565b9050919050565b7f414c52454144595f4445434944454400000000000000000000000000000000005f82015250565b5f618e98600f83618976565b9150618ea382618e64565b602082019050919050565b5f6020820190508181035f830152618ec581618e8c565b9050919050565b7f444f45534e545f455849535400000000000000000000000000000000000000005f82015250565b5f618f00600c83618976565b9150618f0b82618ecc565b602082019050919050565b5f6020820190508181035f830152618f2d81618ef4565b9050919050565b7f555550534e6f745570677261646561626c653a206d757374206e6f74206265205f8201527f63616c6c6564207468726f7567682064656c656761746563616c6c0000000000602082015250565b5f618f8e603b83618976565b9150618f9982618f34565b604082019050919050565b5f6020820190508181035f830152618fbb81618f82565b9050919050565b7f4e487b71000000000000000000000000000000000000000000000000000000005f52601160045260245ffd5b5f618ff982617fc4565b915061900483617fc4565b925082820390508181111561901c5761901b618fc2565b5b92915050565b7f54494d455f44454c5441000000000000000000000000000000000000000000005f82015250565b5f619056600a83618976565b915061906182619022565b602082019050919050565b5f6020820190508181035f8301526190838161904a565b9050919050565b7f4e487b71000000000000000000000000000000000000000000000000000000005f52602160045260245ffd5b600481106190c3575f80fd5b50565b5f813590506190d4816190b7565b92915050565b5f602082840312156190ef576190ee617fc0565b5b5f6190fc848285016190c6565b91505092915050565b5f80fd5b5f601f19601f8301169050919050565b7f4e487b71000000000000000000000000000000000000000000000000000000005f52604160045260245ffd5b61914f82619109565b810181811067ffffffffffffffff8211171561916e5761916d619119565b5b80604052505050565b5f619180617fb7565b905061918c8282619146565b919050565b5f80fd5b5f67ffffffffffffffff8211156191af576191ae619119565b5b602082029050919050565b5f6191cc6191c784619195565b619177565b905080602084028301858111156191e6576191e56182ff565b5b835b8181101561920f57806191fb8882618100565b8452602084019350506020810190506191e8565b5050509392505050565b5f82601f83011261922d5761922c619191565b5b600261923a8482856191ba565b91505092915050565b5f67ffffffffffffffff82111561925d5761925c619119565b5b602082029050919050565b5f61927a61927584619243565b619177565b90508060208402830185811115619294576192936182ff565b5b835b818110156192bd57806192a988826180cd565b845260208401935050602081019050619296565b5050509392505050565b5f82601f8301126192db576192da619191565b5b60026192e8848285619268565b91505092915050565b5f6080828403121561930657619305619105565b5b6193106040619177565b90505f61931f84828501619219565b5f830152506040619332848285016192c7565b60208301525092915050565b5f6080828403121561935357619352617fc0565b5b5f619360848285016192f1565b91505092915050565b7f544f4f5f534d414c4c00000000000000000000000000000000000000000000005f82015250565b5f61939d600983618976565b91506193a882619369565b602082019050919050565b5f6020820190508181035f8301526193ca81619391565b9050919050565b7f454d5054595f415353455254494f4e00000000000000000000000000000000005f82015250565b5f619405600f83618976565b9150619410826193d1565b602082019050919050565b5f6020820190508181035f830152619432816193f9565b9050919050565b7f4241445f505245565f53544154555300000000000000000000000000000000005f82015250565b5f61946d600f83618976565b915061947882619439565b602082019050919050565b5f6020820190508181035f83015261949a81619461565b9050919050565b5f6194ab82617fc4565b91507fffffffffffffffffffffffffffffffffffffffffffffffffffffffffffffffff82036194dd576194dc618fc2565b5b600182019050919050565b7f4e487b71000000000000000000000000000000000000000000000000000000005f52600160045260245ffd5b7f4e4f5f5354414b455253000000000000000000000000000000000000000000005f82015250565b5f619549600a83618976565b915061955482619515565b602082019050919050565b5f6020820190508181035f8301526195768161953d565b9050919050565b5f61958782617fc4565b915061959283617fc4565b92508282019050808211156195aa576195a9618fc2565b5b92915050565b7f4e4f545f414c4c5f5354414b45440000000000000000000000000000000000005f82015250565b5f6195e4600e83618976565b91506195ef826195b0565b602082019050919050565b5f6020820190508181035f830152619611816195d8565b9050919050565b5f60408201905061962b5f830185617f1b565b6196386020830184618152565b9392505050565b61964881618071565b8114619652575f80fd5b50565b5f815190506196638161963f565b92915050565b5f6020828403121561967e5761967d617fc0565b5b5f61968b84828501619655565b91505092915050565b7f5452414e534645525f4641494c454400000000000000000000000000000000005f82015250565b5f6196c8600f83618976565b91506196d382619694565b602082019050919050565b5f6020820190508181035f8301526196f5816196bc565b9050919050565b7f4e4f5f554e5245534f4c564544000000000000000000000000000000000000005f82015250565b5f619730600d83618976565b915061973b826196fc565b602082019050919050565b5f6020820190508181035f83015261975d81619724565b9050919050565b7f5354414b45445f4f4e5f544152474554000000000000000000000000000000005f82015250565b5f619798601083618976565b91506197a382619764565b602082019050919050565b5f6020820190508181035f8301526197c58161978c565b9050919050565b7f4841535f5354414b4552530000000000000000000000000000000000000000005f82015250565b5f619800600b83618976565b915061980b826197cc565b602082019050919050565b5f6020820190508181035f83015261982d816197f4565b9050919050565b7f4e487b71000000000000000000000000000000000000000000000000000000005f52603260045260245ffd5b7f57524f4e475f4f524445520000000000000000000000000000000000000000005f82015250565b5f619895600b83618976565b91506198a082619861565b602082019050919050565b5f6020820190508181035f8301526198c281619889565b9050919050565b7f4e4f545f50524f504f53454400000000000000000000000000000000000000005f82015250565b5f6198fd600c83618976565b9150619908826198c9565b602082019050919050565b5f6020820190508181035f83015261992a816198f1565b9050919050565b7f414c52454144595f434f4e4649524d45440000000000000000000000000000005f82015250565b5f619965601183618976565b915061997082619931565b602082019050919050565b5f6020820190508181035f83015261999281619959565b9050919050565b7f444946465f5052455600000000000000000000000000000000000000000000005f82015250565b5f6199cd600983618976565b91506199d882619999565b602082019050919050565b5f6020820190508181035f8301526199fa816199c1565b9050919050565b7f5354414b4552315f4e4f545f5354414b454400000000000000000000000000005f82015250565b5f619a35601283618976565b9150619a4082619a01565b602082019050919050565b5f6020820190508181035f830152619a6281619a29565b9050919050565b7f5354414b4552325f4e4f545f5354414b454400000000000000000000000000005f82015250565b5f619a9d601283618976565b9150619aa882619a69565b602082019050919050565b5f6020820190508181035f830152619aca81619a91565b9050919050565b7f4348414c5f4841534831000000000000000000000000000000000000000000005f82015250565b5f619b05600a83618976565b9150619b1082619ad1565b602082019050919050565b5f6020820190508181035f830152619b3281619af9565b9050919050565b7f4348414c5f4841534832000000000000000000000000000000000000000000005f82015250565b5f619b6d600a83618976565b9150619b7882619b39565b602082019050919050565b5f6020820190508181035f830152619b9a81619b61565b9050919050565b5f619bab82617fc4565b9150619bb683617fc4565b9250828202619bc481617fc4565b91508282048414831517619bdb57619bda618fc2565b5b5092915050565b5f606082019050619bf55f830186617f1b565b619c026020830185617f1b565b619c0f60408301846181a5565b949350505050565b7f544f4f5f524543454e54000000000000000000000000000000000000000000005f82015250565b5f619c4b600a83618976565b9150619c5682619c17565b602082019050919050565b5f6020820190508181035f830152619c7881619c3f565b9050919050565b7f4e4f5f535543485f5a4f4d4249450000000000000000000000000000000000005f82015250565b5f619cb3600e83618976565b9150619cbe82619c7f565b602082019050919050565b5f6020820190508181035f830152619ce081619ca7565b9050919050565b7f434841494e5f49445f4e4f545f4348414e4745440000000000000000000000005f82015250565b5f619d1b601483618976565b9150619d2682619ce7565b602082019050919050565b5f6020820190508181035f830152619d4881619d0f565b9050919050565b7f46756e6374696f6e206d7573742062652063616c6c6564207468726f756768205f8201527f64656c656761746563616c6c0000000000000000000000000000000000000000602082015250565b5f619da9602c83618976565b9150619db482619d4f565b604082019050919050565b5f6020820190508181035f830152619dd681619d9d565b9050919050565b7f46756e6374696f6e206d7573742062652063616c6c6564207468726f756768205f8201527f6163746976652070726f78790000000000000000000000000000000000000000602082015250565b5f619e37602c83618976565b9150619e4282619ddd565b604082019050919050565b5f6020820190508181035f830152619e6481619e2b565b9050919050565b7f4e4545445f5354414b455f544f4b454e000000000000000000000000000000005f82015250565b5f619e9f601083618976565b9150619eaa82619e6b565b602082019050919050565b5f6020820190508181035f830152619ecc81619e93565b9050919050565b7f46414345545f4e4f545f455243323000000000000000000000000000000000005f82015250565b5f619f07600f83618976565b9150619f1282619ed3565b602082019050919050565b5f6020820190508181035f830152619f3481619efb565b9050919050565b5f619f4582617fc4565b91505f8203619f5757619f56618fc2565b5b600182039050919050565b7f4e4f5f4e4f4445000000000000000000000000000000000000000000000000005f82015250565b5f619f96600783618976565b9150619fa182619f62565b602082019050919050565b5f6020820190508181035f830152619fc381619f8a565b9050919050565b7f4e4f5f4348414c000000000000000000000000000000000000000000000000005f82015250565b5f619ffe600783618976565b915061a00982619fca565b602082019050919050565b5f6020820190508181035f83015261a02b81619ff2565b9050919050565b7f444946465f494e5f4348414c00000000000000000000000000000000000000005f82015250565b5f61a066600c83618976565b915061a0718261a032565b602082019050919050565b5f6020820190508181035f83015261a0938161a05a565b9050919050565b7f4e487b71000000000000000000000000000000000000000000000000000000005f52601260045260245ffd5b5f61a0d182617fc4565b915061a0dc83617fc4565b92508261a0ec5761a0eb61a09a565b5b828204905092915050565b5f61a101826180a4565b915061a10c836180a4565b9250828201905067ffffffffffffffff81111561a12c5761a12b618fc2565b5b92915050565b7f494e5f4348414c000000000000000000000000000000000000000000000000005f82015250565b5f61a166600783618976565b915061a1718261a132565b602082019050919050565b5f6020820190508181035f83015261a1938161a15a565b9050919050565b7f544f4f5f4c4954544c455f5354414b45000000000000000000000000000000005f82015250565b5f61a1ce601083618976565b915061a1d98261a19a565b602082019050919050565b5f6020820190508181035f83015261a1fb8161a1c2565b9050919050565b5f60408201905061a2155f830185618152565b61a2226020830184618152565b9392505050565b5f61a233826180a4565b915061a23e836180a4565b9250828203905067ffffffffffffffff81111561a25e5761a25d618fc2565b5b92915050565b5f8160011c9050919050565b5f808291508390505b600185111561a2b95780860481111561a2955761a294618fc2565b5b600185161561a2a45780820291505b808102905061a2b28561a264565b945061a279565b94509492505050565b5f8261a2d1576001905061a38c565b8161a2de575f905061a38c565b816001811461a2f4576002811461a2fe5761a32d565b600191505061a38c565b60ff84111561a3105761a30f618fc2565b5b8360020a91508482111561a3275761a326618fc2565b5b5061a38c565b5060208310610133831016604e8410600b841016171561a3625782820a90508381111561a35d5761a35c618fc2565b5b61a38c565b61a36f848484600161a270565b9250905081840481111561a3865761a385618fc2565b5b81810290505b9392505050565b5f61a39d82617fc4565b915061a3a883617fc4565b925061a3d57fffffffffffffffffffffffffffffffffffffffffffffffffffffffffffffffff848461a2c2565b905092915050565b5f61a3e782617fc4565b915061a3f283617fc4565b92508261a4025761a40161a09a565b5b828206905092915050565b7f4241445f41465445525f535441545553000000000000000000000000000000005f82015250565b5f61a441601083618976565b915061a44c8261a40d565b602082019050919050565b5f6020820190508181035f83015261a46e8161a435565b9050919050565b5f8151905061a48381617fcd565b92915050565b5f6020828403121561a49e5761a49d617fc0565b5b5f61a4ab8482850161a475565b91505092915050565b7f505245565f53544154455f4841534800000000000000000000000000000000005f82015250565b5f61a4e8600f83618976565b915061a4f38261a4b4565b602082019050919050565b5f6020820190508181035f83015261a5158161a4dc565b9050919050565b7f494e424f585f4241434b574152445300000000000000000000000000000000005f82015250565b5f61a550600f83618976565b915061a55b8261a51c565b602082019050919050565b5f6020820190508181035f83015261a57d8161a544565b9050919050565b7f494e424f585f504f535f494e5f4d53475f4241434b57415244530000000000005f82015250565b5f61a5b8601a83618976565b915061a5c38261a584565b602082019050919050565b5f6020820190508181035f83015261a5e58161a5ac565b9050919050565b5f61a5f6826180a4565b915067ffffffffffffffff820361a6105761a60f618fc2565b5b600182019050919050565b7f494e424f585f504153545f454e440000000000000000000000000000000000005f82015250565b5f61a64f600e83618976565b915061a65a8261a61b565b602082019050919050565b5f6020820190508181035f83015261a67c8161a643565b9050919050565b5f61a69d61a69861a693846180a4565b617f43565b617fc4565b9050919050565b61a6ad8161a683565b82525050565b5f60208201905061a6c65f83018461a6a4565b92915050565b5f8151905061a6da816180ea565b92915050565b5f6020828403121561a6f55761a6f4617fc0565b5b5f61a7028482850161a6cc565b91505092915050565b5f60a0828403121561a7205761a71f619105565b5b61a72a6040619177565b90505f61a739848285016192f1565b5f83015250608061a74c848285016190c6565b60208301525092915050565b5f610160828403121561a76e5761a76d619105565b5b61a7786060619177565b90505f61a7878482850161a70b565b5f8301525060a061a79a8482850161a70b565b60208301525061014061a7af848285016180cd565b60408301525092915050565b5f610160828403121561a7d15761a7d0617fc0565b5b5f61a7de8482850161a758565b91505092915050565b7f554e45585045435445445f4e4f44455f484153480000000000000000000000005f82015250565b5f61a81b601483618976565b915061a8268261a7e7565b602082019050919050565b5f6020820190508181035f83015261a8488161a80f565b9050919050565b5f82905092915050565b5f82905092915050565b5f82905092915050565b82818337505050565b61a8826040838361a86d565b5050565b5f82905092915050565b5f60029050919050565b5f81905092915050565b5f819050919050565b5f61a8b8838361851b565b60208301905092915050565b5f61a8d260208401846180cd565b905092915050565b5f602082019050919050565b61a8ef8161a890565b61a8f9818461a89a565b925061a9048261a8a4565b805f5b8381101561a93c5761a919828461a8c4565b61a923878261a8ad565b965061a92e8361a8da565b92505060018101905061a907565b505050505050565b6080820161a9545f83018361a863565b61a9605f85018261a876565b5061a96e604083018361a886565b61a97b604085018261a8e6565b50505050565b5f61a98f60208401846190c6565b905092915050565b6004811061a9a85761a9a761908a565b5b50565b5f81905061a9b88261a997565b919050565b5f61a9c78261a9ab565b9050919050565b61a9d78161a9bd565b82525050565b60a0820161a9ed5f83018361a859565b61a9f95f85018261a944565b5061aa07608083018361a981565b61aa14608085018261a9ce565b50505050565b610160820161aa2b5f83018361a84f565b61aa375f85018261a9dd565b5061aa4560a083018361a84f565b61aa5260a085018261a9dd565b5061aa6161014083018361a8c4565b61aa6f61014085018261851b565b50505050565b5f6101e08201905061aa895f8301886181f8565b61aa96602083018761aa1a565b61aaa46101808301866181f8565b61aab26101a08301856181f8565b61aac06101c0830184618152565b9695505050505050565b7f4245464f52455f444541444c494e4500000000000000000000000000000000005f82015250565b5f61aafe600f83618976565b915061ab098261aaca565b602082019050919050565b5f6020820190508181035f83015261ab2b8161aaf2565b9050919050565b7f4348494c445f544f4f5f524543454e54000000000000000000000000000000005f82015250565b5f61ab66601083618976565b915061ab718261ab32565b602082019050919050565b5f6020820190508181035f83015261ab938161ab5a565b9050919050565b7f434f4e4649524d5f4441544100000000000000000000000000000000000000005f82015250565b5f61abce600c83618976565b915061abd98261ab9a565b602082019050919050565b5f6020820190508181035f83015261abfb8161abc2565b9050919050565b5f60408201905061ac155f8301856181f8565b61ac2260208301846181f8565b9392505050565b5f819050919050565b5f61ac4c61ac4761ac428461ac29565b617f43565b617fc4565b9050919050565b61ac5c8161ac32565b82525050565b5f60408201905061ac755f830185618152565b61ac82602083018461ac53565b9392505050565b5f819050919050565b61aca361ac9e826180e1565b61ac89565b82525050565b5f819050919050565b61acc361acbe82617fc4565b61aca9565b82525050565b5f61acd4828661ac92565b60208201915061ace4828561acb2565b60208201915061acf4828461ac92565b602082019150819050949350505050565b5f60029050919050565b5f81905092915050565b5f819050919050565b5f61ad2d838361a9ce565b60208301905092915050565b5f602082019050919050565b61ad4e8161ad05565b61ad58818461ad0f565b925061ad638261ad19565b805f5b8381101561ad9b5761ad78828461a981565b61ad82878261ad22565b965061ad8d8361ad39565b92505060018101905061ad66565b505050505050565b5f60029050919050565b5f81905092915050565b5f819050919050565b5f61adcb838361a944565b60808301905092915050565b5f608082019050919050565b61adec8161ada3565b61adf6818461adad565b925061ae018261adb7565b805f5b8381101561ae395761ae16828461a859565b61ae20878261adc0565b965061ae2b8361add7565b92505060018101905061ae04565b505050505050565b5f6102008201905061ae555f83018b6181f8565b61ae62602083018a61ad45565b61ae6f606083018961ade3565b61ae7d6101608301886181a5565b61ae8b610180830187617f1b565b61ae996101a0830186617f1b565b61aea76101c0830185618152565b61aeb56101e0830184618152565b9998505050505050505050565b5f8151905061aed0816180b7565b92915050565b5f6020828403121561aeeb5761aeea617fc0565b5b5f61aef88482850161aec2565b91505092915050565b7f414c52454144595f5354414b45440000000000000000000000000000000000005f82015250565b5f61af35600e83618976565b915061af408261af01565b602082019050919050565b5f6020820190508181035f83015261af628161af29565b9050919050565b7f5354414b45525f49535f5a4f4d424945000000000000000000000000000000005f82015250565b5f61af9d601083618976565b915061afa88261af69565b602082019050919050565b5f6020820190508181035f83015261afca8161af91565b9050919050565b7f4e4f545f454e4f5547485f5354414b45000000000000000000000000000000005f82015250565b5f61b005601083618976565b915061b0108261afd1565b602082019050919050565b5f6020820190508181035f83015261b0328161aff9565b9050919050565b5f60608201905061b04c5f830186617f1b565b61b0596020830185617f1b565b61b0666040830184618152565b949350505050565b7f5452414e534645525f4641494c000000000000000000000000000000000000005f82015250565b5f61b0a2600d83618976565b915061b0ad8261b06e565b602082019050919050565b5f6020820190508181035f83015261b0cf8161b096565b9050919050565b5f61b0e0826180a4565b91505f820361b0f25761b0f1618fc2565b5b600182039050919050565b7f4e487b71000000000000000000000000000000000000000000000000000000005f52603160045260245ffd5b5f8160f81b9050919050565b5f61b1408261b12a565b9050919050565b61b15861b1538261a9bd565b61b136565b82525050565b5f61b169828661ac92565b60208201915061b179828561acb2565b60208201915061b189828461b147565b600182019150819050949350505050565b5f60ff82169050919050565b61b1b761b1b28261b19a565b61b136565b82525050565b5f61b1c8828861b1a6565b60018201915061b1d8828761ac92565b60208201915061b1e8828661ac92565b60208201915061b1f8828561ac92565b60208201915061b208828461ac92565b6020820191508190509695505050505050565b5f61b226828561ac92565b60208201915061b236828461ac92565b6020820191508190509392505050565b5f81905092915050565b7f476c6f62616c2073746174653a000000000000000000000000000000000000005f82015250565b5f61b284600d8361b246565b915061b28f8261b250565b600d82019050919050565b5f8160c01b9050919050565b5f61b2b08261b29a565b9050919050565b61b2c861b2c3826180a4565b61b2a6565b82525050565b5f61b2d88261b278565b915061b2e4828761ac92565b60208201915061b2f4828661ac92565b60208201915061b304828561b2b7565b60088201915061b314828461b2b7565b60088201915081905095945050505050565b7f426c6f636b2073746174653a00000000000000000000000000000000000000005f82015250565b5f61b35a600c8361b246565b915061b3658261b326565b600c82019050919050565b5f61b37a8261b34e565b915061b386828461ac92565b60208201915081905092915050565b7f426c6f636b2073746174652c206572726f7265643a00000000000000000000005f82015250565b5f61b3c960158361b246565b915061b3d48261b395565b601582019050919050565b5f61b3e98261b3bd565b915061b3f5828461ac92565b60208201915081905092915050565b7f426c6f636b2073746174652c20746f6f206661723a00000000000000000000005f82015250565b5f61b43860158361b246565b915061b4438261b404565b601582019050919050565b5f61b4588261b42c565b9150819050919050565b7f4241445f424c4f434b5f535441545553000000000000000000000000000000005f82015250565b5f61b496601083618976565b915061b4a18261b462565b602082019050919050565b5f6020820190508181035f83015261b4c38161b48a565b9050919050565b5f81519050919050565b5f81905092915050565b5f819050602082019050919050565b61b4f6816180e1565b82525050565b5f61b507838361b4ed565b60208301905092915050565b5f602082019050919050565b5f61b5298261b4ca565b61b533818561b4d4565b935061b53e8361b4de565b805f5b8381101561b56e57815161b555888261b4fc565b975061b5608361b513565b92505060018101905061b541565b5085935050505092915050565b5f61b586828661acb2565b60208201915061b596828561acb2565b60208201915061b5a6828461b51f565b9150819050949350505050565b5f60408201905061b5c65f83018561ac53565b61b5d36020830184618152565b939250505056fea2646970667358221220c666455919f4d433858a139e6f111612a76426f53d7f3299e4947e88d84e009f64736f6c634300081a0033",
  "linkReferences": {},
  "deployedLinkReferences": {}
}