{
  "_format": "hh-sol-artifact-1",
  "contractName": "RollupUserLogic",
  "sourceName": "src/rollup/RollupUserLogic.sol",
  "abi": [
    {
      "anonymous": false,
      "inputs": [
        {
          "indexed": false,
          "internalType": "address",
          "name": "previousAdmin",
          "type": "address"
        },
        {
          "indexed": false,
          "internalType": "address",
          "name": "newAdmin",
          "type": "address"
        }
      ],
      "name": "AdminChanged",
      "type": "event"
    },
    {
      "anonymous": false,
      "inputs": [
        {
          "indexed": true,
          "internalType": "address",
          "name": "beacon",
          "type": "address"
        }
      ],
      "name": "BeaconUpgraded",
      "type": "event"
    },
    {
      "anonymous": false,
      "inputs": [
        {
          "indexed": true,
          "internalType": "uint64",
          "name": "nodeNum",
          "type": "uint64"
        },
        {
          "indexed": false,
          "internalType": "bytes32",
          "name": "blockHash",
          "type": "bytes32"
        },
        {
          "indexed": false,
          "internalType": "bytes32",
          "name": "sendRoot",
          "type": "bytes32"
        }
      ],
      "name": "NodeConfirmed",
      "type": "event"
    },
    {
      "anonymous": false,
      "inputs": [
        {
          "indexed": true,
          "internalType": "uint64",
          "name": "nodeNum",
          "type": "uint64"
        },
        {
          "indexed": true,
          "internalType": "bytes32",
          "name": "parentNodeHash",
          "type": "bytes32"
        },
        {
          "indexed": true,
          "internalType": "bytes32",
          "name": "nodeHash",
          "type": "bytes32"
        },
        {
          "indexed": false,
          "internalType": "bytes32",
          "name": "executionHash",
          "type": "bytes32"
        },
        {
          "components": [
            {
              "components": [
                {
                  "components": [
                    {
                      "internalType": "bytes32[2]",
                      "name": "bytes32Vals",
                      "type": "bytes32[2]"
                    },
                    {
                      "internalType": "uint64[2]",
                      "name": "u64Vals",
                      "type": "uint64[2]"
                    }
                  ],
                  "internalType": "struct GlobalState",
                  "name": "globalState",
                  "type": "tuple"
                },
                {
                  "internalType": "enum MachineStatus",
                  "name": "machineStatus",
                  "type": "uint8"
                }
              ],
              "internalType": "struct ExecutionState",
              "name": "beforeState",
              "type": "tuple"
            },
            {
              "components": [
                {
                  "components": [
                    {
                      "internalType": "bytes32[2]",
                      "name": "bytes32Vals",
                      "type": "bytes32[2]"
                    },
                    {
                      "internalType": "uint64[2]",
                      "name": "u64Vals",
                      "type": "uint64[2]"
                    }
                  ],
                  "internalType": "struct GlobalState",
                  "name": "globalState",
                  "type": "tuple"
                },
                {
                  "internalType": "enum MachineStatus",
                  "name": "machineStatus",
                  "type": "uint8"
                }
              ],
              "internalType": "struct ExecutionState",
              "name": "afterState",
              "type": "tuple"
            },
            {
              "internalType": "uint64",
              "name": "numBlocks",
              "type": "uint64"
            }
          ],
          "indexed": false,
          "internalType": "struct Assertion",
          "name": "assertion",
          "type": "tuple"
        },
        {
          "indexed": false,
          "internalType": "bytes32",
          "name": "afterInboxBatchAcc",
          "type": "bytes32"
        },
        {
          "indexed": false,
          "internalType": "bytes32",
          "name": "wasmModuleRoot",
          "type": "bytes32"
        },
        {
          "indexed": false,
          "internalType": "uint256",
          "name": "inboxMaxCount",
          "type": "uint256"
        }
      ],
      "name": "NodeCreated",
      "type": "event"
    },
    {
      "anonymous": false,
      "inputs": [
        {
          "indexed": true,
          "internalType": "uint64",
          "name": "nodeNum",
          "type": "uint64"
        }
      ],
      "name": "NodeRejected",
      "type": "event"
    },
    {
      "anonymous": false,
      "inputs": [
        {
          "indexed": false,
          "internalType": "address",
          "name": "account",
          "type": "address"
        }
      ],
      "name": "Paused",
      "type": "event"
    },
    {
      "anonymous": false,
      "inputs": [
        {
          "indexed": true,
          "internalType": "uint64",
          "name": "challengeIndex",
          "type": "uint64"
        },
        {
          "indexed": false,
          "internalType": "address",
          "name": "asserter",
          "type": "address"
        },
        {
          "indexed": false,
          "internalType": "address",
          "name": "challenger",
          "type": "address"
        },
        {
          "indexed": false,
          "internalType": "uint64",
          "name": "challengedNode",
          "type": "uint64"
        }
      ],
      "name": "RollupChallengeStarted",
      "type": "event"
    },
    {
      "anonymous": false,
      "inputs": [
        {
          "indexed": false,
          "internalType": "bytes32",
          "name": "machineHash",
          "type": "bytes32"
        },
        {
          "indexed": false,
          "internalType": "uint256",
          "name": "chainId",
          "type": "uint256"
        }
      ],
      "name": "RollupInitialized",
      "type": "event"
    },
    {
      "anonymous": false,
      "inputs": [
        {
          "indexed": false,
          "internalType": "address",
          "name": "account",
          "type": "address"
        }
      ],
      "name": "Unpaused",
      "type": "event"
    },
    {
      "anonymous": false,
      "inputs": [
        {
          "indexed": true,
          "internalType": "address",
          "name": "implementation",
          "type": "address"
        }
      ],
      "name": "Upgraded",
      "type": "event"
    },
    {
      "anonymous": false,
      "inputs": [
        {
          "indexed": true,
          "internalType": "address",
          "name": "implementation",
          "type": "address"
        }
      ],
      "name": "UpgradedSecondary",
      "type": "event"
    },
    {
      "anonymous": false,
      "inputs": [
        {
          "indexed": true,
          "internalType": "address",
          "name": "user",
          "type": "address"
        },
        {
          "indexed": false,
          "internalType": "uint256",
          "name": "initialBalance",
          "type": "uint256"
        },
        {
          "indexed": false,
          "internalType": "uint256",
          "name": "finalBalance",
          "type": "uint256"
        }
      ],
      "name": "UserStakeUpdated",
      "type": "event"
    },
    {
      "anonymous": false,
      "inputs": [
        {
          "indexed": true,
          "internalType": "address",
          "name": "user",
          "type": "address"
        },
        {
          "indexed": false,
          "internalType": "uint256",
          "name": "initialBalance",
          "type": "uint256"
        },
        {
          "indexed": false,
          "internalType": "uint256",
          "name": "finalBalance",
          "type": "uint256"
        }
      ],
      "name": "UserWithdrawableFundsUpdated",
      "type": "event"
    },
    {
      "inputs": [],
      "name": "VALIDATOR_AFK_BLOCKS",
      "outputs": [
        {
          "internalType": "uint256",
          "name": "",
          "type": "uint256"
        }
      ],
      "stateMutability": "view",
      "type": "function"
    },
    {
      "inputs": [
        {
          "internalType": "address",
          "name": "",
          "type": "address"
        }
      ],
      "name": "_stakerMap",
      "outputs": [
        {
          "internalType": "uint256",
          "name": "amountStaked",
          "type": "uint256"
        },
        {
          "internalType": "uint64",
          "name": "index",
          "type": "uint64"
        },
        {
          "internalType": "uint64",
          "name": "latestStakedNode",
          "type": "uint64"
        },
        {
          "internalType": "uint64",
          "name": "currentChallenge",
          "type": "uint64"
        },
        {
          "internalType": "bool",
          "name": "isStaked",
          "type": "bool"
        }
      ],
      "stateMutability": "view",
      "type": "function"
    },
    {
      "inputs": [
        {
          "internalType": "address",
          "name": "stakerAddress",
          "type": "address"
        }
      ],
      "name": "addToDeposit",
      "outputs": [],
      "stateMutability": "payable",
      "type": "function"
    },
    {
      "inputs": [
        {
          "internalType": "address",
          "name": "staker",
          "type": "address"
        }
      ],
      "name": "amountStaked",
      "outputs": [
        {
          "internalType": "uint256",
          "name": "",
          "type": "uint256"
        }
      ],
      "stateMutability": "view",
      "type": "function"
    },
    {
      "inputs": [],
      "name": "baseStake",
      "outputs": [
        {
          "internalType": "uint256",
          "name": "",
          "type": "uint256"
        }
      ],
      "stateMutability": "view",
      "type": "function"
    },
    {
      "inputs": [],
      "name": "bridge",
      "outputs": [
        {
          "internalType": "contract IBridge",
          "name": "",
          "type": "address"
        }
      ],
      "stateMutability": "view",
      "type": "function"
    },
    {
      "inputs": [],
      "name": "chainId",
      "outputs": [
        {
          "internalType": "uint256",
          "name": "",
          "type": "uint256"
        }
      ],
      "stateMutability": "view",
      "type": "function"
    },
    {
      "inputs": [],
      "name": "challengeManager",
      "outputs": [
        {
          "internalType": "contract IChallengeManager",
          "name": "",
          "type": "address"
        }
      ],
      "stateMutability": "view",
      "type": "function"
    },
    {
      "inputs": [
        {
          "internalType": "uint256",
          "name": "challengeIndex",
          "type": "uint256"
        },
        {
          "internalType": "address",
          "name": "winningStaker",
          "type": "address"
        },
        {
          "internalType": "address",
          "name": "losingStaker",
          "type": "address"
        }
      ],
      "name": "completeChallenge",
      "outputs": [],
      "stateMutability": "nonpayable",
      "type": "function"
    },
    {
      "inputs": [
        {
          "internalType": "bytes32",
          "name": "blockHash",
          "type": "bytes32"
        },
        {
          "internalType": "bytes32",
          "name": "sendRoot",
          "type": "bytes32"
        }
      ],
      "name": "confirmNextNode",
      "outputs": [],
      "stateMutability": "nonpayable",
      "type": "function"
    },
    {
      "inputs": [],
      "name": "confirmPeriodBlocks",
      "outputs": [
        {
          "internalType": "uint64",
          "name": "",
          "type": "uint64"
        }
      ],
      "stateMutability": "view",
      "type": "function"
    },
    {
      "inputs": [
        {
          "internalType": "uint64",
          "name": "nodeNum",
          "type": "uint64"
        }
      ],
      "name": "countStakedZombies",
      "outputs": [
        {
          "internalType": "uint256",
          "name": "",
          "type": "uint256"
        }
      ],
      "stateMutability": "view",
      "type": "function"
    },
    {
      "inputs": [
        {
          "internalType": "uint64",
          "name": "nodeNum",
          "type": "uint64"
        }
      ],
      "name": "countZombiesStakedOnChildren",
      "outputs": [
        {
          "internalType": "uint256",
          "name": "",
          "type": "uint256"
        }
      ],
      "stateMutability": "view",
      "type": "function"
    },
    {
      "inputs": [
        {
          "internalType": "address[2]",
          "name": "stakers",
          "type": "address[2]"
        },
        {
          "internalType": "uint64[2]",
          "name": "nodeNums",
          "type": "uint64[2]"
        },
        {
          "internalType": "enum MachineStatus[2]",
          "name": "machineStatuses",
          "type": "uint8[2]"
        },
        {
          "components": [
            {
              "internalType": "bytes32[2]",
              "name": "bytes32Vals",
              "type": "bytes32[2]"
            },
            {
              "internalType": "uint64[2]",
              "name": "u64Vals",
              "type": "uint64[2]"
            }
          ],
          "internalType": "struct GlobalState[2]",
          "name": "globalStates",
          "type": "tuple[2]"
        },
        {
          "internalType": "uint64",
          "name": "numBlocks",
          "type": "uint64"
        },
        {
          "internalType": "bytes32",
          "name": "secondExecutionHash",
          "type": "bytes32"
        },
        {
          "internalType": "uint256[2]",
          "name": "proposedBlocks",
          "type": "uint256[2]"
        },
        {
          "internalType": "bytes32[2]",
          "name": "wasmModuleRoots",
          "type": "bytes32[2]"
        }
      ],
      "name": "createChallenge",
      "outputs": [],
      "stateMutability": "nonpayable",
      "type": "function"
    },
    {
      "inputs": [
        {
          "internalType": "address",
          "name": "staker",
          "type": "address"
        }
      ],
      "name": "currentChallenge",
      "outputs": [
        {
          "internalType": "uint64",
          "name": "",
          "type": "uint64"
        }
      ],
      "stateMutability": "view",
      "type": "function"
    },
    {
      "inputs": [],
      "name": "currentRequiredStake",
      "outputs": [
        {
          "internalType": "uint256",
          "name": "",
          "type": "uint256"
        }
      ],
      "stateMutability": "view",
      "type": "function"
    },
    {
      "inputs": [],
      "name": "extraChallengeTimeBlocks",
      "outputs": [
        {
          "internalType": "uint64",
          "name": "",
          "type": "uint64"
        }
      ],
      "stateMutability": "view",
      "type": "function"
    },
    {
      "inputs": [],
      "name": "firstUnresolvedNode",
      "outputs": [
        {
          "internalType": "uint64",
          "name": "",
          "type": "uint64"
        }
      ],
      "stateMutability": "view",
      "type": "function"
    },
    {
      "inputs": [
        {
          "internalType": "uint64",
          "name": "nodeNum",
          "type": "uint64"
        }
      ],
      "name": "getNode",
      "outputs": [
        {
          "components": [
            {
              "internalType": "bytes32",
              "name": "stateHash",
              "type": "bytes32"
            },
            {
              "internalType": "bytes32",
              "name": "challengeHash",
              "type": "bytes32"
            },
            {
              "internalType": "bytes32",
              "name": "confirmData",
              "type": "bytes32"
            },
            {
              "internalType": "uint64",
              "name": "prevNum",
              "type": "uint64"
            },
            {
              "internalType": "uint64",
              "name": "deadlineBlock",
              "type": "uint64"
            },
            {
              "internalType": "uint64",
              "name": "noChildConfirmedBeforeBlock",
              "type": "uint64"
            },
            {
              "internalType": "uint64",
              "name": "stakerCount",
              "type": "uint64"
            },
            {
              "internalType": "uint64",
              "name": "childStakerCount",
              "type": "uint64"
            },
            {
              "internalType": "uint64",
              "name": "firstChildBlock",
              "type": "uint64"
            },
            {
              "internalType": "uint64",
              "name": "latestChildNumber",
              "type": "uint64"
            },
            {
              "internalType": "uint64",
              "name": "createdAtBlock",
              "type": "uint64"
            },
            {
              "internalType": "bytes32",
              "name": "nodeHash",
              "type": "bytes32"
            }
          ],
          "internalType": "struct Node",
          "name": "",
          "type": "tuple"
        }
      ],
      "stateMutability": "view",
      "type": "function"
    },
    {
      "inputs": [
        {
          "internalType": "uint64",
          "name": "nodeNum",
          "type": "uint64"
        }
      ],
      "name": "getNodeCreationBlockForLogLookup",
      "outputs": [
        {
          "internalType": "uint256",
          "name": "",
          "type": "uint256"
        }
      ],
      "stateMutability": "view",
      "type": "function"
    },
    {
      "inputs": [
        {
          "internalType": "address",
          "name": "staker",
          "type": "address"
        }
      ],
      "name": "getStaker",
      "outputs": [
        {
          "components": [
            {
              "internalType": "uint256",
              "name": "amountStaked",
              "type": "uint256"
            },
            {
              "internalType": "uint64",
              "name": "index",
              "type": "uint64"
            },
            {
              "internalType": "uint64",
              "name": "latestStakedNode",
              "type": "uint64"
            },
            {
              "internalType": "uint64",
              "name": "currentChallenge",
              "type": "uint64"
            },
            {
              "internalType": "bool",
              "name": "isStaked",
              "type": "bool"
            }
          ],
          "internalType": "struct IRollupCore.Staker",
          "name": "",
          "type": "tuple"
        }
      ],
      "stateMutability": "view",
      "type": "function"
    },
    {
      "inputs": [
        {
          "internalType": "uint64",
          "name": "stakerNum",
          "type": "uint64"
        }
      ],
      "name": "getStakerAddress",
      "outputs": [
        {
          "internalType": "address",
          "name": "",
          "type": "address"
        }
      ],
      "stateMutability": "view",
      "type": "function"
    },
    {
      "inputs": [],
      "name": "inbox",
      "outputs": [
        {
          "internalType": "contract IInboxBase",
          "name": "",
          "type": "address"
        }
      ],
      "stateMutability": "view",
      "type": "function"
    },
    {
      "inputs": [
        {
          "internalType": "address",
          "name": "_stakeToken",
          "type": "address"
        }
      ],
      "name": "initialize",
      "outputs": [],
      "stateMutability": "view",
      "type": "function"
    },
    {
      "inputs": [],
      "name": "isERC20Enabled",
      "outputs": [
        {
          "internalType": "bool",
          "name": "",
          "type": "bool"
        }
      ],
      "stateMutability": "view",
      "type": "function"
    },
    {
      "inputs": [
        {
          "internalType": "address",
          "name": "staker",
          "type": "address"
        }
      ],
      "name": "isStaked",
      "outputs": [
        {
          "internalType": "bool",
          "name": "",
          "type": "bool"
        }
      ],
      "stateMutability": "view",
      "type": "function"
    },
    {
      "inputs": [
        {
          "internalType": "address",
          "name": "staker",
          "type": "address"
        }
      ],
      "name": "isStakedOnLatestConfirmed",
      "outputs": [
        {
          "internalType": "bool",
          "name": "",
          "type": "bool"
        }
      ],
      "stateMutability": "view",
      "type": "function"
    },
    {
      "inputs": [
        {
          "internalType": "address",
          "name": "",
          "type": "address"
        }
      ],
      "name": "isValidator",
      "outputs": [
        {
          "internalType": "bool",
          "name": "",
          "type": "bool"
        }
      ],
      "stateMutability": "view",
      "type": "function"
    },
    {
      "inputs": [
        {
          "internalType": "address",
          "name": "staker",
          "type": "address"
        }
      ],
      "name": "isZombie",
      "outputs": [
        {
          "internalType": "bool",
          "name": "",
          "type": "bool"
        }
      ],
      "stateMutability": "view",
      "type": "function"
    },
    {
      "inputs": [],
      "name": "lastStakeBlock",
      "outputs": [
        {
          "internalType": "uint64",
          "name": "",
          "type": "uint64"
        }
      ],
      "stateMutability": "view",
      "type": "function"
    },
    {
      "inputs": [],
      "name": "latestConfirmed",
      "outputs": [
        {
          "internalType": "uint64",
          "name": "",
          "type": "uint64"
        }
      ],
      "stateMutability": "view",
      "type": "function"
    },
    {
      "inputs": [],
      "name": "latestNodeCreated",
      "outputs": [
        {
          "internalType": "uint64",
          "name": "",
          "type": "uint64"
        }
      ],
      "stateMutability": "view",
      "type": "function"
    },
    {
      "inputs": [
        {
          "internalType": "address",
          "name": "staker",
          "type": "address"
        }
      ],
      "name": "latestStakedNode",
      "outputs": [
        {
          "internalType": "uint64",
          "name": "",
          "type": "uint64"
        }
      ],
      "stateMutability": "view",
      "type": "function"
    },
    {
      "inputs": [],
      "name": "loserStakeEscrow",
      "outputs": [
        {
          "internalType": "address",
          "name": "",
          "type": "address"
        }
      ],
      "stateMutability": "view",
      "type": "function"
    },
    {
      "inputs": [],
      "name": "minimumAssertionPeriod",
      "outputs": [
        {
          "internalType": "uint256",
          "name": "",
          "type": "uint256"
        }
      ],
      "stateMutability": "view",
      "type": "function"
    },
    {
      "inputs": [
        {
          "internalType": "uint64",
          "name": "nodeNum",
          "type": "uint64"
        },
        {
          "internalType": "bytes32",
          "name": "nodeHash",
          "type": "bytes32"
        }
      ],
      "name": "newStakeOnExistingNode",
      "outputs": [],
      "stateMutability": "payable",
      "type": "function"
    },
    {
      "inputs": [
        {
          "components": [
            {
              "components": [
                {
                  "components": [
                    {
                      "internalType": "bytes32[2]",
                      "name": "bytes32Vals",
                      "type": "bytes32[2]"
                    },
                    {
                      "internalType": "uint64[2]",
                      "name": "u64Vals",
                      "type": "uint64[2]"
                    }
                  ],
                  "internalType": "struct GlobalState",
                  "name": "globalState",
                  "type": "tuple"
                },
                {
                  "internalType": "enum MachineStatus",
                  "name": "machineStatus",
                  "type": "uint8"
                }
              ],
              "internalType": "struct ExecutionState",
              "name": "beforeState",
              "type": "tuple"
            },
            {
              "components": [
                {
                  "components": [
                    {
                      "internalType": "bytes32[2]",
                      "name": "bytes32Vals",
                      "type": "bytes32[2]"
                    },
                    {
                      "internalType": "uint64[2]",
                      "name": "u64Vals",
                      "type": "uint64[2]"
                    }
                  ],
                  "internalType": "struct GlobalState",
                  "name": "globalState",
                  "type": "tuple"
                },
                {
                  "internalType": "enum MachineStatus",
                  "name": "machineStatus",
                  "type": "uint8"
                }
              ],
              "internalType": "struct ExecutionState",
              "name": "afterState",
              "type": "tuple"
            },
            {
              "internalType": "uint64",
              "name": "numBlocks",
              "type": "uint64"
            }
          ],
          "internalType": "struct Assertion",
          "name": "assertion",
          "type": "tuple"
        },
        {
          "internalType": "bytes32",
          "name": "expectedNodeHash",
          "type": "bytes32"
        },
        {
          "internalType": "uint256",
          "name": "prevNodeInboxMaxCount",
          "type": "uint256"
        }
      ],
      "name": "newStakeOnNewNode",
      "outputs": [],
      "stateMutability": "payable",
      "type": "function"
    },
    {
      "inputs": [
        {
          "internalType": "uint64",
          "name": "nodeNum",
          "type": "uint64"
        },
        {
          "internalType": "address",
          "name": "staker",
          "type": "address"
        }
      ],
      "name": "nodeHasStaker",
      "outputs": [
        {
          "internalType": "bool",
          "name": "",
          "type": "bool"
        }
      ],
      "stateMutability": "view",
      "type": "function"
    },
    {
      "inputs": [],
      "name": "outbox",
      "outputs": [
        {
          "internalType": "contract IOutbox",
          "name": "",
          "type": "address"
        }
      ],
      "stateMutability": "view",
      "type": "function"
    },
    {
      "inputs": [],
      "name": "owner",
      "outputs": [
        {
          "internalType": "address",
          "name": "",
          "type": "address"
        }
      ],
      "stateMutability": "view",
      "type": "function"
    },
    {
      "inputs": [],
      "name": "paused",
      "outputs": [
        {
          "internalType": "bool",
          "name": "",
          "type": "bool"
        }
      ],
      "stateMutability": "view",
      "type": "function"
    },
    {
      "inputs": [],
      "name": "proxiableUUID",
      "outputs": [
        {
          "internalType": "bytes32",
          "name": "",
          "type": "bytes32"
        }
      ],
      "stateMutability": "view",
      "type": "function"
    },
    {
      "inputs": [
        {
          "internalType": "uint256",
          "name": "target",
          "type": "uint256"
        }
      ],
      "name": "reduceDeposit",
      "outputs": [],
      "stateMutability": "nonpayable",
      "type": "function"
    },
    {
      "inputs": [
        {
          "internalType": "address",
          "name": "stakerAddress",
          "type": "address"
        }
      ],
      "name": "rejectNextNode",
      "outputs": [],
      "stateMutability": "nonpayable",
      "type": "function"
    },
    {
      "inputs": [
        {
          "internalType": "uint256",
          "name": "startIndex",
          "type": "uint256"
        }
      ],
      "name": "removeOldZombies",
      "outputs": [],
      "stateMutability": "nonpayable",
      "type": "function"
    },
    {
      "inputs": [],
      "name": "removeWhitelistAfterFork",
      "outputs": [],
      "stateMutability": "nonpayable",
      "type": "function"
    },
    {
      "inputs": [],
      "name": "removeWhitelistAfterValidatorAfk",
      "outputs": [],
      "stateMutability": "nonpayable",
      "type": "function"
    },
    {
      "inputs": [
        {
          "internalType": "uint256",
          "name": "zombieNum",
          "type": "uint256"
        },
        {
          "internalType": "uint256",
          "name": "maxNodes",
          "type": "uint256"
        }
      ],
      "name": "removeZombie",
      "outputs": [],
      "stateMutability": "nonpayable",
      "type": "function"
    },
    {
      "inputs": [
        {
          "internalType": "uint256",
          "name": "nodeNum",
          "type": "uint256"
        }
      ],
      "name": "requireUnresolved",
      "outputs": [],
      "stateMutability": "view",
      "type": "function"
    },
    {
      "inputs": [],
      "name": "requireUnresolvedExists",
      "outputs": [],
      "stateMutability": "view",
      "type": "function"
    },
    {
      "inputs": [
        {
          "internalType": "uint256",
          "name": "blockNumber",
          "type": "uint256"
        },
        {
          "internalType": "uint64",
          "name": "firstUnresolvedNodeNum",
          "type": "uint64"
        },
        {
          "internalType": "uint64",
          "name": "latestCreatedNode",
          "type": "uint64"
        }
      ],
      "name": "requiredStake",
      "outputs": [
        {
          "internalType": "uint256",
          "name": "",
          "type": "uint256"
        }
      ],
      "stateMutability": "view",
      "type": "function"
    },
    {
      "inputs": [
        {
          "internalType": "address",
          "name": "stakerAddress",
          "type": "address"
        }
      ],
      "name": "returnOldDeposit",
      "outputs": [],
      "stateMutability": "nonpayable",
      "type": "function"
    },
    {
      "inputs": [],
      "name": "rollupDeploymentBlock",
      "outputs": [
        {
          "internalType": "uint256",
          "name": "",
          "type": "uint256"
        }
      ],
      "stateMutability": "view",
      "type": "function"
    },
    {
      "inputs": [],
      "name": "rollupEventInbox",
      "outputs": [
        {
          "internalType": "contract IRollupEventInbox",
          "name": "",
          "type": "address"
        }
      ],
      "stateMutability": "view",
      "type": "function"
    },
    {
      "inputs": [],
      "name": "sequencerInbox",
      "outputs": [
        {
          "internalType": "contract ISequencerInbox",
          "name": "",
          "type": "address"
        }
      ],
      "stateMutability": "view",
      "type": "function"
    },
    {
      "inputs": [
        {
          "internalType": "uint64",
          "name": "nodeNum",
          "type": "uint64"
        },
        {
          "internalType": "bytes32",
          "name": "nodeHash",
          "type": "bytes32"
        }
      ],
      "name": "stakeOnExistingNode",
      "outputs": [],
      "stateMutability": "nonpayable",
      "type": "function"
    },
    {
      "inputs": [
        {
          "components": [
            {
              "components": [
                {
                  "components": [
                    {
                      "internalType": "bytes32[2]",
                      "name": "bytes32Vals",
                      "type": "bytes32[2]"
                    },
                    {
                      "internalType": "uint64[2]",
                      "name": "u64Vals",
                      "type": "uint64[2]"
                    }
                  ],
                  "internalType": "struct GlobalState",
                  "name": "globalState",
                  "type": "tuple"
                },
                {
                  "internalType": "enum MachineStatus",
                  "name": "machineStatus",
                  "type": "uint8"
                }
              ],
              "internalType": "struct ExecutionState",
              "name": "beforeState",
              "type": "tuple"
            },
            {
              "components": [
                {
                  "components": [
                    {
                      "internalType": "bytes32[2]",
                      "name": "bytes32Vals",
                      "type": "bytes32[2]"
                    },
                    {
                      "internalType": "uint64[2]",
                      "name": "u64Vals",
                      "type": "uint64[2]"
                    }
                  ],
                  "internalType": "struct GlobalState",
                  "name": "globalState",
                  "type": "tuple"
                },
                {
                  "internalType": "enum MachineStatus",
                  "name": "machineStatus",
                  "type": "uint8"
                }
              ],
              "internalType": "struct ExecutionState",
              "name": "afterState",
              "type": "tuple"
            },
            {
              "internalType": "uint64",
              "name": "numBlocks",
              "type": "uint64"
            }
          ],
          "internalType": "struct Assertion",
          "name": "assertion",
          "type": "tuple"
        },
        {
          "internalType": "bytes32",
          "name": "expectedNodeHash",
          "type": "bytes32"
        },
        {
          "internalType": "uint256",
          "name": "prevNodeInboxMaxCount",
          "type": "uint256"
        }
      ],
      "name": "stakeOnNewNode",
      "outputs": [],
      "stateMutability": "nonpayable",
      "type": "function"
    },
    {
      "inputs": [],
      "name": "stakeToken",
      "outputs": [
        {
          "internalType": "address",
          "name": "",
          "type": "address"
        }
      ],
      "stateMutability": "view",
      "type": "function"
    },
    {
      "inputs": [],
      "name": "stakerCount",
      "outputs": [
        {
          "internalType": "uint64",
          "name": "",
          "type": "uint64"
        }
      ],
      "stateMutability": "view",
      "type": "function"
    },
    {
      "inputs": [],
      "name": "totalWithdrawableFunds",
      "outputs": [
        {
          "internalType": "uint256",
          "name": "",
          "type": "uint256"
        }
      ],
      "stateMutability": "view",
      "type": "function"
    },
    {
      "inputs": [],
      "name": "validatorUtils",
      "outputs": [
        {
          "internalType": "address",
          "name": "",
          "type": "address"
        }
      ],
      "stateMutability": "view",
      "type": "function"
    },
    {
      "inputs": [],
      "name": "validatorWalletCreator",
      "outputs": [
        {
          "internalType": "address",
          "name": "",
          "type": "address"
        }
      ],
      "stateMutability": "view",
      "type": "function"
    },
    {
      "inputs": [],
      "name": "validatorWhitelistDisabled",
      "outputs": [
        {
          "internalType": "bool",
          "name": "",
          "type": "bool"
        }
      ],
      "stateMutability": "view",
      "type": "function"
    },
    {
      "inputs": [],
      "name": "wasmModuleRoot",
      "outputs": [
        {
          "internalType": "bytes32",
          "name": "",
          "type": "bytes32"
        }
      ],
      "stateMutability": "view",
      "type": "function"
    },
    {
      "inputs": [],
      "name": "withdrawStakerFunds",
      "outputs": [
        {
          "internalType": "uint256",
          "name": "",
          "type": "uint256"
        }
      ],
      "stateMutability": "nonpayable",
      "type": "function"
    },
    {
      "inputs": [
        {
          "internalType": "address",
          "name": "user",
          "type": "address"
        }
      ],
      "name": "withdrawableFunds",
      "outputs": [
        {
          "internalType": "uint256",
          "name": "",
          "type": "uint256"
        }
      ],
      "stateMutability": "view",
      "type": "function"
    },
    {
      "inputs": [
        {
          "internalType": "uint256",
          "name": "zombieNum",
          "type": "uint256"
        }
      ],
      "name": "zombieAddress",
      "outputs": [
        {
          "internalType": "address",
          "name": "",
          "type": "address"
        }
      ],
      "stateMutability": "view",
      "type": "function"
    },
    {
      "inputs": [],
      "name": "zombieCount",
      "outputs": [
        {
          "internalType": "uint256",
          "name": "",
          "type": "uint256"
        }
      ],
      "stateMutability": "view",
      "type": "function"
    },
    {
      "inputs": [
        {
          "internalType": "uint256",
          "name": "zombieNum",
          "type": "uint256"
        }
      ],
      "name": "zombieLatestStakedNode",
      "outputs": [
        {
          "internalType": "uint64",
          "name": "",
          "type": "uint64"
        }
      ],
      "stateMutability": "view",
      "type": "function"
    }
  ],
  "bytecode": "0x60e060405261001261006760201b60201c565b151560809015158152503073ffffffffffffffffffffffffffffffffffffffff1660a09073ffffffffffffffffffffffffffffffffffffffff168152504660c090815250348015610061575f80fd5b506101b9565b5f805f606473ffffffffffffffffffffffffffffffffffffffff1663051038f260e01b604051602401604051602081830303815290604052907bffffffffffffffffffffffffffffffffffffffffffffffffffffffff19166020820180517bffffffffffffffffffffffffffffffffffffffffffffffffffffffff83818316178352505050506040516100fa91906101a3565b5f60405180830381855afa9150503d805f8114610132576040519150601f19603f3d011682016040523d82523d5f602084013e610137565b606091505b509150915081801561014a575060208151145b9250505090565b5f81519050919050565b5f81905092915050565b8281835e5f83830152505050565b5f61017d82610151565b610187818561015b565b9350610197818560208601610165565b80840191505092915050565b5f6101ae8284610173565b915081905092915050565b60805160a05160c05161b6206101f85f395f61693b01525f81816119b40152818161427b015261430901525f81816148b10152617811015261b6205ff3fe6080604052600436106103f9575f3560e01c80637427be5111610212578063c4d66de811610122578063e8bd4922116100aa578063f065de3f11610079578063f065de3f14610f23578063f33e1fac14610f4d578063f63a434a14610f89578063facd743b14610fc5578063fb0e722b14611001576103f9565b8063e8bd492214610e55578063edfd03ed14610e95578063ee35f32714610ebd578063ef40a67014610ee7576103f9565b8063d01e6602116100f1578063d01e660214610d5f578063d735e21d14610d9b578063dcd030aa14610dc5578063dff6978714610e01578063e78cea9214610e2b576103f9565b8063c4d66de814610cc7578063cd205fda14610cef578063ce11e6ab14610d19578063ced01cfb14610d43576103f9565b806391c657e8116101a5578063aa38a6e711610174578063aa38a6e714610be5578063aa65af4814610c0f578063b0ebedc714610c4b578063bc45e0ae14610c87578063c2c2e68e14610cb1576103f9565b806391c657e814610b0757806392c8134c14610b435780639a8a059214610b7f578063a23c44b114610ba9576103f9565b80637e2d2155116101e15780637e2d215514610a615780638640ce5f14610a895780638da5cb5b14610ab35780638ee1a12614610add576103f9565b80637427be51146109bb57806376e7e23b146109e3578063771b2f9714610a0d5780637ba9534a14610a37576103f9565b806351ed6a301161030d57806363721d6b116102a05780636b94c33b1161026f5780636b94c33b146108c95780636d08d0a2146108f15780636ddd37441461092d5780636f57644e1461096957806371ef232c14610991576103f9565b806363721d6b1461082357806365f7f80d1461084d57806367425daf1461087757806369fd251c1461088d576103f9565b80635c975abb116102dc5780635c975abb1461076b5780635eb405d51461079557806361373919146107bd5780636177fd18146107e7576103f9565b806351ed6a30146106b357806352d1902d146106dd57806354ce8961146107075780635c617e941461072f576103f9565b80632b2af0ab1161039057806345c5b2c71161035f57806345c5b2c7146105fd57806345e38b64146106195780634774e576146106435780634ceccfe51461065f5780634d26732d14610689576103f9565b80632b2af0ab146105335780632e7acfa61461055b5780632f30cabd146105855780633e96576e146105c1576103f9565b806318baaab9116103cc57806318baaab9146104a35780631aeb55a0146104b95780631b1689e9146104e15780631e83d30f1461050b576103f9565b8063014cc92c146103fd578063023a96fe146104275780630357aa491461045157806312ab3d3b14610479575b5f80fd5b348015610408575f80fd5b5061041161102b565b60405161041e9190618107565b60405180910390f35b348015610432575f80fd5b5061043b611050565b604051610448919061817b565b60405180910390f35b34801561045c575f80fd5b50610477600480360381019061047291906181fe565b611075565b005b348015610484575f80fd5b5061048d6111b0565b60405161049a9190618268565b60405180910390f35b3480156104ae575f80fd5b506104b76111c2565b005b3480156104c4575f80fd5b506104df60048036038101906104da91906182f1565b611274565b005b3480156104ec575f80fd5b506104f56114fe565b604051610502919061833e565b60405180910390f35b348015610516575f80fd5b50610531600480360381019061052c9190618357565b611504565b005b34801561053e575f80fd5b5061055960048036038101906105549190618357565b6116de565b005b348015610566575f80fd5b5061056f611789565b60405161057c9190618391565b60405180910390f35b348015610590575f80fd5b506105ab60048036038101906105a691906183aa565b6117a2565b6040516105b8919061833e565b60405180910390f35b3480156105cc575f80fd5b506105e760048036038101906105e291906183aa565b6117e8565b6040516105f49190618391565b60405180910390f35b610617600480360381019061061291906183aa565b611845565b005b348015610624575f80fd5b5061062d611939565b60405161063a919061833e565b60405180910390f35b61065d600480360381019061065891906183f8565b61193f565b005b34801561066a575f80fd5b50610673611958565b604051610680919061833e565b60405180910390f35b348015610694575f80fd5b5061069d61195e565b6040516106aa919061833e565b60405180910390f35b3480156106be575f80fd5b506106c761198c565b6040516106d49190618107565b60405180910390f35b3480156106e8575f80fd5b506106f16119b1565b6040516106fe919061845a565b60405180910390f35b348015610712575f80fd5b5061072d600480360381019061072891906183f8565b611a68565b005b34801561073a575f80fd5b5061075560048036038101906107509190618473565b611dbb565b604051610762919061833e565b60405180910390f35b348015610776575f80fd5b5061077f611e10565b60405161078c9190618268565b60405180910390f35b3480156107a0575f80fd5b506107bb60048036038101906107b6919061849e565b611e25565b005b3480156107c8575f80fd5b506107d161246f565b6040516107de919061833e565b60405180910390f35b3480156107f2575f80fd5b5061080d600480360381019061080891906183aa565b6126d7565b60405161081a9190618268565b60405180910390f35b34801561082e575f80fd5b5061083761272d565b604051610844919061833e565b60405180910390f35b348015610858575f80fd5b50610861612739565b60405161086e9190618391565b60405180910390f35b348015610882575f80fd5b5061088b612755565b005b348015610898575f80fd5b506108b360048036038101906108ae91906183aa565b6127dd565b6040516108c09190618391565b60405180910390f35b3480156108d4575f80fd5b506108ef60048036038101906108ea91906183aa565b61283a565b005b3480156108fc575f80fd5b5061091760048036038101906109129190618473565b612e81565b604051610924919061833e565b60405180910390f35b348015610938575f80fd5b50610953600480360381019061094e9190618473565b612f34565b6040516109609190618107565b60405180910390f35b348015610974575f80fd5b5061098f600480360381019061098a91906185a6565b612f82565b005b34801561099c575f80fd5b506109a56138c7565b6040516109b2919061833e565b60405180910390f35b3480156109c6575f80fd5b506109e160048036038101906109dc91906183aa565b6138cd565b005b3480156109ee575f80fd5b506109f7613af3565b604051610a04919061833e565b60405180910390f35b348015610a18575f80fd5b50610a21613af9565b604051610a2e9190618391565b60405180910390f35b348015610a42575f80fd5b50610a4b613b13565b604051610a589190618391565b60405180910390f35b348015610a6c575f80fd5b50610a876004803603810190610a82919061865b565b613b30565b005b348015610a94575f80fd5b50610a9d613d24565b604051610aaa9190618391565b60405180910390f35b348015610abe575f80fd5b50610ac7613d41565b604051610ad49190618107565b60405180910390f35b348015610ae8575f80fd5b50610af1613d4f565b604051610afe919061845a565b60405180910390f35b348015610b12575f80fd5b50610b2d6004803603810190610b2891906183aa565b613d55565b604051610b3a9190618268565b60405180910390f35b348015610b4e575f80fd5b50610b696004803603810190610b649190618473565b613df9565b604051610b7691906187ab565b60405180910390f35b348015610b8a575f80fd5b50610b93613fd2565b604051610ba0919061833e565b60405180910390f35b348015610bb4575f80fd5b50610bcf6004803603810190610bca91906183aa565b613fd8565b604051610bdc9190618849565b60405180910390f35b348015610bf0575f80fd5b50610bf96140e8565b604051610c069190618882565b60405180910390f35b348015610c1a575f80fd5b50610c356004803603810190610c30919061889b565b61410d565b604051610c429190618268565b60405180910390f35b348015610c56575f80fd5b50610c716004803603810190610c6c91906188d9565b614183565b604051610c7e919061833e565b60405180910390f35b348015610c92575f80fd5b50610c9b6141a2565b604051610ca89190618107565b60405180910390f35b348015610cbc575f80fd5b50610cc56141c7565b005b348015610cd2575f80fd5b50610ced6004803603810190610ce891906183aa565b614279565b005b348015610cfa575f80fd5b50610d03614455565b604051610d109190618268565b60405180910390f35b348015610d24575f80fd5b50610d2d6144ac565b604051610d3a9190618949565b60405180910390f35b610d5d6004803603810190610d5891906182f1565b6144d1565b005b348015610d6a575f80fd5b50610d856004803603810190610d809190618357565b6144e8565b604051610d929190618107565b60405180910390f35b348015610da6575f80fd5b50610daf61452e565b604051610dbc9190618391565b60405180910390f35b348015610dd0575f80fd5b50610deb6004803603810190610de691906183aa565b61454b565b604051610df89190618268565b60405180910390f35b348015610e0c575f80fd5b50610e156145c8565b604051610e229190618391565b60405180910390f35b348015610e36575f80fd5b50610e3f6145d4565b604051610e4c9190618982565b60405180910390f35b348015610e60575f80fd5b50610e7b6004803603810190610e7691906183aa565b6145f9565b604051610e8c95949392919061899b565b60405180910390f35b348015610ea0575f80fd5b50610ebb6004803603810190610eb69190618357565b614673565b005b348015610ec8575f80fd5b50610ed16147e1565b604051610ede9190618a0c565b60405180910390f35b348015610ef2575f80fd5b50610f0d6004803603810190610f0891906183aa565b614806565b604051610f1a919061833e565b60405180910390f35b348015610f2e575f80fd5b50610f3761484e565b604051610f449190618107565b60405180910390f35b348015610f58575f80fd5b50610f736004803603810190610f6e9190618357565b614873565b604051610f809190618391565b60405180910390f35b348015610f94575f80fd5b50610faf6004803603810190610faa9190618473565b6148ae565b604051610fbc919061833e565b60405180910390f35b348015610fd0575f80fd5b50610feb6004803603810190610fe691906183aa565b6149e5565b604051610ff89190618268565b60405180910390f35b34801561100c575f80fd5b50611015614a02565b6040516110229190618a45565b60405180910390f35b606f5f9054906101000a900473ffffffffffffffffffffffffffffffffffffffff1681565b606e5f9054906101000a900473ffffffffffffffffffffffffffffffffffffffff1681565b61107d611e10565b156110bd576040517f08c379a00000000000000000000000000000000000000000000000000000000081526004016110b490618ab8565b60405180910390fd5b606e5f9054906101000a900473ffffffffffffffffffffffffffffffffffffffff1673ffffffffffffffffffffffffffffffffffffffff163373ffffffffffffffffffffffffffffffffffffffff161461114c576040517f08c379a000000000000000000000000000000000000000000000000000000000815260040161114390618b20565b60405180910390fd5b6111568282614a27565b67ffffffffffffffff1683146111a1576040517f08c379a000000000000000000000000000000000000000000000000000000000815260040161119890618b88565b60405180910390fd5b6111ab8282614b94565b505050565b607e5f9054906101000a900460ff1681565b607e5f9054906101000a900460ff1615611211576040517f08c379a000000000000000000000000000000000000000000000000000000000815260040161120890618bf0565b60405180910390fd5b611219614c38565b611258576040517f08c379a000000000000000000000000000000000000000000000000000000000815260040161124f90618c58565b60405180910390fd5b6001607e5f6101000a81548160ff021916908315150217905550565b60745f3373ffffffffffffffffffffffffffffffffffffffff1673ffffffffffffffffffffffffffffffffffffffff1681526020019081526020015f205f9054906101000a900460ff16806112d45750607e5f9054906101000a900460ff165b611313576040517f08c379a000000000000000000000000000000000000000000000000000000000815260040161130a90618cc0565b60405180910390fd5b61131b611e10565b1561135b576040517f08c379a000000000000000000000000000000000000000000000000000000000815260040161135290618ab8565b60405180910390fd5b6113643361454b565b6113a3576040517f08c379a000000000000000000000000000000000000000000000000000000000815260040161139a90618d28565b60405180910390fd5b6113ab61452e565b67ffffffffffffffff168267ffffffffffffffff16101580156113e957506113d1613b13565b67ffffffffffffffff168267ffffffffffffffff1611155b611428576040517f08c379a000000000000000000000000000000000000000000000000000000000815260040161141f90618d90565b60405180910390fd5b5f61143283614e82565b90508181600501541461147a576040517f08c379a000000000000000000000000000000000000000000000000000000000815260040161147190618df8565b60405180910390fd5b806003015f9054906101000a900467ffffffffffffffff1667ffffffffffffffff166114a5336117e8565b67ffffffffffffffff16146114ef576040517f08c379a00000000000000000000000000000000000000000000000000000000081526004016114e690618e60565b60405180910390fd5b6114f93384614eaf565b505050565b607d5481565b60745f3373ffffffffffffffffffffffffffffffffffffffff1673ffffffffffffffffffffffffffffffffffffffff1681526020019081526020015f205f9054906101000a900460ff16806115645750607e5f9054906101000a900460ff165b6115a3576040517f08c379a000000000000000000000000000000000000000000000000000000000815260040161159a90618cc0565b60405180910390fd5b6115ab611e10565b158061167057503073ffffffffffffffffffffffffffffffffffffffff16606a5f9054906101000a900473ffffffffffffffffffffffffffffffffffffffff1673ffffffffffffffffffffffffffffffffffffffff1663cb23bcb56040518163ffffffff1660e01b8152600401602060405180830381865afa158015611633573d5f803e3d5ffd5b505050506040513d601f19601f820116820180604052508101906116579190618eb9565b73ffffffffffffffffffffffffffffffffffffffff1614155b6116af576040517f08c379a00000000000000000000000000000000000000000000000000000000081526004016116a690618f2e565b60405180910390fd5b6116b833614f29565b5f6116c161195e565b9050808210156116cf578091505b6116d93383614fd2565b505050565b6116e661452e565b67ffffffffffffffff16811015611732576040517f08c379a000000000000000000000000000000000000000000000000000000000815260040161172990618f96565b60405180910390fd5b61173a613b13565b67ffffffffffffffff16811115611786576040517f08c379a000000000000000000000000000000000000000000000000000000000815260040161177d90618ffe565b60405180910390fd5b50565b60655f9054906101000a900467ffffffffffffffff1681565b5f607b5f8373ffffffffffffffffffffffffffffffffffffffff1673ffffffffffffffffffffffffffffffffffffffff1681526020019081526020015f20549050919050565b5f60795f8373ffffffffffffffffffffffffffffffffffffffff1673ffffffffffffffffffffffffffffffffffffffff1681526020019081526020015f2060010160089054906101000a900467ffffffffffffffff169050919050565b60745f3373ffffffffffffffffffffffffffffffffffffffff1673ffffffffffffffffffffffffffffffffffffffff1681526020019081526020015f205f9054906101000a900460ff16806118a55750607e5f9054906101000a900460ff165b6118e4576040517f08c379a00000000000000000000000000000000000000000000000000000000081526004016118db90618cc0565b60405180910390fd5b6118ec611e10565b1561192c576040517f08c379a000000000000000000000000000000000000000000000000000000000815260040161192390618ab8565b60405180910390fd5b61193681346150da565b50565b60735481565b611948346151d8565b611953838383611a68565b505050565b61b2fa81565b5f8061196861452e565b90506119864382611977613b13565b67ffffffffffffffff166153a8565b91505090565b60725f9054906101000a900473ffffffffffffffffffffffffffffffffffffffff1681565b5f7f000000000000000000000000000000000000000000000000000000000000000073ffffffffffffffffffffffffffffffffffffffff163073ffffffffffffffffffffffffffffffffffffffff1614611a40576040517f08c379a0000000000000000000000000000000000000000000000000000000008152600401611a379061908c565b60405180910390fd5b7f2b1dbce74324248c222f0ec2d5ed7bd323cfc425b336f0253c5ccfda7265546d5f1b905090565b60745f3373ffffffffffffffffffffffffffffffffffffffff1673ffffffffffffffffffffffffffffffffffffffff1681526020019081526020015f205f9054906101000a900460ff1680611ac85750607e5f9054906101000a900460ff165b611b07576040517f08c379a0000000000000000000000000000000000000000000000000000000008152600401611afe90618cc0565b60405180910390fd5b611b0f611e10565b15611b4f576040517f08c379a0000000000000000000000000000000000000000000000000000000008152600401611b4690618ab8565b60405180910390fd5b611b583361454b565b611b97576040517f08c379a0000000000000000000000000000000000000000000000000000000008152600401611b8e90618d28565b60405180910390fd5b5f611ba1336117e8565b90505f611bad82613df9565b610140015167ffffffffffffffff1643611bc791906190d7565b9050607354811015611c0e576040517f08c379a0000000000000000000000000000000000000000000000000000000008152600401611c0590619154565b60405180910390fd5b60026003811115611c2257611c21619172565b5b8560a0016080016020810190611c3891906191c2565b6003811115611c4a57611c49619172565b5b1480611c7d575082611c708660a0015f01803603810190611c6b9190619426565b61563d565b67ffffffffffffffff1610155b611cbc576040517f08c379a0000000000000000000000000000000000000000000000000000000008152600401611cb39061949b565b60405180910390fd5b5f85610140016020810190611cd19190618473565b67ffffffffffffffff1611611d1b576040517f08c379a0000000000000000000000000000000000000000000000000000000008152600401611d1290619503565b60405180910390fd5b60016003811115611d2f57611d2e619172565b5b855f016080016020810190611d4491906191c2565b6003811115611d5657611d55619172565b5b14611d96576040517f08c379a0000000000000000000000000000000000000000000000000000000008152600401611d8d9061956b565b60405180910390fd5b50611da384828486615661565b50611db533611db0613b13565b614eaf565b50505050565b5f80611dc561272d565b90505f805b82811015611e0557611de485611ddf836144e8565b61410d565b15611df8578180611df490619589565b9250505b8080600101915050611dca565b508092505050919050565b5f60335f9054906101000a900460ff16905090565b60745f3373ffffffffffffffffffffffffffffffffffffffff1673ffffffffffffffffffffffffffffffffffffffff1681526020019081526020015f205f9054906101000a900460ff1680611e855750607e5f9054906101000a900460ff165b611ec4576040517f08c379a0000000000000000000000000000000000000000000000000000000008152600401611ebb90618cc0565b60405180910390fd5b611ecc611e10565b15611f0c576040517f08c379a0000000000000000000000000000000000000000000000000000000008152600401611f0390618ab8565b60405180910390fd5b611f14612755565b5f611f1d61452e565b90505f611f2982614e82565b90506120f581604051806101800160405290815f82015481526020016001820154815260200160028201548152602001600382015f9054906101000a900467ffffffffffffffff1667ffffffffffffffff1667ffffffffffffffff1681526020016003820160089054906101000a900467ffffffffffffffff1667ffffffffffffffff1667ffffffffffffffff1681526020016003820160109054906101000a900467ffffffffffffffff1667ffffffffffffffff1667ffffffffffffffff1681526020016003820160189054906101000a900467ffffffffffffffff1667ffffffffffffffff1667ffffffffffffffff168152602001600482015f9054906101000a900467ffffffffffffffff1667ffffffffffffffff1667ffffffffffffffff1681526020016004820160089054906101000a900467ffffffffffffffff1667ffffffffffffffff1667ffffffffffffffff1681526020016004820160109054906101000a900467ffffffffffffffff1667ffffffffffffffff1667ffffffffffffffff1681526020016004820160189054906101000a900467ffffffffffffffff1667ffffffffffffffff1667ffffffffffffffff168152602001600582015481525050615d3d565b6120fd612739565b67ffffffffffffffff16816003015f9054906101000a900467ffffffffffffffff1667ffffffffffffffff1614612137576121366195d0565b5b5f612158826003015f9054906101000a900467ffffffffffffffff16614e82565b905061232481604051806101800160405290815f82015481526020016001820154815260200160028201548152602001600382015f9054906101000a900467ffffffffffffffff1667ffffffffffffffff1667ffffffffffffffff1681526020016003820160089054906101000a900467ffffffffffffffff1667ffffffffffffffff1667ffffffffffffffff1681526020016003820160109054906101000a900467ffffffffffffffff1667ffffffffffffffff1667ffffffffffffffff1681526020016003820160189054906101000a900467ffffffffffffffff1667ffffffffffffffff1667ffffffffffffffff168152602001600482015f9054906101000a900467ffffffffffffffff1667ffffffffffffffff1667ffffffffffffffff1681526020016004820160089054906101000a900467ffffffffffffffff1667ffffffffffffffff1667ffffffffffffffff1681526020016004820160109054906101000a900467ffffffffffffffff1667ffffffffffffffff1667ffffffffffffffff1681526020016004820160189054906101000a900467ffffffffffffffff1667ffffffffffffffff1667ffffffffffffffff168152602001600582015481525050615d91565b61232d5f614673565b5f61233784611dbb565b90505f8161235b856003015f9054906101000a900467ffffffffffffffff16612e81565b61236591906190d7565b9050818460030160189054906101000a900467ffffffffffffffff1667ffffffffffffffff16116123cb576040517f08c379a00000000000000000000000000000000000000000000000000000000081526004016123c290619647565b60405180910390fd5b808460030160189054906101000a900467ffffffffffffffff1667ffffffffffffffff166123f99190619665565b836004015f9054906101000a900467ffffffffffffffff1667ffffffffffffffff161461245b576040517f08c379a0000000000000000000000000000000000000000000000000000000008152600401612452906196e2565b60405180910390fd5b612466858888615de5565b50505050505050565b5f60745f3373ffffffffffffffffffffffffffffffffffffffff1673ffffffffffffffffffffffffffffffffffffffff1681526020019081526020015f205f9054906101000a900460ff16806124d05750607e5f9054906101000a900460ff165b61250f576040517f08c379a000000000000000000000000000000000000000000000000000000000815260040161250690618cc0565b60405180910390fd5b612517611e10565b15806125dc57503073ffffffffffffffffffffffffffffffffffffffff16606a5f9054906101000a900473ffffffffffffffffffffffffffffffffffffffff1673ffffffffffffffffffffffffffffffffffffffff1663cb23bcb56040518163ffffffff1660e01b8152600401602060405180830381865afa15801561259f573d5f803e3d5ffd5b505050506040513d601f19601f820116820180604052508101906125c39190618eb9565b73ffffffffffffffffffffffffffffffffffffffff1614155b61261b576040517f08c379a000000000000000000000000000000000000000000000000000000000815260040161261290618f2e565b60405180910390fd5b5f61262533615f70565b90505f3373ffffffffffffffffffffffffffffffffffffffff168260405161264c9061972d565b5f6040518083038185875af1925050503d805f8114612686576040519150601f19603f3d011682016040523d82523d5f602084013e61268b565b606091505b50509050806126cf576040517f08c379a00000000000000000000000000000000000000000000000000000000081526004016126c69061978b565b60405180910390fd5b819250505090565b5f60795f8373ffffffffffffffffffffffffffffffffffffffff1673ffffffffffffffffffffffffffffffffffffffff1681526020019081526020015f2060010160189054906101000a900460ff169050919050565b5f607a80549050905090565b5f60755f9054906101000a900467ffffffffffffffff16905090565b5f61275e61452e565b67ffffffffffffffff169050612772612739565b67ffffffffffffffff168111801561279b575061278d613b13565b67ffffffffffffffff168111155b6127da576040517f08c379a00000000000000000000000000000000000000000000000000000000081526004016127d1906197f3565b60405180910390fd5b50565b5f60795f8373ffffffffffffffffffffffffffffffffffffffff1673ffffffffffffffffffffffffffffffffffffffff1681526020019081526020015f2060010160109054906101000a900467ffffffffffffffff169050919050565b60745f3373ffffffffffffffffffffffffffffffffffffffff1673ffffffffffffffffffffffffffffffffffffffff1681526020019081526020015f205f9054906101000a900460ff168061289a5750607e5f9054906101000a900460ff165b6128d9576040517f08c379a00000000000000000000000000000000000000000000000000000000081526004016128d090618cc0565b60405180910390fd5b6128e1611e10565b15612921576040517f08c379a000000000000000000000000000000000000000000000000000000000815260040161291890618ab8565b60405180910390fd5b612929612755565b5f612932612739565b90505f61293d61452e565b90505f61294982614e82565b90508267ffffffffffffffff16816003015f9054906101000a900467ffffffffffffffff1667ffffffffffffffff1603612e3c576129868461454b565b6129c5576040517f08c379a00000000000000000000000000000000000000000000000000000000081526004016129bc90618d28565b60405180910390fd5b6129e06129d1856117e8565b67ffffffffffffffff166116de565b6129ea828561410d565b15612a2a576040517f08c379a0000000000000000000000000000000000000000000000000000000008152600401612a219061985b565b60405180910390fd5b612bf481604051806101800160405290815f82015481526020016001820154815260200160028201548152602001600382015f9054906101000a900467ffffffffffffffff1667ffffffffffffffff1667ffffffffffffffff1681526020016003820160089054906101000a900467ffffffffffffffff1667ffffffffffffffff1667ffffffffffffffff1681526020016003820160109054906101000a900467ffffffffffffffff1667ffffffffffffffff1667ffffffffffffffff1681526020016003820160189054906101000a900467ffffffffffffffff1667ffffffffffffffff1667ffffffffffffffff168152602001600482015f9054906101000a900467ffffffffffffffff1667ffffffffffffffff1667ffffffffffffffff1681526020016004820160089054906101000a900467ffffffffffffffff1667ffffffffffffffff1667ffffffffffffffff1681526020016004820160109054906101000a900467ffffffffffffffff1667ffffffffffffffff1667ffffffffffffffff1681526020016004820160189054906101000a900467ffffffffffffffff1667ffffffffffffffff1667ffffffffffffffff168152602001600582015481525050615d3d565b612dc6612c0084614e82565b604051806101800160405290815f82015481526020016001820154815260200160028201548152602001600382015f9054906101000a900467ffffffffffffffff1667ffffffffffffffff1667ffffffffffffffff1681526020016003820160089054906101000a900467ffffffffffffffff1667ffffffffffffffff1667ffffffffffffffff1681526020016003820160109054906101000a900467ffffffffffffffff1667ffffffffffffffff1667ffffffffffffffff1681526020016003820160189054906101000a900467ffffffffffffffff1667ffffffffffffffff1667ffffffffffffffff168152602001600482015f9054906101000a900467ffffffffffffffff1667ffffffffffffffff1667ffffffffffffffff1681526020016004820160089054906101000a900467ffffffffffffffff1667ffffffffffffffff1667ffffffffffffffff1681526020016004820160109054906101000a900467ffffffffffffffff1667ffffffffffffffff1667ffffffffffffffff1681526020016004820160189054906101000a900467ffffffffffffffff1667ffffffffffffffff1667ffffffffffffffff168152602001600582015481525050615d91565b612dcf5f614673565b612dd882611dbb565b8160030160189054906101000a900467ffffffffffffffff1667ffffffffffffffff1614612e3b576040517f08c379a0000000000000000000000000000000000000000000000000000000008152600401612e32906198c3565b60405180910390fd5b5b612e44616065565b8167ffffffffffffffff167feaffa3d968707ec919a2fc9f31d5ab2b86c905881ff561725d5a82fc95ad464060405160405180910390a250505050565b5f80612e8b61272d565b90505f805b82811015612f29575f612ea2826160b4565b90508567ffffffffffffffff16815f0160149054906101000a900467ffffffffffffffff1667ffffffffffffffff1614158015612f075750612f0686825f015f9054906101000a900473ffffffffffffffffffffffffffffffffffffffff1661410d565b5b15612f1b578280612f1790619589565b9350505b508080600101915050612e90565b508092505050919050565b5f60788267ffffffffffffffff1681548110612f5357612f526198e1565b5b905f5260205f20015f9054906101000a900473ffffffffffffffffffffffffffffffffffffffff169050919050565b60745f3373ffffffffffffffffffffffffffffffffffffffff1673ffffffffffffffffffffffffffffffffffffffff1681526020019081526020015f205f9054906101000a900460ff1680612fe25750607e5f9054906101000a900460ff165b613021576040517f08c379a000000000000000000000000000000000000000000000000000000000815260040161301890618cc0565b60405180910390fd5b613029611e10565b15613069576040517f08c379a000000000000000000000000000000000000000000000000000000000815260040161306090618ab8565b60405180910390fd5b8660016002811061307d5761307c6198e1565b5b6020020160208101906130909190618473565b67ffffffffffffffff16875f600281106130ad576130ac6198e1565b5b6020020160208101906130c09190618473565b67ffffffffffffffff161061310a576040517f08c379a000000000000000000000000000000000000000000000000000000000815260040161310190619958565b60405180910390fd5b613112613b13565b67ffffffffffffffff16876001600281106131305761312f6198e1565b5b6020020160208101906131439190618473565b67ffffffffffffffff16111561318e576040517f08c379a0000000000000000000000000000000000000000000000000000000008152600401613185906199c0565b60405180910390fd5b865f600281106131a1576131a06198e1565b5b6020020160208101906131b49190618473565b67ffffffffffffffff166131c6612739565b67ffffffffffffffff1610613210576040517f08c379a000000000000000000000000000000000000000000000000000000000815260040161320790619a28565b60405180910390fd5b5f61323f885f60028110613227576132266198e1565b5b60200201602081019061323a9190618473565b614e82565b90505f61327189600160028110613259576132586198e1565b5b60200201602081019061326c9190618473565b614e82565b9050806003015f9054906101000a900467ffffffffffffffff1667ffffffffffffffff16826003015f9054906101000a900467ffffffffffffffff1667ffffffffffffffff16146132f7576040517f08c379a00000000000000000000000000000000000000000000000000000000081526004016132ee90619a90565b60405180910390fd5b6133258a5f6002811061330d5761330c6198e1565b5b60200201602081019061332091906183aa565b614f29565b6133548a60016002811061333c5761333b6198e1565b5b60200201602081019061334f91906183aa565b614f29565b6133a8895f6002811061336a576133696198e1565b5b60200201602081019061337d9190618473565b8b5f600281106133905761338f6198e1565b5b6020020160208101906133a391906183aa565b61410d565b6133e7576040517f08c379a00000000000000000000000000000000000000000000000000000000081526004016133de90619af8565b60405180910390fd5b61343d896001600281106133fe576133fd6198e1565b5b6020020160208101906134119190618473565b8b600160028110613425576134246198e1565b5b60200201602081019061343891906183aa565b61410d565b61347c576040517f08c379a000000000000000000000000000000000000000000000000000000000815260040161347390619b60565b60405180910390fd5b61353c6135078960028060200260405190810160405280929190826002602002808284375f81840152601f19601f82011690508083019250505050505089600280602002604051908101604052809291905f905b828210156134fd578382608002018036038101906134ee9190619426565b815260200190600101906134d0565b50505050896160d8565b855f6002811061351a576135196198e1565b5b6020020135855f60028110613532576135316198e1565b5b6020020135616206565b826001015414613581576040517f08c379a000000000000000000000000000000000000000000000000000000000815260040161357890619bc8565b60405180910390fd5b6135bc8585600160028110613599576135986198e1565b5b6020020135856001600281106135b2576135b16198e1565b5b6020020135616206565b816001015414613601576040517f08c379a00000000000000000000000000000000000000000000000000000000081526004016135f890619c30565b60405180910390fd5b5f606560089054906101000a900467ffffffffffffffff1667ffffffffffffffff16855f60028110613636576136356198e1565b5b60200201358460030160089054906101000a900467ffffffffffffffff1667ffffffffffffffff1661366891906190d7565b613688856003015f9054906101000a900467ffffffffffffffff16614e82565b60040160089054906101000a900467ffffffffffffffff1667ffffffffffffffff166136b49190619665565b6136be9190619665565b9050846001600281106136d4576136d36198e1565b5b602002013581101561373d576137358b5f600281106136f6576136f56198e1565b5b60200201602081019061370991906183aa565b8c60016002811061371d5761371c6198e1565b5b60200201602081019061373091906183aa565b614b94565b5050506138bd565b5f6137aa8c8b8b8b89600c8c5f6002811061375b5761375a6198e1565b5b60200201358961376b91906190d7565b6137759190619c4e565b600c8d60016002811061378b5761378a6198e1565b5b60200201358a61379b91906190d7565b6137a59190619c4e565b61623b565b90506138028c5f600281106137c2576137c16198e1565b5b6020020160208101906137d591906183aa565b8d6001600281106137e9576137e86198e1565b5b6020020160208101906137fc91906183aa565b83616353565b8067ffffffffffffffff167f6db7dc2f507647d135035469b27aa79cea90582779d084a7821d6cd092cbd8738d5f60028110613841576138406198e1565b5b60200201602081019061385491906183aa565b8e600160028110613868576138676198e1565b5b60200201602081019061387b91906183aa565b8e5f6002811061388e5761388d6198e1565b5b6020020160208101906138a19190618473565b6040516138b093929190619c8f565b60405180910390a2505050505b5050505050505050565b607c5481565b60745f3373ffffffffffffffffffffffffffffffffffffffff1673ffffffffffffffffffffffffffffffffffffffff1681526020019081526020015f205f9054906101000a900460ff168061392d5750607e5f9054906101000a900460ff165b61396c576040517f08c379a000000000000000000000000000000000000000000000000000000000815260040161396390618cc0565b60405180910390fd5b613974611e10565b1580613a3957503073ffffffffffffffffffffffffffffffffffffffff16606a5f9054906101000a900473ffffffffffffffffffffffffffffffffffffffff1673ffffffffffffffffffffffffffffffffffffffff1663cb23bcb56040518163ffffffff1660e01b8152600401602060405180830381865afa1580156139fc573d5f803e3d5ffd5b505050506040513d601f19601f82011682018060405250810190613a209190618eb9565b73ffffffffffffffffffffffffffffffffffffffff1614155b613a78576040517f08c379a0000000000000000000000000000000000000000000000000000000008152600401613a6f90618f2e565b60405180910390fd5b613a80612739565b67ffffffffffffffff16613a93826117e8565b67ffffffffffffffff161115613ade576040517f08c379a0000000000000000000000000000000000000000000000000000000008152600401613ad590619d0e565b60405180910390fd5b613ae781614f29565b613af081616426565b50565b60675481565b606560089054906101000a900467ffffffffffffffff1681565b5f607560109054906101000a900467ffffffffffffffff16905090565b60745f3373ffffffffffffffffffffffffffffffffffffffff1673ffffffffffffffffffffffffffffffffffffffff1681526020019081526020015f205f9054906101000a900460ff1680613b905750607e5f9054906101000a900460ff165b613bcf576040517f08c379a0000000000000000000000000000000000000000000000000000000008152600401613bc690618cc0565b60405180910390fd5b613bd7611e10565b15613c17576040517f08c379a0000000000000000000000000000000000000000000000000000000008152600401613c0e90618ab8565b60405180910390fd5b613c1f61272d565b8210613c60576040517f08c379a0000000000000000000000000000000000000000000000000000000008152600401613c5790619d76565b60405180910390fd5b5f613c6a836144e8565b90505f613c7684614873565b90505f80613c82612739565b67ffffffffffffffff1690505b808367ffffffffffffffff1610158015613ca857508482105b15613cf1575f613cb784614e82565b9050613cc38486616537565b806003015f9054906101000a900467ffffffffffffffff1693508280613ce890619589565b93505050613c8f565b808367ffffffffffffffff161015613d1157613d0c86616744565b613d1c565b613d1b868461689b565b5b505050505050565b5f607560189054906101000a900467ffffffffffffffff16905090565b5f613d4a6168e4565b905090565b60685481565b5f805f90505b607a80549050811015613def57607a8181548110613d7c57613d7b6198e1565b5b905f5260205f20015f015f9054906101000a900473ffffffffffffffffffffffffffffffffffffffff1673ffffffffffffffffffffffffffffffffffffffff168373ffffffffffffffffffffffffffffffffffffffff1603613de2576001915050613df4565b8080600101915050613d5b565b505f90505b919050565b613e01617eb4565b613e0a82614e82565b604051806101800160405290815f82015481526020016001820154815260200160028201548152602001600382015f9054906101000a900467ffffffffffffffff1667ffffffffffffffff1667ffffffffffffffff1681526020016003820160089054906101000a900467ffffffffffffffff1667ffffffffffffffff1667ffffffffffffffff1681526020016003820160109054906101000a900467ffffffffffffffff1667ffffffffffffffff1667ffffffffffffffff1681526020016003820160189054906101000a900467ffffffffffffffff1667ffffffffffffffff1667ffffffffffffffff168152602001600482015f9054906101000a900467ffffffffffffffff1667ffffffffffffffff1667ffffffffffffffff1681526020016004820160089054906101000a900467ffffffffffffffff1667ffffffffffffffff1667ffffffffffffffff1681526020016004820160109054906101000a900467ffffffffffffffff1667ffffffffffffffff1667ffffffffffffffff1681526020016004820160189054906101000a900467ffffffffffffffff1667ffffffffffffffff1667ffffffffffffffff1681526020016005820154815250509050919050565b60665481565b613fe0617f65565b60795f8373ffffffffffffffffffffffffffffffffffffffff1673ffffffffffffffffffffffffffffffffffffffff1681526020019081526020015f206040518060a00160405290815f8201548152602001600182015f9054906101000a900467ffffffffffffffff1667ffffffffffffffff1667ffffffffffffffff1681526020016001820160089054906101000a900467ffffffffffffffff1667ffffffffffffffff1667ffffffffffffffff1681526020016001820160109054906101000a900467ffffffffffffffff1667ffffffffffffffff1667ffffffffffffffff1681526020016001820160189054906101000a900460ff1615151515815250509050919050565b606d5f9054906101000a900473ffffffffffffffffffffffffffffffffffffffff1681565b5f60775f8467ffffffffffffffff1667ffffffffffffffff1681526020019081526020015f205f8373ffffffffffffffffffffffffffffffffffffffff1673ffffffffffffffffffffffffffffffffffffffff1681526020019081526020015f205f9054906101000a900460ff16905092915050565b5f61419984848467ffffffffffffffff166153a8565b90509392505050565b60705f9054906101000a900473ffffffffffffffffffffffffffffffffffffffff1681565b607e5f9054906101000a900460ff1615614216576040517f08c379a000000000000000000000000000000000000000000000000000000000815260040161420d90618bf0565b60405180910390fd5b61421e616937565b61425d576040517f08c379a000000000000000000000000000000000000000000000000000000000815260040161425490619dde565b60405180910390fd5b6001607e5f6101000a81548160ff021916908315150217905550565b7f000000000000000000000000000000000000000000000000000000000000000073ffffffffffffffffffffffffffffffffffffffff163073ffffffffffffffffffffffffffffffffffffffff1603614307576040517f08c379a00000000000000000000000000000000000000000000000000000000081526004016142fe90619e6c565b60405180910390fd5b7f000000000000000000000000000000000000000000000000000000000000000073ffffffffffffffffffffffffffffffffffffffff16614346616961565b73ffffffffffffffffffffffffffffffffffffffff161461439c576040517f08c379a000000000000000000000000000000000000000000000000000000000815260040161439390619efa565b60405180910390fd5b5f73ffffffffffffffffffffffffffffffffffffffff168173ffffffffffffffffffffffffffffffffffffffff161461440a576040517f08c379a000000000000000000000000000000000000000000000000000000000815260040161440190619f62565b60405180910390fd5b614412614455565b15614452576040517f08c379a000000000000000000000000000000000000000000000000000000000815260040161444990619fca565b60405180910390fd5b50565b5f8073ffffffffffffffffffffffffffffffffffffffff1660725f9054906101000a900473ffffffffffffffffffffffffffffffffffffffff1673ffffffffffffffffffffffffffffffffffffffff161415905090565b606b5f9054906101000a900473ffffffffffffffffffffffffffffffffffffffff1681565b6144da346151d8565b6144e48282611274565b5050565b5f607a82815481106144fd576144fc6198e1565b5b905f5260205f20015f015f9054906101000a900473ffffffffffffffffffffffffffffffffffffffff169050919050565b5f607560089054906101000a900467ffffffffffffffff16905090565b5f60795f8373ffffffffffffffffffffffffffffffffffffffff1673ffffffffffffffffffffffffffffffffffffffff1681526020019081526020015f2060010160189054906101000a900460ff1680156145c157506145c060755f9054906101000a900467ffffffffffffffff168361410d565b5b9050919050565b5f607880549050905090565b606a5f9054906101000a900473ffffffffffffffffffffffffffffffffffffffff1681565b6079602052805f5260405f205f91509050805f015490806001015f9054906101000a900467ffffffffffffffff16908060010160089054906101000a900467ffffffffffffffff16908060010160109054906101000a900467ffffffffffffffff16908060010160189054906101000a900460ff16905085565b60745f3373ffffffffffffffffffffffffffffffffffffffff1673ffffffffffffffffffffffffffffffffffffffff1681526020019081526020015f205f9054906101000a900460ff16806146d35750607e5f9054906101000a900460ff165b614712576040517f08c379a000000000000000000000000000000000000000000000000000000000815260040161470990618cc0565b60405180910390fd5b61471a611e10565b1561475a576040517f08c379a000000000000000000000000000000000000000000000000000000000815260040161475190618ab8565b60405180910390fd5b5f61476361272d565b90505f61476e612739565b67ffffffffffffffff1690505f8390505b828110156147da575b8161479282614873565b67ffffffffffffffff1610156147cd576147ab81616744565b82806147b690619fe8565b9350508281106147c8575050506147de565b614788565b808060010191505061477f565b5050505b50565b606c5f9054906101000a900473ffffffffffffffffffffffffffffffffffffffff1681565b5f60795f8373ffffffffffffffffffffffffffffffffffffffff1673ffffffffffffffffffffffffffffffffffffffff1681526020019081526020015f205f01549050919050565b60715f9054906101000a900473ffffffffffffffffffffffffffffffffffffffff1681565b5f607a8281548110614888576148876198e1565b5b905f5260205f20015f0160149054906101000a900467ffffffffffffffff169050919050565b5f7f000000000000000000000000000000000000000000000000000000000000000015614949575f607f5f8467ffffffffffffffff1667ffffffffffffffff1681526020019081526020015f205490505f8111614940576040517f08c379a00000000000000000000000000000000000000000000000000000000081526004016149379061a059565b60405180910390fd5b809150506149e0565b5f61495383614e82565b90505f8160030160089054906101000a900467ffffffffffffffff1667ffffffffffffffff16036149b9576040517f08c379a00000000000000000000000000000000000000000000000000000000081526004016149b09061a059565b60405180910390fd5b8060040160189054906101000a900467ffffffffffffffff1667ffffffffffffffff169150505b919050565b6074602052805f5260405f205f915054906101000a900460ff1681565b60695f9054906101000a900473ffffffffffffffffffffffffffffffffffffffff1681565b5f8060795f8573ffffffffffffffffffffffffffffffffffffffff1673ffffffffffffffffffffffffffffffffffffffff1681526020019081526020015f2090505f60795f8573ffffffffffffffffffffffffffffffffffffffff1673ffffffffffffffffffffffffffffffffffffffff1681526020019081526020015f2090505f8260010160109054906101000a900467ffffffffffffffff1690505f67ffffffffffffffff168167ffffffffffffffff1603614b1a576040517f08c379a0000000000000000000000000000000000000000000000000000000008152600401614b119061a0c1565b60405180910390fd5b8160010160109054906101000a900467ffffffffffffffff1667ffffffffffffffff168167ffffffffffffffff1614614b88576040517f08c379a0000000000000000000000000000000000000000000000000000000008152600401614b7f9061a129565b60405180910390fd5b80935050505092915050565b5f614b9e82614806565b90505f614baa84614806565b905080821115614bcc57614bbe8382614fd2565b82614bc991906190d7565b91505b5f600283614bda919061a174565b9050614be685826169b4565b8083614bf291906190d7565b9250614bfd85616a69565b614c2860715f9054906101000a900473ffffffffffffffffffffffffffffffffffffffff1684616ad8565b614c3184616bd8565b5050505050565b5f80614c4a614c45613b13565b614e82565b604051806101800160405290815f82015481526020016001820154815260200160028201548152602001600382015f9054906101000a900467ffffffffffffffff1667ffffffffffffffff1667ffffffffffffffff1681526020016003820160089054906101000a900467ffffffffffffffff1667ffffffffffffffff1667ffffffffffffffff1681526020016003820160109054906101000a900467ffffffffffffffff1667ffffffffffffffff1667ffffffffffffffff1681526020016003820160189054906101000a900467ffffffffffffffff1667ffffffffffffffff1667ffffffffffffffff168152602001600482015f9054906101000a900467ffffffffffffffff1667ffffffffffffffff1667ffffffffffffffff1681526020016004820160089054906101000a900467ffffffffffffffff1667ffffffffffffffff1667ffffffffffffffff1681526020016004820160109054906101000a900467ffffffffffffffff1667ffffffffffffffff1667ffffffffffffffff1681526020016004820160189054906101000a900467ffffffffffffffff1667ffffffffffffffff1667ffffffffffffffff16815260200160058201548152505090505f81610140015167ffffffffffffffff1603614e2c575f915050614e7f565b4361b2fa60655f9054906101000a900467ffffffffffffffff16836101400151614e56919061a1a4565b67ffffffffffffffff16614e6a9190619665565b1015614e7a576001915050614e7f565b5f9150505b90565b5f60765f8367ffffffffffffffff1667ffffffffffffffff1681526020019081526020015f209050919050565b5f60795f8473ffffffffffffffffffffffffffffffffffffffff1673ffffffffffffffffffffffffffffffffffffffff1681526020019081526020015f209050614ef98284616d0a565b818160010160086101000a81548167ffffffffffffffff021916908367ffffffffffffffff160217905550505050565b614f32816126d7565b614f71576040517f08c379a0000000000000000000000000000000000000000000000000000000008152600401614f6890618d28565b60405180910390fd5b5f67ffffffffffffffff16614f85826127dd565b67ffffffffffffffff1614614fcf576040517f08c379a0000000000000000000000000000000000000000000000000000000008152600401614fc69061a229565b60405180910390fd5b50565b5f8060795f8573ffffffffffffffffffffffffffffffffffffffff1673ffffffffffffffffffffffffffffffffffffffff1681526020019081526020015f2090505f815f015490508084111561505d576040517f08c379a00000000000000000000000000000000000000000000000000000000081526004016150549061a291565b60405180910390fd5b5f848261506a91906190d7565b905084835f018190555061507e8682616ad8565b8573ffffffffffffffffffffffffffffffffffffffff167febd093d389ab57f3566918d2c379a2b4d9539e8eb95efad9d5e465457833fde683876040516150c692919061a2af565b60405180910390a280935050505092915050565b60745f3373ffffffffffffffffffffffffffffffffffffffff1673ffffffffffffffffffffffffffffffffffffffff1681526020019081526020015f205f9054906101000a900460ff168061513a5750607e5f9054906101000a900460ff165b615179576040517f08c379a000000000000000000000000000000000000000000000000000000000815260040161517090618cc0565b60405180910390fd5b615181611e10565b156151c1576040517f08c379a00000000000000000000000000000000000000000000000000000000081526004016151b890618ab8565b60405180910390fd5b6151ca82614f29565b6151d482826169b4565b5050565b60745f3373ffffffffffffffffffffffffffffffffffffffff1673ffffffffffffffffffffffffffffffffffffffff1681526020019081526020015f205f9054906101000a900460ff16806152385750607e5f9054906101000a900460ff165b615277576040517f08c379a000000000000000000000000000000000000000000000000000000000815260040161526e90618cc0565b60405180910390fd5b61527f611e10565b156152bf576040517f08c379a00000000000000000000000000000000000000000000000000000000081526004016152b690618ab8565b60405180910390fd5b6152c8336126d7565b15615308576040517f08c379a00000000000000000000000000000000000000000000000000000000081526004016152ff9061a320565b60405180910390fd5b61531133613d55565b15615351576040517f08c379a00000000000000000000000000000000000000000000000000000000081526004016153489061a388565b60405180910390fd5b61535961195e565b81101561539b576040517f08c379a00000000000000000000000000000000000000000000000000000000081526004016153929061a3f0565b60405180910390fd5b6153a53382616fcc565b50565b5f816001846153b7919061a40e565b67ffffffffffffffff16036153d0576067549050615636565b5f6153da84614e82565b60030160089054906101000a900467ffffffffffffffff1667ffffffffffffffff1690508085101561541157606754915050615636565b5f604051806101400160405280600162ffffff1681526020016201e05b62ffffff1681526020016201f7d162ffffff1681526020016201389162ffffff168152602001620329e162ffffff1681526020016201be4362ffffff1681526020016204cb8c62ffffff1681526020016201fbc462ffffff16815260200162036d3262ffffff1681526020016202797362ffffff1681525090505f604051806101400160405280600162ffffff1681526020016201c03062ffffff1681526020016201b69962ffffff16815260200161fde262ffffff168152602001620265c662ffffff16815260200162013b8e62ffffff168152602001620329e162ffffff1681526020016201389162ffffff1681526020016201f7d162ffffff1681526020016201537562ffffff1681525090505f838861554b91906190d7565b90505f60655f9054906101000a900467ffffffffffffffff1667ffffffffffffffff16600a8361557b9190619c4e565b615585919061a174565b90505f600a82615595919061a174565b60026155a1919061a578565b90505f85600a846155b2919061a5c2565b600a81106155c3576155c26198e1565b5b602002015162ffffff16826155d89190619c4e565b90505f85600a856155e9919061a5c2565b600a81106155fa576155f96198e1565b5b602002015162ffffff168261560f919061a174565b90505f810361561d57600190505b8060675461562b9190619c4e565b985050505050505050505b9392505050565b5f81602001515f60028110615655576156546198e1565b5b60200201519050919050565b5f6001600381111561567657615675619172565b5b8560a001608001602081019061568c91906191c2565b600381111561569e5761569d619172565b5b14806156e35750600260038111156156b9576156b8619172565b5b8560a00160800160208101906156cf91906191c2565b60038111156156e1576156e0619172565b5b145b615722576040517f08c379a00000000000000000000000000000000000000000000000000000000081526004016157199061a63c565b60405180910390fd5b61572a617faf565b61573385613df9565b8160600181905250606a5f9054906101000a900473ffffffffffffffffffffffffffffffffffffffff1673ffffffffffffffffffffffffffffffffffffffff166284120c6040518163ffffffff1660e01b8152600401602060405180830381865afa1580156157a4573d5f803e3d5ffd5b505050506040513d601f19601f820116820180604052508101906157c8919061a66e565b815f01818152505080606001515f01516157e4875f0186617291565b14615824576040517f08c379a000000000000000000000000000000000000000000000000000000000815260040161581b9061a6e3565b60405180910390fd5b5f6158438760a0015f0180360381019061583e9190619426565b61563d565b90505f615863885f015f0180360381019061585e9190619426565b61563d565b90508067ffffffffffffffff168267ffffffffffffffff1610156158bc576040517f08c379a00000000000000000000000000000000000000000000000000000000081526004016158b39061a74b565b60405180910390fd5b8067ffffffffffffffff168267ffffffffffffffff1603615968576158f4885f015f018036038101906158ef9190619426565b6172f1565b67ffffffffffffffff1661591c8960a0015f018036038101906159179190619426565b6172f1565b67ffffffffffffffff161015615967576040517f08c379a000000000000000000000000000000000000000000000000000000000815260040161595e9061a7b3565b60405180910390fd5b5b6002600381111561597c5761597b619172565b5b8860a001608001602081019061599291906191c2565b60038111156159a4576159a3619172565b5b14806159d657505f6159ca8960a0015f018036038101906159c59190619426565b6172f1565b67ffffffffffffffff16115b156159ea5781806159e69061a7d1565b9250505b825f01518267ffffffffffffffff161115615a3a576040517f08c379a0000000000000000000000000000000000000000000000000000000008152600401615a319061a84a565b60405180910390fd5b5f8267ffffffffffffffff161115615afb57606a5f9054906101000a900473ffffffffffffffffffffffffffffffffffffffff1673ffffffffffffffffffffffffffffffffffffffff166316bf5579600184615a96919061a40e565b6040518263ffffffff1660e01b8152600401615ab2919061a898565b602060405180830381865afa158015615acd573d5f803e3d5ffd5b505050506040513d601f19601f82011682018060405250810190615af1919061a8c5565b8360e00181815250505b5050615b1686803603810190615b11919061a9a0565b617316565b81604001818152505060655f9054906101000a900467ffffffffffffffff1643615b40919061a1a4565b8160c0019067ffffffffffffffff16908167ffffffffffffffff16815250505f8160600151610120015167ffffffffffffffff16118160a00190151590811515815250508060a0015115615bb257615ba081606001516101200151614e82565b60050154816080018181525050615bc6565b806060015161016001518160800181815250505b615be58160a00151826080015183604001518460e0015160685461741b565b915082821480615bf657505f801b83145b615c35576040517f08c379a0000000000000000000000000000000000000000000000000000000008152600401615c2c9061aa16565b60405180910390fd5b615c7e615c488760a001835f0151617291565b615c59836040015143606854616206565b615c7289803603810190615c6d919061a9a0565b617468565b888560c0015187617498565b81602001819052505f6001615c91613b13565b615c9b919061a1a4565b90505f615ca787614e82565b9050615cbc828261755f90919063ffffffff16565b615cc983602001516175e3565b50508181606001516101600151615cde613b13565b67ffffffffffffffff167f4f4caa9e67fb994e349dd35d1ad0ce23053d4323f83ce11dc817b5435031d09684604001518a8660e00151606854885f0151604051615d2c95949392919061ac5a565b60405180910390a450949350505050565b806080015167ffffffffffffffff16431015615d8e576040517f08c379a0000000000000000000000000000000000000000000000000000000008152600401615d859061acf9565b60405180910390fd5b50565b8060a0015167ffffffffffffffff16431015615de2576040517f08c379a0000000000000000000000000000000000000000000000000000000008152600401615dd99061ad61565b60405180910390fd5b50565b5f615def84614e82565b9050615dfb83836178e6565b816002015414615e40576040517f08c379a0000000000000000000000000000000000000000000000000000000008152600401615e379061adc9565b60405180910390fd5b606b5f9054906101000a900473ffffffffffffffffffffffffffffffffffffffff1673ffffffffffffffffffffffffffffffffffffffff1663a04cee6083856040518363ffffffff1660e01b8152600401615e9c92919061ade7565b5f604051808303815f87803b158015615eb3575f80fd5b505af1158015615ec5573d5f803e3d5ffd5b505050508360755f6101000a81548167ffffffffffffffff021916908367ffffffffffffffff160217905550600184615efe919061a1a4565b607560086101000a81548167ffffffffffffffff021916908367ffffffffffffffff1602179055508367ffffffffffffffff167f22ef0479a7ff660660d1c2fe35f1b632cf31675c2d9378db8cec95b00d8ffa3c8484604051615f6292919061ade7565b60405180910390a250505050565b5f80607b5f8473ffffffffffffffffffffffffffffffffffffffff1673ffffffffffffffffffffffffffffffffffffffff1681526020019081526020015f205490505f607b5f8573ffffffffffffffffffffffffffffffffffffffff1673ffffffffffffffffffffffffffffffffffffffff1681526020019081526020015f208190555080607c5f82825461600591906190d7565b925050819055508273ffffffffffffffffffffffffffffffffffffffff167fa740af14c56e4e04a617b1de1eb20de73270decbaaead14f142aabf3038e5ae2825f60405161605492919061ae47565b60405180910390a280915050919050565b6075600881819054906101000a900467ffffffffffffffff168092919061608b9061a7d1565b91906101000a81548167ffffffffffffffff021916908367ffffffffffffffff16021790555050565b5f607a82815481106160c9576160c86198e1565b5b905f5260205f20019050919050565b5f80600267ffffffffffffffff8111156160f5576160f4619201565b5b6040519080825280602002602001820160405280156161235781602001602082028036833780820191505090505b509050616166855f6002811061613c5761613b6198e1565b5b6020020151616161865f60028110616157576161566198e1565b5b6020020151617918565b6179b9565b815f81518110616179576161786198e1565b5b6020026020010181815250506161c78560016002811061619c5761619b6198e1565b5b60200201516161c2866001600281106161b8576161b76198e1565b5b6020020151617918565b6179b9565b816001815181106161db576161da6198e1565b5b6020026020010181815250506161fc5f8467ffffffffffffffff1683617b06565b9150509392505050565b5f83838360405160200161621c9392919061aeae565b6040516020818303038152906040528051906020012090509392505050565b5f606e5f9054906101000a900473ffffffffffffffffffffffffffffffffffffffff1673ffffffffffffffffffffffffffffffffffffffff166314eab5e7855f6002811061628c5761628b6198e1565b5b60200201358989898d5f600281106162a7576162a66198e1565b5b6020020160208101906162ba91906183aa565b8e6001600281106162ce576162cd6198e1565b5b6020020160208101906162e191906183aa565b8a8a6040518963ffffffff1660e01b815260040161630698979695949392919061b026565b6020604051808303815f875af1158015616322573d5f803e3d5ffd5b505050506040513d601f19601f82011682018060405250810190616346919061b0bb565b9050979650505050505050565b8060795f8573ffffffffffffffffffffffffffffffffffffffff1673ffffffffffffffffffffffffffffffffffffffff1681526020019081526020015f2060010160106101000a81548167ffffffffffffffff021916908367ffffffffffffffff1602179055508060795f8473ffffffffffffffffffffffffffffffffffffffff1673ffffffffffffffffffffffffffffffffffffffff1681526020019081526020015f2060010160106101000a81548167ffffffffffffffff021916908367ffffffffffffffff160217905550505050565b5f60795f8373ffffffffffffffffffffffffffffffffffffffff1673ffffffffffffffffffffffffffffffffffffffff1681526020019081526020015f2090505f61646f612739565b905061647b818461410d565b156164c7578067ffffffffffffffff168260010160089054906101000a900467ffffffffffffffff1667ffffffffffffffff16146164bc576164bb6195d0565b5b6164c68184616537565b5b5f825f015490506164d88482616ad8565b6164e184617b3b565b8373ffffffffffffffffffffffffffffffffffffffff167febd093d389ab57f3566918d2c379a2b4d9539e8eb95efad9d5e465457833fde6825f60405161652992919061ae47565b60405180910390a250505050565b60775f8367ffffffffffffffff1667ffffffffffffffff1681526020019081526020015f205f8273ffffffffffffffffffffffffffffffffffffffff1673ffffffffffffffffffffffffffffffffffffffff1681526020019081526020015f205f9054906101000a900460ff166165e3576040517f08c379a00000000000000000000000000000000000000000000000000000000081526004016165da90618d28565b60405180910390fd5b5f60775f8467ffffffffffffffff1667ffffffffffffffff1681526020019081526020015f205f8373ffffffffffffffffffffffffffffffffffffffff1673ffffffffffffffffffffffffffffffffffffffff1681526020019081526020015f205f6101000a81548160ff0219169083151502179055505f61666483614e82565b905080600301601881819054906101000a900467ffffffffffffffff168092919061668e9061b0e6565b91906101000a81548167ffffffffffffffff021916908367ffffffffffffffff160217905550505f67ffffffffffffffff168367ffffffffffffffff16111561673f576166f1816003015f9054906101000a900467ffffffffffffffff16614e82565b6004015f81819054906101000a900467ffffffffffffffff16809291906167179061b0e6565b91906101000a81548167ffffffffffffffff021916908367ffffffffffffffff160217905550505b505050565b607a6001607a8054905061675891906190d7565b81548110616769576167686198e1565b5b905f5260205f2001607a8281548110616785576167846198e1565b5b905f5260205f20015f82015f9054906101000a900473ffffffffffffffffffffffffffffffffffffffff16815f015f6101000a81548173ffffffffffffffffffffffffffffffffffffffff021916908373ffffffffffffffffffffffffffffffffffffffff1602179055505f820160149054906101000a900467ffffffffffffffff16815f0160146101000a81548167ffffffffffffffff021916908367ffffffffffffffff160217905550905050607a8054806168465761684561b10d565b5b600190038181905f5260205f20015f8082015f6101000a81549073ffffffffffffffffffffffffffffffffffffffff02191690555f820160146101000a81549067ffffffffffffffff02191690555050905550565b80607a83815481106168b0576168af6198e1565b5b905f5260205f20015f0160146101000a81548167ffffffffffffffff021916908367ffffffffffffffff1602179055505050565b5f6169107fb53127684a568b3173ae13b9f8a6016e243e63b6e8ee1178d6a717850b5d61035f1b617e35565b5f015f9054906101000a900473ffffffffffffffffffffffffffffffffffffffff16905090565b5f467f00000000000000000000000000000000000000000000000000000000000000001415905090565b5f61698d7f2b1dbce74324248c222f0ec2d5ed7bd323cfc425b336f0253c5ccfda7265546d5f1b617e35565b5f015f9054906101000a900473ffffffffffffffffffffffffffffffffffffffff16905090565b5f60795f8473ffffffffffffffffffffffffffffffffffffffff1673ffffffffffffffffffffffffffffffffffffffff1681526020019081526020015f2090505f815f015490505f8382616a089190619665565b905080835f01819055508473ffffffffffffffffffffffffffffffffffffffff167febd093d389ab57f3566918d2c379a2b4d9539e8eb95efad9d5e465457833fde68383604051616a5a92919061a2af565b60405180910390a25050505050565b5f60795f8373ffffffffffffffffffffffffffffffffffffffff1673ffffffffffffffffffffffffffffffffffffffff1681526020019081526020015f2090505f8160010160106101000a81548167ffffffffffffffff021916908367ffffffffffffffff1602179055505050565b5f607b5f8473ffffffffffffffffffffffffffffffffffffffff1673ffffffffffffffffffffffffffffffffffffffff1681526020019081526020015f205490505f8282616b269190619665565b905080607b5f8673ffffffffffffffffffffffffffffffffffffffff1673ffffffffffffffffffffffffffffffffffffffff1681526020019081526020015f208190555082607c5f828254616b7b9190619665565b925050819055508373ffffffffffffffffffffffffffffffffffffffff167fa740af14c56e4e04a617b1de1eb20de73270decbaaead14f142aabf3038e5ae28383604051616bca92919061a2af565b60405180910390a250505050565b5f60795f8373ffffffffffffffffffffffffffffffffffffffff1673ffffffffffffffffffffffffffffffffffffffff1681526020019081526020015f209050607a60405180604001604052808473ffffffffffffffffffffffffffffffffffffffff1681526020018360010160089054906101000a900467ffffffffffffffff1667ffffffffffffffff16815250908060018154018082558091505060019003905f5260205f20015f909190919091505f820151815f015f6101000a81548173ffffffffffffffffffffffffffffffffffffffff021916908373ffffffffffffffffffffffffffffffffffffffff1602179055506020820151815f0160146101000a81548167ffffffffffffffff021916908367ffffffffffffffff1602179055505050616d0682617b3b565b5050565b60775f8367ffffffffffffffff1667ffffffffffffffff1681526020019081526020015f205f8273ffffffffffffffffffffffffffffffffffffffff1673ffffffffffffffffffffffffffffffffffffffff1681526020019081526020015f205f9054906101000a900460ff1615616db7576040517f08c379a0000000000000000000000000000000000000000000000000000000008152600401616dae9061a320565b60405180910390fd5b600160775f8467ffffffffffffffff1667ffffffffffffffff1681526020019081526020015f205f8373ffffffffffffffffffffffffffffffffffffffff1673ffffffffffffffffffffffffffffffffffffffff1681526020019081526020015f205f6101000a81548160ff0219169083151502179055505f616e3983614e82565b90505f8160030160089054906101000a900467ffffffffffffffff1667ffffffffffffffff1603616e9f576040517f08c379a0000000000000000000000000000000000000000000000000000000008152600401616e969061a059565b60405180910390fd5b5f8160030160189054906101000a900467ffffffffffffffff169050600181616ec8919061a1a4565b8260030160186101000a81548167ffffffffffffffff021916908367ffffffffffffffff1602179055505f67ffffffffffffffff168467ffffffffffffffff161115616fc6575f616f2f836003015f9054906101000a900467ffffffffffffffff16614e82565b9050806004015f81819054906101000a900467ffffffffffffffff1680929190616f589061a7d1565b91906101000a81548167ffffffffffffffff021916908367ffffffffffffffff160217905550505f8267ffffffffffffffff1603616fc457616fc360655f9054906101000a900467ffffffffffffffff1643616fb4919061a1a4565b82617e3e90919063ffffffff16565b5b505b50505050565b5f6078805490509050607883908060018154018082558091505060019003905f5260205f20015f9091909190916101000a81548173ffffffffffffffffffffffffffffffffffffffff021916908373ffffffffffffffffffffffffffffffffffffffff1602179055506040518060a001604052808381526020018267ffffffffffffffff16815260200160755f9054906101000a900467ffffffffffffffff1667ffffffffffffffff1681526020015f67ffffffffffffffff1681526020016001151581525060795f8573ffffffffffffffffffffffffffffffffffffffff1673ffffffffffffffffffffffffffffffffffffffff1681526020019081526020015f205f820151815f01556020820151816001015f6101000a81548167ffffffffffffffff021916908367ffffffffffffffff16021790555060408201518160010160086101000a81548167ffffffffffffffff021916908367ffffffffffffffff16021790555060608201518160010160106101000a81548167ffffffffffffffff021916908367ffffffffffffffff16021790555060808201518160010160186101000a81548160ff021916908315150217905550905050600160775f60755f9054906101000a900467ffffffffffffffff1667ffffffffffffffff1667ffffffffffffffff1681526020019081526020015f205f8573ffffffffffffffffffffffffffffffffffffffff1673ffffffffffffffffffffffffffffffffffffffff1681526020019081526020015f205f6101000a81548160ff02191690831515021790555043607560186101000a81548167ffffffffffffffff021916908367ffffffffffffffff1602179055508273ffffffffffffffffffffffffffffffffffffffff167febd093d389ab57f3566918d2c379a2b4d9539e8eb95efad9d5e465457833fde65f8460405161728492919061b13a565b60405180910390a2505050565b5f6172ad835f018036038101906172a89190619426565b617918565b828460800160208101906172c191906191c2565b6040516020016172d39392919061b195565b60405160208183030381529060405280519060200120905092915050565b5f816020015160016002811061730a576173096198e1565b5b60200201519050919050565b5f61731f61800f565b825f015160200151815f6002811061733a576173396198e1565b5b6020020190600381111561735157617350619172565b5b9081600381111561736557617364619172565b5b8152505082602001516020015181600160028110617386576173856198e1565b5b6020020190600381111561739d5761739c619172565b5b908160038111156173b1576173b0619172565b5b815250506173bd618031565b835f01515f0151815f600281106173d7576173d66198e1565b5b602002018190525083602001515f0151816001600281106173fb576173fa6198e1565b5b6020020181905250617412828286604001516160d8565b92505050919050565b5f8086617428575f61742b565b60015b9050808686868660405160200161744695949392919061b1f4565b6040516020818303038152906040528051906020012091505095945050505050565b5f61749161747c83602001515f0151617e6d565b61748c84602001515f0151617e90565b6178e6565b9050919050565b6174a0617eb4565b6174a8617eb4565b87815f018181525050868160200181815250508581604001818152505084816060019067ffffffffffffffff16908167ffffffffffffffff168152505083816080019067ffffffffffffffff16908167ffffffffffffffff1681525050838160a0019067ffffffffffffffff16908167ffffffffffffffff16815250504381610140019067ffffffffffffffff16908167ffffffffffffffff16815250508281610160018181525050809150509695505050505050565b5f8260040160089054906101000a900467ffffffffffffffff1667ffffffffffffffff16036175b457438260040160086101000a81548167ffffffffffffffff021916908367ffffffffffffffff1602179055505b808260040160106101000a81548167ffffffffffffffff021916908367ffffffffffffffff1602179055505050565b6075601081819054906101000a900467ffffffffffffffff16809291906176099061a7d1565b91906101000a81548167ffffffffffffffff021916908367ffffffffffffffff160217905550508060765f607560109054906101000a900467ffffffffffffffff1667ffffffffffffffff1667ffffffffffffffff1681526020019081526020015f205f820151815f015560208201518160010155604082015181600201556060820151816003015f6101000a81548167ffffffffffffffff021916908367ffffffffffffffff16021790555060808201518160030160086101000a81548167ffffffffffffffff021916908367ffffffffffffffff16021790555060a08201518160030160106101000a81548167ffffffffffffffff021916908367ffffffffffffffff16021790555060c08201518160030160186101000a81548167ffffffffffffffff021916908367ffffffffffffffff16021790555060e0820151816004015f6101000a81548167ffffffffffffffff021916908367ffffffffffffffff1602179055506101008201518160040160086101000a81548167ffffffffffffffff021916908367ffffffffffffffff1602179055506101208201518160040160106101000a81548167ffffffffffffffff021916908367ffffffffffffffff1602179055506101408201518160040160186101000a81548167ffffffffffffffff021916908367ffffffffffffffff16021790555061016082015181600501559050507f0000000000000000000000000000000000000000000000000000000000000000156178e357606473ffffffffffffffffffffffffffffffffffffffff1663a3b1b31d6040518163ffffffff1660e01b8152600401602060405180830381865afa15801561787f573d5f803e3d5ffd5b505050506040513d601f19601f820116820180604052508101906178a3919061a66e565b607f5f607560109054906101000a900467ffffffffffffffff1667ffffffffffffffff1667ffffffffffffffff1681526020019081526020015f20819055505b50565b5f82826040516020016178fa92919061b252565b60405160208183030381529060405280519060200120905092915050565b5f815f01515f6002811061792f5761792e6198e1565b5b6020020151825f015160016002811061794b5761794a6198e1565b5b602002015183602001515f60028110617967576179666198e1565b5b60200201518460200151600160028110617984576179836198e1565b5b602002015160405160200161799c949392919061b305565b604051602081830303815290604052805190602001209050919050565b5f600160038111156179ce576179cd619172565b5b8360038111156179e1576179e0619172565b5b03617a1457816040516020016179f7919061b3a7565b604051602081830303815290604052805190602001209050617b00565b60026003811115617a2857617a27619172565b5b836003811115617a3b57617a3a619172565b5b03617a6e5781604051602001617a51919061b416565b604051602081830303815290604052805190602001209050617b00565b600380811115617a8157617a80619172565b5b836003811115617a9457617a93619172565b5b03617ac557604051602001617aa89061b485565b604051602081830303815290604052805190602001209050617b00565b6040517f08c379a0000000000000000000000000000000000000000000000000000000008152600401617af79061b4e3565b60405180910390fd5b92915050565b5f838383604051602001617b1c9392919061b5b2565b6040516020818303038152906040528051906020012090509392505050565b5f60795f8373ffffffffffffffffffffffffffffffffffffffff1673ffffffffffffffffffffffffffffffffffffffff1681526020019081526020015f2090508060010160189054906101000a900460ff16617bcc576040517f08c379a0000000000000000000000000000000000000000000000000000000008152600401617bc390618d28565b60405180910390fd5b5f816001015f9054906101000a900467ffffffffffffffff16905060786001607880549050617bfb91906190d7565b81548110617c0c57617c0b6198e1565b5b905f5260205f20015f9054906101000a900473ffffffffffffffffffffffffffffffffffffffff1660788267ffffffffffffffff1681548110617c5257617c516198e1565b5b905f5260205f20015f6101000a81548173ffffffffffffffffffffffffffffffffffffffff021916908373ffffffffffffffffffffffffffffffffffffffff1602179055508060795f60788467ffffffffffffffff1681548110617cb957617cb86198e1565b5b905f5260205f20015f9054906101000a900473ffffffffffffffffffffffffffffffffffffffff1673ffffffffffffffffffffffffffffffffffffffff1673ffffffffffffffffffffffffffffffffffffffff1681526020019081526020015f206001015f6101000a81548167ffffffffffffffff021916908367ffffffffffffffff1602179055506078805480617d5457617d5361b10d565b5b600190038181905f5260205f20015f6101000a81549073ffffffffffffffffffffffffffffffffffffffff0219169055905560795f8473ffffffffffffffffffffffffffffffffffffffff1673ffffffffffffffffffffffffffffffffffffffff1681526020019081526020015f205f8082015f9055600182015f6101000a81549067ffffffffffffffff02191690556001820160086101000a81549067ffffffffffffffff02191690556001820160106101000a81549067ffffffffffffffff02191690556001820160186101000a81549060ff02191690555050505050565b5f819050919050565b808260030160106101000a81548167ffffffffffffffff021916908367ffffffffffffffff1602179055505050565b5f815f01515f60028110617e8457617e836198e1565b5b60200201519050919050565b5f815f0151600160028110617ea857617ea76198e1565b5b60200201519050919050565b6040518061018001604052805f80191681526020015f80191681526020015f80191681526020015f67ffffffffffffffff1681526020015f67ffffffffffffffff1681526020015f67ffffffffffffffff1681526020015f67ffffffffffffffff1681526020015f67ffffffffffffffff1681526020015f67ffffffffffffffff1681526020015f67ffffffffffffffff1681526020015f67ffffffffffffffff1681526020015f80191681525090565b6040518060a001604052805f81526020015f67ffffffffffffffff1681526020015f67ffffffffffffffff1681526020015f67ffffffffffffffff1681526020015f151581525090565b6040518061010001604052805f8152602001617fc9617eb4565b81526020015f8019168152602001617fdf617eb4565b81526020015f80191681526020015f151581526020015f67ffffffffffffffff1681526020015f80191681525090565b6040518060400160405280600290602082028036833780820191505090505090565b60405180604001604052806002905b61804861805e565b8152602001906001900390816180405790505090565b6040518060400160405280618071618084565b815260200161807e6180a6565b81525090565b6040518060400160405280600290602082028036833780820191505090505090565b6040518060400160405280600290602082028036833780820191505090505090565b5f73ffffffffffffffffffffffffffffffffffffffff82169050919050565b5f6180f1826180c8565b9050919050565b618101816180e7565b82525050565b5f60208201905061811a5f8301846180f8565b92915050565b5f819050919050565b5f61814361813e618139846180c8565b618120565b6180c8565b9050919050565b5f61815482618129565b9050919050565b5f6181658261814a565b9050919050565b6181758161815b565b82525050565b5f60208201905061818e5f83018461816c565b92915050565b5f604051905090565b5f80fd5b5f819050919050565b6181b3816181a1565b81146181bd575f80fd5b50565b5f813590506181ce816181aa565b92915050565b6181dd816180e7565b81146181e7575f80fd5b50565b5f813590506181f8816181d4565b92915050565b5f805f606084860312156182155761821461819d565b5b5f618222868287016181c0565b9350506020618233868287016181ea565b9250506040618244868287016181ea565b9150509250925092565b5f8115159050919050565b6182628161824e565b82525050565b5f60208201905061827b5f830184618259565b92915050565b5f67ffffffffffffffff82169050919050565b61829d81618281565b81146182a7575f80fd5b50565b5f813590506182b881618294565b92915050565b5f819050919050565b6182d0816182be565b81146182da575f80fd5b50565b5f813590506182eb816182c7565b92915050565b5f80604083850312156183075761830661819d565b5b5f618314858286016182aa565b9250506020618325858286016182dd565b9150509250929050565b618338816181a1565b82525050565b5f6020820190506183515f83018461832f565b92915050565b5f6020828403121561836c5761836b61819d565b5b5f618379848285016181c0565b91505092915050565b61838b81618281565b82525050565b5f6020820190506183a45f830184618382565b92915050565b5f602082840312156183bf576183be61819d565b5b5f6183cc848285016181ea565b91505092915050565b5f80fd5b5f61016082840312156183ef576183ee6183d5565b5b81905092915050565b5f805f6101a084860312156184105761840f61819d565b5b5f61841d868287016183d9565b93505061016061842f868287016182dd565b925050610180618441868287016181c0565b9150509250925092565b618454816182be565b82525050565b5f60208201905061846d5f83018461844b565b92915050565b5f602082840312156184885761848761819d565b5b5f618495848285016182aa565b91505092915050565b5f80604083850312156184b4576184b361819d565b5b5f6184c1858286016182dd565b92505060206184d2858286016182dd565b9150509250929050565b5f80fd5b5f819050826020600202820111156184fb576184fa6184dc565b5b92915050565b5f8190508260206002028201111561851c5761851b6184dc565b5b92915050565b5f8190508260206002028201111561853d5761853c6184dc565b5b92915050565b5f8190508260806002028201111561855e5761855d6184dc565b5b92915050565b5f8190508260206002028201111561857f5761857e6184dc565b5b92915050565b5f819050826020600202820111156185a05761859f6184dc565b5b92915050565b5f805f805f805f80610280898b0312156185c3576185c261819d565b5b5f6185d08b828c016184e0565b98505060406185e18b828c01618501565b97505060806185f28b828c01618522565b96505060c06186038b828c01618543565b9550506101c06186158b828c016182aa565b9450506101e06186278b828c016182dd565b9350506102006186398b828c01618564565b92505061024061864b8b828c01618585565b9150509295985092959890939650565b5f80604083850312156186715761867061819d565b5b5f61867e858286016181c0565b925050602061868f858286016181c0565b9150509250929050565b6186a2816182be565b82525050565b6186b181618281565b82525050565b61018082015f8201516186cc5f850182618699565b5060208201516186df6020850182618699565b5060408201516186f26040850182618699565b50606082015161870560608501826186a8565b50608082015161871860808501826186a8565b5060a082015161872b60a08501826186a8565b5060c082015161873e60c08501826186a8565b5060e082015161875160e08501826186a8565b506101008201516187666101008501826186a8565b5061012082015161877b6101208501826186a8565b506101408201516187906101408501826186a8565b506101608201516187a5610160850182618699565b50505050565b5f610180820190506187bf5f8301846186b7565b92915050565b6187ce816181a1565b82525050565b6187dd8161824e565b82525050565b60a082015f8201516187f75f8501826187c5565b50602082015161880a60208501826186a8565b50604082015161881d60408501826186a8565b50606082015161883060608501826186a8565b50608082015161884360808501826187d4565b50505050565b5f60a08201905061885c5f8301846187e3565b92915050565b5f61886c8261814a565b9050919050565b61887c81618862565b82525050565b5f6020820190506188955f830184618873565b92915050565b5f80604083850312156188b1576188b061819d565b5b5f6188be858286016182aa565b92505060206188cf858286016181ea565b9150509250929050565b5f805f606084860312156188f0576188ef61819d565b5b5f6188fd868287016181c0565b935050602061890e868287016182aa565b925050604061891f868287016182aa565b9150509250925092565b5f6189338261814a565b9050919050565b61894381618929565b82525050565b5f60208201905061895c5f83018461893a565b92915050565b5f61896c8261814a565b9050919050565b61897c81618962565b82525050565b5f6020820190506189955f830184618973565b92915050565b5f60a0820190506189ae5f83018861832f565b6189bb6020830187618382565b6189c86040830186618382565b6189d56060830185618382565b6189e26080830184618259565b9695505050505050565b5f6189f68261814a565b9050919050565b618a06816189ec565b82525050565b5f602082019050618a1f5f8301846189fd565b92915050565b5f618a2f8261814a565b9050919050565b618a3f81618a25565b82525050565b5f602082019050618a585f830184618a36565b92915050565b5f82825260208201905092915050565b7f5061757361626c653a20706175736564000000000000000000000000000000005f82015250565b5f618aa2601083618a5e565b9150618aad82618a6e565b602082019050919050565b5f6020820190508181035f830152618acf81618a96565b9050919050565b7f57524f4e475f53454e44455200000000000000000000000000000000000000005f82015250565b5f618b0a600c83618a5e565b9150618b1582618ad6565b602082019050919050565b5f6020820190508181035f830152618b3781618afe565b9050919050565b7f4e4f545f494e5f4348414c0000000000000000000000000000000000000000005f82015250565b5f618b72600b83618a5e565b9150618b7d82618b3e565b602082019050919050565b5f6020820190508181035f830152618b9f81618b66565b9050919050565b7f57484954454c4953545f44495341424c454400000000000000000000000000005f82015250565b5f618bda601283618a5e565b9150618be582618ba6565b602082019050919050565b5f6020820190508181035f830152618c0781618bce565b9050919050565b7f56414c494441544f525f4e4f545f41464b0000000000000000000000000000005f82015250565b5f618c42601183618a5e565b9150618c4d82618c0e565b602082019050919050565b5f6020820190508181035f830152618c6f81618c36565b9050919050565b7f4e4f545f56414c494441544f52000000000000000000000000000000000000005f82015250565b5f618caa600d83618a5e565b9150618cb582618c76565b602082019050919050565b5f6020820190508181035f830152618cd781618c9e565b9050919050565b7f4e4f545f5354414b4544000000000000000000000000000000000000000000005f82015250565b5f618d12600a83618a5e565b9150618d1d82618cde565b602082019050919050565b5f6020820190508181035f830152618d3f81618d06565b9050919050565b7f4e4f44455f4e554d5f4f55545f4f465f52414e474500000000000000000000005f82015250565b5f618d7a601583618a5e565b9150618d8582618d46565b602082019050919050565b5f6020820190508181035f830152618da781618d6e565b9050919050565b7f4e4f44455f52454f5247000000000000000000000000000000000000000000005f82015250565b5f618de2600a83618a5e565b9150618ded82618dae565b602082019050919050565b5f6020820190508181035f830152618e0f81618dd6565b9050919050565b7f4e4f545f5354414b45445f5052455600000000000000000000000000000000005f82015250565b5f618e4a600f83618a5e565b9150618e5582618e16565b602082019050919050565b5f6020820190508181035f830152618e7781618e3e565b9050919050565b5f618e88826180e7565b9050919050565b618e9881618e7e565b8114618ea2575f80fd5b50565b5f81519050618eb381618e8f565b92915050565b5f60208284031215618ece57618ecd61819d565b5b5f618edb84828501618ea5565b91505092915050565b7f5041555345445f414e445f4143544956450000000000000000000000000000005f82015250565b5f618f18601183618a5e565b9150618f2382618ee4565b602082019050919050565b5f6020820190508181035f830152618f4581618f0c565b9050919050565b7f414c52454144595f4445434944454400000000000000000000000000000000005f82015250565b5f618f80600f83618a5e565b9150618f8b82618f4c565b602082019050919050565b5f6020820190508181035f830152618fad81618f74565b9050919050565b7f444f45534e545f455849535400000000000000000000000000000000000000005f82015250565b5f618fe8600c83618a5e565b9150618ff382618fb4565b602082019050919050565b5f6020820190508181035f83015261901581618fdc565b9050919050565b7f555550534e6f745570677261646561626c653a206d757374206e6f74206265205f8201527f63616c6c6564207468726f7567682064656c656761746563616c6c0000000000602082015250565b5f619076603b83618a5e565b91506190818261901c565b604082019050919050565b5f6020820190508181035f8301526190a38161906a565b9050919050565b7f4e487b71000000000000000000000000000000000000000000000000000000005f52601160045260245ffd5b5f6190e1826181a1565b91506190ec836181a1565b9250828203905081811115619104576191036190aa565b5b92915050565b7f54494d455f44454c5441000000000000000000000000000000000000000000005f82015250565b5f61913e600a83618a5e565b91506191498261910a565b602082019050919050565b5f6020820190508181035f83015261916b81619132565b9050919050565b7f4e487b71000000000000000000000000000000000000000000000000000000005f52602160045260245ffd5b600481106191ab575f80fd5b50565b5f813590506191bc8161919f565b92915050565b5f602082840312156191d7576191d661819d565b5b5f6191e4848285016191ae565b91505092915050565b5f80fd5b5f601f19601f8301169050919050565b7f4e487b71000000000000000000000000000000000000000000000000000000005f52604160045260245ffd5b619237826191f1565b810181811067ffffffffffffffff8211171561925657619255619201565b5b80604052505050565b5f619268618194565b9050619274828261922e565b919050565b5f80fd5b5f67ffffffffffffffff82111561929757619296619201565b5b602082029050919050565b5f6192b46192af8461927d565b61925f565b905080602084028301858111156192ce576192cd6184dc565b5b835b818110156192f757806192e388826182dd565b8452602084019350506020810190506192d0565b5050509392505050565b5f82601f83011261931557619314619279565b5b60026193228482856192a2565b91505092915050565b5f67ffffffffffffffff82111561934557619344619201565b5b602082029050919050565b5f61936261935d8461932b565b61925f565b9050806020840283018581111561937c5761937b6184dc565b5b835b818110156193a5578061939188826182aa565b84526020840193505060208101905061937e565b5050509392505050565b5f82601f8301126193c3576193c2619279565b5b60026193d0848285619350565b91505092915050565b5f608082840312156193ee576193ed6191ed565b5b6193f8604061925f565b90505f61940784828501619301565b5f83015250604061941a848285016193af565b60208301525092915050565b5f6080828403121561943b5761943a61819d565b5b5f619448848285016193d9565b91505092915050565b7f544f4f5f534d414c4c00000000000000000000000000000000000000000000005f82015250565b5f619485600983618a5e565b915061949082619451565b602082019050919050565b5f6020820190508181035f8301526194b281619479565b9050919050565b7f454d5054595f415353455254494f4e00000000000000000000000000000000005f82015250565b5f6194ed600f83618a5e565b91506194f8826194b9565b602082019050919050565b5f6020820190508181035f83015261951a816194e1565b9050919050565b7f4241445f505245565f53544154555300000000000000000000000000000000005f82015250565b5f619555600f83618a5e565b915061956082619521565b602082019050919050565b5f6020820190508181035f83015261958281619549565b9050919050565b5f619593826181a1565b91507fffffffffffffffffffffffffffffffffffffffffffffffffffffffffffffffff82036195c5576195c46190aa565b5b600182019050919050565b7f4e487b71000000000000000000000000000000000000000000000000000000005f52600160045260245ffd5b7f4e4f5f5354414b455253000000000000000000000000000000000000000000005f82015250565b5f619631600a83618a5e565b915061963c826195fd565b602082019050919050565b5f6020820190508181035f83015261965e81619625565b9050919050565b5f61966f826181a1565b915061967a836181a1565b9250828201905080821115619692576196916190aa565b5b92915050565b7f4e4f545f414c4c5f5354414b45440000000000000000000000000000000000005f82015250565b5f6196cc600e83618a5e565b91506196d782619698565b602082019050919050565b5f6020820190508181035f8301526196f9816196c0565b9050919050565b5f81905092915050565b50565b5f6197185f83619700565b91506197238261970a565b5f82019050919050565b5f6197378261970d565b9150819050919050565b7f5452414e534645525f4641494c454400000000000000000000000000000000005f82015250565b5f619775600f83618a5e565b915061978082619741565b602082019050919050565b5f6020820190508181035f8301526197a281619769565b9050919050565b7f4e4f5f554e5245534f4c564544000000000000000000000000000000000000005f82015250565b5f6197dd600d83618a5e565b91506197e8826197a9565b602082019050919050565b5f6020820190508181035f83015261980a816197d1565b9050919050565b7f5354414b45445f4f4e5f544152474554000000000000000000000000000000005f82015250565b5f619845601083618a5e565b915061985082619811565b602082019050919050565b5f6020820190508181035f83015261987281619839565b9050919050565b7f4841535f5354414b4552530000000000000000000000000000000000000000005f82015250565b5f6198ad600b83618a5e565b91506198b882619879565b602082019050919050565b5f6020820190508181035f8301526198da816198a1565b9050919050565b7f4e487b71000000000000000000000000000000000000000000000000000000005f52603260045260245ffd5b7f57524f4e475f4f524445520000000000000000000000000000000000000000005f82015250565b5f619942600b83618a5e565b915061994d8261990e565b602082019050919050565b5f6020820190508181035f83015261996f81619936565b9050919050565b7f4e4f545f50524f504f53454400000000000000000000000000000000000000005f82015250565b5f6199aa600c83618a5e565b91506199b582619976565b602082019050919050565b5f6020820190508181035f8301526199d78161999e565b9050919050565b7f414c52454144595f434f4e4649524d45440000000000000000000000000000005f82015250565b5f619a12601183618a5e565b9150619a1d826199de565b602082019050919050565b5f6020820190508181035f830152619a3f81619a06565b9050919050565b7f444946465f5052455600000000000000000000000000000000000000000000005f82015250565b5f619a7a600983618a5e565b9150619a8582619a46565b602082019050919050565b5f6020820190508181035f830152619aa781619a6e565b9050919050565b7f5354414b4552315f4e4f545f5354414b454400000000000000000000000000005f82015250565b5f619ae2601283618a5e565b9150619aed82619aae565b602082019050919050565b5f6020820190508181035f830152619b0f81619ad6565b9050919050565b7f5354414b4552325f4e4f545f5354414b454400000000000000000000000000005f82015250565b5f619b4a601283618a5e565b9150619b5582619b16565b602082019050919050565b5f6020820190508181035f830152619b7781619b3e565b9050919050565b7f4348414c5f4841534831000000000000000000000000000000000000000000005f82015250565b5f619bb2600a83618a5e565b9150619bbd82619b7e565b602082019050919050565b5f6020820190508181035f830152619bdf81619ba6565b9050919050565b7f4348414c5f4841534832000000000000000000000000000000000000000000005f82015250565b5f619c1a600a83618a5e565b9150619c2582619be6565b602082019050919050565b5f6020820190508181035f830152619c4781619c0e565b9050919050565b5f619c58826181a1565b9150619c63836181a1565b9250828202619c71816181a1565b91508282048414831517619c8857619c876190aa565b5b5092915050565b5f606082019050619ca25f8301866180f8565b619caf60208301856180f8565b619cbc6040830184618382565b949350505050565b7f544f4f5f524543454e54000000000000000000000000000000000000000000005f82015250565b5f619cf8600a83618a5e565b9150619d0382619cc4565b602082019050919050565b5f6020820190508181035f830152619d2581619cec565b9050919050565b7f4e4f5f535543485f5a4f4d4249450000000000000000000000000000000000005f82015250565b5f619d60600e83618a5e565b9150619d6b82619d2c565b602082019050919050565b5f6020820190508181035f830152619d8d81619d54565b9050919050565b7f434841494e5f49445f4e4f545f4348414e4745440000000000000000000000005f82015250565b5f619dc8601483618a5e565b9150619dd382619d94565b602082019050919050565b5f6020820190508181035f830152619df581619dbc565b9050919050565b7f46756e6374696f6e206d7573742062652063616c6c6564207468726f756768205f8201527f64656c656761746563616c6c0000000000000000000000000000000000000000602082015250565b5f619e56602c83618a5e565b9150619e6182619dfc565b604082019050919050565b5f6020820190508181035f830152619e8381619e4a565b9050919050565b7f46756e6374696f6e206d7573742062652063616c6c6564207468726f756768205f8201527f6163746976652070726f78790000000000000000000000000000000000000000602082015250565b5f619ee4602c83618a5e565b9150619eef82619e8a565b604082019050919050565b5f6020820190508181035f830152619f1181619ed8565b9050919050565b7f4e4f5f544f4b454e5f414c4c4f574544000000000000000000000000000000005f82015250565b5f619f4c601083618a5e565b9150619f5782619f18565b602082019050919050565b5f6020820190508181035f830152619f7981619f40565b9050919050565b7f46414345545f4e4f545f455243323000000000000000000000000000000000005f82015250565b5f619fb4600f83618a5e565b9150619fbf82619f80565b602082019050919050565b5f6020820190508181035f830152619fe181619fa8565b9050919050565b5f619ff2826181a1565b91505f820361a0045761a0036190aa565b5b600182039050919050565b7f4e4f5f4e4f4445000000000000000000000000000000000000000000000000005f82015250565b5f61a043600783618a5e565b915061a04e8261a00f565b602082019050919050565b5f6020820190508181035f83015261a0708161a037565b9050919050565b7f4e4f5f4348414c000000000000000000000000000000000000000000000000005f82015250565b5f61a0ab600783618a5e565b915061a0b68261a077565b602082019050919050565b5f6020820190508181035f83015261a0d88161a09f565b9050919050565b7f444946465f494e5f4348414c00000000000000000000000000000000000000005f82015250565b5f61a113600c83618a5e565b915061a11e8261a0df565b602082019050919050565b5f6020820190508181035f83015261a1408161a107565b9050919050565b7f4e487b71000000000000000000000000000000000000000000000000000000005f52601260045260245ffd5b5f61a17e826181a1565b915061a189836181a1565b92508261a1995761a19861a147565b5b828204905092915050565b5f61a1ae82618281565b915061a1b983618281565b9250828201905067ffffffffffffffff81111561a1d95761a1d86190aa565b5b92915050565b7f494e5f4348414c000000000000000000000000000000000000000000000000005f82015250565b5f61a213600783618a5e565b915061a21e8261a1df565b602082019050919050565b5f6020820190508181035f83015261a2408161a207565b9050919050565b7f544f4f5f4c4954544c455f5354414b45000000000000000000000000000000005f82015250565b5f61a27b601083618a5e565b915061a2868261a247565b602082019050919050565b5f6020820190508181035f83015261a2a88161a26f565b9050919050565b5f60408201905061a2c25f83018561832f565b61a2cf602083018461832f565b9392505050565b7f414c52454144595f5354414b45440000000000000000000000000000000000005f82015250565b5f61a30a600e83618a5e565b915061a3158261a2d6565b602082019050919050565b5f6020820190508181035f83015261a3378161a2fe565b9050919050565b7f5354414b45525f49535f5a4f4d424945000000000000000000000000000000005f82015250565b5f61a372601083618a5e565b915061a37d8261a33e565b602082019050919050565b5f6020820190508181035f83015261a39f8161a366565b9050919050565b7f4e4f545f454e4f5547485f5354414b45000000000000000000000000000000005f82015250565b5f61a3da601083618a5e565b915061a3e58261a3a6565b602082019050919050565b5f6020820190508181035f83015261a4078161a3ce565b9050919050565b5f61a41882618281565b915061a42383618281565b9250828203905067ffffffffffffffff81111561a4435761a4426190aa565b5b92915050565b5f8160011c9050919050565b5f808291508390505b600185111561a49e5780860481111561a47a5761a4796190aa565b5b600185161561a4895780820291505b808102905061a4978561a449565b945061a45e565b94509492505050565b5f8261a4b6576001905061a571565b8161a4c3575f905061a571565b816001811461a4d9576002811461a4e35761a512565b600191505061a571565b60ff84111561a4f55761a4f46190aa565b5b8360020a91508482111561a50c5761a50b6190aa565b5b5061a571565b5060208310610133831016604e8410600b841016171561a5475782820a90508381111561a5425761a5416190aa565b5b61a571565b61a554848484600161a455565b9250905081840481111561a56b5761a56a6190aa565b5b81810290505b9392505050565b5f61a582826181a1565b915061a58d836181a1565b925061a5ba7fffffffffffffffffffffffffffffffffffffffffffffffffffffffffffffffff848461a4a7565b905092915050565b5f61a5cc826181a1565b915061a5d7836181a1565b92508261a5e75761a5e661a147565b5b828206905092915050565b7f4241445f41465445525f535441545553000000000000000000000000000000005f82015250565b5f61a626601083618a5e565b915061a6318261a5f2565b602082019050919050565b5f6020820190508181035f83015261a6538161a61a565b9050919050565b5f8151905061a668816181aa565b92915050565b5f6020828403121561a6835761a68261819d565b5b5f61a6908482850161a65a565b91505092915050565b7f505245565f53544154455f4841534800000000000000000000000000000000005f82015250565b5f61a6cd600f83618a5e565b915061a6d88261a699565b602082019050919050565b5f6020820190508181035f83015261a6fa8161a6c1565b9050919050565b7f494e424f585f4241434b574152445300000000000000000000000000000000005f82015250565b5f61a735600f83618a5e565b915061a7408261a701565b602082019050919050565b5f6020820190508181035f83015261a7628161a729565b9050919050565b7f494e424f585f504f535f494e5f4d53475f4241434b57415244530000000000005f82015250565b5f61a79d601a83618a5e565b915061a7a88261a769565b602082019050919050565b5f6020820190508181035f83015261a7ca8161a791565b9050919050565b5f61a7db82618281565b915067ffffffffffffffff820361a7f55761a7f46190aa565b5b600182019050919050565b7f494e424f585f504153545f454e440000000000000000000000000000000000005f82015250565b5f61a834600e83618a5e565b915061a83f8261a800565b602082019050919050565b5f6020820190508181035f83015261a8618161a828565b9050919050565b5f61a88261a87d61a87884618281565b618120565b6181a1565b9050919050565b61a8928161a868565b82525050565b5f60208201905061a8ab5f83018461a889565b92915050565b5f8151905061a8bf816182c7565b92915050565b5f6020828403121561a8da5761a8d961819d565b5b5f61a8e78482850161a8b1565b91505092915050565b5f60a0828403121561a9055761a9046191ed565b5b61a90f604061925f565b90505f61a91e848285016193d9565b5f83015250608061a931848285016191ae565b60208301525092915050565b5f610160828403121561a9535761a9526191ed565b5b61a95d606061925f565b90505f61a96c8482850161a8f0565b5f8301525060a061a97f8482850161a8f0565b60208301525061014061a994848285016182aa565b60408301525092915050565b5f610160828403121561a9b65761a9b561819d565b5b5f61a9c38482850161a93d565b91505092915050565b7f554e45585045435445445f4e4f44455f484153480000000000000000000000005f82015250565b5f61aa00601483618a5e565b915061aa0b8261a9cc565b602082019050919050565b5f6020820190508181035f83015261aa2d8161a9f4565b9050919050565b5f82905092915050565b5f82905092915050565b5f82905092915050565b82818337505050565b61aa676040838361aa52565b5050565b5f82905092915050565b5f60029050919050565b5f81905092915050565b5f819050919050565b5f61aa9d83836186a8565b60208301905092915050565b5f61aab760208401846182aa565b905092915050565b5f602082019050919050565b61aad48161aa75565b61aade818461aa7f565b925061aae98261aa89565b805f5b8381101561ab215761aafe828461aaa9565b61ab08878261aa92565b965061ab138361aabf565b92505060018101905061aaec565b505050505050565b6080820161ab395f83018361aa48565b61ab455f85018261aa5b565b5061ab53604083018361aa6b565b61ab60604085018261aacb565b50505050565b5f61ab7460208401846191ae565b905092915050565b6004811061ab8d5761ab8c619172565b5b50565b5f81905061ab9d8261ab7c565b919050565b5f61abac8261ab90565b9050919050565b61abbc8161aba2565b82525050565b60a0820161abd25f83018361aa3e565b61abde5f85018261ab29565b5061abec608083018361ab66565b61abf9608085018261abb3565b50505050565b610160820161ac105f83018361aa34565b61ac1c5f85018261abc2565b5061ac2a60a083018361aa34565b61ac3760a085018261abc2565b5061ac4661014083018361aaa9565b61ac546101408501826186a8565b50505050565b5f6101e08201905061ac6e5f83018861844b565b61ac7b602083018761abff565b61ac8961018083018661844b565b61ac976101a083018561844b565b61aca56101c083018461832f565b9695505050505050565b7f4245464f52455f444541444c494e4500000000000000000000000000000000005f82015250565b5f61ace3600f83618a5e565b915061acee8261acaf565b602082019050919050565b5f6020820190508181035f83015261ad108161acd7565b9050919050565b7f4348494c445f544f4f5f524543454e54000000000000000000000000000000005f82015250565b5f61ad4b601083618a5e565b915061ad568261ad17565b602082019050919050565b5f6020820190508181035f83015261ad788161ad3f565b9050919050565b7f434f4e4649524d5f4441544100000000000000000000000000000000000000005f82015250565b5f61adb3600c83618a5e565b915061adbe8261ad7f565b602082019050919050565b5f6020820190508181035f83015261ade08161ada7565b9050919050565b5f60408201905061adfa5f83018561844b565b61ae07602083018461844b565b9392505050565b5f819050919050565b5f61ae3161ae2c61ae278461ae0e565b618120565b6181a1565b9050919050565b61ae418161ae17565b82525050565b5f60408201905061ae5a5f83018561832f565b61ae67602083018461ae38565b9392505050565b5f819050919050565b61ae8861ae83826182be565b61ae6e565b82525050565b5f819050919050565b61aea861aea3826181a1565b61ae8e565b82525050565b5f61aeb9828661ae77565b60208201915061aec9828561ae97565b60208201915061aed9828461ae77565b602082019150819050949350505050565b5f60029050919050565b5f81905092915050565b5f819050919050565b5f61af12838361abb3565b60208301905092915050565b5f602082019050919050565b61af338161aeea565b61af3d818461aef4565b925061af488261aefe565b805f5b8381101561af805761af5d828461ab66565b61af67878261af07565b965061af728361af1e565b92505060018101905061af4b565b505050505050565b5f60029050919050565b5f81905092915050565b5f819050919050565b5f61afb0838361ab29565b60808301905092915050565b5f608082019050919050565b61afd18161af88565b61afdb818461af92565b925061afe68261af9c565b805f5b8381101561b01e5761affb828461aa3e565b61b005878261afa5565b965061b0108361afbc565b92505060018101905061afe9565b505050505050565b5f6102008201905061b03a5f83018b61844b565b61b047602083018a61af2a565b61b054606083018961afc8565b61b062610160830188618382565b61b0706101808301876180f8565b61b07e6101a08301866180f8565b61b08c6101c083018561832f565b61b09a6101e083018461832f565b9998505050505050505050565b5f8151905061b0b581618294565b92915050565b5f6020828403121561b0d05761b0cf61819d565b5b5f61b0dd8482850161b0a7565b91505092915050565b5f61b0f082618281565b91505f820361b1025761b1016190aa565b5b600182039050919050565b7f4e487b71000000000000000000000000000000000000000000000000000000005f52603160045260245ffd5b5f60408201905061b14d5f83018561ae38565b61b15a602083018461832f565b9392505050565b5f8160f81b9050919050565b5f61b1778261b161565b9050919050565b61b18f61b18a8261aba2565b61b16d565b82525050565b5f61b1a0828661ae77565b60208201915061b1b0828561ae97565b60208201915061b1c0828461b17e565b600182019150819050949350505050565b5f60ff82169050919050565b61b1ee61b1e98261b1d1565b61b16d565b82525050565b5f61b1ff828861b1dd565b60018201915061b20f828761ae77565b60208201915061b21f828661ae77565b60208201915061b22f828561ae77565b60208201915061b23f828461ae77565b6020820191508190509695505050505050565b5f61b25d828561ae77565b60208201915061b26d828461ae77565b6020820191508190509392505050565b5f81905092915050565b7f476c6f62616c2073746174653a000000000000000000000000000000000000005f82015250565b5f61b2bb600d8361b27d565b915061b2c68261b287565b600d82019050919050565b5f8160c01b9050919050565b5f61b2e78261b2d1565b9050919050565b61b2ff61b2fa82618281565b61b2dd565b82525050565b5f61b30f8261b2af565b915061b31b828761ae77565b60208201915061b32b828661ae77565b60208201915061b33b828561b2ee565b60088201915061b34b828461b2ee565b60088201915081905095945050505050565b7f426c6f636b2073746174653a00000000000000000000000000000000000000005f82015250565b5f61b391600c8361b27d565b915061b39c8261b35d565b600c82019050919050565b5f61b3b18261b385565b915061b3bd828461ae77565b60208201915081905092915050565b7f426c6f636b2073746174652c206572726f7265643a00000000000000000000005f82015250565b5f61b40060158361b27d565b915061b40b8261b3cc565b601582019050919050565b5f61b4208261b3f4565b915061b42c828461ae77565b60208201915081905092915050565b7f426c6f636b2073746174652c20746f6f206661723a00000000000000000000005f82015250565b5f61b46f60158361b27d565b915061b47a8261b43b565b601582019050919050565b5f61b48f8261b463565b9150819050919050565b7f4241445f424c4f434b5f535441545553000000000000000000000000000000005f82015250565b5f61b4cd601083618a5e565b915061b4d88261b499565b602082019050919050565b5f6020820190508181035f83015261b4fa8161b4c1565b9050919050565b5f81519050919050565b5f81905092915050565b5f819050602082019050919050565b61b52d816182be565b82525050565b5f61b53e838361b524565b60208301905092915050565b5f602082019050919050565b5f61b5608261b501565b61b56a818561b50b565b935061b5758361b515565b805f5b8381101561b5a557815161b58c888261b533565b975061b5978361b54a565b92505060018101905061b578565b5085935050505092915050565b5f61b5bd828661ae97565b60208201915061b5cd828561ae97565b60208201915061b5dd828461b556565b915081905094935050505056fea2646970667358221220b75092d8b118ff138eee9e9a6e4851ad9ad4d794b1f653298d024c28647de56064736f6c634300081a0033",
  "linkReferences": {},
  "deployedLinkReferences": {}
}